{
	"data": {
		"bytecode": {
			"linkReferences": {
				"remix_accounts.sol": {
					"TestsAccounts": [
						{
							"length": 20,
							"start": 5406
						},
						{
							"length": 20,
							"start": 5587
						},
						{
							"length": 20,
							"start": 5769
						},
						{
							"length": 20,
							"start": 5980
						}
					]
				},
				"remix_tests.sol": {
					"Assert": [
						{
							"length": 20,
							"start": 996
						},
						{
							"length": 20,
							"start": 1560
						},
						{
							"length": 20,
							"start": 2153
						},
						{
							"length": 20,
							"start": 2912
						},
						{
							"length": 20,
							"start": 3507
						},
						{
							"length": 20,
							"start": 3630
						},
						{
							"length": 20,
							"start": 4511
						},
						{
							"length": 20,
							"start": 5269
						},
						{
							"length": 20,
							"start": 5953
						},
						{
							"length": 20,
							"start": 6192
						},
						{
							"length": 20,
							"start": 6604
						},
						{
							"length": 20,
							"start": 6726
						},
						{
							"length": 20,
							"start": 6848
						},
						{
							"length": 20,
							"start": 7557
						}
					]
				}
			},
			"object": "608060405234801561000f575f80fd5b50739d83e140330758a8ffd07f8bd73e86ebca8a56925f806101000a81548173ffffffffffffffffffffffffffffffffffffffff021916908373ffffffffffffffffffffffffffffffffffffffff160217905550613b74806100705f395ff3fe60806040526004361061009f575f3560e01c806345f172881161006357806345f172881461011257806355a7fa32146101285780637fea0d4b1461013e5780639074416d14610154578063ae1f4c301461015e578063ead16ab214610174576100a6565b80630622199d146100a85780630d1418a6146100be57806312065fe0146100c857806328733442146100f257806329448f37146100fc576100a6565b366100a657005b005b3480156100b3575f80fd5b506100bc61018a565b005b6100c6610486565b005b3480156100d3575f80fd5b506100dc610880565b6040516100e99190611db5565b60405180910390f35b6100fa610887565b005b348015610107575f80fd5b50610110610b77565b005b34801561011d575f80fd5b50610126610ed0565b005b348015610133575f80fd5b5061013c6111ac565b005b348015610149575f80fd5b506101526114ac565b005b61015c6116cf565b005b348015610169575f80fd5b5061017261183a565b005b34801561017f575f80fd5b50610188611b5e565b005b5f805f9054906101000a900473ffffffffffffffffffffffffffffffffffffffff1673ffffffffffffffffffffffffffffffffffffffff1663e5fc33506040518163ffffffff1660e01b8152600401602060405180830381865afa1580156101f4573d5f803e3d5ffd5b505050506040513d601f19601f820116820180604052508101906102189190611e09565b90505f805f9054906101000a900473ffffffffffffffffffffffffffffffffffffffff1673ffffffffffffffffffffffffffffffffffffffff1663f94c8e986040518163ffffffff1660e01b8152600401602060405180830381865afa158015610284573d5f803e3d5ffd5b505050506040513d601f19601f820116820180604052508101906102a89190611e09565b90505f82116102ec576040517f08c379a00000000000000000000000000000000000000000000000000000000081526004016102e390611e8e565b60405180910390fd5b5f8054906101000a900473ffffffffffffffffffffffffffffffffffffffff1673ffffffffffffffffffffffffffffffffffffffff1663b9a2de3a60016040518263ffffffff1660e01b81526004016103459190611eee565b5f604051808303815f87803b15801561035c575f80fd5b505af115801561036e573d5f803e3d5ffd5b5050505073__$acbfb1c35000d78352310b16a054a6b106$__63abcd79605f8054906101000a900473ffffffffffffffffffffffffffffffffffffffff1673ffffffffffffffffffffffffffffffffffffffff1663f94c8e986040518163ffffffff1660e01b8152600401602060405180830381865afa1580156103f4573d5f803e3d5ffd5b505050506040513d601f19601f820116820180604052508101906104189190611e09565b6001846104259190611f34565b6040518363ffffffff1660e01b8152600401610442929190611ff6565b602060405180830381865af415801561045d573d5f803e3d5ffd5b505050506040513d601f19601f820116820180604052508101906104819190612065565b505050565b5f805f9054906101000a900473ffffffffffffffffffffffffffffffffffffffff1673ffffffffffffffffffffffffffffffffffffffff1663e5fc33506040518163ffffffff1660e01b8152600401602060405180830381865afa1580156104f0573d5f803e3d5ffd5b505050506040513d601f19601f820116820180604052508101906105149190611e09565b90505f8054906101000a900473ffffffffffffffffffffffffffffffffffffffff1673ffffffffffffffffffffffffffffffffffffffff166307f52e01670de0b6b3a764000060056040518363ffffffff1660e01b815260040161057992919061222a565b5f604051808303815f87803b158015610590575f80fd5b505af11580156105a2573d5f803e3d5ffd5b5050505073__$acbfb1c35000d78352310b16a054a6b106$__63abcd79605f8054906101000a900473ffffffffffffffffffffffffffffffffffffffff1673ffffffffffffffffffffffffffffffffffffffff166312065fe06040518163ffffffff1660e01b8152600401602060405180830381865afa158015610628573d5f803e3d5ffd5b505050506040513d601f19601f8201168201806040525081019061064c9190611e09565b678ac7230489e800006040518363ffffffff1660e01b815260040161067292919061230d565b602060405180830381865af415801561068d573d5f803e3d5ffd5b505050506040513d601f19601f820116820180604052508101906106b19190612065565b505f8054906101000a900473ffffffffffffffffffffffffffffffffffffffff1673ffffffffffffffffffffffffffffffffffffffff1663454a2ab36714d1120d7b1600006001846107039190611f34565b6040518363ffffffff1660e01b815260040161071f9190611db5565b5f604051808303818588803b158015610736575f80fd5b505af1158015610748573d5f803e3d5ffd5b50505050505f805f9054906101000a900473ffffffffffffffffffffffffffffffffffffffff1673ffffffffffffffffffffffffffffffffffffffff1663167ddf6e6001846107979190611f34565b6040518263ffffffff1660e01b81526004016107b39190611db5565b5f60405180830381865afa1580156107cd573d5f803e3d5ffd5b505050506040513d5f823e3d601f19601f820116820180604052508101906107f59190612678565b905073__$acbfb1c35000d78352310b16a054a6b106$__63abcd79608260e001516714d1120d7b1600006040518363ffffffff1660e01b815260040161083c929190612742565b602060405180830381865af4158015610857573d5f803e3d5ffd5b505050506040513d601f19601f8201168201806040525081019061087b9190612065565b505050565b5f47905090565b5f805f9054906101000a900473ffffffffffffffffffffffffffffffffffffffff1673ffffffffffffffffffffffffffffffffffffffff1663e5fc33506040518163ffffffff1660e01b8152600401602060405180830381865afa1580156108f1573d5f803e3d5ffd5b505050506040513d601f19601f820116820180604052508101906109159190611e09565b90505f8054906101000a900473ffffffffffffffffffffffffffffffffffffffff1673ffffffffffffffffffffffffffffffffffffffff166307f52e01670de0b6b3a764000062093a806040518363ffffffff1660e01b815260040161097c9291906128dd565b5f604051808303815f87803b158015610993575f80fd5b505af11580156109a5573d5f803e3d5ffd5b505050505f8054906101000a900473ffffffffffffffffffffffffffffffffffffffff1673ffffffffffffffffffffffffffffffffffffffff16635d1a2ef06714d1120d7b1600006001846109fa9190611f34565b6040518363ffffffff1660e01b8152600401610a169190611db5565b5f604051808303818588803b158015610a2d575f80fd5b505af1158015610a3f573d5f803e3d5ffd5b50505050505f805f9054906101000a900473ffffffffffffffffffffffffffffffffffffffff1673ffffffffffffffffffffffffffffffffffffffff1663167ddf6e600184610a8e9190611f34565b6040518263ffffffff1660e01b8152600401610aaa9190611db5565b5f60405180830381865afa158015610ac4573d5f803e3d5ffd5b505050506040513d5f823e3d601f19601f82011682018060405250810190610aec9190612678565b905073__$acbfb1c35000d78352310b16a054a6b106$__63abcd79608260e001516714d1120d7b1600006040518363ffffffff1660e01b8152600401610b3392919061299a565b602060405180830381865af4158015610b4e573d5f803e3d5ffd5b505050506040513d601f19601f82011682018060405250810190610b729190612065565b505050565b5f805f9054906101000a900473ffffffffffffffffffffffffffffffffffffffff1673ffffffffffffffffffffffffffffffffffffffff1663e5fc33506040518163ffffffff1660e01b8152600401602060405180830381865afa158015610be1573d5f803e3d5ffd5b505050506040513d601f19601f82011682018060405250810190610c059190611e09565b90505f8054906101000a900473ffffffffffffffffffffffffffffffffffffffff1673ffffffffffffffffffffffffffffffffffffffff166307f52e01670de0b6b3a764000060056040518363ffffffff1660e01b8152600401610c6a929190612afc565b5f604051808303815f87803b158015610c81575f80fd5b505af1158015610c93573d5f803e3d5ffd5b505050505f805f9054906101000a900473ffffffffffffffffffffffffffffffffffffffff1673ffffffffffffffffffffffffffffffffffffffff1663167ddf6e600184610ce19190611f34565b6040518263ffffffff1660e01b8152600401610cfd9190611db5565b5f60405180830381865afa158015610d17573d5f803e3d5ffd5b505050506040513d5f823e3d601f19601f82011682018060405250810190610d3f9190612678565b905073__$acbfb1c35000d78352310b16a054a6b106$__63e8c2cb1682604001516040518263ffffffff1660e01b8152600401610d7c9190612c1d565b602060405180830381865af4158015610d97573d5f803e3d5ffd5b505050506040513d601f19601f82011682018060405250810190610dbb9190612065565b5073__$acbfb1c35000d78352310b16a054a6b106$__63abcd79605f8054906101000a900473ffffffffffffffffffffffffffffffffffffffff1673ffffffffffffffffffffffffffffffffffffffff1663e5fc33506040518163ffffffff1660e01b8152600401602060405180830381865afa158015610e3e573d5f803e3d5ffd5b505050506040513d601f19601f82011682018060405250810190610e629190611e09565b600185610e6f9190611f34565b6040518363ffffffff1660e01b8152600401610e8c929190612cd3565b602060405180830381865af4158015610ea7573d5f803e3d5ffd5b505050506040513d601f19601f82011682018060405250810190610ecb9190612065565b505050565b5f805f9054906101000a900473ffffffffffffffffffffffffffffffffffffffff1673ffffffffffffffffffffffffffffffffffffffff1663e5fc33506040518163ffffffff1660e01b8152600401602060405180830381865afa158015610f3a573d5f803e3d5ffd5b505050506040513d601f19601f82011682018060405250810190610f5e9190611e09565b90505f8054906101000a900473ffffffffffffffffffffffffffffffffffffffff1673ffffffffffffffffffffffffffffffffffffffff166307f52e01670de0b6b3a764000062093a806040518363ffffffff1660e01b8152600401610fc5929190612e35565b5f604051808303815f87803b158015610fdc575f80fd5b505af1158015610fee573d5f803e3d5ffd5b505050505f8054906101000a900473ffffffffffffffffffffffffffffffffffffffff1673ffffffffffffffffffffffffffffffffffffffff16636fa68ae660018361103a9190611f34565b6040518263ffffffff1660e01b81526004016110569190612fd0565b5f604051808303815f87803b15801561106d575f80fd5b505af115801561107f573d5f803e3d5ffd5b505050505f805f9054906101000a900473ffffffffffffffffffffffffffffffffffffffff1673ffffffffffffffffffffffffffffffffffffffff1663167ddf6e6001846110cd9190611f34565b6040518263ffffffff1660e01b81526004016110e99190611db5565b5f60405180830381865afa158015611103573d5f803e3d5ffd5b505050506040513d5f823e3d601f19601f8201168201806040525081019061112b9190612678565b905073__$acbfb1c35000d78352310b16a054a6b106$__63e8c2cb1682604001516040518263ffffffff1660e01b815260040161116891906130a1565b602060405180830381865af4158015611183573d5f803e3d5ffd5b505050506040513d601f19601f820116820180604052508101906111a79190612065565b505050565b5f805f9054906101000a900473ffffffffffffffffffffffffffffffffffffffff1673ffffffffffffffffffffffffffffffffffffffff1663e5fc33506040518163ffffffff1660e01b8152600401602060405180830381865afa158015611216573d5f803e3d5ffd5b505050506040513d601f19601f8201168201806040525081019061123a9190611e09565b90505f8054906101000a900473ffffffffffffffffffffffffffffffffffffffff1673ffffffffffffffffffffffffffffffffffffffff166307f52e01670de0b6b3a764000062093a806040518363ffffffff1660e01b81526004016112a192919061320f565b5f604051808303815f87803b1580156112b8575f80fd5b505af11580156112ca573d5f803e3d5ffd5b505050505f8054906101000a900473ffffffffffffffffffffffffffffffffffffffff1673ffffffffffffffffffffffffffffffffffffffff16630d8566646001836113169190611f34565b620d2f00426113259190611f34565b671bc16d674ec800006040518463ffffffff1660e01b815260040161134c939291906132bb565b5f604051808303815f87803b158015611363575f80fd5b505af1158015611375573d5f803e3d5ffd5b505050505f805f9054906101000a900473ffffffffffffffffffffffffffffffffffffffff1673ffffffffffffffffffffffffffffffffffffffff1663167ddf6e6001846113c39190611f34565b6040518263ffffffff1660e01b81526004016113df9190611db5565b5f60405180830381865afa1580156113f9573d5f803e3d5ffd5b505050506040513d5f823e3d601f19601f820116820180604052508101906114219190612678565b905073__$acbfb1c35000d78352310b16a054a6b106$__63abcd79608260c00151671bc16d674ec800006040518363ffffffff1660e01b8152600401611468929190613349565b602060405180830381865af4158015611483573d5f803e3d5ffd5b505050506040513d601f19601f820116820180604052508101906114a79190612065565b505050565b73__$1068a87eb54ed04c4e435de35b2ebf536f$__63ce88b1455f6040518263ffffffff1660e01b81526004016114e391906133bc565b602060405180830381865af41580156114fe573d5f803e3d5ffd5b505050506040513d601f19601f820116820180604052508101906115229190613410565b60015f6101000a81548173ffffffffffffffffffffffffffffffffffffffff021916908373ffffffffffffffffffffffffffffffffffffffff16021790555073__$1068a87eb54ed04c4e435de35b2ebf536f$__63ce88b14560016040518263ffffffff1660e01b8152600401611599919061344a565b602060405180830381865af41580156115b4573d5f803e3d5ffd5b505050506040513d601f19601f820116820180604052508101906115d89190613410565b60025f6101000a81548173ffffffffffffffffffffffffffffffffffffffff021916908373ffffffffffffffffffffffffffffffffffffffff16021790555073__$1068a87eb54ed04c4e435de35b2ebf536f$__63ce88b14560026040518263ffffffff1660e01b815260040161164f919061349c565b602060405180830381865af415801561166a573d5f803e3d5ffd5b505050506040513d601f19601f8201168201806040525081019061168e9190613410565b60035f6101000a81548173ffffffffffffffffffffffffffffffffffffffff021916908373ffffffffffffffffffffffffffffffffffffffff160217905550565b73__$acbfb1c35000d78352310b16a054a6b106$__63bfba5dd63373__$1068a87eb54ed04c4e435de35b2ebf536f$__63ce88b14560016040518263ffffffff1660e01b8152600401611722919061344a565b602060405180830381865af415801561173d573d5f803e3d5ffd5b505050506040513d601f19601f820116820180604052508101906117619190613410565b6040518363ffffffff1660e01b815260040161177e92919061350e565b602060405180830381865af4158015611799573d5f803e3d5ffd5b505050506040513d601f19601f820116820180604052508101906117bd9190612065565b5073__$acbfb1c35000d78352310b16a054a6b106$__63abcd79603460646040518363ffffffff1660e01b81526004016117f89291906135cb565b602060405180830381865af4158015611813573d5f803e3d5ffd5b505050506040513d601f19601f820116820180604052508101906118379190612065565b50565b5f805f9054906101000a900473ffffffffffffffffffffffffffffffffffffffff1673ffffffffffffffffffffffffffffffffffffffff1663e5fc33506040518163ffffffff1660e01b8152600401602060405180830381865afa1580156118a4573d5f803e3d5ffd5b505050506040513d601f19601f820116820180604052508101906118c89190611e09565b90505f805f9054906101000a900473ffffffffffffffffffffffffffffffffffffffff1673ffffffffffffffffffffffffffffffffffffffff1663f94c8e986040518163ffffffff1660e01b8152600401602060405180830381865afa158015611934573d5f803e3d5ffd5b505050506040513d601f19601f820116820180604052508101906119589190611e09565b905073__$acbfb1c35000d78352310b16a054a6b106$__6339df137f5f8410156040518263ffffffff1660e01b81526004016119949190613684565b602060405180830381865af41580156119af573d5f803e3d5ffd5b505050506040513d601f19601f820116820180604052508101906119d39190612065565b5073__$acbfb1c35000d78352310b16a054a6b106$__6339df137f5f8310156040518263ffffffff1660e01b8152600401611a0e9190613720565b602060405180830381865af4158015611a29573d5f803e3d5ffd5b505050506040513d601f19601f82011682018060405250810190611a4d9190612065565b5073__$acbfb1c35000d78352310b16a054a6b106$__63abcd79605f8054906101000a900473ffffffffffffffffffffffffffffffffffffffff1673ffffffffffffffffffffffffffffffffffffffff166312065fe06040518163ffffffff1660e01b8152600401602060405180830381865afa158015611ad0573d5f803e3d5ffd5b505050506040513d601f19601f82011682018060405250810190611af49190611e09565b671bc16d674ec800006040518363ffffffff1660e01b8152600401611b1a9291906137bc565b602060405180830381865af4158015611b35573d5f803e3d5ffd5b505050506040513d601f19601f82011682018060405250810190611b599190612065565b505050565b5f805f9054906101000a900473ffffffffffffffffffffffffffffffffffffffff1673ffffffffffffffffffffffffffffffffffffffff1663e5fc33506040518163ffffffff1660e01b8152600401602060405180830381865afa158015611bc8573d5f803e3d5ffd5b505050506040513d601f19601f82011682018060405250810190611bec9190611e09565b90505f8054906101000a900473ffffffffffffffffffffffffffffffffffffffff1673ffffffffffffffffffffffffffffffffffffffff166307f52e01670de0b6b3a764000062093a806040518363ffffffff1660e01b8152600401611c5392919061391e565b5f604051808303815f87803b158015611c6a575f80fd5b505af1158015611c7c573d5f803e3d5ffd5b505050505f805f9054906101000a900473ffffffffffffffffffffffffffffffffffffffff1673ffffffffffffffffffffffffffffffffffffffff16639c0cc30c6040518163ffffffff1660e01b81526004015f60405180830381865afa158015611ce9573d5f803e3d5ffd5b505050506040513d5f823e3d601f19601f82011682018060405250810190611d119190613a73565b905073__$acbfb1c35000d78352310b16a054a6b106$__63abcd79608251600185611d3c9190611f34565b6040518363ffffffff1660e01b8152600401611d59929190613b04565b602060405180830381865af4158015611d74573d5f803e3d5ffd5b505050506040513d601f19601f82011682018060405250810190611d989190612065565b505050565b5f819050919050565b611daf81611d9d565b82525050565b5f602082019050611dc85f830184611da6565b92915050565b5f604051905090565b5f80fd5b5f80fd5b611de881611d9d565b8114611df2575f80fd5b50565b5f81519050611e0381611ddf565b92915050565b5f60208284031215611e1e57611e1d611dd7565b5b5f611e2b84828501611df5565b91505092915050565b5f82825260208201905092915050565b7f4e6f206c6976652061756374696f6e7320746f20656e642e00000000000000005f82015250565b5f611e78601883611e34565b9150611e8382611e44565b602082019050919050565b5f6020820190508181035f830152611ea581611e6c565b9050919050565b5f819050919050565b5f819050919050565b5f611ed8611ed3611ece84611eac565b611eb5565b611d9d565b9050919050565b611ee881611ebe565b82525050565b5f602082019050611f015f830184611edf565b92915050565b7f4e487b71000000000000000000000000000000000000000000000000000000005f52601160045260245ffd5b5f611f3e82611d9d565b9150611f4983611d9d565b9250828201905080821115611f6157611f60611f07565b5b92915050565b611f7081611d9d565b82525050565b5f82825260208201905092915050565b7f456e6465642061756374696f6e7320636f756e742073686f756c6420686176655f8201527f20696e6372656d656e7465642062792031000000000000000000000000000000602082015250565b5f611fe0603183611f76565b9150611feb82611f86565b604082019050919050565b5f6060820190506120095f830185611f67565b6120166020830184611f67565b818103604083015261202781611fd4565b90509392505050565b5f8115159050919050565b61204481612030565b811461204e575f80fd5b50565b5f8151905061205f8161203b565b92915050565b5f6020828403121561207a57612079611dd7565b5b5f61208784828501612051565b91505092915050565b7f41727469737420420000000000000000000000000000000000000000000000005f82015250565b5f6120c4600883611e34565b91506120cf82612090565b602082019050919050565b7f323032332d30312d3032000000000000000000000000000000000000000000005f82015250565b5f61210e600a83611e34565b9150612119826120da565b602082019050919050565b7f5761746572636f6c6f72000000000000000000000000000000000000000000005f82015250565b5f612158600a83611e34565b915061216382612124565b602082019050919050565b7f34307834300000000000000000000000000000000000000000000000000000005f82015250565b5f6121a2600583611e34565b91506121ad8261216e565b602082019050919050565b5f819050919050565b5f6121db6121d66121d1846121b8565b611eb5565b611d9d565b9050919050565b6121eb816121c1565b82525050565b5f819050919050565b5f61221461220f61220a846121f1565b611eb5565b611d9d565b9050919050565b612224816121fa565b82525050565b5f60c0820190508181035f830152612241816120b8565b9050818103602083015261225481612102565b905081810360408301526122678161214c565b9050818103606083015261227a81612196565b905061228960808301856121e2565b61229660a083018461221b565b9392505050565b7f496e697469616c20636f6e74726163742062616c616e63652073686f756c64205f8201527f6265203130000000000000000000000000000000000000000000000000000000602082015250565b5f6122f7602583611f76565b91506123028261229d565b604082019050919050565b5f6060820190506123205f830185611f67565b61232d6020830184611f67565b818103604083015261233e816122eb565b90509392505050565b5f80fd5b5f601f19601f8301169050919050565b7f4e487b71000000000000000000000000000000000000000000000000000000005f52604160045260245ffd5b6123918261234b565b810181811067ffffffffffffffff821117156123b0576123af61235b565b5b80604052505050565b5f6123c2611dce565b90506123ce8282612388565b919050565b5f80fd5b5f73ffffffffffffffffffffffffffffffffffffffff82169050919050565b5f612400826123d7565b9050919050565b612410816123f6565b811461241a575f80fd5b50565b5f8151905061242b81612407565b92915050565b5f80fd5b5f80fd5b5f67ffffffffffffffff8211156124535761245261235b565b5b61245c8261234b565b9050602081019050919050565b5f5b8381101561248657808201518184015260208101905061246b565b5f8484015250505050565b5f6124a361249e84612439565b6123b9565b9050828152602081018484840111156124bf576124be612435565b5b6124ca848285612469565b509392505050565b5f82601f8301126124e6576124e5612431565b5b81516124f6848260208601612491565b91505092915050565b5f610160828403121561251557612514612347565b5b6125206101606123b9565b90505f61252f84828501611df5565b5f8301525060206125428482850161241d565b602083015250604082015167ffffffffffffffff811115612566576125656123d3565b5b612572848285016124d2565b604083015250606082015167ffffffffffffffff811115612596576125956123d3565b5b6125a2848285016124d2565b606083015250608082015167ffffffffffffffff8111156125c6576125c56123d3565b5b6125d2848285016124d2565b60808301525060a082015167ffffffffffffffff8111156125f6576125f56123d3565b5b612602848285016124d2565b60a08301525060c061261684828501611df5565b60c08301525060e061262a84828501611df5565b60e08301525061010061263f8482850161241d565b6101008301525061012061265584828501611df5565b6101208301525061014061266b84828501612051565b6101408301525092915050565b5f6020828403121561268d5761268c611dd7565b5b5f82015167ffffffffffffffff8111156126aa576126a9611ddb565b5b6126b6848285016124ff565b91505092915050565b5f819050919050565b5f6126e26126dd6126d8846126bf565b611eb5565b611d9d565b9050919050565b6126f2816126c8565b82525050565b7f42696420616d6f756e7420696e636f72726563742e00000000000000000000005f82015250565b5f61272c601583611f76565b9150612737826126f8565b602082019050919050565b5f6060820190506127555f830185611f67565b61276260208301846126e9565b818103604083015261277381612720565b90509392505050565b7f41727469737420460000000000000000000000000000000000000000000000005f82015250565b5f6127b0600883611e34565b91506127bb8261277c565b602082019050919050565b7f323032332d30312d3037000000000000000000000000000000000000000000005f82015250565b5f6127fa600a83611e34565b9150612805826127c6565b602082019050919050565b7f50617374656c00000000000000000000000000000000000000000000000000005f82015250565b5f612844600683611e34565b915061284f82612810565b602082019050919050565b7f37307837300000000000000000000000000000000000000000000000000000005f82015250565b5f61288e600583611e34565b91506128998261285a565b602082019050919050565b5f819050919050565b5f6128c76128c26128bd846128a4565b611eb5565b611d9d565b9050919050565b6128d7816128ad565b82525050565b5f60c0820190508181035f8301526128f4816127a4565b90508181036020830152612907816127ee565b9050818103604083015261291a81612838565b9050818103606083015261292d81612882565b905061293c60808301856121e2565b61294960a08301846128ce565b9392505050565b7f496e697469616c2062696420616d6f756e7420696e636f72726563742e0000005f82015250565b5f612984601d83611f76565b915061298f82612950565b602082019050919050565b5f6060820190506129ad5f830185611f67565b6129ba60208301846126e9565b81810360408301526129cb81612978565b90509392505050565b7f41727469737420410000000000000000000000000000000000000000000000005f82015250565b5f612a08600883611e34565b9150612a13826129d4565b602082019050919050565b7f323032332d30312d3031000000000000000000000000000000000000000000005f82015250565b5f612a52600a83611e34565b9150612a5d82612a1e565b602082019050919050565b7f4f696c00000000000000000000000000000000000000000000000000000000005f82015250565b5f612a9c600383611e34565b9150612aa782612a68565b602082019050919050565b7f35307835300000000000000000000000000000000000000000000000000000005f82015250565b5f612ae6600583611e34565b9150612af182612ab2565b602082019050919050565b5f60c0820190508181035f830152612b13816129fc565b90508181036020830152612b2681612a46565b90508181036040830152612b3981612a90565b90508181036060830152612b4c81612ada565b9050612b5b60808301856121e2565b612b6860a083018461221b565b9392505050565b5f81519050919050565b5f612b8382612b6f565b612b8d8185611f76565b9350612b9d818560208601612469565b612ba68161234b565b840191505092915050565b5f612bbd600883611f76565b9150612bc8826129d4565b602082019050919050565b7f417274776f726b206c697374696e67206661696c65642e0000000000000000005f82015250565b5f612c07601783611f76565b9150612c1282612bd3565b602082019050919050565b5f6060820190508181035f830152612c358184612b79565b90508181036020830152612c4881612bb1565b90508181036040830152612c5b81612bfb565b905092915050565b7f4c6976652061756374696f6e7320636f756e742073686f756c642068617665205f8201527f696e6372656d656e746564206279203100000000000000000000000000000000602082015250565b5f612cbd603083611f76565b9150612cc882612c63565b604082019050919050565b5f606082019050612ce65f830185611f67565b612cf36020830184611f67565b8181036040830152612d0481612cb1565b90509392505050565b7f41727469737420440000000000000000000000000000000000000000000000005f82015250565b5f612d41600883611e34565b9150612d4c82612d0d565b602082019050919050565b7f323032332d30312d3034000000000000000000000000000000000000000000005f82015250565b5f612d8b600a83611e34565b9150612d9682612d57565b602082019050919050565b7f43686172636f616c0000000000000000000000000000000000000000000000005f82015250565b5f612dd5600883611e34565b9150612de082612da1565b602082019050919050565b7f33307833300000000000000000000000000000000000000000000000000000005f82015250565b5f612e1f600583611e34565b9150612e2a82612deb565b602082019050919050565b5f60c0820190508181035f830152612e4c81612d35565b90508181036020830152612e5f81612d7f565b90508181036040830152612e7281612dc9565b90508181036060830152612e8581612e13565b9050612e9460808301856121e2565b612ea160a08301846128ce565b9392505050565b7f55706461746564204172746973740000000000000000000000000000000000005f82015250565b5f612edc600e83611e34565b9150612ee782612ea8565b602082019050919050565b7f323032332d30312d3035000000000000000000000000000000000000000000005f82015250565b5f612f26600a83611e34565b9150612f3182612ef2565b602082019050919050565b7f55706461746564204d656469756d0000000000000000000000000000000000005f82015250565b5f612f70600e83611e34565b9150612f7b82612f3c565b602082019050919050565b7f36307836300000000000000000000000000000000000000000000000000000005f82015250565b5f612fba600583611e34565b9150612fc582612f86565b602082019050919050565b5f60a082019050612fe35f830184611da6565b8181036020830152612ff481612ed0565b9050818103604083015261300781612f1a565b9050818103606083015261301a81612f64565b9050818103608083015261302d81612fae565b905092915050565b5f613041600e83611f76565b915061304c82612ea8565b602082019050919050565b7f417274776f726b20757064617465206661696c65642e000000000000000000005f82015250565b5f61308b601683611f76565b915061309682613057565b602082019050919050565b5f6060820190508181035f8301526130b98184612b79565b905081810360208301526130cc81613035565b905081810360408301526130df8161307f565b905092915050565b7f41727469737420450000000000000000000000000000000000000000000000005f82015250565b5f61311b600883611e34565b9150613126826130e7565b602082019050919050565b7f323032332d30312d3036000000000000000000000000000000000000000000005f82015250565b5f613165600a83611e34565b915061317082613131565b602082019050919050565b7f50656e63696c00000000000000000000000000000000000000000000000000005f82015250565b5f6131af600683611e34565b91506131ba8261317b565b602082019050919050565b7f32307832300000000000000000000000000000000000000000000000000000005f82015250565b5f6131f9600583611e34565b9150613204826131c5565b602082019050919050565b5f60c0820190508181035f8301526132268161310f565b9050818103602083015261323981613159565b9050818103604083015261324c816131a3565b9050818103606083015261325f816131ed565b905061326e60808301856121e2565b61327b60a08301846128ce565b9392505050565b5f819050919050565b5f6132a56132a061329b84613282565b611eb5565b611d9d565b9050919050565b6132b58161328b565b82525050565b5f6060820190506132ce5f830186611da6565b6132db6020830185611da6565b6132e860408301846132ac565b949350505050565b6132f98161328b565b82525050565b7f41756374696f6e20757064617465206661696c65642e000000000000000000005f82015250565b5f613333601683611f76565b915061333e826132ff565b602082019050919050565b5f60608201905061335c5f830185611f67565b61336960208301846132f0565b818103604083015261337a81613327565b90509392505050565b5f819050919050565b5f6133a66133a161339c84613383565b611eb5565b611d9d565b9050919050565b6133b68161338c565b82525050565b5f6020820190506133cf5f8301846133ad565b92915050565b5f6133df826123d7565b9050919050565b6133ef816133d5565b81146133f9575f80fd5b50565b5f8151905061340a816133e6565b92915050565b5f6020828403121561342557613424611dd7565b5b5f613432848285016133fc565b91505092915050565b61344481611ebe565b82525050565b5f60208201905061345d5f83018461343b565b92915050565b5f819050919050565b5f61348661348161347c84613463565b611eb5565b611d9d565b9050919050565b6134968161346c565b82525050565b5f6020820190506134af5f83018461348d565b92915050565b6134be816133d5565b82525050565b7f496e76616c69642073656e6465720000000000000000000000000000000000005f82015250565b5f6134f8600e83611f76565b9150613503826134c4565b602082019050919050565b5f6060820190506135215f8301856134b5565b61352e60208301846134b5565b818103604083015261353f816134ec565b90509392505050565b5f819050919050565b5f61356b61356661356184613548565b611eb5565b611d9d565b9050919050565b61357b81613551565b82525050565b7f496e76616c69642076616c7565000000000000000000000000000000000000005f82015250565b5f6135b5600d83611f76565b91506135c082613581565b602082019050919050565b5f6060820190506135de5f830185611f67565b6135eb6020830184613572565b81810360408301526135fc816135a9565b90509392505050565b61360e81612030565b82525050565b7f496e697469616c206c6976652061756374696f6e732073686f756c64206265205f8201527f3e3d203000000000000000000000000000000000000000000000000000000000602082015250565b5f61366e602483611f76565b915061367982613614565b604082019050919050565b5f6040820190506136975f830184613605565b81810360208301526136a881613662565b905092915050565b7f496e697469616c20656e6465642061756374696f6e732073686f756c642062655f8201527f203e3d2030000000000000000000000000000000000000000000000000000000602082015250565b5f61370a602583611f76565b9150613715826136b0565b604082019050919050565b5f6040820190506137335f830184613605565b8181036020830152613744816136fe565b905092915050565b7f496e697469616c20636f6e74726163742062616c616e63652073686f756c64205f8201527f6265203220657468657200000000000000000000000000000000000000000000602082015250565b5f6137a6602a83611f76565b91506137b18261374c565b604082019050919050565b5f6060820190506137cf5f830185611f67565b6137dc6020830184611f67565b81810360408301526137ed8161379a565b90509392505050565b7f41727469737420470000000000000000000000000000000000000000000000005f82015250565b5f61382a600883611e34565b9150613835826137f6565b602082019050919050565b7f323032332d30312d3038000000000000000000000000000000000000000000005f82015250565b5f613874600a83611e34565b915061387f82613840565b602082019050919050565b7f437261796f6e00000000000000000000000000000000000000000000000000005f82015250565b5f6138be600683611e34565b91506138c98261388a565b602082019050919050565b7f38307838300000000000000000000000000000000000000000000000000000005f82015250565b5f613908600583611e34565b9150613913826138d4565b602082019050919050565b5f60c0820190508181035f8301526139358161381e565b9050818103602083015261394881613868565b9050818103604083015261395b816138b2565b9050818103606083015261396e816138fc565b905061397d60808301856121e2565b61398a60a08301846128ce565b9392505050565b5f67ffffffffffffffff8211156139ab576139aa61235b565b5b602082029050602081019050919050565b5f80fd5b5f6139d26139cd84613991565b6123b9565b905080838252602082019050602084028301858111156139f5576139f46139bc565b5b835b81811015613a3c57805167ffffffffffffffff811115613a1a57613a19612431565b5b808601613a2789826124ff565b855260208501945050506020810190506139f7565b5050509392505050565b5f82601f830112613a5a57613a59612431565b5b8151613a6a8482602086016139c0565b91505092915050565b5f60208284031215613a8857613a87611dd7565b5b5f82015167ffffffffffffffff811115613aa557613aa4611ddb565b5b613ab184828501613a46565b91505092915050565b7f417274776f726b2072657472696576616c206661696c65642e000000000000005f82015250565b5f613aee601983611f76565b9150613af982613aba565b602082019050919050565b5f606082019050613b175f830185611f67565b613b246020830184611f67565b8181036040830152613b3581613ae2565b9050939250505056fea2646970667358221220fb7bc58f80712b510906e2e36fe69c5685857094bd895fe93056e4f7418b03a164736f6c63430008150033",
			"opcodes": "PUSH1 0x80 PUSH1 0x40 MSTORE CALLVALUE DUP1 ISZERO PUSH2 0xF JUMPI PUSH0 DUP1 REVERT JUMPDEST POP PUSH20 0x9D83E140330758A8FFD07F8BD73E86EBCA8A5692 PUSH0 DUP1 PUSH2 0x100 EXP DUP2 SLOAD DUP2 PUSH20 0xFFFFFFFFFFFFFFFFFFFFFFFFFFFFFFFFFFFFFFFF MUL NOT AND SWAP1 DUP4 PUSH20 0xFFFFFFFFFFFFFFFFFFFFFFFFFFFFFFFFFFFFFFFF AND MUL OR SWAP1 SSTORE POP PUSH2 0x3B74 DUP1 PUSH2 0x70 PUSH0 CODECOPY PUSH0 RETURN INVALID PUSH1 0x80 PUSH1 0x40 MSTORE PUSH1 0x4 CALLDATASIZE LT PUSH2 0x9F JUMPI PUSH0 CALLDATALOAD PUSH1 0xE0 SHR DUP1 PUSH4 0x45F17288 GT PUSH2 0x63 JUMPI DUP1 PUSH4 0x45F17288 EQ PUSH2 0x112 JUMPI DUP1 PUSH4 0x55A7FA32 EQ PUSH2 0x128 JUMPI DUP1 PUSH4 0x7FEA0D4B EQ PUSH2 0x13E JUMPI DUP1 PUSH4 0x9074416D EQ PUSH2 0x154 JUMPI DUP1 PUSH4 0xAE1F4C30 EQ PUSH2 0x15E JUMPI DUP1 PUSH4 0xEAD16AB2 EQ PUSH2 0x174 JUMPI PUSH2 0xA6 JUMP JUMPDEST DUP1 PUSH4 0x622199D EQ PUSH2 0xA8 JUMPI DUP1 PUSH4 0xD1418A6 EQ PUSH2 0xBE JUMPI DUP1 PUSH4 0x12065FE0 EQ PUSH2 0xC8 JUMPI DUP1 PUSH4 0x28733442 EQ PUSH2 0xF2 JUMPI DUP1 PUSH4 0x29448F37 EQ PUSH2 0xFC JUMPI PUSH2 0xA6 JUMP JUMPDEST CALLDATASIZE PUSH2 0xA6 JUMPI STOP JUMPDEST STOP JUMPDEST CALLVALUE DUP1 ISZERO PUSH2 0xB3 JUMPI PUSH0 DUP1 REVERT JUMPDEST POP PUSH2 0xBC PUSH2 0x18A JUMP JUMPDEST STOP JUMPDEST PUSH2 0xC6 PUSH2 0x486 JUMP JUMPDEST STOP JUMPDEST CALLVALUE DUP1 ISZERO PUSH2 0xD3 JUMPI PUSH0 DUP1 REVERT JUMPDEST POP PUSH2 0xDC PUSH2 0x880 JUMP JUMPDEST PUSH1 0x40 MLOAD PUSH2 0xE9 SWAP2 SWAP1 PUSH2 0x1DB5 JUMP JUMPDEST PUSH1 0x40 MLOAD DUP1 SWAP2 SUB SWAP1 RETURN JUMPDEST PUSH2 0xFA PUSH2 0x887 JUMP JUMPDEST STOP JUMPDEST CALLVALUE DUP1 ISZERO PUSH2 0x107 JUMPI PUSH0 DUP1 REVERT JUMPDEST POP PUSH2 0x110 PUSH2 0xB77 JUMP JUMPDEST STOP JUMPDEST CALLVALUE DUP1 ISZERO PUSH2 0x11D JUMPI PUSH0 DUP1 REVERT JUMPDEST POP PUSH2 0x126 PUSH2 0xED0 JUMP JUMPDEST STOP JUMPDEST CALLVALUE DUP1 ISZERO PUSH2 0x133 JUMPI PUSH0 DUP1 REVERT JUMPDEST POP PUSH2 0x13C PUSH2 0x11AC JUMP JUMPDEST STOP JUMPDEST CALLVALUE DUP1 ISZERO PUSH2 0x149 JUMPI PUSH0 DUP1 REVERT JUMPDEST POP PUSH2 0x152 PUSH2 0x14AC JUMP JUMPDEST STOP JUMPDEST PUSH2 0x15C PUSH2 0x16CF JUMP JUMPDEST STOP JUMPDEST CALLVALUE DUP1 ISZERO PUSH2 0x169 JUMPI PUSH0 DUP1 REVERT JUMPDEST POP PUSH2 0x172 PUSH2 0x183A JUMP JUMPDEST STOP JUMPDEST CALLVALUE DUP1 ISZERO PUSH2 0x17F JUMPI PUSH0 DUP1 REVERT JUMPDEST POP PUSH2 0x188 PUSH2 0x1B5E JUMP JUMPDEST STOP JUMPDEST PUSH0 DUP1 PUSH0 SWAP1 SLOAD SWAP1 PUSH2 0x100 EXP SWAP1 DIV PUSH20 0xFFFFFFFFFFFFFFFFFFFFFFFFFFFFFFFFFFFFFFFF AND PUSH20 0xFFFFFFFFFFFFFFFFFFFFFFFFFFFFFFFFFFFFFFFF AND PUSH4 0xE5FC3350 PUSH1 0x40 MLOAD DUP2 PUSH4 0xFFFFFFFF AND PUSH1 0xE0 SHL DUP2 MSTORE PUSH1 0x4 ADD PUSH1 0x20 PUSH1 0x40 MLOAD DUP1 DUP4 SUB DUP2 DUP7 GAS STATICCALL ISZERO DUP1 ISZERO PUSH2 0x1F4 JUMPI RETURNDATASIZE PUSH0 DUP1 RETURNDATACOPY RETURNDATASIZE PUSH0 REVERT JUMPDEST POP POP POP POP PUSH1 0x40 MLOAD RETURNDATASIZE PUSH1 0x1F NOT PUSH1 0x1F DUP3 ADD AND DUP3 ADD DUP1 PUSH1 0x40 MSTORE POP DUP2 ADD SWAP1 PUSH2 0x218 SWAP2 SWAP1 PUSH2 0x1E09 JUMP JUMPDEST SWAP1 POP PUSH0 DUP1 PUSH0 SWAP1 SLOAD SWAP1 PUSH2 0x100 EXP SWAP1 DIV PUSH20 0xFFFFFFFFFFFFFFFFFFFFFFFFFFFFFFFFFFFFFFFF AND PUSH20 0xFFFFFFFFFFFFFFFFFFFFFFFFFFFFFFFFFFFFFFFF AND PUSH4 0xF94C8E98 PUSH1 0x40 MLOAD DUP2 PUSH4 0xFFFFFFFF AND PUSH1 0xE0 SHL DUP2 MSTORE PUSH1 0x4 ADD PUSH1 0x20 PUSH1 0x40 MLOAD DUP1 DUP4 SUB DUP2 DUP7 GAS STATICCALL ISZERO DUP1 ISZERO PUSH2 0x284 JUMPI RETURNDATASIZE PUSH0 DUP1 RETURNDATACOPY RETURNDATASIZE PUSH0 REVERT JUMPDEST POP POP POP POP PUSH1 0x40 MLOAD RETURNDATASIZE PUSH1 0x1F NOT PUSH1 0x1F DUP3 ADD AND DUP3 ADD DUP1 PUSH1 0x40 MSTORE POP DUP2 ADD SWAP1 PUSH2 0x2A8 SWAP2 SWAP1 PUSH2 0x1E09 JUMP JUMPDEST SWAP1 POP PUSH0 DUP3 GT PUSH2 0x2EC JUMPI PUSH1 0x40 MLOAD PUSH32 0x8C379A000000000000000000000000000000000000000000000000000000000 DUP2 MSTORE PUSH1 0x4 ADD PUSH2 0x2E3 SWAP1 PUSH2 0x1E8E JUMP JUMPDEST PUSH1 0x40 MLOAD DUP1 SWAP2 SUB SWAP1 REVERT JUMPDEST PUSH0 DUP1 SLOAD SWAP1 PUSH2 0x100 EXP SWAP1 DIV PUSH20 0xFFFFFFFFFFFFFFFFFFFFFFFFFFFFFFFFFFFFFFFF AND PUSH20 0xFFFFFFFFFFFFFFFFFFFFFFFFFFFFFFFFFFFFFFFF AND PUSH4 0xB9A2DE3A PUSH1 0x1 PUSH1 0x40 MLOAD DUP3 PUSH4 0xFFFFFFFF AND PUSH1 0xE0 SHL DUP2 MSTORE PUSH1 0x4 ADD PUSH2 0x345 SWAP2 SWAP1 PUSH2 0x1EEE JUMP JUMPDEST PUSH0 PUSH1 0x40 MLOAD DUP1 DUP4 SUB DUP2 PUSH0 DUP8 DUP1 EXTCODESIZE ISZERO DUP1 ISZERO PUSH2 0x35C JUMPI PUSH0 DUP1 REVERT JUMPDEST POP GAS CALL ISZERO DUP1 ISZERO PUSH2 0x36E JUMPI RETURNDATASIZE PUSH0 DUP1 RETURNDATACOPY RETURNDATASIZE PUSH0 REVERT JUMPDEST POP POP POP POP PUSH20 0x0 PUSH4 0xABCD7960 PUSH0 DUP1 SLOAD SWAP1 PUSH2 0x100 EXP SWAP1 DIV PUSH20 0xFFFFFFFFFFFFFFFFFFFFFFFFFFFFFFFFFFFFFFFF AND PUSH20 0xFFFFFFFFFFFFFFFFFFFFFFFFFFFFFFFFFFFFFFFF AND PUSH4 0xF94C8E98 PUSH1 0x40 MLOAD DUP2 PUSH4 0xFFFFFFFF AND PUSH1 0xE0 SHL DUP2 MSTORE PUSH1 0x4 ADD PUSH1 0x20 PUSH1 0x40 MLOAD DUP1 DUP4 SUB DUP2 DUP7 GAS STATICCALL ISZERO DUP1 ISZERO PUSH2 0x3F4 JUMPI RETURNDATASIZE PUSH0 DUP1 RETURNDATACOPY RETURNDATASIZE PUSH0 REVERT JUMPDEST POP POP POP POP PUSH1 0x40 MLOAD RETURNDATASIZE PUSH1 0x1F NOT PUSH1 0x1F DUP3 ADD AND DUP3 ADD DUP1 PUSH1 0x40 MSTORE POP DUP2 ADD SWAP1 PUSH2 0x418 SWAP2 SWAP1 PUSH2 0x1E09 JUMP JUMPDEST PUSH1 0x1 DUP5 PUSH2 0x425 SWAP2 SWAP1 PUSH2 0x1F34 JUMP JUMPDEST PUSH1 0x40 MLOAD DUP4 PUSH4 0xFFFFFFFF AND PUSH1 0xE0 SHL DUP2 MSTORE PUSH1 0x4 ADD PUSH2 0x442 SWAP3 SWAP2 SWAP1 PUSH2 0x1FF6 JUMP JUMPDEST PUSH1 0x20 PUSH1 0x40 MLOAD DUP1 DUP4 SUB DUP2 DUP7 GAS DELEGATECALL ISZERO DUP1 ISZERO PUSH2 0x45D JUMPI RETURNDATASIZE PUSH0 DUP1 RETURNDATACOPY RETURNDATASIZE PUSH0 REVERT JUMPDEST POP POP POP POP PUSH1 0x40 MLOAD RETURNDATASIZE PUSH1 0x1F NOT PUSH1 0x1F DUP3 ADD AND DUP3 ADD DUP1 PUSH1 0x40 MSTORE POP DUP2 ADD SWAP1 PUSH2 0x481 SWAP2 SWAP1 PUSH2 0x2065 JUMP JUMPDEST POP POP POP JUMP JUMPDEST PUSH0 DUP1 PUSH0 SWAP1 SLOAD SWAP1 PUSH2 0x100 EXP SWAP1 DIV PUSH20 0xFFFFFFFFFFFFFFFFFFFFFFFFFFFFFFFFFFFFFFFF AND PUSH20 0xFFFFFFFFFFFFFFFFFFFFFFFFFFFFFFFFFFFFFFFF AND PUSH4 0xE5FC3350 PUSH1 0x40 MLOAD DUP2 PUSH4 0xFFFFFFFF AND PUSH1 0xE0 SHL DUP2 MSTORE PUSH1 0x4 ADD PUSH1 0x20 PUSH1 0x40 MLOAD DUP1 DUP4 SUB DUP2 DUP7 GAS STATICCALL ISZERO DUP1 ISZERO PUSH2 0x4F0 JUMPI RETURNDATASIZE PUSH0 DUP1 RETURNDATACOPY RETURNDATASIZE PUSH0 REVERT JUMPDEST POP POP POP POP PUSH1 0x40 MLOAD RETURNDATASIZE PUSH1 0x1F NOT PUSH1 0x1F DUP3 ADD AND DUP3 ADD DUP1 PUSH1 0x40 MSTORE POP DUP2 ADD SWAP1 PUSH2 0x514 SWAP2 SWAP1 PUSH2 0x1E09 JUMP JUMPDEST SWAP1 POP PUSH0 DUP1 SLOAD SWAP1 PUSH2 0x100 EXP SWAP1 DIV PUSH20 0xFFFFFFFFFFFFFFFFFFFFFFFFFFFFFFFFFFFFFFFF AND PUSH20 0xFFFFFFFFFFFFFFFFFFFFFFFFFFFFFFFFFFFFFFFF AND PUSH4 0x7F52E01 PUSH8 0xDE0B6B3A7640000 PUSH1 0x5 PUSH1 0x40 MLOAD DUP4 PUSH4 0xFFFFFFFF AND PUSH1 0xE0 SHL DUP2 MSTORE PUSH1 0x4 ADD PUSH2 0x579 SWAP3 SWAP2 SWAP1 PUSH2 0x222A JUMP JUMPDEST PUSH0 PUSH1 0x40 MLOAD DUP1 DUP4 SUB DUP2 PUSH0 DUP8 DUP1 EXTCODESIZE ISZERO DUP1 ISZERO PUSH2 0x590 JUMPI PUSH0 DUP1 REVERT JUMPDEST POP GAS CALL ISZERO DUP1 ISZERO PUSH2 0x5A2 JUMPI RETURNDATASIZE PUSH0 DUP1 RETURNDATACOPY RETURNDATASIZE PUSH0 REVERT JUMPDEST POP POP POP POP PUSH20 0x0 PUSH4 0xABCD7960 PUSH0 DUP1 SLOAD SWAP1 PUSH2 0x100 EXP SWAP1 DIV PUSH20 0xFFFFFFFFFFFFFFFFFFFFFFFFFFFFFFFFFFFFFFFF AND PUSH20 0xFFFFFFFFFFFFFFFFFFFFFFFFFFFFFFFFFFFFFFFF AND PUSH4 0x12065FE0 PUSH1 0x40 MLOAD DUP2 PUSH4 0xFFFFFFFF AND PUSH1 0xE0 SHL DUP2 MSTORE PUSH1 0x4 ADD PUSH1 0x20 PUSH1 0x40 MLOAD DUP1 DUP4 SUB DUP2 DUP7 GAS STATICCALL ISZERO DUP1 ISZERO PUSH2 0x628 JUMPI RETURNDATASIZE PUSH0 DUP1 RETURNDATACOPY RETURNDATASIZE PUSH0 REVERT JUMPDEST POP POP POP POP PUSH1 0x40 MLOAD RETURNDATASIZE PUSH1 0x1F NOT PUSH1 0x1F DUP3 ADD AND DUP3 ADD DUP1 PUSH1 0x40 MSTORE POP DUP2 ADD SWAP1 PUSH2 0x64C SWAP2 SWAP1 PUSH2 0x1E09 JUMP JUMPDEST PUSH8 0x8AC7230489E80000 PUSH1 0x40 MLOAD DUP4 PUSH4 0xFFFFFFFF AND PUSH1 0xE0 SHL DUP2 MSTORE PUSH1 0x4 ADD PUSH2 0x672 SWAP3 SWAP2 SWAP1 PUSH2 0x230D JUMP JUMPDEST PUSH1 0x20 PUSH1 0x40 MLOAD DUP1 DUP4 SUB DUP2 DUP7 GAS DELEGATECALL ISZERO DUP1 ISZERO PUSH2 0x68D JUMPI RETURNDATASIZE PUSH0 DUP1 RETURNDATACOPY RETURNDATASIZE PUSH0 REVERT JUMPDEST POP POP POP POP PUSH1 0x40 MLOAD RETURNDATASIZE PUSH1 0x1F NOT PUSH1 0x1F DUP3 ADD AND DUP3 ADD DUP1 PUSH1 0x40 MSTORE POP DUP2 ADD SWAP1 PUSH2 0x6B1 SWAP2 SWAP1 PUSH2 0x2065 JUMP JUMPDEST POP PUSH0 DUP1 SLOAD SWAP1 PUSH2 0x100 EXP SWAP1 DIV PUSH20 0xFFFFFFFFFFFFFFFFFFFFFFFFFFFFFFFFFFFFFFFF AND PUSH20 0xFFFFFFFFFFFFFFFFFFFFFFFFFFFFFFFFFFFFFFFF AND PUSH4 0x454A2AB3 PUSH8 0x14D1120D7B160000 PUSH1 0x1 DUP5 PUSH2 0x703 SWAP2 SWAP1 PUSH2 0x1F34 JUMP JUMPDEST PUSH1 0x40 MLOAD DUP4 PUSH4 0xFFFFFFFF AND PUSH1 0xE0 SHL DUP2 MSTORE PUSH1 0x4 ADD PUSH2 0x71F SWAP2 SWAP1 PUSH2 0x1DB5 JUMP JUMPDEST PUSH0 PUSH1 0x40 MLOAD DUP1 DUP4 SUB DUP2 DUP6 DUP9 DUP1 EXTCODESIZE ISZERO DUP1 ISZERO PUSH2 0x736 JUMPI PUSH0 DUP1 REVERT JUMPDEST POP GAS CALL ISZERO DUP1 ISZERO PUSH2 0x748 JUMPI RETURNDATASIZE PUSH0 DUP1 RETURNDATACOPY RETURNDATASIZE PUSH0 REVERT JUMPDEST POP POP POP POP POP PUSH0 DUP1 PUSH0 SWAP1 SLOAD SWAP1 PUSH2 0x100 EXP SWAP1 DIV PUSH20 0xFFFFFFFFFFFFFFFFFFFFFFFFFFFFFFFFFFFFFFFF AND PUSH20 0xFFFFFFFFFFFFFFFFFFFFFFFFFFFFFFFFFFFFFFFF AND PUSH4 0x167DDF6E PUSH1 0x1 DUP5 PUSH2 0x797 SWAP2 SWAP1 PUSH2 0x1F34 JUMP JUMPDEST PUSH1 0x40 MLOAD DUP3 PUSH4 0xFFFFFFFF AND PUSH1 0xE0 SHL DUP2 MSTORE PUSH1 0x4 ADD PUSH2 0x7B3 SWAP2 SWAP1 PUSH2 0x1DB5 JUMP JUMPDEST PUSH0 PUSH1 0x40 MLOAD DUP1 DUP4 SUB DUP2 DUP7 GAS STATICCALL ISZERO DUP1 ISZERO PUSH2 0x7CD JUMPI RETURNDATASIZE PUSH0 DUP1 RETURNDATACOPY RETURNDATASIZE PUSH0 REVERT JUMPDEST POP POP POP POP PUSH1 0x40 MLOAD RETURNDATASIZE PUSH0 DUP3 RETURNDATACOPY RETURNDATASIZE PUSH1 0x1F NOT PUSH1 0x1F DUP3 ADD AND DUP3 ADD DUP1 PUSH1 0x40 MSTORE POP DUP2 ADD SWAP1 PUSH2 0x7F5 SWAP2 SWAP1 PUSH2 0x2678 JUMP JUMPDEST SWAP1 POP PUSH20 0x0 PUSH4 0xABCD7960 DUP3 PUSH1 0xE0 ADD MLOAD PUSH8 0x14D1120D7B160000 PUSH1 0x40 MLOAD DUP4 PUSH4 0xFFFFFFFF AND PUSH1 0xE0 SHL DUP2 MSTORE PUSH1 0x4 ADD PUSH2 0x83C SWAP3 SWAP2 SWAP1 PUSH2 0x2742 JUMP JUMPDEST PUSH1 0x20 PUSH1 0x40 MLOAD DUP1 DUP4 SUB DUP2 DUP7 GAS DELEGATECALL ISZERO DUP1 ISZERO PUSH2 0x857 JUMPI RETURNDATASIZE PUSH0 DUP1 RETURNDATACOPY RETURNDATASIZE PUSH0 REVERT JUMPDEST POP POP POP POP PUSH1 0x40 MLOAD RETURNDATASIZE PUSH1 0x1F NOT PUSH1 0x1F DUP3 ADD AND DUP3 ADD DUP1 PUSH1 0x40 MSTORE POP DUP2 ADD SWAP1 PUSH2 0x87B SWAP2 SWAP1 PUSH2 0x2065 JUMP JUMPDEST POP POP POP JUMP JUMPDEST PUSH0 SELFBALANCE SWAP1 POP SWAP1 JUMP JUMPDEST PUSH0 DUP1 PUSH0 SWAP1 SLOAD SWAP1 PUSH2 0x100 EXP SWAP1 DIV PUSH20 0xFFFFFFFFFFFFFFFFFFFFFFFFFFFFFFFFFFFFFFFF AND PUSH20 0xFFFFFFFFFFFFFFFFFFFFFFFFFFFFFFFFFFFFFFFF AND PUSH4 0xE5FC3350 PUSH1 0x40 MLOAD DUP2 PUSH4 0xFFFFFFFF AND PUSH1 0xE0 SHL DUP2 MSTORE PUSH1 0x4 ADD PUSH1 0x20 PUSH1 0x40 MLOAD DUP1 DUP4 SUB DUP2 DUP7 GAS STATICCALL ISZERO DUP1 ISZERO PUSH2 0x8F1 JUMPI RETURNDATASIZE PUSH0 DUP1 RETURNDATACOPY RETURNDATASIZE PUSH0 REVERT JUMPDEST POP POP POP POP PUSH1 0x40 MLOAD RETURNDATASIZE PUSH1 0x1F NOT PUSH1 0x1F DUP3 ADD AND DUP3 ADD DUP1 PUSH1 0x40 MSTORE POP DUP2 ADD SWAP1 PUSH2 0x915 SWAP2 SWAP1 PUSH2 0x1E09 JUMP JUMPDEST SWAP1 POP PUSH0 DUP1 SLOAD SWAP1 PUSH2 0x100 EXP SWAP1 DIV PUSH20 0xFFFFFFFFFFFFFFFFFFFFFFFFFFFFFFFFFFFFFFFF AND PUSH20 0xFFFFFFFFFFFFFFFFFFFFFFFFFFFFFFFFFFFFFFFF AND PUSH4 0x7F52E01 PUSH8 0xDE0B6B3A7640000 PUSH3 0x93A80 PUSH1 0x40 MLOAD DUP4 PUSH4 0xFFFFFFFF AND PUSH1 0xE0 SHL DUP2 MSTORE PUSH1 0x4 ADD PUSH2 0x97C SWAP3 SWAP2 SWAP1 PUSH2 0x28DD JUMP JUMPDEST PUSH0 PUSH1 0x40 MLOAD DUP1 DUP4 SUB DUP2 PUSH0 DUP8 DUP1 EXTCODESIZE ISZERO DUP1 ISZERO PUSH2 0x993 JUMPI PUSH0 DUP1 REVERT JUMPDEST POP GAS CALL ISZERO DUP1 ISZERO PUSH2 0x9A5 JUMPI RETURNDATASIZE PUSH0 DUP1 RETURNDATACOPY RETURNDATASIZE PUSH0 REVERT JUMPDEST POP POP POP POP PUSH0 DUP1 SLOAD SWAP1 PUSH2 0x100 EXP SWAP1 DIV PUSH20 0xFFFFFFFFFFFFFFFFFFFFFFFFFFFFFFFFFFFFFFFF AND PUSH20 0xFFFFFFFFFFFFFFFFFFFFFFFFFFFFFFFFFFFFFFFF AND PUSH4 0x5D1A2EF0 PUSH8 0x14D1120D7B160000 PUSH1 0x1 DUP5 PUSH2 0x9FA SWAP2 SWAP1 PUSH2 0x1F34 JUMP JUMPDEST PUSH1 0x40 MLOAD DUP4 PUSH4 0xFFFFFFFF AND PUSH1 0xE0 SHL DUP2 MSTORE PUSH1 0x4 ADD PUSH2 0xA16 SWAP2 SWAP1 PUSH2 0x1DB5 JUMP JUMPDEST PUSH0 PUSH1 0x40 MLOAD DUP1 DUP4 SUB DUP2 DUP6 DUP9 DUP1 EXTCODESIZE ISZERO DUP1 ISZERO PUSH2 0xA2D JUMPI PUSH0 DUP1 REVERT JUMPDEST POP GAS CALL ISZERO DUP1 ISZERO PUSH2 0xA3F JUMPI RETURNDATASIZE PUSH0 DUP1 RETURNDATACOPY RETURNDATASIZE PUSH0 REVERT JUMPDEST POP POP POP POP POP PUSH0 DUP1 PUSH0 SWAP1 SLOAD SWAP1 PUSH2 0x100 EXP SWAP1 DIV PUSH20 0xFFFFFFFFFFFFFFFFFFFFFFFFFFFFFFFFFFFFFFFF AND PUSH20 0xFFFFFFFFFFFFFFFFFFFFFFFFFFFFFFFFFFFFFFFF AND PUSH4 0x167DDF6E PUSH1 0x1 DUP5 PUSH2 0xA8E SWAP2 SWAP1 PUSH2 0x1F34 JUMP JUMPDEST PUSH1 0x40 MLOAD DUP3 PUSH4 0xFFFFFFFF AND PUSH1 0xE0 SHL DUP2 MSTORE PUSH1 0x4 ADD PUSH2 0xAAA SWAP2 SWAP1 PUSH2 0x1DB5 JUMP JUMPDEST PUSH0 PUSH1 0x40 MLOAD DUP1 DUP4 SUB DUP2 DUP7 GAS STATICCALL ISZERO DUP1 ISZERO PUSH2 0xAC4 JUMPI RETURNDATASIZE PUSH0 DUP1 RETURNDATACOPY RETURNDATASIZE PUSH0 REVERT JUMPDEST POP POP POP POP PUSH1 0x40 MLOAD RETURNDATASIZE PUSH0 DUP3 RETURNDATACOPY RETURNDATASIZE PUSH1 0x1F NOT PUSH1 0x1F DUP3 ADD AND DUP3 ADD DUP1 PUSH1 0x40 MSTORE POP DUP2 ADD SWAP1 PUSH2 0xAEC SWAP2 SWAP1 PUSH2 0x2678 JUMP JUMPDEST SWAP1 POP PUSH20 0x0 PUSH4 0xABCD7960 DUP3 PUSH1 0xE0 ADD MLOAD PUSH8 0x14D1120D7B160000 PUSH1 0x40 MLOAD DUP4 PUSH4 0xFFFFFFFF AND PUSH1 0xE0 SHL DUP2 MSTORE PUSH1 0x4 ADD PUSH2 0xB33 SWAP3 SWAP2 SWAP1 PUSH2 0x299A JUMP JUMPDEST PUSH1 0x20 PUSH1 0x40 MLOAD DUP1 DUP4 SUB DUP2 DUP7 GAS DELEGATECALL ISZERO DUP1 ISZERO PUSH2 0xB4E JUMPI RETURNDATASIZE PUSH0 DUP1 RETURNDATACOPY RETURNDATASIZE PUSH0 REVERT JUMPDEST POP POP POP POP PUSH1 0x40 MLOAD RETURNDATASIZE PUSH1 0x1F NOT PUSH1 0x1F DUP3 ADD AND DUP3 ADD DUP1 PUSH1 0x40 MSTORE POP DUP2 ADD SWAP1 PUSH2 0xB72 SWAP2 SWAP1 PUSH2 0x2065 JUMP JUMPDEST POP POP POP JUMP JUMPDEST PUSH0 DUP1 PUSH0 SWAP1 SLOAD SWAP1 PUSH2 0x100 EXP SWAP1 DIV PUSH20 0xFFFFFFFFFFFFFFFFFFFFFFFFFFFFFFFFFFFFFFFF AND PUSH20 0xFFFFFFFFFFFFFFFFFFFFFFFFFFFFFFFFFFFFFFFF AND PUSH4 0xE5FC3350 PUSH1 0x40 MLOAD DUP2 PUSH4 0xFFFFFFFF AND PUSH1 0xE0 SHL DUP2 MSTORE PUSH1 0x4 ADD PUSH1 0x20 PUSH1 0x40 MLOAD DUP1 DUP4 SUB DUP2 DUP7 GAS STATICCALL ISZERO DUP1 ISZERO PUSH2 0xBE1 JUMPI RETURNDATASIZE PUSH0 DUP1 RETURNDATACOPY RETURNDATASIZE PUSH0 REVERT JUMPDEST POP POP POP POP PUSH1 0x40 MLOAD RETURNDATASIZE PUSH1 0x1F NOT PUSH1 0x1F DUP3 ADD AND DUP3 ADD DUP1 PUSH1 0x40 MSTORE POP DUP2 ADD SWAP1 PUSH2 0xC05 SWAP2 SWAP1 PUSH2 0x1E09 JUMP JUMPDEST SWAP1 POP PUSH0 DUP1 SLOAD SWAP1 PUSH2 0x100 EXP SWAP1 DIV PUSH20 0xFFFFFFFFFFFFFFFFFFFFFFFFFFFFFFFFFFFFFFFF AND PUSH20 0xFFFFFFFFFFFFFFFFFFFFFFFFFFFFFFFFFFFFFFFF AND PUSH4 0x7F52E01 PUSH8 0xDE0B6B3A7640000 PUSH1 0x5 PUSH1 0x40 MLOAD DUP4 PUSH4 0xFFFFFFFF AND PUSH1 0xE0 SHL DUP2 MSTORE PUSH1 0x4 ADD PUSH2 0xC6A SWAP3 SWAP2 SWAP1 PUSH2 0x2AFC JUMP JUMPDEST PUSH0 PUSH1 0x40 MLOAD DUP1 DUP4 SUB DUP2 PUSH0 DUP8 DUP1 EXTCODESIZE ISZERO DUP1 ISZERO PUSH2 0xC81 JUMPI PUSH0 DUP1 REVERT JUMPDEST POP GAS CALL ISZERO DUP1 ISZERO PUSH2 0xC93 JUMPI RETURNDATASIZE PUSH0 DUP1 RETURNDATACOPY RETURNDATASIZE PUSH0 REVERT JUMPDEST POP POP POP POP PUSH0 DUP1 PUSH0 SWAP1 SLOAD SWAP1 PUSH2 0x100 EXP SWAP1 DIV PUSH20 0xFFFFFFFFFFFFFFFFFFFFFFFFFFFFFFFFFFFFFFFF AND PUSH20 0xFFFFFFFFFFFFFFFFFFFFFFFFFFFFFFFFFFFFFFFF AND PUSH4 0x167DDF6E PUSH1 0x1 DUP5 PUSH2 0xCE1 SWAP2 SWAP1 PUSH2 0x1F34 JUMP JUMPDEST PUSH1 0x40 MLOAD DUP3 PUSH4 0xFFFFFFFF AND PUSH1 0xE0 SHL DUP2 MSTORE PUSH1 0x4 ADD PUSH2 0xCFD SWAP2 SWAP1 PUSH2 0x1DB5 JUMP JUMPDEST PUSH0 PUSH1 0x40 MLOAD DUP1 DUP4 SUB DUP2 DUP7 GAS STATICCALL ISZERO DUP1 ISZERO PUSH2 0xD17 JUMPI RETURNDATASIZE PUSH0 DUP1 RETURNDATACOPY RETURNDATASIZE PUSH0 REVERT JUMPDEST POP POP POP POP PUSH1 0x40 MLOAD RETURNDATASIZE PUSH0 DUP3 RETURNDATACOPY RETURNDATASIZE PUSH1 0x1F NOT PUSH1 0x1F DUP3 ADD AND DUP3 ADD DUP1 PUSH1 0x40 MSTORE POP DUP2 ADD SWAP1 PUSH2 0xD3F SWAP2 SWAP1 PUSH2 0x2678 JUMP JUMPDEST SWAP1 POP PUSH20 0x0 PUSH4 0xE8C2CB16 DUP3 PUSH1 0x40 ADD MLOAD PUSH1 0x40 MLOAD DUP3 PUSH4 0xFFFFFFFF AND PUSH1 0xE0 SHL DUP2 MSTORE PUSH1 0x4 ADD PUSH2 0xD7C SWAP2 SWAP1 PUSH2 0x2C1D JUMP JUMPDEST PUSH1 0x20 PUSH1 0x40 MLOAD DUP1 DUP4 SUB DUP2 DUP7 GAS DELEGATECALL ISZERO DUP1 ISZERO PUSH2 0xD97 JUMPI RETURNDATASIZE PUSH0 DUP1 RETURNDATACOPY RETURNDATASIZE PUSH0 REVERT JUMPDEST POP POP POP POP PUSH1 0x40 MLOAD RETURNDATASIZE PUSH1 0x1F NOT PUSH1 0x1F DUP3 ADD AND DUP3 ADD DUP1 PUSH1 0x40 MSTORE POP DUP2 ADD SWAP1 PUSH2 0xDBB SWAP2 SWAP1 PUSH2 0x2065 JUMP JUMPDEST POP PUSH20 0x0 PUSH4 0xABCD7960 PUSH0 DUP1 SLOAD SWAP1 PUSH2 0x100 EXP SWAP1 DIV PUSH20 0xFFFFFFFFFFFFFFFFFFFFFFFFFFFFFFFFFFFFFFFF AND PUSH20 0xFFFFFFFFFFFFFFFFFFFFFFFFFFFFFFFFFFFFFFFF AND PUSH4 0xE5FC3350 PUSH1 0x40 MLOAD DUP2 PUSH4 0xFFFFFFFF AND PUSH1 0xE0 SHL DUP2 MSTORE PUSH1 0x4 ADD PUSH1 0x20 PUSH1 0x40 MLOAD DUP1 DUP4 SUB DUP2 DUP7 GAS STATICCALL ISZERO DUP1 ISZERO PUSH2 0xE3E JUMPI RETURNDATASIZE PUSH0 DUP1 RETURNDATACOPY RETURNDATASIZE PUSH0 REVERT JUMPDEST POP POP POP POP PUSH1 0x40 MLOAD RETURNDATASIZE PUSH1 0x1F NOT PUSH1 0x1F DUP3 ADD AND DUP3 ADD DUP1 PUSH1 0x40 MSTORE POP DUP2 ADD SWAP1 PUSH2 0xE62 SWAP2 SWAP1 PUSH2 0x1E09 JUMP JUMPDEST PUSH1 0x1 DUP6 PUSH2 0xE6F SWAP2 SWAP1 PUSH2 0x1F34 JUMP JUMPDEST PUSH1 0x40 MLOAD DUP4 PUSH4 0xFFFFFFFF AND PUSH1 0xE0 SHL DUP2 MSTORE PUSH1 0x4 ADD PUSH2 0xE8C SWAP3 SWAP2 SWAP1 PUSH2 0x2CD3 JUMP JUMPDEST PUSH1 0x20 PUSH1 0x40 MLOAD DUP1 DUP4 SUB DUP2 DUP7 GAS DELEGATECALL ISZERO DUP1 ISZERO PUSH2 0xEA7 JUMPI RETURNDATASIZE PUSH0 DUP1 RETURNDATACOPY RETURNDATASIZE PUSH0 REVERT JUMPDEST POP POP POP POP PUSH1 0x40 MLOAD RETURNDATASIZE PUSH1 0x1F NOT PUSH1 0x1F DUP3 ADD AND DUP3 ADD DUP1 PUSH1 0x40 MSTORE POP DUP2 ADD SWAP1 PUSH2 0xECB SWAP2 SWAP1 PUSH2 0x2065 JUMP JUMPDEST POP POP POP JUMP JUMPDEST PUSH0 DUP1 PUSH0 SWAP1 SLOAD SWAP1 PUSH2 0x100 EXP SWAP1 DIV PUSH20 0xFFFFFFFFFFFFFFFFFFFFFFFFFFFFFFFFFFFFFFFF AND PUSH20 0xFFFFFFFFFFFFFFFFFFFFFFFFFFFFFFFFFFFFFFFF AND PUSH4 0xE5FC3350 PUSH1 0x40 MLOAD DUP2 PUSH4 0xFFFFFFFF AND PUSH1 0xE0 SHL DUP2 MSTORE PUSH1 0x4 ADD PUSH1 0x20 PUSH1 0x40 MLOAD DUP1 DUP4 SUB DUP2 DUP7 GAS STATICCALL ISZERO DUP1 ISZERO PUSH2 0xF3A JUMPI RETURNDATASIZE PUSH0 DUP1 RETURNDATACOPY RETURNDATASIZE PUSH0 REVERT JUMPDEST POP POP POP POP PUSH1 0x40 MLOAD RETURNDATASIZE PUSH1 0x1F NOT PUSH1 0x1F DUP3 ADD AND DUP3 ADD DUP1 PUSH1 0x40 MSTORE POP DUP2 ADD SWAP1 PUSH2 0xF5E SWAP2 SWAP1 PUSH2 0x1E09 JUMP JUMPDEST SWAP1 POP PUSH0 DUP1 SLOAD SWAP1 PUSH2 0x100 EXP SWAP1 DIV PUSH20 0xFFFFFFFFFFFFFFFFFFFFFFFFFFFFFFFFFFFFFFFF AND PUSH20 0xFFFFFFFFFFFFFFFFFFFFFFFFFFFFFFFFFFFFFFFF AND PUSH4 0x7F52E01 PUSH8 0xDE0B6B3A7640000 PUSH3 0x93A80 PUSH1 0x40 MLOAD DUP4 PUSH4 0xFFFFFFFF AND PUSH1 0xE0 SHL DUP2 MSTORE PUSH1 0x4 ADD PUSH2 0xFC5 SWAP3 SWAP2 SWAP1 PUSH2 0x2E35 JUMP JUMPDEST PUSH0 PUSH1 0x40 MLOAD DUP1 DUP4 SUB DUP2 PUSH0 DUP8 DUP1 EXTCODESIZE ISZERO DUP1 ISZERO PUSH2 0xFDC JUMPI PUSH0 DUP1 REVERT JUMPDEST POP GAS CALL ISZERO DUP1 ISZERO PUSH2 0xFEE JUMPI RETURNDATASIZE PUSH0 DUP1 RETURNDATACOPY RETURNDATASIZE PUSH0 REVERT JUMPDEST POP POP POP POP PUSH0 DUP1 SLOAD SWAP1 PUSH2 0x100 EXP SWAP1 DIV PUSH20 0xFFFFFFFFFFFFFFFFFFFFFFFFFFFFFFFFFFFFFFFF AND PUSH20 0xFFFFFFFFFFFFFFFFFFFFFFFFFFFFFFFFFFFFFFFF AND PUSH4 0x6FA68AE6 PUSH1 0x1 DUP4 PUSH2 0x103A SWAP2 SWAP1 PUSH2 0x1F34 JUMP JUMPDEST PUSH1 0x40 MLOAD DUP3 PUSH4 0xFFFFFFFF AND PUSH1 0xE0 SHL DUP2 MSTORE PUSH1 0x4 ADD PUSH2 0x1056 SWAP2 SWAP1 PUSH2 0x2FD0 JUMP JUMPDEST PUSH0 PUSH1 0x40 MLOAD DUP1 DUP4 SUB DUP2 PUSH0 DUP8 DUP1 EXTCODESIZE ISZERO DUP1 ISZERO PUSH2 0x106D JUMPI PUSH0 DUP1 REVERT JUMPDEST POP GAS CALL ISZERO DUP1 ISZERO PUSH2 0x107F JUMPI RETURNDATASIZE PUSH0 DUP1 RETURNDATACOPY RETURNDATASIZE PUSH0 REVERT JUMPDEST POP POP POP POP PUSH0 DUP1 PUSH0 SWAP1 SLOAD SWAP1 PUSH2 0x100 EXP SWAP1 DIV PUSH20 0xFFFFFFFFFFFFFFFFFFFFFFFFFFFFFFFFFFFFFFFF AND PUSH20 0xFFFFFFFFFFFFFFFFFFFFFFFFFFFFFFFFFFFFFFFF AND PUSH4 0x167DDF6E PUSH1 0x1 DUP5 PUSH2 0x10CD SWAP2 SWAP1 PUSH2 0x1F34 JUMP JUMPDEST PUSH1 0x40 MLOAD DUP3 PUSH4 0xFFFFFFFF AND PUSH1 0xE0 SHL DUP2 MSTORE PUSH1 0x4 ADD PUSH2 0x10E9 SWAP2 SWAP1 PUSH2 0x1DB5 JUMP JUMPDEST PUSH0 PUSH1 0x40 MLOAD DUP1 DUP4 SUB DUP2 DUP7 GAS STATICCALL ISZERO DUP1 ISZERO PUSH2 0x1103 JUMPI RETURNDATASIZE PUSH0 DUP1 RETURNDATACOPY RETURNDATASIZE PUSH0 REVERT JUMPDEST POP POP POP POP PUSH1 0x40 MLOAD RETURNDATASIZE PUSH0 DUP3 RETURNDATACOPY RETURNDATASIZE PUSH1 0x1F NOT PUSH1 0x1F DUP3 ADD AND DUP3 ADD DUP1 PUSH1 0x40 MSTORE POP DUP2 ADD SWAP1 PUSH2 0x112B SWAP2 SWAP1 PUSH2 0x2678 JUMP JUMPDEST SWAP1 POP PUSH20 0x0 PUSH4 0xE8C2CB16 DUP3 PUSH1 0x40 ADD MLOAD PUSH1 0x40 MLOAD DUP3 PUSH4 0xFFFFFFFF AND PUSH1 0xE0 SHL DUP2 MSTORE PUSH1 0x4 ADD PUSH2 0x1168 SWAP2 SWAP1 PUSH2 0x30A1 JUMP JUMPDEST PUSH1 0x20 PUSH1 0x40 MLOAD DUP1 DUP4 SUB DUP2 DUP7 GAS DELEGATECALL ISZERO DUP1 ISZERO PUSH2 0x1183 JUMPI RETURNDATASIZE PUSH0 DUP1 RETURNDATACOPY RETURNDATASIZE PUSH0 REVERT JUMPDEST POP POP POP POP PUSH1 0x40 MLOAD RETURNDATASIZE PUSH1 0x1F NOT PUSH1 0x1F DUP3 ADD AND DUP3 ADD DUP1 PUSH1 0x40 MSTORE POP DUP2 ADD SWAP1 PUSH2 0x11A7 SWAP2 SWAP1 PUSH2 0x2065 JUMP JUMPDEST POP POP POP JUMP JUMPDEST PUSH0 DUP1 PUSH0 SWAP1 SLOAD SWAP1 PUSH2 0x100 EXP SWAP1 DIV PUSH20 0xFFFFFFFFFFFFFFFFFFFFFFFFFFFFFFFFFFFFFFFF AND PUSH20 0xFFFFFFFFFFFFFFFFFFFFFFFFFFFFFFFFFFFFFFFF AND PUSH4 0xE5FC3350 PUSH1 0x40 MLOAD DUP2 PUSH4 0xFFFFFFFF AND PUSH1 0xE0 SHL DUP2 MSTORE PUSH1 0x4 ADD PUSH1 0x20 PUSH1 0x40 MLOAD DUP1 DUP4 SUB DUP2 DUP7 GAS STATICCALL ISZERO DUP1 ISZERO PUSH2 0x1216 JUMPI RETURNDATASIZE PUSH0 DUP1 RETURNDATACOPY RETURNDATASIZE PUSH0 REVERT JUMPDEST POP POP POP POP PUSH1 0x40 MLOAD RETURNDATASIZE PUSH1 0x1F NOT PUSH1 0x1F DUP3 ADD AND DUP3 ADD DUP1 PUSH1 0x40 MSTORE POP DUP2 ADD SWAP1 PUSH2 0x123A SWAP2 SWAP1 PUSH2 0x1E09 JUMP JUMPDEST SWAP1 POP PUSH0 DUP1 SLOAD SWAP1 PUSH2 0x100 EXP SWAP1 DIV PUSH20 0xFFFFFFFFFFFFFFFFFFFFFFFFFFFFFFFFFFFFFFFF AND PUSH20 0xFFFFFFFFFFFFFFFFFFFFFFFFFFFFFFFFFFFFFFFF AND PUSH4 0x7F52E01 PUSH8 0xDE0B6B3A7640000 PUSH3 0x93A80 PUSH1 0x40 MLOAD DUP4 PUSH4 0xFFFFFFFF AND PUSH1 0xE0 SHL DUP2 MSTORE PUSH1 0x4 ADD PUSH2 0x12A1 SWAP3 SWAP2 SWAP1 PUSH2 0x320F JUMP JUMPDEST PUSH0 PUSH1 0x40 MLOAD DUP1 DUP4 SUB DUP2 PUSH0 DUP8 DUP1 EXTCODESIZE ISZERO DUP1 ISZERO PUSH2 0x12B8 JUMPI PUSH0 DUP1 REVERT JUMPDEST POP GAS CALL ISZERO DUP1 ISZERO PUSH2 0x12CA JUMPI RETURNDATASIZE PUSH0 DUP1 RETURNDATACOPY RETURNDATASIZE PUSH0 REVERT JUMPDEST POP POP POP POP PUSH0 DUP1 SLOAD SWAP1 PUSH2 0x100 EXP SWAP1 DIV PUSH20 0xFFFFFFFFFFFFFFFFFFFFFFFFFFFFFFFFFFFFFFFF AND PUSH20 0xFFFFFFFFFFFFFFFFFFFFFFFFFFFFFFFFFFFFFFFF AND PUSH4 0xD856664 PUSH1 0x1 DUP4 PUSH2 0x1316 SWAP2 SWAP1 PUSH2 0x1F34 JUMP JUMPDEST PUSH3 0xD2F00 TIMESTAMP PUSH2 0x1325 SWAP2 SWAP1 PUSH2 0x1F34 JUMP JUMPDEST PUSH8 0x1BC16D674EC80000 PUSH1 0x40 MLOAD DUP5 PUSH4 0xFFFFFFFF AND PUSH1 0xE0 SHL DUP2 MSTORE PUSH1 0x4 ADD PUSH2 0x134C SWAP4 SWAP3 SWAP2 SWAP1 PUSH2 0x32BB JUMP JUMPDEST PUSH0 PUSH1 0x40 MLOAD DUP1 DUP4 SUB DUP2 PUSH0 DUP8 DUP1 EXTCODESIZE ISZERO DUP1 ISZERO PUSH2 0x1363 JUMPI PUSH0 DUP1 REVERT JUMPDEST POP GAS CALL ISZERO DUP1 ISZERO PUSH2 0x1375 JUMPI RETURNDATASIZE PUSH0 DUP1 RETURNDATACOPY RETURNDATASIZE PUSH0 REVERT JUMPDEST POP POP POP POP PUSH0 DUP1 PUSH0 SWAP1 SLOAD SWAP1 PUSH2 0x100 EXP SWAP1 DIV PUSH20 0xFFFFFFFFFFFFFFFFFFFFFFFFFFFFFFFFFFFFFFFF AND PUSH20 0xFFFFFFFFFFFFFFFFFFFFFFFFFFFFFFFFFFFFFFFF AND PUSH4 0x167DDF6E PUSH1 0x1 DUP5 PUSH2 0x13C3 SWAP2 SWAP1 PUSH2 0x1F34 JUMP JUMPDEST PUSH1 0x40 MLOAD DUP3 PUSH4 0xFFFFFFFF AND PUSH1 0xE0 SHL DUP2 MSTORE PUSH1 0x4 ADD PUSH2 0x13DF SWAP2 SWAP1 PUSH2 0x1DB5 JUMP JUMPDEST PUSH0 PUSH1 0x40 MLOAD DUP1 DUP4 SUB DUP2 DUP7 GAS STATICCALL ISZERO DUP1 ISZERO PUSH2 0x13F9 JUMPI RETURNDATASIZE PUSH0 DUP1 RETURNDATACOPY RETURNDATASIZE PUSH0 REVERT JUMPDEST POP POP POP POP PUSH1 0x40 MLOAD RETURNDATASIZE PUSH0 DUP3 RETURNDATACOPY RETURNDATASIZE PUSH1 0x1F NOT PUSH1 0x1F DUP3 ADD AND DUP3 ADD DUP1 PUSH1 0x40 MSTORE POP DUP2 ADD SWAP1 PUSH2 0x1421 SWAP2 SWAP1 PUSH2 0x2678 JUMP JUMPDEST SWAP1 POP PUSH20 0x0 PUSH4 0xABCD7960 DUP3 PUSH1 0xC0 ADD MLOAD PUSH8 0x1BC16D674EC80000 PUSH1 0x40 MLOAD DUP4 PUSH4 0xFFFFFFFF AND PUSH1 0xE0 SHL DUP2 MSTORE PUSH1 0x4 ADD PUSH2 0x1468 SWAP3 SWAP2 SWAP1 PUSH2 0x3349 JUMP JUMPDEST PUSH1 0x20 PUSH1 0x40 MLOAD DUP1 DUP4 SUB DUP2 DUP7 GAS DELEGATECALL ISZERO DUP1 ISZERO PUSH2 0x1483 JUMPI RETURNDATASIZE PUSH0 DUP1 RETURNDATACOPY RETURNDATASIZE PUSH0 REVERT JUMPDEST POP POP POP POP PUSH1 0x40 MLOAD RETURNDATASIZE PUSH1 0x1F NOT PUSH1 0x1F DUP3 ADD AND DUP3 ADD DUP1 PUSH1 0x40 MSTORE POP DUP2 ADD SWAP1 PUSH2 0x14A7 SWAP2 SWAP1 PUSH2 0x2065 JUMP JUMPDEST POP POP POP JUMP JUMPDEST PUSH20 0x0 PUSH4 0xCE88B145 PUSH0 PUSH1 0x40 MLOAD DUP3 PUSH4 0xFFFFFFFF AND PUSH1 0xE0 SHL DUP2 MSTORE PUSH1 0x4 ADD PUSH2 0x14E3 SWAP2 SWAP1 PUSH2 0x33BC JUMP JUMPDEST PUSH1 0x20 PUSH1 0x40 MLOAD DUP1 DUP4 SUB DUP2 DUP7 GAS DELEGATECALL ISZERO DUP1 ISZERO PUSH2 0x14FE JUMPI RETURNDATASIZE PUSH0 DUP1 RETURNDATACOPY RETURNDATASIZE PUSH0 REVERT JUMPDEST POP POP POP POP PUSH1 0x40 MLOAD RETURNDATASIZE PUSH1 0x1F NOT PUSH1 0x1F DUP3 ADD AND DUP3 ADD DUP1 PUSH1 0x40 MSTORE POP DUP2 ADD SWAP1 PUSH2 0x1522 SWAP2 SWAP1 PUSH2 0x3410 JUMP JUMPDEST PUSH1 0x1 PUSH0 PUSH2 0x100 EXP DUP2 SLOAD DUP2 PUSH20 0xFFFFFFFFFFFFFFFFFFFFFFFFFFFFFFFFFFFFFFFF MUL NOT AND SWAP1 DUP4 PUSH20 0xFFFFFFFFFFFFFFFFFFFFFFFFFFFFFFFFFFFFFFFF AND MUL OR SWAP1 SSTORE POP PUSH20 0x0 PUSH4 0xCE88B145 PUSH1 0x1 PUSH1 0x40 MLOAD DUP3 PUSH4 0xFFFFFFFF AND PUSH1 0xE0 SHL DUP2 MSTORE PUSH1 0x4 ADD PUSH2 0x1599 SWAP2 SWAP1 PUSH2 0x344A JUMP JUMPDEST PUSH1 0x20 PUSH1 0x40 MLOAD DUP1 DUP4 SUB DUP2 DUP7 GAS DELEGATECALL ISZERO DUP1 ISZERO PUSH2 0x15B4 JUMPI RETURNDATASIZE PUSH0 DUP1 RETURNDATACOPY RETURNDATASIZE PUSH0 REVERT JUMPDEST POP POP POP POP PUSH1 0x40 MLOAD RETURNDATASIZE PUSH1 0x1F NOT PUSH1 0x1F DUP3 ADD AND DUP3 ADD DUP1 PUSH1 0x40 MSTORE POP DUP2 ADD SWAP1 PUSH2 0x15D8 SWAP2 SWAP1 PUSH2 0x3410 JUMP JUMPDEST PUSH1 0x2 PUSH0 PUSH2 0x100 EXP DUP2 SLOAD DUP2 PUSH20 0xFFFFFFFFFFFFFFFFFFFFFFFFFFFFFFFFFFFFFFFF MUL NOT AND SWAP1 DUP4 PUSH20 0xFFFFFFFFFFFFFFFFFFFFFFFFFFFFFFFFFFFFFFFF AND MUL OR SWAP1 SSTORE POP PUSH20 0x0 PUSH4 0xCE88B145 PUSH1 0x2 PUSH1 0x40 MLOAD DUP3 PUSH4 0xFFFFFFFF AND PUSH1 0xE0 SHL DUP2 MSTORE PUSH1 0x4 ADD PUSH2 0x164F SWAP2 SWAP1 PUSH2 0x349C JUMP JUMPDEST PUSH1 0x20 PUSH1 0x40 MLOAD DUP1 DUP4 SUB DUP2 DUP7 GAS DELEGATECALL ISZERO DUP1 ISZERO PUSH2 0x166A JUMPI RETURNDATASIZE PUSH0 DUP1 RETURNDATACOPY RETURNDATASIZE PUSH0 REVERT JUMPDEST POP POP POP POP PUSH1 0x40 MLOAD RETURNDATASIZE PUSH1 0x1F NOT PUSH1 0x1F DUP3 ADD AND DUP3 ADD DUP1 PUSH1 0x40 MSTORE POP DUP2 ADD SWAP1 PUSH2 0x168E SWAP2 SWAP1 PUSH2 0x3410 JUMP JUMPDEST PUSH1 0x3 PUSH0 PUSH2 0x100 EXP DUP2 SLOAD DUP2 PUSH20 0xFFFFFFFFFFFFFFFFFFFFFFFFFFFFFFFFFFFFFFFF MUL NOT AND SWAP1 DUP4 PUSH20 0xFFFFFFFFFFFFFFFFFFFFFFFFFFFFFFFFFFFFFFFF AND MUL OR SWAP1 SSTORE POP JUMP JUMPDEST PUSH20 0x0 PUSH4 0xBFBA5DD6 CALLER PUSH20 0x0 PUSH4 0xCE88B145 PUSH1 0x1 PUSH1 0x40 MLOAD DUP3 PUSH4 0xFFFFFFFF AND PUSH1 0xE0 SHL DUP2 MSTORE PUSH1 0x4 ADD PUSH2 0x1722 SWAP2 SWAP1 PUSH2 0x344A JUMP JUMPDEST PUSH1 0x20 PUSH1 0x40 MLOAD DUP1 DUP4 SUB DUP2 DUP7 GAS DELEGATECALL ISZERO DUP1 ISZERO PUSH2 0x173D JUMPI RETURNDATASIZE PUSH0 DUP1 RETURNDATACOPY RETURNDATASIZE PUSH0 REVERT JUMPDEST POP POP POP POP PUSH1 0x40 MLOAD RETURNDATASIZE PUSH1 0x1F NOT PUSH1 0x1F DUP3 ADD AND DUP3 ADD DUP1 PUSH1 0x40 MSTORE POP DUP2 ADD SWAP1 PUSH2 0x1761 SWAP2 SWAP1 PUSH2 0x3410 JUMP JUMPDEST PUSH1 0x40 MLOAD DUP4 PUSH4 0xFFFFFFFF AND PUSH1 0xE0 SHL DUP2 MSTORE PUSH1 0x4 ADD PUSH2 0x177E SWAP3 SWAP2 SWAP1 PUSH2 0x350E JUMP JUMPDEST PUSH1 0x20 PUSH1 0x40 MLOAD DUP1 DUP4 SUB DUP2 DUP7 GAS DELEGATECALL ISZERO DUP1 ISZERO PUSH2 0x1799 JUMPI RETURNDATASIZE PUSH0 DUP1 RETURNDATACOPY RETURNDATASIZE PUSH0 REVERT JUMPDEST POP POP POP POP PUSH1 0x40 MLOAD RETURNDATASIZE PUSH1 0x1F NOT PUSH1 0x1F DUP3 ADD AND DUP3 ADD DUP1 PUSH1 0x40 MSTORE POP DUP2 ADD SWAP1 PUSH2 0x17BD SWAP2 SWAP1 PUSH2 0x2065 JUMP JUMPDEST POP PUSH20 0x0 PUSH4 0xABCD7960 CALLVALUE PUSH1 0x64 PUSH1 0x40 MLOAD DUP4 PUSH4 0xFFFFFFFF AND PUSH1 0xE0 SHL DUP2 MSTORE PUSH1 0x4 ADD PUSH2 0x17F8 SWAP3 SWAP2 SWAP1 PUSH2 0x35CB JUMP JUMPDEST PUSH1 0x20 PUSH1 0x40 MLOAD DUP1 DUP4 SUB DUP2 DUP7 GAS DELEGATECALL ISZERO DUP1 ISZERO PUSH2 0x1813 JUMPI RETURNDATASIZE PUSH0 DUP1 RETURNDATACOPY RETURNDATASIZE PUSH0 REVERT JUMPDEST POP POP POP POP PUSH1 0x40 MLOAD RETURNDATASIZE PUSH1 0x1F NOT PUSH1 0x1F DUP3 ADD AND DUP3 ADD DUP1 PUSH1 0x40 MSTORE POP DUP2 ADD SWAP1 PUSH2 0x1837 SWAP2 SWAP1 PUSH2 0x2065 JUMP JUMPDEST POP JUMP JUMPDEST PUSH0 DUP1 PUSH0 SWAP1 SLOAD SWAP1 PUSH2 0x100 EXP SWAP1 DIV PUSH20 0xFFFFFFFFFFFFFFFFFFFFFFFFFFFFFFFFFFFFFFFF AND PUSH20 0xFFFFFFFFFFFFFFFFFFFFFFFFFFFFFFFFFFFFFFFF AND PUSH4 0xE5FC3350 PUSH1 0x40 MLOAD DUP2 PUSH4 0xFFFFFFFF AND PUSH1 0xE0 SHL DUP2 MSTORE PUSH1 0x4 ADD PUSH1 0x20 PUSH1 0x40 MLOAD DUP1 DUP4 SUB DUP2 DUP7 GAS STATICCALL ISZERO DUP1 ISZERO PUSH2 0x18A4 JUMPI RETURNDATASIZE PUSH0 DUP1 RETURNDATACOPY RETURNDATASIZE PUSH0 REVERT JUMPDEST POP POP POP POP PUSH1 0x40 MLOAD RETURNDATASIZE PUSH1 0x1F NOT PUSH1 0x1F DUP3 ADD AND DUP3 ADD DUP1 PUSH1 0x40 MSTORE POP DUP2 ADD SWAP1 PUSH2 0x18C8 SWAP2 SWAP1 PUSH2 0x1E09 JUMP JUMPDEST SWAP1 POP PUSH0 DUP1 PUSH0 SWAP1 SLOAD SWAP1 PUSH2 0x100 EXP SWAP1 DIV PUSH20 0xFFFFFFFFFFFFFFFFFFFFFFFFFFFFFFFFFFFFFFFF AND PUSH20 0xFFFFFFFFFFFFFFFFFFFFFFFFFFFFFFFFFFFFFFFF AND PUSH4 0xF94C8E98 PUSH1 0x40 MLOAD DUP2 PUSH4 0xFFFFFFFF AND PUSH1 0xE0 SHL DUP2 MSTORE PUSH1 0x4 ADD PUSH1 0x20 PUSH1 0x40 MLOAD DUP1 DUP4 SUB DUP2 DUP7 GAS STATICCALL ISZERO DUP1 ISZERO PUSH2 0x1934 JUMPI RETURNDATASIZE PUSH0 DUP1 RETURNDATACOPY RETURNDATASIZE PUSH0 REVERT JUMPDEST POP POP POP POP PUSH1 0x40 MLOAD RETURNDATASIZE PUSH1 0x1F NOT PUSH1 0x1F DUP3 ADD AND DUP3 ADD DUP1 PUSH1 0x40 MSTORE POP DUP2 ADD SWAP1 PUSH2 0x1958 SWAP2 SWAP1 PUSH2 0x1E09 JUMP JUMPDEST SWAP1 POP PUSH20 0x0 PUSH4 0x39DF137F PUSH0 DUP5 LT ISZERO PUSH1 0x40 MLOAD DUP3 PUSH4 0xFFFFFFFF AND PUSH1 0xE0 SHL DUP2 MSTORE PUSH1 0x4 ADD PUSH2 0x1994 SWAP2 SWAP1 PUSH2 0x3684 JUMP JUMPDEST PUSH1 0x20 PUSH1 0x40 MLOAD DUP1 DUP4 SUB DUP2 DUP7 GAS DELEGATECALL ISZERO DUP1 ISZERO PUSH2 0x19AF JUMPI RETURNDATASIZE PUSH0 DUP1 RETURNDATACOPY RETURNDATASIZE PUSH0 REVERT JUMPDEST POP POP POP POP PUSH1 0x40 MLOAD RETURNDATASIZE PUSH1 0x1F NOT PUSH1 0x1F DUP3 ADD AND DUP3 ADD DUP1 PUSH1 0x40 MSTORE POP DUP2 ADD SWAP1 PUSH2 0x19D3 SWAP2 SWAP1 PUSH2 0x2065 JUMP JUMPDEST POP PUSH20 0x0 PUSH4 0x39DF137F PUSH0 DUP4 LT ISZERO PUSH1 0x40 MLOAD DUP3 PUSH4 0xFFFFFFFF AND PUSH1 0xE0 SHL DUP2 MSTORE PUSH1 0x4 ADD PUSH2 0x1A0E SWAP2 SWAP1 PUSH2 0x3720 JUMP JUMPDEST PUSH1 0x20 PUSH1 0x40 MLOAD DUP1 DUP4 SUB DUP2 DUP7 GAS DELEGATECALL ISZERO DUP1 ISZERO PUSH2 0x1A29 JUMPI RETURNDATASIZE PUSH0 DUP1 RETURNDATACOPY RETURNDATASIZE PUSH0 REVERT JUMPDEST POP POP POP POP PUSH1 0x40 MLOAD RETURNDATASIZE PUSH1 0x1F NOT PUSH1 0x1F DUP3 ADD AND DUP3 ADD DUP1 PUSH1 0x40 MSTORE POP DUP2 ADD SWAP1 PUSH2 0x1A4D SWAP2 SWAP1 PUSH2 0x2065 JUMP JUMPDEST POP PUSH20 0x0 PUSH4 0xABCD7960 PUSH0 DUP1 SLOAD SWAP1 PUSH2 0x100 EXP SWAP1 DIV PUSH20 0xFFFFFFFFFFFFFFFFFFFFFFFFFFFFFFFFFFFFFFFF AND PUSH20 0xFFFFFFFFFFFFFFFFFFFFFFFFFFFFFFFFFFFFFFFF AND PUSH4 0x12065FE0 PUSH1 0x40 MLOAD DUP2 PUSH4 0xFFFFFFFF AND PUSH1 0xE0 SHL DUP2 MSTORE PUSH1 0x4 ADD PUSH1 0x20 PUSH1 0x40 MLOAD DUP1 DUP4 SUB DUP2 DUP7 GAS STATICCALL ISZERO DUP1 ISZERO PUSH2 0x1AD0 JUMPI RETURNDATASIZE PUSH0 DUP1 RETURNDATACOPY RETURNDATASIZE PUSH0 REVERT JUMPDEST POP POP POP POP PUSH1 0x40 MLOAD RETURNDATASIZE PUSH1 0x1F NOT PUSH1 0x1F DUP3 ADD AND DUP3 ADD DUP1 PUSH1 0x40 MSTORE POP DUP2 ADD SWAP1 PUSH2 0x1AF4 SWAP2 SWAP1 PUSH2 0x1E09 JUMP JUMPDEST PUSH8 0x1BC16D674EC80000 PUSH1 0x40 MLOAD DUP4 PUSH4 0xFFFFFFFF AND PUSH1 0xE0 SHL DUP2 MSTORE PUSH1 0x4 ADD PUSH2 0x1B1A SWAP3 SWAP2 SWAP1 PUSH2 0x37BC JUMP JUMPDEST PUSH1 0x20 PUSH1 0x40 MLOAD DUP1 DUP4 SUB DUP2 DUP7 GAS DELEGATECALL ISZERO DUP1 ISZERO PUSH2 0x1B35 JUMPI RETURNDATASIZE PUSH0 DUP1 RETURNDATACOPY RETURNDATASIZE PUSH0 REVERT JUMPDEST POP POP POP POP PUSH1 0x40 MLOAD RETURNDATASIZE PUSH1 0x1F NOT PUSH1 0x1F DUP3 ADD AND DUP3 ADD DUP1 PUSH1 0x40 MSTORE POP DUP2 ADD SWAP1 PUSH2 0x1B59 SWAP2 SWAP1 PUSH2 0x2065 JUMP JUMPDEST POP POP POP JUMP JUMPDEST PUSH0 DUP1 PUSH0 SWAP1 SLOAD SWAP1 PUSH2 0x100 EXP SWAP1 DIV PUSH20 0xFFFFFFFFFFFFFFFFFFFFFFFFFFFFFFFFFFFFFFFF AND PUSH20 0xFFFFFFFFFFFFFFFFFFFFFFFFFFFFFFFFFFFFFFFF AND PUSH4 0xE5FC3350 PUSH1 0x40 MLOAD DUP2 PUSH4 0xFFFFFFFF AND PUSH1 0xE0 SHL DUP2 MSTORE PUSH1 0x4 ADD PUSH1 0x20 PUSH1 0x40 MLOAD DUP1 DUP4 SUB DUP2 DUP7 GAS STATICCALL ISZERO DUP1 ISZERO PUSH2 0x1BC8 JUMPI RETURNDATASIZE PUSH0 DUP1 RETURNDATACOPY RETURNDATASIZE PUSH0 REVERT JUMPDEST POP POP POP POP PUSH1 0x40 MLOAD RETURNDATASIZE PUSH1 0x1F NOT PUSH1 0x1F DUP3 ADD AND DUP3 ADD DUP1 PUSH1 0x40 MSTORE POP DUP2 ADD SWAP1 PUSH2 0x1BEC SWAP2 SWAP1 PUSH2 0x1E09 JUMP JUMPDEST SWAP1 POP PUSH0 DUP1 SLOAD SWAP1 PUSH2 0x100 EXP SWAP1 DIV PUSH20 0xFFFFFFFFFFFFFFFFFFFFFFFFFFFFFFFFFFFFFFFF AND PUSH20 0xFFFFFFFFFFFFFFFFFFFFFFFFFFFFFFFFFFFFFFFF AND PUSH4 0x7F52E01 PUSH8 0xDE0B6B3A7640000 PUSH3 0x93A80 PUSH1 0x40 MLOAD DUP4 PUSH4 0xFFFFFFFF AND PUSH1 0xE0 SHL DUP2 MSTORE PUSH1 0x4 ADD PUSH2 0x1C53 SWAP3 SWAP2 SWAP1 PUSH2 0x391E JUMP JUMPDEST PUSH0 PUSH1 0x40 MLOAD DUP1 DUP4 SUB DUP2 PUSH0 DUP8 DUP1 EXTCODESIZE ISZERO DUP1 ISZERO PUSH2 0x1C6A JUMPI PUSH0 DUP1 REVERT JUMPDEST POP GAS CALL ISZERO DUP1 ISZERO PUSH2 0x1C7C JUMPI RETURNDATASIZE PUSH0 DUP1 RETURNDATACOPY RETURNDATASIZE PUSH0 REVERT JUMPDEST POP POP POP POP PUSH0 DUP1 PUSH0 SWAP1 SLOAD SWAP1 PUSH2 0x100 EXP SWAP1 DIV PUSH20 0xFFFFFFFFFFFFFFFFFFFFFFFFFFFFFFFFFFFFFFFF AND PUSH20 0xFFFFFFFFFFFFFFFFFFFFFFFFFFFFFFFFFFFFFFFF AND PUSH4 0x9C0CC30C PUSH1 0x40 MLOAD DUP2 PUSH4 0xFFFFFFFF AND PUSH1 0xE0 SHL DUP2 MSTORE PUSH1 0x4 ADD PUSH0 PUSH1 0x40 MLOAD DUP1 DUP4 SUB DUP2 DUP7 GAS STATICCALL ISZERO DUP1 ISZERO PUSH2 0x1CE9 JUMPI RETURNDATASIZE PUSH0 DUP1 RETURNDATACOPY RETURNDATASIZE PUSH0 REVERT JUMPDEST POP POP POP POP PUSH1 0x40 MLOAD RETURNDATASIZE PUSH0 DUP3 RETURNDATACOPY RETURNDATASIZE PUSH1 0x1F NOT PUSH1 0x1F DUP3 ADD AND DUP3 ADD DUP1 PUSH1 0x40 MSTORE POP DUP2 ADD SWAP1 PUSH2 0x1D11 SWAP2 SWAP1 PUSH2 0x3A73 JUMP JUMPDEST SWAP1 POP PUSH20 0x0 PUSH4 0xABCD7960 DUP3 MLOAD PUSH1 0x1 DUP6 PUSH2 0x1D3C SWAP2 SWAP1 PUSH2 0x1F34 JUMP JUMPDEST PUSH1 0x40 MLOAD DUP4 PUSH4 0xFFFFFFFF AND PUSH1 0xE0 SHL DUP2 MSTORE PUSH1 0x4 ADD PUSH2 0x1D59 SWAP3 SWAP2 SWAP1 PUSH2 0x3B04 JUMP JUMPDEST PUSH1 0x20 PUSH1 0x40 MLOAD DUP1 DUP4 SUB DUP2 DUP7 GAS DELEGATECALL ISZERO DUP1 ISZERO PUSH2 0x1D74 JUMPI RETURNDATASIZE PUSH0 DUP1 RETURNDATACOPY RETURNDATASIZE PUSH0 REVERT JUMPDEST POP POP POP POP PUSH1 0x40 MLOAD RETURNDATASIZE PUSH1 0x1F NOT PUSH1 0x1F DUP3 ADD AND DUP3 ADD DUP1 PUSH1 0x40 MSTORE POP DUP2 ADD SWAP1 PUSH2 0x1D98 SWAP2 SWAP1 PUSH2 0x2065 JUMP JUMPDEST POP POP POP JUMP JUMPDEST PUSH0 DUP2 SWAP1 POP SWAP2 SWAP1 POP JUMP JUMPDEST PUSH2 0x1DAF DUP2 PUSH2 0x1D9D JUMP JUMPDEST DUP3 MSTORE POP POP JUMP JUMPDEST PUSH0 PUSH1 0x20 DUP3 ADD SWAP1 POP PUSH2 0x1DC8 PUSH0 DUP4 ADD DUP5 PUSH2 0x1DA6 JUMP JUMPDEST SWAP3 SWAP2 POP POP JUMP JUMPDEST PUSH0 PUSH1 0x40 MLOAD SWAP1 POP SWAP1 JUMP JUMPDEST PUSH0 DUP1 REVERT JUMPDEST PUSH0 DUP1 REVERT JUMPDEST PUSH2 0x1DE8 DUP2 PUSH2 0x1D9D JUMP JUMPDEST DUP2 EQ PUSH2 0x1DF2 JUMPI PUSH0 DUP1 REVERT JUMPDEST POP JUMP JUMPDEST PUSH0 DUP2 MLOAD SWAP1 POP PUSH2 0x1E03 DUP2 PUSH2 0x1DDF JUMP JUMPDEST SWAP3 SWAP2 POP POP JUMP JUMPDEST PUSH0 PUSH1 0x20 DUP3 DUP5 SUB SLT ISZERO PUSH2 0x1E1E JUMPI PUSH2 0x1E1D PUSH2 0x1DD7 JUMP JUMPDEST JUMPDEST PUSH0 PUSH2 0x1E2B DUP5 DUP3 DUP6 ADD PUSH2 0x1DF5 JUMP JUMPDEST SWAP2 POP POP SWAP3 SWAP2 POP POP JUMP JUMPDEST PUSH0 DUP3 DUP3 MSTORE PUSH1 0x20 DUP3 ADD SWAP1 POP SWAP3 SWAP2 POP POP JUMP JUMPDEST PUSH32 0x4E6F206C6976652061756374696F6E7320746F20656E642E0000000000000000 PUSH0 DUP3 ADD MSTORE POP JUMP JUMPDEST PUSH0 PUSH2 0x1E78 PUSH1 0x18 DUP4 PUSH2 0x1E34 JUMP JUMPDEST SWAP2 POP PUSH2 0x1E83 DUP3 PUSH2 0x1E44 JUMP JUMPDEST PUSH1 0x20 DUP3 ADD SWAP1 POP SWAP2 SWAP1 POP JUMP JUMPDEST PUSH0 PUSH1 0x20 DUP3 ADD SWAP1 POP DUP2 DUP2 SUB PUSH0 DUP4 ADD MSTORE PUSH2 0x1EA5 DUP2 PUSH2 0x1E6C JUMP JUMPDEST SWAP1 POP SWAP2 SWAP1 POP JUMP JUMPDEST PUSH0 DUP2 SWAP1 POP SWAP2 SWAP1 POP JUMP JUMPDEST PUSH0 DUP2 SWAP1 POP SWAP2 SWAP1 POP JUMP JUMPDEST PUSH0 PUSH2 0x1ED8 PUSH2 0x1ED3 PUSH2 0x1ECE DUP5 PUSH2 0x1EAC JUMP JUMPDEST PUSH2 0x1EB5 JUMP JUMPDEST PUSH2 0x1D9D JUMP JUMPDEST SWAP1 POP SWAP2 SWAP1 POP JUMP JUMPDEST PUSH2 0x1EE8 DUP2 PUSH2 0x1EBE JUMP JUMPDEST DUP3 MSTORE POP POP JUMP JUMPDEST PUSH0 PUSH1 0x20 DUP3 ADD SWAP1 POP PUSH2 0x1F01 PUSH0 DUP4 ADD DUP5 PUSH2 0x1EDF JUMP JUMPDEST SWAP3 SWAP2 POP POP JUMP JUMPDEST PUSH32 0x4E487B7100000000000000000000000000000000000000000000000000000000 PUSH0 MSTORE PUSH1 0x11 PUSH1 0x4 MSTORE PUSH1 0x24 PUSH0 REVERT JUMPDEST PUSH0 PUSH2 0x1F3E DUP3 PUSH2 0x1D9D JUMP JUMPDEST SWAP2 POP PUSH2 0x1F49 DUP4 PUSH2 0x1D9D JUMP JUMPDEST SWAP3 POP DUP3 DUP3 ADD SWAP1 POP DUP1 DUP3 GT ISZERO PUSH2 0x1F61 JUMPI PUSH2 0x1F60 PUSH2 0x1F07 JUMP JUMPDEST JUMPDEST SWAP3 SWAP2 POP POP JUMP JUMPDEST PUSH2 0x1F70 DUP2 PUSH2 0x1D9D JUMP JUMPDEST DUP3 MSTORE POP POP JUMP JUMPDEST PUSH0 DUP3 DUP3 MSTORE PUSH1 0x20 DUP3 ADD SWAP1 POP SWAP3 SWAP2 POP POP JUMP JUMPDEST PUSH32 0x456E6465642061756374696F6E7320636F756E742073686F756C642068617665 PUSH0 DUP3 ADD MSTORE PUSH32 0x20696E6372656D656E7465642062792031000000000000000000000000000000 PUSH1 0x20 DUP3 ADD MSTORE POP JUMP JUMPDEST PUSH0 PUSH2 0x1FE0 PUSH1 0x31 DUP4 PUSH2 0x1F76 JUMP JUMPDEST SWAP2 POP PUSH2 0x1FEB DUP3 PUSH2 0x1F86 JUMP JUMPDEST PUSH1 0x40 DUP3 ADD SWAP1 POP SWAP2 SWAP1 POP JUMP JUMPDEST PUSH0 PUSH1 0x60 DUP3 ADD SWAP1 POP PUSH2 0x2009 PUSH0 DUP4 ADD DUP6 PUSH2 0x1F67 JUMP JUMPDEST PUSH2 0x2016 PUSH1 0x20 DUP4 ADD DUP5 PUSH2 0x1F67 JUMP JUMPDEST DUP2 DUP2 SUB PUSH1 0x40 DUP4 ADD MSTORE PUSH2 0x2027 DUP2 PUSH2 0x1FD4 JUMP JUMPDEST SWAP1 POP SWAP4 SWAP3 POP POP POP JUMP JUMPDEST PUSH0 DUP2 ISZERO ISZERO SWAP1 POP SWAP2 SWAP1 POP JUMP JUMPDEST PUSH2 0x2044 DUP2 PUSH2 0x2030 JUMP JUMPDEST DUP2 EQ PUSH2 0x204E JUMPI PUSH0 DUP1 REVERT JUMPDEST POP JUMP JUMPDEST PUSH0 DUP2 MLOAD SWAP1 POP PUSH2 0x205F DUP2 PUSH2 0x203B JUMP JUMPDEST SWAP3 SWAP2 POP POP JUMP JUMPDEST PUSH0 PUSH1 0x20 DUP3 DUP5 SUB SLT ISZERO PUSH2 0x207A JUMPI PUSH2 0x2079 PUSH2 0x1DD7 JUMP JUMPDEST JUMPDEST PUSH0 PUSH2 0x2087 DUP5 DUP3 DUP6 ADD PUSH2 0x2051 JUMP JUMPDEST SWAP2 POP POP SWAP3 SWAP2 POP POP JUMP JUMPDEST PUSH32 0x4172746973742042000000000000000000000000000000000000000000000000 PUSH0 DUP3 ADD MSTORE POP JUMP JUMPDEST PUSH0 PUSH2 0x20C4 PUSH1 0x8 DUP4 PUSH2 0x1E34 JUMP JUMPDEST SWAP2 POP PUSH2 0x20CF DUP3 PUSH2 0x2090 JUMP JUMPDEST PUSH1 0x20 DUP3 ADD SWAP1 POP SWAP2 SWAP1 POP JUMP JUMPDEST PUSH32 0x323032332D30312D303200000000000000000000000000000000000000000000 PUSH0 DUP3 ADD MSTORE POP JUMP JUMPDEST PUSH0 PUSH2 0x210E PUSH1 0xA DUP4 PUSH2 0x1E34 JUMP JUMPDEST SWAP2 POP PUSH2 0x2119 DUP3 PUSH2 0x20DA JUMP JUMPDEST PUSH1 0x20 DUP3 ADD SWAP1 POP SWAP2 SWAP1 POP JUMP JUMPDEST PUSH32 0x5761746572636F6C6F7200000000000000000000000000000000000000000000 PUSH0 DUP3 ADD MSTORE POP JUMP JUMPDEST PUSH0 PUSH2 0x2158 PUSH1 0xA DUP4 PUSH2 0x1E34 JUMP JUMPDEST SWAP2 POP PUSH2 0x2163 DUP3 PUSH2 0x2124 JUMP JUMPDEST PUSH1 0x20 DUP3 ADD SWAP1 POP SWAP2 SWAP1 POP JUMP JUMPDEST PUSH32 0x3430783430000000000000000000000000000000000000000000000000000000 PUSH0 DUP3 ADD MSTORE POP JUMP JUMPDEST PUSH0 PUSH2 0x21A2 PUSH1 0x5 DUP4 PUSH2 0x1E34 JUMP JUMPDEST SWAP2 POP PUSH2 0x21AD DUP3 PUSH2 0x216E JUMP JUMPDEST PUSH1 0x20 DUP3 ADD SWAP1 POP SWAP2 SWAP1 POP JUMP JUMPDEST PUSH0 DUP2 SWAP1 POP SWAP2 SWAP1 POP JUMP JUMPDEST PUSH0 PUSH2 0x21DB PUSH2 0x21D6 PUSH2 0x21D1 DUP5 PUSH2 0x21B8 JUMP JUMPDEST PUSH2 0x1EB5 JUMP JUMPDEST PUSH2 0x1D9D JUMP JUMPDEST SWAP1 POP SWAP2 SWAP1 POP JUMP JUMPDEST PUSH2 0x21EB DUP2 PUSH2 0x21C1 JUMP JUMPDEST DUP3 MSTORE POP POP JUMP JUMPDEST PUSH0 DUP2 SWAP1 POP SWAP2 SWAP1 POP JUMP JUMPDEST PUSH0 PUSH2 0x2214 PUSH2 0x220F PUSH2 0x220A DUP5 PUSH2 0x21F1 JUMP JUMPDEST PUSH2 0x1EB5 JUMP JUMPDEST PUSH2 0x1D9D JUMP JUMPDEST SWAP1 POP SWAP2 SWAP1 POP JUMP JUMPDEST PUSH2 0x2224 DUP2 PUSH2 0x21FA JUMP JUMPDEST DUP3 MSTORE POP POP JUMP JUMPDEST PUSH0 PUSH1 0xC0 DUP3 ADD SWAP1 POP DUP2 DUP2 SUB PUSH0 DUP4 ADD MSTORE PUSH2 0x2241 DUP2 PUSH2 0x20B8 JUMP JUMPDEST SWAP1 POP DUP2 DUP2 SUB PUSH1 0x20 DUP4 ADD MSTORE PUSH2 0x2254 DUP2 PUSH2 0x2102 JUMP JUMPDEST SWAP1 POP DUP2 DUP2 SUB PUSH1 0x40 DUP4 ADD MSTORE PUSH2 0x2267 DUP2 PUSH2 0x214C JUMP JUMPDEST SWAP1 POP DUP2 DUP2 SUB PUSH1 0x60 DUP4 ADD MSTORE PUSH2 0x227A DUP2 PUSH2 0x2196 JUMP JUMPDEST SWAP1 POP PUSH2 0x2289 PUSH1 0x80 DUP4 ADD DUP6 PUSH2 0x21E2 JUMP JUMPDEST PUSH2 0x2296 PUSH1 0xA0 DUP4 ADD DUP5 PUSH2 0x221B JUMP JUMPDEST SWAP4 SWAP3 POP POP POP JUMP JUMPDEST PUSH32 0x496E697469616C20636F6E74726163742062616C616E63652073686F756C6420 PUSH0 DUP3 ADD MSTORE PUSH32 0x6265203130000000000000000000000000000000000000000000000000000000 PUSH1 0x20 DUP3 ADD MSTORE POP JUMP JUMPDEST PUSH0 PUSH2 0x22F7 PUSH1 0x25 DUP4 PUSH2 0x1F76 JUMP JUMPDEST SWAP2 POP PUSH2 0x2302 DUP3 PUSH2 0x229D JUMP JUMPDEST PUSH1 0x40 DUP3 ADD SWAP1 POP SWAP2 SWAP1 POP JUMP JUMPDEST PUSH0 PUSH1 0x60 DUP3 ADD SWAP1 POP PUSH2 0x2320 PUSH0 DUP4 ADD DUP6 PUSH2 0x1F67 JUMP JUMPDEST PUSH2 0x232D PUSH1 0x20 DUP4 ADD DUP5 PUSH2 0x1F67 JUMP JUMPDEST DUP2 DUP2 SUB PUSH1 0x40 DUP4 ADD MSTORE PUSH2 0x233E DUP2 PUSH2 0x22EB JUMP JUMPDEST SWAP1 POP SWAP4 SWAP3 POP POP POP JUMP JUMPDEST PUSH0 DUP1 REVERT JUMPDEST PUSH0 PUSH1 0x1F NOT PUSH1 0x1F DUP4 ADD AND SWAP1 POP SWAP2 SWAP1 POP JUMP JUMPDEST PUSH32 0x4E487B7100000000000000000000000000000000000000000000000000000000 PUSH0 MSTORE PUSH1 0x41 PUSH1 0x4 MSTORE PUSH1 0x24 PUSH0 REVERT JUMPDEST PUSH2 0x2391 DUP3 PUSH2 0x234B JUMP JUMPDEST DUP2 ADD DUP2 DUP2 LT PUSH8 0xFFFFFFFFFFFFFFFF DUP3 GT OR ISZERO PUSH2 0x23B0 JUMPI PUSH2 0x23AF PUSH2 0x235B JUMP JUMPDEST JUMPDEST DUP1 PUSH1 0x40 MSTORE POP POP POP JUMP JUMPDEST PUSH0 PUSH2 0x23C2 PUSH2 0x1DCE JUMP JUMPDEST SWAP1 POP PUSH2 0x23CE DUP3 DUP3 PUSH2 0x2388 JUMP JUMPDEST SWAP2 SWAP1 POP JUMP JUMPDEST PUSH0 DUP1 REVERT JUMPDEST PUSH0 PUSH20 0xFFFFFFFFFFFFFFFFFFFFFFFFFFFFFFFFFFFFFFFF DUP3 AND SWAP1 POP SWAP2 SWAP1 POP JUMP JUMPDEST PUSH0 PUSH2 0x2400 DUP3 PUSH2 0x23D7 JUMP JUMPDEST SWAP1 POP SWAP2 SWAP1 POP JUMP JUMPDEST PUSH2 0x2410 DUP2 PUSH2 0x23F6 JUMP JUMPDEST DUP2 EQ PUSH2 0x241A JUMPI PUSH0 DUP1 REVERT JUMPDEST POP JUMP JUMPDEST PUSH0 DUP2 MLOAD SWAP1 POP PUSH2 0x242B DUP2 PUSH2 0x2407 JUMP JUMPDEST SWAP3 SWAP2 POP POP JUMP JUMPDEST PUSH0 DUP1 REVERT JUMPDEST PUSH0 DUP1 REVERT JUMPDEST PUSH0 PUSH8 0xFFFFFFFFFFFFFFFF DUP3 GT ISZERO PUSH2 0x2453 JUMPI PUSH2 0x2452 PUSH2 0x235B JUMP JUMPDEST JUMPDEST PUSH2 0x245C DUP3 PUSH2 0x234B JUMP JUMPDEST SWAP1 POP PUSH1 0x20 DUP2 ADD SWAP1 POP SWAP2 SWAP1 POP JUMP JUMPDEST PUSH0 JUMPDEST DUP4 DUP2 LT ISZERO PUSH2 0x2486 JUMPI DUP1 DUP3 ADD MLOAD DUP2 DUP5 ADD MSTORE PUSH1 0x20 DUP2 ADD SWAP1 POP PUSH2 0x246B JUMP JUMPDEST PUSH0 DUP5 DUP5 ADD MSTORE POP POP POP POP JUMP JUMPDEST PUSH0 PUSH2 0x24A3 PUSH2 0x249E DUP5 PUSH2 0x2439 JUMP JUMPDEST PUSH2 0x23B9 JUMP JUMPDEST SWAP1 POP DUP3 DUP2 MSTORE PUSH1 0x20 DUP2 ADD DUP5 DUP5 DUP5 ADD GT ISZERO PUSH2 0x24BF JUMPI PUSH2 0x24BE PUSH2 0x2435 JUMP JUMPDEST JUMPDEST PUSH2 0x24CA DUP5 DUP3 DUP6 PUSH2 0x2469 JUMP JUMPDEST POP SWAP4 SWAP3 POP POP POP JUMP JUMPDEST PUSH0 DUP3 PUSH1 0x1F DUP4 ADD SLT PUSH2 0x24E6 JUMPI PUSH2 0x24E5 PUSH2 0x2431 JUMP JUMPDEST JUMPDEST DUP2 MLOAD PUSH2 0x24F6 DUP5 DUP3 PUSH1 0x20 DUP7 ADD PUSH2 0x2491 JUMP JUMPDEST SWAP2 POP POP SWAP3 SWAP2 POP POP JUMP JUMPDEST PUSH0 PUSH2 0x160 DUP3 DUP5 SUB SLT ISZERO PUSH2 0x2515 JUMPI PUSH2 0x2514 PUSH2 0x2347 JUMP JUMPDEST JUMPDEST PUSH2 0x2520 PUSH2 0x160 PUSH2 0x23B9 JUMP JUMPDEST SWAP1 POP PUSH0 PUSH2 0x252F DUP5 DUP3 DUP6 ADD PUSH2 0x1DF5 JUMP JUMPDEST PUSH0 DUP4 ADD MSTORE POP PUSH1 0x20 PUSH2 0x2542 DUP5 DUP3 DUP6 ADD PUSH2 0x241D JUMP JUMPDEST PUSH1 0x20 DUP4 ADD MSTORE POP PUSH1 0x40 DUP3 ADD MLOAD PUSH8 0xFFFFFFFFFFFFFFFF DUP2 GT ISZERO PUSH2 0x2566 JUMPI PUSH2 0x2565 PUSH2 0x23D3 JUMP JUMPDEST JUMPDEST PUSH2 0x2572 DUP5 DUP3 DUP6 ADD PUSH2 0x24D2 JUMP JUMPDEST PUSH1 0x40 DUP4 ADD MSTORE POP PUSH1 0x60 DUP3 ADD MLOAD PUSH8 0xFFFFFFFFFFFFFFFF DUP2 GT ISZERO PUSH2 0x2596 JUMPI PUSH2 0x2595 PUSH2 0x23D3 JUMP JUMPDEST JUMPDEST PUSH2 0x25A2 DUP5 DUP3 DUP6 ADD PUSH2 0x24D2 JUMP JUMPDEST PUSH1 0x60 DUP4 ADD MSTORE POP PUSH1 0x80 DUP3 ADD MLOAD PUSH8 0xFFFFFFFFFFFFFFFF DUP2 GT ISZERO PUSH2 0x25C6 JUMPI PUSH2 0x25C5 PUSH2 0x23D3 JUMP JUMPDEST JUMPDEST PUSH2 0x25D2 DUP5 DUP3 DUP6 ADD PUSH2 0x24D2 JUMP JUMPDEST PUSH1 0x80 DUP4 ADD MSTORE POP PUSH1 0xA0 DUP3 ADD MLOAD PUSH8 0xFFFFFFFFFFFFFFFF DUP2 GT ISZERO PUSH2 0x25F6 JUMPI PUSH2 0x25F5 PUSH2 0x23D3 JUMP JUMPDEST JUMPDEST PUSH2 0x2602 DUP5 DUP3 DUP6 ADD PUSH2 0x24D2 JUMP JUMPDEST PUSH1 0xA0 DUP4 ADD MSTORE POP PUSH1 0xC0 PUSH2 0x2616 DUP5 DUP3 DUP6 ADD PUSH2 0x1DF5 JUMP JUMPDEST PUSH1 0xC0 DUP4 ADD MSTORE POP PUSH1 0xE0 PUSH2 0x262A DUP5 DUP3 DUP6 ADD PUSH2 0x1DF5 JUMP JUMPDEST PUSH1 0xE0 DUP4 ADD MSTORE POP PUSH2 0x100 PUSH2 0x263F DUP5 DUP3 DUP6 ADD PUSH2 0x241D JUMP JUMPDEST PUSH2 0x100 DUP4 ADD MSTORE POP PUSH2 0x120 PUSH2 0x2655 DUP5 DUP3 DUP6 ADD PUSH2 0x1DF5 JUMP JUMPDEST PUSH2 0x120 DUP4 ADD MSTORE POP PUSH2 0x140 PUSH2 0x266B DUP5 DUP3 DUP6 ADD PUSH2 0x2051 JUMP JUMPDEST PUSH2 0x140 DUP4 ADD MSTORE POP SWAP3 SWAP2 POP POP JUMP JUMPDEST PUSH0 PUSH1 0x20 DUP3 DUP5 SUB SLT ISZERO PUSH2 0x268D JUMPI PUSH2 0x268C PUSH2 0x1DD7 JUMP JUMPDEST JUMPDEST PUSH0 DUP3 ADD MLOAD PUSH8 0xFFFFFFFFFFFFFFFF DUP2 GT ISZERO PUSH2 0x26AA JUMPI PUSH2 0x26A9 PUSH2 0x1DDB JUMP JUMPDEST JUMPDEST PUSH2 0x26B6 DUP5 DUP3 DUP6 ADD PUSH2 0x24FF JUMP JUMPDEST SWAP2 POP POP SWAP3 SWAP2 POP POP JUMP JUMPDEST PUSH0 DUP2 SWAP1 POP SWAP2 SWAP1 POP JUMP JUMPDEST PUSH0 PUSH2 0x26E2 PUSH2 0x26DD PUSH2 0x26D8 DUP5 PUSH2 0x26BF JUMP JUMPDEST PUSH2 0x1EB5 JUMP JUMPDEST PUSH2 0x1D9D JUMP JUMPDEST SWAP1 POP SWAP2 SWAP1 POP JUMP JUMPDEST PUSH2 0x26F2 DUP2 PUSH2 0x26C8 JUMP JUMPDEST DUP3 MSTORE POP POP JUMP JUMPDEST PUSH32 0x42696420616D6F756E7420696E636F72726563742E0000000000000000000000 PUSH0 DUP3 ADD MSTORE POP JUMP JUMPDEST PUSH0 PUSH2 0x272C PUSH1 0x15 DUP4 PUSH2 0x1F76 JUMP JUMPDEST SWAP2 POP PUSH2 0x2737 DUP3 PUSH2 0x26F8 JUMP JUMPDEST PUSH1 0x20 DUP3 ADD SWAP1 POP SWAP2 SWAP1 POP JUMP JUMPDEST PUSH0 PUSH1 0x60 DUP3 ADD SWAP1 POP PUSH2 0x2755 PUSH0 DUP4 ADD DUP6 PUSH2 0x1F67 JUMP JUMPDEST PUSH2 0x2762 PUSH1 0x20 DUP4 ADD DUP5 PUSH2 0x26E9 JUMP JUMPDEST DUP2 DUP2 SUB PUSH1 0x40 DUP4 ADD MSTORE PUSH2 0x2773 DUP2 PUSH2 0x2720 JUMP JUMPDEST SWAP1 POP SWAP4 SWAP3 POP POP POP JUMP JUMPDEST PUSH32 0x4172746973742046000000000000000000000000000000000000000000000000 PUSH0 DUP3 ADD MSTORE POP JUMP JUMPDEST PUSH0 PUSH2 0x27B0 PUSH1 0x8 DUP4 PUSH2 0x1E34 JUMP JUMPDEST SWAP2 POP PUSH2 0x27BB DUP3 PUSH2 0x277C JUMP JUMPDEST PUSH1 0x20 DUP3 ADD SWAP1 POP SWAP2 SWAP1 POP JUMP JUMPDEST PUSH32 0x323032332D30312D303700000000000000000000000000000000000000000000 PUSH0 DUP3 ADD MSTORE POP JUMP JUMPDEST PUSH0 PUSH2 0x27FA PUSH1 0xA DUP4 PUSH2 0x1E34 JUMP JUMPDEST SWAP2 POP PUSH2 0x2805 DUP3 PUSH2 0x27C6 JUMP JUMPDEST PUSH1 0x20 DUP3 ADD SWAP1 POP SWAP2 SWAP1 POP JUMP JUMPDEST PUSH32 0x50617374656C0000000000000000000000000000000000000000000000000000 PUSH0 DUP3 ADD MSTORE POP JUMP JUMPDEST PUSH0 PUSH2 0x2844 PUSH1 0x6 DUP4 PUSH2 0x1E34 JUMP JUMPDEST SWAP2 POP PUSH2 0x284F DUP3 PUSH2 0x2810 JUMP JUMPDEST PUSH1 0x20 DUP3 ADD SWAP1 POP SWAP2 SWAP1 POP JUMP JUMPDEST PUSH32 0x3730783730000000000000000000000000000000000000000000000000000000 PUSH0 DUP3 ADD MSTORE POP JUMP JUMPDEST PUSH0 PUSH2 0x288E PUSH1 0x5 DUP4 PUSH2 0x1E34 JUMP JUMPDEST SWAP2 POP PUSH2 0x2899 DUP3 PUSH2 0x285A JUMP JUMPDEST PUSH1 0x20 DUP3 ADD SWAP1 POP SWAP2 SWAP1 POP JUMP JUMPDEST PUSH0 DUP2 SWAP1 POP SWAP2 SWAP1 POP JUMP JUMPDEST PUSH0 PUSH2 0x28C7 PUSH2 0x28C2 PUSH2 0x28BD DUP5 PUSH2 0x28A4 JUMP JUMPDEST PUSH2 0x1EB5 JUMP JUMPDEST PUSH2 0x1D9D JUMP JUMPDEST SWAP1 POP SWAP2 SWAP1 POP JUMP JUMPDEST PUSH2 0x28D7 DUP2 PUSH2 0x28AD JUMP JUMPDEST DUP3 MSTORE POP POP JUMP JUMPDEST PUSH0 PUSH1 0xC0 DUP3 ADD SWAP1 POP DUP2 DUP2 SUB PUSH0 DUP4 ADD MSTORE PUSH2 0x28F4 DUP2 PUSH2 0x27A4 JUMP JUMPDEST SWAP1 POP DUP2 DUP2 SUB PUSH1 0x20 DUP4 ADD MSTORE PUSH2 0x2907 DUP2 PUSH2 0x27EE JUMP JUMPDEST SWAP1 POP DUP2 DUP2 SUB PUSH1 0x40 DUP4 ADD MSTORE PUSH2 0x291A DUP2 PUSH2 0x2838 JUMP JUMPDEST SWAP1 POP DUP2 DUP2 SUB PUSH1 0x60 DUP4 ADD MSTORE PUSH2 0x292D DUP2 PUSH2 0x2882 JUMP JUMPDEST SWAP1 POP PUSH2 0x293C PUSH1 0x80 DUP4 ADD DUP6 PUSH2 0x21E2 JUMP JUMPDEST PUSH2 0x2949 PUSH1 0xA0 DUP4 ADD DUP5 PUSH2 0x28CE JUMP JUMPDEST SWAP4 SWAP3 POP POP POP JUMP JUMPDEST PUSH32 0x496E697469616C2062696420616D6F756E7420696E636F72726563742E000000 PUSH0 DUP3 ADD MSTORE POP JUMP JUMPDEST PUSH0 PUSH2 0x2984 PUSH1 0x1D DUP4 PUSH2 0x1F76 JUMP JUMPDEST SWAP2 POP PUSH2 0x298F DUP3 PUSH2 0x2950 JUMP JUMPDEST PUSH1 0x20 DUP3 ADD SWAP1 POP SWAP2 SWAP1 POP JUMP JUMPDEST PUSH0 PUSH1 0x60 DUP3 ADD SWAP1 POP PUSH2 0x29AD PUSH0 DUP4 ADD DUP6 PUSH2 0x1F67 JUMP JUMPDEST PUSH2 0x29BA PUSH1 0x20 DUP4 ADD DUP5 PUSH2 0x26E9 JUMP JUMPDEST DUP2 DUP2 SUB PUSH1 0x40 DUP4 ADD MSTORE PUSH2 0x29CB DUP2 PUSH2 0x2978 JUMP JUMPDEST SWAP1 POP SWAP4 SWAP3 POP POP POP JUMP JUMPDEST PUSH32 0x4172746973742041000000000000000000000000000000000000000000000000 PUSH0 DUP3 ADD MSTORE POP JUMP JUMPDEST PUSH0 PUSH2 0x2A08 PUSH1 0x8 DUP4 PUSH2 0x1E34 JUMP JUMPDEST SWAP2 POP PUSH2 0x2A13 DUP3 PUSH2 0x29D4 JUMP JUMPDEST PUSH1 0x20 DUP3 ADD SWAP1 POP SWAP2 SWAP1 POP JUMP JUMPDEST PUSH32 0x323032332D30312D303100000000000000000000000000000000000000000000 PUSH0 DUP3 ADD MSTORE POP JUMP JUMPDEST PUSH0 PUSH2 0x2A52 PUSH1 0xA DUP4 PUSH2 0x1E34 JUMP JUMPDEST SWAP2 POP PUSH2 0x2A5D DUP3 PUSH2 0x2A1E JUMP JUMPDEST PUSH1 0x20 DUP3 ADD SWAP1 POP SWAP2 SWAP1 POP JUMP JUMPDEST PUSH32 0x4F696C0000000000000000000000000000000000000000000000000000000000 PUSH0 DUP3 ADD MSTORE POP JUMP JUMPDEST PUSH0 PUSH2 0x2A9C PUSH1 0x3 DUP4 PUSH2 0x1E34 JUMP JUMPDEST SWAP2 POP PUSH2 0x2AA7 DUP3 PUSH2 0x2A68 JUMP JUMPDEST PUSH1 0x20 DUP3 ADD SWAP1 POP SWAP2 SWAP1 POP JUMP JUMPDEST PUSH32 0x3530783530000000000000000000000000000000000000000000000000000000 PUSH0 DUP3 ADD MSTORE POP JUMP JUMPDEST PUSH0 PUSH2 0x2AE6 PUSH1 0x5 DUP4 PUSH2 0x1E34 JUMP JUMPDEST SWAP2 POP PUSH2 0x2AF1 DUP3 PUSH2 0x2AB2 JUMP JUMPDEST PUSH1 0x20 DUP3 ADD SWAP1 POP SWAP2 SWAP1 POP JUMP JUMPDEST PUSH0 PUSH1 0xC0 DUP3 ADD SWAP1 POP DUP2 DUP2 SUB PUSH0 DUP4 ADD MSTORE PUSH2 0x2B13 DUP2 PUSH2 0x29FC JUMP JUMPDEST SWAP1 POP DUP2 DUP2 SUB PUSH1 0x20 DUP4 ADD MSTORE PUSH2 0x2B26 DUP2 PUSH2 0x2A46 JUMP JUMPDEST SWAP1 POP DUP2 DUP2 SUB PUSH1 0x40 DUP4 ADD MSTORE PUSH2 0x2B39 DUP2 PUSH2 0x2A90 JUMP JUMPDEST SWAP1 POP DUP2 DUP2 SUB PUSH1 0x60 DUP4 ADD MSTORE PUSH2 0x2B4C DUP2 PUSH2 0x2ADA JUMP JUMPDEST SWAP1 POP PUSH2 0x2B5B PUSH1 0x80 DUP4 ADD DUP6 PUSH2 0x21E2 JUMP JUMPDEST PUSH2 0x2B68 PUSH1 0xA0 DUP4 ADD DUP5 PUSH2 0x221B JUMP JUMPDEST SWAP4 SWAP3 POP POP POP JUMP JUMPDEST PUSH0 DUP2 MLOAD SWAP1 POP SWAP2 SWAP1 POP JUMP JUMPDEST PUSH0 PUSH2 0x2B83 DUP3 PUSH2 0x2B6F JUMP JUMPDEST PUSH2 0x2B8D DUP2 DUP6 PUSH2 0x1F76 JUMP JUMPDEST SWAP4 POP PUSH2 0x2B9D DUP2 DUP6 PUSH1 0x20 DUP7 ADD PUSH2 0x2469 JUMP JUMPDEST PUSH2 0x2BA6 DUP2 PUSH2 0x234B JUMP JUMPDEST DUP5 ADD SWAP2 POP POP SWAP3 SWAP2 POP POP JUMP JUMPDEST PUSH0 PUSH2 0x2BBD PUSH1 0x8 DUP4 PUSH2 0x1F76 JUMP JUMPDEST SWAP2 POP PUSH2 0x2BC8 DUP3 PUSH2 0x29D4 JUMP JUMPDEST PUSH1 0x20 DUP3 ADD SWAP1 POP SWAP2 SWAP1 POP JUMP JUMPDEST PUSH32 0x417274776F726B206C697374696E67206661696C65642E000000000000000000 PUSH0 DUP3 ADD MSTORE POP JUMP JUMPDEST PUSH0 PUSH2 0x2C07 PUSH1 0x17 DUP4 PUSH2 0x1F76 JUMP JUMPDEST SWAP2 POP PUSH2 0x2C12 DUP3 PUSH2 0x2BD3 JUMP JUMPDEST PUSH1 0x20 DUP3 ADD SWAP1 POP SWAP2 SWAP1 POP JUMP JUMPDEST PUSH0 PUSH1 0x60 DUP3 ADD SWAP1 POP DUP2 DUP2 SUB PUSH0 DUP4 ADD MSTORE PUSH2 0x2C35 DUP2 DUP5 PUSH2 0x2B79 JUMP JUMPDEST SWAP1 POP DUP2 DUP2 SUB PUSH1 0x20 DUP4 ADD MSTORE PUSH2 0x2C48 DUP2 PUSH2 0x2BB1 JUMP JUMPDEST SWAP1 POP DUP2 DUP2 SUB PUSH1 0x40 DUP4 ADD MSTORE PUSH2 0x2C5B DUP2 PUSH2 0x2BFB JUMP JUMPDEST SWAP1 POP SWAP3 SWAP2 POP POP JUMP JUMPDEST PUSH32 0x4C6976652061756374696F6E7320636F756E742073686F756C64206861766520 PUSH0 DUP3 ADD MSTORE PUSH32 0x696E6372656D656E746564206279203100000000000000000000000000000000 PUSH1 0x20 DUP3 ADD MSTORE POP JUMP JUMPDEST PUSH0 PUSH2 0x2CBD PUSH1 0x30 DUP4 PUSH2 0x1F76 JUMP JUMPDEST SWAP2 POP PUSH2 0x2CC8 DUP3 PUSH2 0x2C63 JUMP JUMPDEST PUSH1 0x40 DUP3 ADD SWAP1 POP SWAP2 SWAP1 POP JUMP JUMPDEST PUSH0 PUSH1 0x60 DUP3 ADD SWAP1 POP PUSH2 0x2CE6 PUSH0 DUP4 ADD DUP6 PUSH2 0x1F67 JUMP JUMPDEST PUSH2 0x2CF3 PUSH1 0x20 DUP4 ADD DUP5 PUSH2 0x1F67 JUMP JUMPDEST DUP2 DUP2 SUB PUSH1 0x40 DUP4 ADD MSTORE PUSH2 0x2D04 DUP2 PUSH2 0x2CB1 JUMP JUMPDEST SWAP1 POP SWAP4 SWAP3 POP POP POP JUMP JUMPDEST PUSH32 0x4172746973742044000000000000000000000000000000000000000000000000 PUSH0 DUP3 ADD MSTORE POP JUMP JUMPDEST PUSH0 PUSH2 0x2D41 PUSH1 0x8 DUP4 PUSH2 0x1E34 JUMP JUMPDEST SWAP2 POP PUSH2 0x2D4C DUP3 PUSH2 0x2D0D JUMP JUMPDEST PUSH1 0x20 DUP3 ADD SWAP1 POP SWAP2 SWAP1 POP JUMP JUMPDEST PUSH32 0x323032332D30312D303400000000000000000000000000000000000000000000 PUSH0 DUP3 ADD MSTORE POP JUMP JUMPDEST PUSH0 PUSH2 0x2D8B PUSH1 0xA DUP4 PUSH2 0x1E34 JUMP JUMPDEST SWAP2 POP PUSH2 0x2D96 DUP3 PUSH2 0x2D57 JUMP JUMPDEST PUSH1 0x20 DUP3 ADD SWAP1 POP SWAP2 SWAP1 POP JUMP JUMPDEST PUSH32 0x43686172636F616C000000000000000000000000000000000000000000000000 PUSH0 DUP3 ADD MSTORE POP JUMP JUMPDEST PUSH0 PUSH2 0x2DD5 PUSH1 0x8 DUP4 PUSH2 0x1E34 JUMP JUMPDEST SWAP2 POP PUSH2 0x2DE0 DUP3 PUSH2 0x2DA1 JUMP JUMPDEST PUSH1 0x20 DUP3 ADD SWAP1 POP SWAP2 SWAP1 POP JUMP JUMPDEST PUSH32 0x3330783330000000000000000000000000000000000000000000000000000000 PUSH0 DUP3 ADD MSTORE POP JUMP JUMPDEST PUSH0 PUSH2 0x2E1F PUSH1 0x5 DUP4 PUSH2 0x1E34 JUMP JUMPDEST SWAP2 POP PUSH2 0x2E2A DUP3 PUSH2 0x2DEB JUMP JUMPDEST PUSH1 0x20 DUP3 ADD SWAP1 POP SWAP2 SWAP1 POP JUMP JUMPDEST PUSH0 PUSH1 0xC0 DUP3 ADD SWAP1 POP DUP2 DUP2 SUB PUSH0 DUP4 ADD MSTORE PUSH2 0x2E4C DUP2 PUSH2 0x2D35 JUMP JUMPDEST SWAP1 POP DUP2 DUP2 SUB PUSH1 0x20 DUP4 ADD MSTORE PUSH2 0x2E5F DUP2 PUSH2 0x2D7F JUMP JUMPDEST SWAP1 POP DUP2 DUP2 SUB PUSH1 0x40 DUP4 ADD MSTORE PUSH2 0x2E72 DUP2 PUSH2 0x2DC9 JUMP JUMPDEST SWAP1 POP DUP2 DUP2 SUB PUSH1 0x60 DUP4 ADD MSTORE PUSH2 0x2E85 DUP2 PUSH2 0x2E13 JUMP JUMPDEST SWAP1 POP PUSH2 0x2E94 PUSH1 0x80 DUP4 ADD DUP6 PUSH2 0x21E2 JUMP JUMPDEST PUSH2 0x2EA1 PUSH1 0xA0 DUP4 ADD DUP5 PUSH2 0x28CE JUMP JUMPDEST SWAP4 SWAP3 POP POP POP JUMP JUMPDEST PUSH32 0x5570646174656420417274697374000000000000000000000000000000000000 PUSH0 DUP3 ADD MSTORE POP JUMP JUMPDEST PUSH0 PUSH2 0x2EDC PUSH1 0xE DUP4 PUSH2 0x1E34 JUMP JUMPDEST SWAP2 POP PUSH2 0x2EE7 DUP3 PUSH2 0x2EA8 JUMP JUMPDEST PUSH1 0x20 DUP3 ADD SWAP1 POP SWAP2 SWAP1 POP JUMP JUMPDEST PUSH32 0x323032332D30312D303500000000000000000000000000000000000000000000 PUSH0 DUP3 ADD MSTORE POP JUMP JUMPDEST PUSH0 PUSH2 0x2F26 PUSH1 0xA DUP4 PUSH2 0x1E34 JUMP JUMPDEST SWAP2 POP PUSH2 0x2F31 DUP3 PUSH2 0x2EF2 JUMP JUMPDEST PUSH1 0x20 DUP3 ADD SWAP1 POP SWAP2 SWAP1 POP JUMP JUMPDEST PUSH32 0x55706461746564204D656469756D000000000000000000000000000000000000 PUSH0 DUP3 ADD MSTORE POP JUMP JUMPDEST PUSH0 PUSH2 0x2F70 PUSH1 0xE DUP4 PUSH2 0x1E34 JUMP JUMPDEST SWAP2 POP PUSH2 0x2F7B DUP3 PUSH2 0x2F3C JUMP JUMPDEST PUSH1 0x20 DUP3 ADD SWAP1 POP SWAP2 SWAP1 POP JUMP JUMPDEST PUSH32 0x3630783630000000000000000000000000000000000000000000000000000000 PUSH0 DUP3 ADD MSTORE POP JUMP JUMPDEST PUSH0 PUSH2 0x2FBA PUSH1 0x5 DUP4 PUSH2 0x1E34 JUMP JUMPDEST SWAP2 POP PUSH2 0x2FC5 DUP3 PUSH2 0x2F86 JUMP JUMPDEST PUSH1 0x20 DUP3 ADD SWAP1 POP SWAP2 SWAP1 POP JUMP JUMPDEST PUSH0 PUSH1 0xA0 DUP3 ADD SWAP1 POP PUSH2 0x2FE3 PUSH0 DUP4 ADD DUP5 PUSH2 0x1DA6 JUMP JUMPDEST DUP2 DUP2 SUB PUSH1 0x20 DUP4 ADD MSTORE PUSH2 0x2FF4 DUP2 PUSH2 0x2ED0 JUMP JUMPDEST SWAP1 POP DUP2 DUP2 SUB PUSH1 0x40 DUP4 ADD MSTORE PUSH2 0x3007 DUP2 PUSH2 0x2F1A JUMP JUMPDEST SWAP1 POP DUP2 DUP2 SUB PUSH1 0x60 DUP4 ADD MSTORE PUSH2 0x301A DUP2 PUSH2 0x2F64 JUMP JUMPDEST SWAP1 POP DUP2 DUP2 SUB PUSH1 0x80 DUP4 ADD MSTORE PUSH2 0x302D DUP2 PUSH2 0x2FAE JUMP JUMPDEST SWAP1 POP SWAP3 SWAP2 POP POP JUMP JUMPDEST PUSH0 PUSH2 0x3041 PUSH1 0xE DUP4 PUSH2 0x1F76 JUMP JUMPDEST SWAP2 POP PUSH2 0x304C DUP3 PUSH2 0x2EA8 JUMP JUMPDEST PUSH1 0x20 DUP3 ADD SWAP1 POP SWAP2 SWAP1 POP JUMP JUMPDEST PUSH32 0x417274776F726B20757064617465206661696C65642E00000000000000000000 PUSH0 DUP3 ADD MSTORE POP JUMP JUMPDEST PUSH0 PUSH2 0x308B PUSH1 0x16 DUP4 PUSH2 0x1F76 JUMP JUMPDEST SWAP2 POP PUSH2 0x3096 DUP3 PUSH2 0x3057 JUMP JUMPDEST PUSH1 0x20 DUP3 ADD SWAP1 POP SWAP2 SWAP1 POP JUMP JUMPDEST PUSH0 PUSH1 0x60 DUP3 ADD SWAP1 POP DUP2 DUP2 SUB PUSH0 DUP4 ADD MSTORE PUSH2 0x30B9 DUP2 DUP5 PUSH2 0x2B79 JUMP JUMPDEST SWAP1 POP DUP2 DUP2 SUB PUSH1 0x20 DUP4 ADD MSTORE PUSH2 0x30CC DUP2 PUSH2 0x3035 JUMP JUMPDEST SWAP1 POP DUP2 DUP2 SUB PUSH1 0x40 DUP4 ADD MSTORE PUSH2 0x30DF DUP2 PUSH2 0x307F JUMP JUMPDEST SWAP1 POP SWAP3 SWAP2 POP POP JUMP JUMPDEST PUSH32 0x4172746973742045000000000000000000000000000000000000000000000000 PUSH0 DUP3 ADD MSTORE POP JUMP JUMPDEST PUSH0 PUSH2 0x311B PUSH1 0x8 DUP4 PUSH2 0x1E34 JUMP JUMPDEST SWAP2 POP PUSH2 0x3126 DUP3 PUSH2 0x30E7 JUMP JUMPDEST PUSH1 0x20 DUP3 ADD SWAP1 POP SWAP2 SWAP1 POP JUMP JUMPDEST PUSH32 0x323032332D30312D303600000000000000000000000000000000000000000000 PUSH0 DUP3 ADD MSTORE POP JUMP JUMPDEST PUSH0 PUSH2 0x3165 PUSH1 0xA DUP4 PUSH2 0x1E34 JUMP JUMPDEST SWAP2 POP PUSH2 0x3170 DUP3 PUSH2 0x3131 JUMP JUMPDEST PUSH1 0x20 DUP3 ADD SWAP1 POP SWAP2 SWAP1 POP JUMP JUMPDEST PUSH32 0x50656E63696C0000000000000000000000000000000000000000000000000000 PUSH0 DUP3 ADD MSTORE POP JUMP JUMPDEST PUSH0 PUSH2 0x31AF PUSH1 0x6 DUP4 PUSH2 0x1E34 JUMP JUMPDEST SWAP2 POP PUSH2 0x31BA DUP3 PUSH2 0x317B JUMP JUMPDEST PUSH1 0x20 DUP3 ADD SWAP1 POP SWAP2 SWAP1 POP JUMP JUMPDEST PUSH32 0x3230783230000000000000000000000000000000000000000000000000000000 PUSH0 DUP3 ADD MSTORE POP JUMP JUMPDEST PUSH0 PUSH2 0x31F9 PUSH1 0x5 DUP4 PUSH2 0x1E34 JUMP JUMPDEST SWAP2 POP PUSH2 0x3204 DUP3 PUSH2 0x31C5 JUMP JUMPDEST PUSH1 0x20 DUP3 ADD SWAP1 POP SWAP2 SWAP1 POP JUMP JUMPDEST PUSH0 PUSH1 0xC0 DUP3 ADD SWAP1 POP DUP2 DUP2 SUB PUSH0 DUP4 ADD MSTORE PUSH2 0x3226 DUP2 PUSH2 0x310F JUMP JUMPDEST SWAP1 POP DUP2 DUP2 SUB PUSH1 0x20 DUP4 ADD MSTORE PUSH2 0x3239 DUP2 PUSH2 0x3159 JUMP JUMPDEST SWAP1 POP DUP2 DUP2 SUB PUSH1 0x40 DUP4 ADD MSTORE PUSH2 0x324C DUP2 PUSH2 0x31A3 JUMP JUMPDEST SWAP1 POP DUP2 DUP2 SUB PUSH1 0x60 DUP4 ADD MSTORE PUSH2 0x325F DUP2 PUSH2 0x31ED JUMP JUMPDEST SWAP1 POP PUSH2 0x326E PUSH1 0x80 DUP4 ADD DUP6 PUSH2 0x21E2 JUMP JUMPDEST PUSH2 0x327B PUSH1 0xA0 DUP4 ADD DUP5 PUSH2 0x28CE JUMP JUMPDEST SWAP4 SWAP3 POP POP POP JUMP JUMPDEST PUSH0 DUP2 SWAP1 POP SWAP2 SWAP1 POP JUMP JUMPDEST PUSH0 PUSH2 0x32A5 PUSH2 0x32A0 PUSH2 0x329B DUP5 PUSH2 0x3282 JUMP JUMPDEST PUSH2 0x1EB5 JUMP JUMPDEST PUSH2 0x1D9D JUMP JUMPDEST SWAP1 POP SWAP2 SWAP1 POP JUMP JUMPDEST PUSH2 0x32B5 DUP2 PUSH2 0x328B JUMP JUMPDEST DUP3 MSTORE POP POP JUMP JUMPDEST PUSH0 PUSH1 0x60 DUP3 ADD SWAP1 POP PUSH2 0x32CE PUSH0 DUP4 ADD DUP7 PUSH2 0x1DA6 JUMP JUMPDEST PUSH2 0x32DB PUSH1 0x20 DUP4 ADD DUP6 PUSH2 0x1DA6 JUMP JUMPDEST PUSH2 0x32E8 PUSH1 0x40 DUP4 ADD DUP5 PUSH2 0x32AC JUMP JUMPDEST SWAP5 SWAP4 POP POP POP POP JUMP JUMPDEST PUSH2 0x32F9 DUP2 PUSH2 0x328B JUMP JUMPDEST DUP3 MSTORE POP POP JUMP JUMPDEST PUSH32 0x41756374696F6E20757064617465206661696C65642E00000000000000000000 PUSH0 DUP3 ADD MSTORE POP JUMP JUMPDEST PUSH0 PUSH2 0x3333 PUSH1 0x16 DUP4 PUSH2 0x1F76 JUMP JUMPDEST SWAP2 POP PUSH2 0x333E DUP3 PUSH2 0x32FF JUMP JUMPDEST PUSH1 0x20 DUP3 ADD SWAP1 POP SWAP2 SWAP1 POP JUMP JUMPDEST PUSH0 PUSH1 0x60 DUP3 ADD SWAP1 POP PUSH2 0x335C PUSH0 DUP4 ADD DUP6 PUSH2 0x1F67 JUMP JUMPDEST PUSH2 0x3369 PUSH1 0x20 DUP4 ADD DUP5 PUSH2 0x32F0 JUMP JUMPDEST DUP2 DUP2 SUB PUSH1 0x40 DUP4 ADD MSTORE PUSH2 0x337A DUP2 PUSH2 0x3327 JUMP JUMPDEST SWAP1 POP SWAP4 SWAP3 POP POP POP JUMP JUMPDEST PUSH0 DUP2 SWAP1 POP SWAP2 SWAP1 POP JUMP JUMPDEST PUSH0 PUSH2 0x33A6 PUSH2 0x33A1 PUSH2 0x339C DUP5 PUSH2 0x3383 JUMP JUMPDEST PUSH2 0x1EB5 JUMP JUMPDEST PUSH2 0x1D9D JUMP JUMPDEST SWAP1 POP SWAP2 SWAP1 POP JUMP JUMPDEST PUSH2 0x33B6 DUP2 PUSH2 0x338C JUMP JUMPDEST DUP3 MSTORE POP POP JUMP JUMPDEST PUSH0 PUSH1 0x20 DUP3 ADD SWAP1 POP PUSH2 0x33CF PUSH0 DUP4 ADD DUP5 PUSH2 0x33AD JUMP JUMPDEST SWAP3 SWAP2 POP POP JUMP JUMPDEST PUSH0 PUSH2 0x33DF DUP3 PUSH2 0x23D7 JUMP JUMPDEST SWAP1 POP SWAP2 SWAP1 POP JUMP JUMPDEST PUSH2 0x33EF DUP2 PUSH2 0x33D5 JUMP JUMPDEST DUP2 EQ PUSH2 0x33F9 JUMPI PUSH0 DUP1 REVERT JUMPDEST POP JUMP JUMPDEST PUSH0 DUP2 MLOAD SWAP1 POP PUSH2 0x340A DUP2 PUSH2 0x33E6 JUMP JUMPDEST SWAP3 SWAP2 POP POP JUMP JUMPDEST PUSH0 PUSH1 0x20 DUP3 DUP5 SUB SLT ISZERO PUSH2 0x3425 JUMPI PUSH2 0x3424 PUSH2 0x1DD7 JUMP JUMPDEST JUMPDEST PUSH0 PUSH2 0x3432 DUP5 DUP3 DUP6 ADD PUSH2 0x33FC JUMP JUMPDEST SWAP2 POP POP SWAP3 SWAP2 POP POP JUMP JUMPDEST PUSH2 0x3444 DUP2 PUSH2 0x1EBE JUMP JUMPDEST DUP3 MSTORE POP POP JUMP JUMPDEST PUSH0 PUSH1 0x20 DUP3 ADD SWAP1 POP PUSH2 0x345D PUSH0 DUP4 ADD DUP5 PUSH2 0x343B JUMP JUMPDEST SWAP3 SWAP2 POP POP JUMP JUMPDEST PUSH0 DUP2 SWAP1 POP SWAP2 SWAP1 POP JUMP JUMPDEST PUSH0 PUSH2 0x3486 PUSH2 0x3481 PUSH2 0x347C DUP5 PUSH2 0x3463 JUMP JUMPDEST PUSH2 0x1EB5 JUMP JUMPDEST PUSH2 0x1D9D JUMP JUMPDEST SWAP1 POP SWAP2 SWAP1 POP JUMP JUMPDEST PUSH2 0x3496 DUP2 PUSH2 0x346C JUMP JUMPDEST DUP3 MSTORE POP POP JUMP JUMPDEST PUSH0 PUSH1 0x20 DUP3 ADD SWAP1 POP PUSH2 0x34AF PUSH0 DUP4 ADD DUP5 PUSH2 0x348D JUMP JUMPDEST SWAP3 SWAP2 POP POP JUMP JUMPDEST PUSH2 0x34BE DUP2 PUSH2 0x33D5 JUMP JUMPDEST DUP3 MSTORE POP POP JUMP JUMPDEST PUSH32 0x496E76616C69642073656E646572000000000000000000000000000000000000 PUSH0 DUP3 ADD MSTORE POP JUMP JUMPDEST PUSH0 PUSH2 0x34F8 PUSH1 0xE DUP4 PUSH2 0x1F76 JUMP JUMPDEST SWAP2 POP PUSH2 0x3503 DUP3 PUSH2 0x34C4 JUMP JUMPDEST PUSH1 0x20 DUP3 ADD SWAP1 POP SWAP2 SWAP1 POP JUMP JUMPDEST PUSH0 PUSH1 0x60 DUP3 ADD SWAP1 POP PUSH2 0x3521 PUSH0 DUP4 ADD DUP6 PUSH2 0x34B5 JUMP JUMPDEST PUSH2 0x352E PUSH1 0x20 DUP4 ADD DUP5 PUSH2 0x34B5 JUMP JUMPDEST DUP2 DUP2 SUB PUSH1 0x40 DUP4 ADD MSTORE PUSH2 0x353F DUP2 PUSH2 0x34EC JUMP JUMPDEST SWAP1 POP SWAP4 SWAP3 POP POP POP JUMP JUMPDEST PUSH0 DUP2 SWAP1 POP SWAP2 SWAP1 POP JUMP JUMPDEST PUSH0 PUSH2 0x356B PUSH2 0x3566 PUSH2 0x3561 DUP5 PUSH2 0x3548 JUMP JUMPDEST PUSH2 0x1EB5 JUMP JUMPDEST PUSH2 0x1D9D JUMP JUMPDEST SWAP1 POP SWAP2 SWAP1 POP JUMP JUMPDEST PUSH2 0x357B DUP2 PUSH2 0x3551 JUMP JUMPDEST DUP3 MSTORE POP POP JUMP JUMPDEST PUSH32 0x496E76616C69642076616C756500000000000000000000000000000000000000 PUSH0 DUP3 ADD MSTORE POP JUMP JUMPDEST PUSH0 PUSH2 0x35B5 PUSH1 0xD DUP4 PUSH2 0x1F76 JUMP JUMPDEST SWAP2 POP PUSH2 0x35C0 DUP3 PUSH2 0x3581 JUMP JUMPDEST PUSH1 0x20 DUP3 ADD SWAP1 POP SWAP2 SWAP1 POP JUMP JUMPDEST PUSH0 PUSH1 0x60 DUP3 ADD SWAP1 POP PUSH2 0x35DE PUSH0 DUP4 ADD DUP6 PUSH2 0x1F67 JUMP JUMPDEST PUSH2 0x35EB PUSH1 0x20 DUP4 ADD DUP5 PUSH2 0x3572 JUMP JUMPDEST DUP2 DUP2 SUB PUSH1 0x40 DUP4 ADD MSTORE PUSH2 0x35FC DUP2 PUSH2 0x35A9 JUMP JUMPDEST SWAP1 POP SWAP4 SWAP3 POP POP POP JUMP JUMPDEST PUSH2 0x360E DUP2 PUSH2 0x2030 JUMP JUMPDEST DUP3 MSTORE POP POP JUMP JUMPDEST PUSH32 0x496E697469616C206C6976652061756374696F6E732073686F756C6420626520 PUSH0 DUP3 ADD MSTORE PUSH32 0x3E3D203000000000000000000000000000000000000000000000000000000000 PUSH1 0x20 DUP3 ADD MSTORE POP JUMP JUMPDEST PUSH0 PUSH2 0x366E PUSH1 0x24 DUP4 PUSH2 0x1F76 JUMP JUMPDEST SWAP2 POP PUSH2 0x3679 DUP3 PUSH2 0x3614 JUMP JUMPDEST PUSH1 0x40 DUP3 ADD SWAP1 POP SWAP2 SWAP1 POP JUMP JUMPDEST PUSH0 PUSH1 0x40 DUP3 ADD SWAP1 POP PUSH2 0x3697 PUSH0 DUP4 ADD DUP5 PUSH2 0x3605 JUMP JUMPDEST DUP2 DUP2 SUB PUSH1 0x20 DUP4 ADD MSTORE PUSH2 0x36A8 DUP2 PUSH2 0x3662 JUMP JUMPDEST SWAP1 POP SWAP3 SWAP2 POP POP JUMP JUMPDEST PUSH32 0x496E697469616C20656E6465642061756374696F6E732073686F756C64206265 PUSH0 DUP3 ADD MSTORE PUSH32 0x203E3D2030000000000000000000000000000000000000000000000000000000 PUSH1 0x20 DUP3 ADD MSTORE POP JUMP JUMPDEST PUSH0 PUSH2 0x370A PUSH1 0x25 DUP4 PUSH2 0x1F76 JUMP JUMPDEST SWAP2 POP PUSH2 0x3715 DUP3 PUSH2 0x36B0 JUMP JUMPDEST PUSH1 0x40 DUP3 ADD SWAP1 POP SWAP2 SWAP1 POP JUMP JUMPDEST PUSH0 PUSH1 0x40 DUP3 ADD SWAP1 POP PUSH2 0x3733 PUSH0 DUP4 ADD DUP5 PUSH2 0x3605 JUMP JUMPDEST DUP2 DUP2 SUB PUSH1 0x20 DUP4 ADD MSTORE PUSH2 0x3744 DUP2 PUSH2 0x36FE JUMP JUMPDEST SWAP1 POP SWAP3 SWAP2 POP POP JUMP JUMPDEST PUSH32 0x496E697469616C20636F6E74726163742062616C616E63652073686F756C6420 PUSH0 DUP3 ADD MSTORE PUSH32 0x6265203220657468657200000000000000000000000000000000000000000000 PUSH1 0x20 DUP3 ADD MSTORE POP JUMP JUMPDEST PUSH0 PUSH2 0x37A6 PUSH1 0x2A DUP4 PUSH2 0x1F76 JUMP JUMPDEST SWAP2 POP PUSH2 0x37B1 DUP3 PUSH2 0x374C JUMP JUMPDEST PUSH1 0x40 DUP3 ADD SWAP1 POP SWAP2 SWAP1 POP JUMP JUMPDEST PUSH0 PUSH1 0x60 DUP3 ADD SWAP1 POP PUSH2 0x37CF PUSH0 DUP4 ADD DUP6 PUSH2 0x1F67 JUMP JUMPDEST PUSH2 0x37DC PUSH1 0x20 DUP4 ADD DUP5 PUSH2 0x1F67 JUMP JUMPDEST DUP2 DUP2 SUB PUSH1 0x40 DUP4 ADD MSTORE PUSH2 0x37ED DUP2 PUSH2 0x379A JUMP JUMPDEST SWAP1 POP SWAP4 SWAP3 POP POP POP JUMP JUMPDEST PUSH32 0x4172746973742047000000000000000000000000000000000000000000000000 PUSH0 DUP3 ADD MSTORE POP JUMP JUMPDEST PUSH0 PUSH2 0x382A PUSH1 0x8 DUP4 PUSH2 0x1E34 JUMP JUMPDEST SWAP2 POP PUSH2 0x3835 DUP3 PUSH2 0x37F6 JUMP JUMPDEST PUSH1 0x20 DUP3 ADD SWAP1 POP SWAP2 SWAP1 POP JUMP JUMPDEST PUSH32 0x323032332D30312D303800000000000000000000000000000000000000000000 PUSH0 DUP3 ADD MSTORE POP JUMP JUMPDEST PUSH0 PUSH2 0x3874 PUSH1 0xA DUP4 PUSH2 0x1E34 JUMP JUMPDEST SWAP2 POP PUSH2 0x387F DUP3 PUSH2 0x3840 JUMP JUMPDEST PUSH1 0x20 DUP3 ADD SWAP1 POP SWAP2 SWAP1 POP JUMP JUMPDEST PUSH32 0x437261796F6E0000000000000000000000000000000000000000000000000000 PUSH0 DUP3 ADD MSTORE POP JUMP JUMPDEST PUSH0 PUSH2 0x38BE PUSH1 0x6 DUP4 PUSH2 0x1E34 JUMP JUMPDEST SWAP2 POP PUSH2 0x38C9 DUP3 PUSH2 0x388A JUMP JUMPDEST PUSH1 0x20 DUP3 ADD SWAP1 POP SWAP2 SWAP1 POP JUMP JUMPDEST PUSH32 0x3830783830000000000000000000000000000000000000000000000000000000 PUSH0 DUP3 ADD MSTORE POP JUMP JUMPDEST PUSH0 PUSH2 0x3908 PUSH1 0x5 DUP4 PUSH2 0x1E34 JUMP JUMPDEST SWAP2 POP PUSH2 0x3913 DUP3 PUSH2 0x38D4 JUMP JUMPDEST PUSH1 0x20 DUP3 ADD SWAP1 POP SWAP2 SWAP1 POP JUMP JUMPDEST PUSH0 PUSH1 0xC0 DUP3 ADD SWAP1 POP DUP2 DUP2 SUB PUSH0 DUP4 ADD MSTORE PUSH2 0x3935 DUP2 PUSH2 0x381E JUMP JUMPDEST SWAP1 POP DUP2 DUP2 SUB PUSH1 0x20 DUP4 ADD MSTORE PUSH2 0x3948 DUP2 PUSH2 0x3868 JUMP JUMPDEST SWAP1 POP DUP2 DUP2 SUB PUSH1 0x40 DUP4 ADD MSTORE PUSH2 0x395B DUP2 PUSH2 0x38B2 JUMP JUMPDEST SWAP1 POP DUP2 DUP2 SUB PUSH1 0x60 DUP4 ADD MSTORE PUSH2 0x396E DUP2 PUSH2 0x38FC JUMP JUMPDEST SWAP1 POP PUSH2 0x397D PUSH1 0x80 DUP4 ADD DUP6 PUSH2 0x21E2 JUMP JUMPDEST PUSH2 0x398A PUSH1 0xA0 DUP4 ADD DUP5 PUSH2 0x28CE JUMP JUMPDEST SWAP4 SWAP3 POP POP POP JUMP JUMPDEST PUSH0 PUSH8 0xFFFFFFFFFFFFFFFF DUP3 GT ISZERO PUSH2 0x39AB JUMPI PUSH2 0x39AA PUSH2 0x235B JUMP JUMPDEST JUMPDEST PUSH1 0x20 DUP3 MUL SWAP1 POP PUSH1 0x20 DUP2 ADD SWAP1 POP SWAP2 SWAP1 POP JUMP JUMPDEST PUSH0 DUP1 REVERT JUMPDEST PUSH0 PUSH2 0x39D2 PUSH2 0x39CD DUP5 PUSH2 0x3991 JUMP JUMPDEST PUSH2 0x23B9 JUMP JUMPDEST SWAP1 POP DUP1 DUP4 DUP3 MSTORE PUSH1 0x20 DUP3 ADD SWAP1 POP PUSH1 0x20 DUP5 MUL DUP4 ADD DUP6 DUP2 GT ISZERO PUSH2 0x39F5 JUMPI PUSH2 0x39F4 PUSH2 0x39BC JUMP JUMPDEST JUMPDEST DUP4 JUMPDEST DUP2 DUP2 LT ISZERO PUSH2 0x3A3C JUMPI DUP1 MLOAD PUSH8 0xFFFFFFFFFFFFFFFF DUP2 GT ISZERO PUSH2 0x3A1A JUMPI PUSH2 0x3A19 PUSH2 0x2431 JUMP JUMPDEST JUMPDEST DUP1 DUP7 ADD PUSH2 0x3A27 DUP10 DUP3 PUSH2 0x24FF JUMP JUMPDEST DUP6 MSTORE PUSH1 0x20 DUP6 ADD SWAP5 POP POP POP PUSH1 0x20 DUP2 ADD SWAP1 POP PUSH2 0x39F7 JUMP JUMPDEST POP POP POP SWAP4 SWAP3 POP POP POP JUMP JUMPDEST PUSH0 DUP3 PUSH1 0x1F DUP4 ADD SLT PUSH2 0x3A5A JUMPI PUSH2 0x3A59 PUSH2 0x2431 JUMP JUMPDEST JUMPDEST DUP2 MLOAD PUSH2 0x3A6A DUP5 DUP3 PUSH1 0x20 DUP7 ADD PUSH2 0x39C0 JUMP JUMPDEST SWAP2 POP POP SWAP3 SWAP2 POP POP JUMP JUMPDEST PUSH0 PUSH1 0x20 DUP3 DUP5 SUB SLT ISZERO PUSH2 0x3A88 JUMPI PUSH2 0x3A87 PUSH2 0x1DD7 JUMP JUMPDEST JUMPDEST PUSH0 DUP3 ADD MLOAD PUSH8 0xFFFFFFFFFFFFFFFF DUP2 GT ISZERO PUSH2 0x3AA5 JUMPI PUSH2 0x3AA4 PUSH2 0x1DDB JUMP JUMPDEST JUMPDEST PUSH2 0x3AB1 DUP5 DUP3 DUP6 ADD PUSH2 0x3A46 JUMP JUMPDEST SWAP2 POP POP SWAP3 SWAP2 POP POP JUMP JUMPDEST PUSH32 0x417274776F726B2072657472696576616C206661696C65642E00000000000000 PUSH0 DUP3 ADD MSTORE POP JUMP JUMPDEST PUSH0 PUSH2 0x3AEE PUSH1 0x19 DUP4 PUSH2 0x1F76 JUMP JUMPDEST SWAP2 POP PUSH2 0x3AF9 DUP3 PUSH2 0x3ABA JUMP JUMPDEST PUSH1 0x20 DUP3 ADD SWAP1 POP SWAP2 SWAP1 POP JUMP JUMPDEST PUSH0 PUSH1 0x60 DUP3 ADD SWAP1 POP PUSH2 0x3B17 PUSH0 DUP4 ADD DUP6 PUSH2 0x1F67 JUMP JUMPDEST PUSH2 0x3B24 PUSH1 0x20 DUP4 ADD DUP5 PUSH2 0x1F67 JUMP JUMPDEST DUP2 DUP2 SUB PUSH1 0x40 DUP4 ADD MSTORE PUSH2 0x3B35 DUP2 PUSH2 0x3AE2 JUMP JUMPDEST SWAP1 POP SWAP4 SWAP3 POP POP POP JUMP INVALID LOG2 PUSH5 0x6970667358 0x22 SLT KECCAK256 0xFB PUSH28 0xC58F80712B510906E2E36FE69C5685857094BD895FE93056E4F7418B SUB LOG1 PUSH5 0x736F6C6343 STOP ADDMOD ISZERO STOP CALLER "
		},
		"gasEstimates": {
			"creation": {
				"codeDepositCost": "3044000",
				"executionCost": "27613",
				"totalCost": "3071613"
			},
			"external": {
				"": "195",
				"beforeAll()": "infinite",
				"checkInitialSetup()": "infinite",
				"checkSenderAndValue()": "infinite",
				"getBalance()": "379",
				"shouldAllowBidding()": "infinite",
				"shouldEndExistingAuction()": "infinite",
				"shouldJoinAuctionWithInitialBid()": "infinite",
				"shouldListArtwork()": "infinite",
				"shouldRetrieveAllArtworks()": "infinite",
				"shouldUpdateArtwork()": "infinite",
				"shouldUpdateAuction()": "infinite"
			}
		},
		"methodIdentifiers": {
			"beforeAll()": "7fea0d4b",
			"checkInitialSetup()": "ae1f4c30",
			"checkSenderAndValue()": "9074416d",
			"getBalance()": "12065fe0",
			"shouldAllowBidding()": "0d1418a6",
			"shouldEndExistingAuction()": "0622199d",
			"shouldJoinAuctionWithInitialBid()": "28733442",
			"shouldListArtwork()": "29448f37",
			"shouldRetrieveAllArtworks()": "ead16ab2",
			"shouldUpdateArtwork()": "45f17288",
			"shouldUpdateAuction()": "55a7fa32"
		}
	},
	"abi": [
		{
			"inputs": [],
			"stateMutability": "nonpayable",
			"type": "constructor"
		},
		{
			"stateMutability": "payable",
			"type": "fallback"
		},
		{
			"inputs": [],
			"name": "beforeAll",
			"outputs": [],
			"stateMutability": "nonpayable",
			"type": "function"
		},
		{
			"inputs": [],
			"name": "checkInitialSetup",
			"outputs": [],
			"stateMutability": "nonpayable",
			"type": "function"
		},
		{
			"inputs": [],
			"name": "checkSenderAndValue",
			"outputs": [],
			"stateMutability": "payable",
			"type": "function"
		},
		{
			"inputs": [],
			"name": "getBalance",
			"outputs": [
				{
					"internalType": "uint256",
					"name": "",
					"type": "uint256"
				}
			],
			"stateMutability": "view",
			"type": "function"
		},
		{
			"inputs": [],
			"name": "shouldAllowBidding",
			"outputs": [],
			"stateMutability": "payable",
			"type": "function"
		},
		{
			"inputs": [],
			"name": "shouldEndExistingAuction",
			"outputs": [],
			"stateMutability": "nonpayable",
			"type": "function"
		},
		{
			"inputs": [],
			"name": "shouldJoinAuctionWithInitialBid",
			"outputs": [],
			"stateMutability": "payable",
			"type": "function"
		},
		{
			"inputs": [],
			"name": "shouldListArtwork",
			"outputs": [],
			"stateMutability": "nonpayable",
			"type": "function"
		},
		{
			"inputs": [],
			"name": "shouldRetrieveAllArtworks",
			"outputs": [],
			"stateMutability": "nonpayable",
			"type": "function"
		},
		{
			"inputs": [],
			"name": "shouldUpdateArtwork",
			"outputs": [],
			"stateMutability": "nonpayable",
			"type": "function"
		},
		{
			"inputs": [],
			"name": "shouldUpdateAuction",
			"outputs": [],
			"stateMutability": "nonpayable",
			"type": "function"
		},
		{
			"stateMutability": "payable",
			"type": "receive"
		}
	]
}