{
	"contracts/Auction.sol": {
		"ArtworkAuction": {
			"abi": [
				{
					"anonymous": false,
					"inputs": [
						{
							"indexed": true,
							"internalType": "uint256",
							"name": "artworkId",
							"type": "uint256"
						},
						{
							"indexed": false,
							"internalType": "string",
							"name": "artistName",
							"type": "string"
						},
						{
							"indexed": false,
							"internalType": "string",
							"name": "creationDate",
							"type": "string"
						},
						{
							"indexed": false,
							"internalType": "uint256",
							"name": "startingPrice",
							"type": "uint256"
						}
					],
					"name": "ArtworkListed",
					"type": "event"
				},
				{
					"anonymous": false,
					"inputs": [
						{
							"indexed": true,
							"internalType": "uint256",
							"name": "artworkId",
							"type": "uint256"
						}
					],
					"name": "ArtworkUpdated",
					"type": "event"
				},
				{
					"anonymous": false,
					"inputs": [
						{
							"indexed": true,
							"internalType": "uint256",
							"name": "artworkId",
							"type": "uint256"
						},
						{
							"indexed": false,
							"internalType": "address",
							"name": "winner",
							"type": "address"
						},
						{
							"indexed": false,
							"internalType": "uint256",
							"name": "winningBid",
							"type": "uint256"
						}
					],
					"name": "AuctionEnded",
					"type": "event"
				},
				{
					"anonymous": false,
					"inputs": [
						{
							"indexed": true,
							"internalType": "uint256",
							"name": "artworkId",
							"type": "uint256"
						},
						{
							"indexed": false,
							"internalType": "uint256",
							"name": "newEndTime",
							"type": "uint256"
						},
						{
							"indexed": false,
							"internalType": "uint256",
							"name": "newStartingPrice",
							"type": "uint256"
						}
					],
					"name": "AuctionUpdated",
					"type": "event"
				},
				{
					"anonymous": false,
					"inputs": [
						{
							"indexed": true,
							"internalType": "uint256",
							"name": "artworkId",
							"type": "uint256"
						},
						{
							"indexed": true,
							"internalType": "address",
							"name": "bidder",
							"type": "address"
						},
						{
							"indexed": false,
							"internalType": "uint256",
							"name": "amount",
							"type": "uint256"
						}
					],
					"name": "NewBid",
					"type": "event"
				},
				{
					"inputs": [
						{
							"internalType": "uint256",
							"name": "",
							"type": "uint256"
						}
					],
					"name": "artworkIds",
					"outputs": [
						{
							"internalType": "uint256",
							"name": "",
							"type": "uint256"
						}
					],
					"stateMutability": "view",
					"type": "function"
				},
				{
					"inputs": [
						{
							"internalType": "uint256",
							"name": "",
							"type": "uint256"
						}
					],
					"name": "artworks",
					"outputs": [
						{
							"internalType": "uint256",
							"name": "id",
							"type": "uint256"
						},
						{
							"internalType": "address payable",
							"name": "owner",
							"type": "address"
						},
						{
							"internalType": "string",
							"name": "artistName",
							"type": "string"
						},
						{
							"internalType": "string",
							"name": "creationDate",
							"type": "string"
						},
						{
							"internalType": "string",
							"name": "medium",
							"type": "string"
						},
						{
							"internalType": "string",
							"name": "dimensions",
							"type": "string"
						},
						{
							"internalType": "uint256",
							"name": "startingPrice",
							"type": "uint256"
						},
						{
							"internalType": "uint256",
							"name": "currentBid",
							"type": "uint256"
						},
						{
							"internalType": "address payable",
							"name": "highestBidder",
							"type": "address"
						},
						{
							"internalType": "uint256",
							"name": "auctionEndTime",
							"type": "uint256"
						},
						{
							"internalType": "bool",
							"name": "auctionEnded",
							"type": "bool"
						}
					],
					"stateMutability": "view",
					"type": "function"
				},
				{
					"inputs": [
						{
							"internalType": "uint256",
							"name": "_artworkId",
							"type": "uint256"
						}
					],
					"name": "bid",
					"outputs": [],
					"stateMutability": "payable",
					"type": "function"
				},
				{
					"inputs": [
						{
							"internalType": "uint256",
							"name": "_artworkId",
							"type": "uint256"
						}
					],
					"name": "endAuction",
					"outputs": [],
					"stateMutability": "nonpayable",
					"type": "function"
				},
				{
					"inputs": [],
					"name": "getAllArtworks",
					"outputs": [
						{
							"components": [
								{
									"internalType": "uint256",
									"name": "id",
									"type": "uint256"
								},
								{
									"internalType": "address payable",
									"name": "owner",
									"type": "address"
								},
								{
									"internalType": "string",
									"name": "artistName",
									"type": "string"
								},
								{
									"internalType": "string",
									"name": "creationDate",
									"type": "string"
								},
								{
									"internalType": "string",
									"name": "medium",
									"type": "string"
								},
								{
									"internalType": "string",
									"name": "dimensions",
									"type": "string"
								},
								{
									"internalType": "uint256",
									"name": "startingPrice",
									"type": "uint256"
								},
								{
									"internalType": "uint256",
									"name": "currentBid",
									"type": "uint256"
								},
								{
									"internalType": "address payable",
									"name": "highestBidder",
									"type": "address"
								},
								{
									"internalType": "uint256",
									"name": "auctionEndTime",
									"type": "uint256"
								},
								{
									"internalType": "bool",
									"name": "auctionEnded",
									"type": "bool"
								}
							],
							"internalType": "struct ArtworkAuction.Artwork[]",
							"name": "",
							"type": "tuple[]"
						}
					],
					"stateMutability": "view",
					"type": "function"
				},
				{
					"inputs": [
						{
							"internalType": "uint256",
							"name": "_id",
							"type": "uint256"
						}
					],
					"name": "getArtwork",
					"outputs": [
						{
							"components": [
								{
									"internalType": "uint256",
									"name": "id",
									"type": "uint256"
								},
								{
									"internalType": "address payable",
									"name": "owner",
									"type": "address"
								},
								{
									"internalType": "string",
									"name": "artistName",
									"type": "string"
								},
								{
									"internalType": "string",
									"name": "creationDate",
									"type": "string"
								},
								{
									"internalType": "string",
									"name": "medium",
									"type": "string"
								},
								{
									"internalType": "string",
									"name": "dimensions",
									"type": "string"
								},
								{
									"internalType": "uint256",
									"name": "startingPrice",
									"type": "uint256"
								},
								{
									"internalType": "uint256",
									"name": "currentBid",
									"type": "uint256"
								},
								{
									"internalType": "address payable",
									"name": "highestBidder",
									"type": "address"
								},
								{
									"internalType": "uint256",
									"name": "auctionEndTime",
									"type": "uint256"
								},
								{
									"internalType": "bool",
									"name": "auctionEnded",
									"type": "bool"
								}
							],
							"internalType": "struct ArtworkAuction.Artwork",
							"name": "",
							"type": "tuple"
						}
					],
					"stateMutability": "view",
					"type": "function"
				},
				{
					"inputs": [],
					"name": "getBalance",
					"outputs": [
						{
							"internalType": "uint256",
							"name": "",
							"type": "uint256"
						}
					],
					"stateMutability": "view",
					"type": "function"
				},
				{
					"inputs": [],
					"name": "getNumberOfEndedAuctions",
					"outputs": [
						{
							"internalType": "uint256",
							"name": "",
							"type": "uint256"
						}
					],
					"stateMutability": "view",
					"type": "function"
				},
				{
					"inputs": [],
					"name": "getNumberOfLiveAuctions",
					"outputs": [
						{
							"internalType": "uint256",
							"name": "",
							"type": "uint256"
						}
					],
					"stateMutability": "view",
					"type": "function"
				},
				{
					"inputs": [
						{
							"internalType": "uint256",
							"name": "_artworkId",
							"type": "uint256"
						}
					],
					"name": "joinAuctionWithInitialBid",
					"outputs": [],
					"stateMutability": "payable",
					"type": "function"
				},
				{
					"inputs": [
						{
							"internalType": "string",
							"name": "_artistName",
							"type": "string"
						},
						{
							"internalType": "string",
							"name": "_creationDate",
							"type": "string"
						},
						{
							"internalType": "string",
							"name": "_medium",
							"type": "string"
						},
						{
							"internalType": "string",
							"name": "_dimensions",
							"type": "string"
						},
						{
							"internalType": "uint256",
							"name": "_startingPrice",
							"type": "uint256"
						},
						{
							"internalType": "uint256",
							"name": "_auctionDuration",
							"type": "uint256"
						}
					],
					"name": "listArtwork",
					"outputs": [],
					"stateMutability": "nonpayable",
					"type": "function"
				},
				{
					"inputs": [
						{
							"internalType": "uint256",
							"name": "_artworkId",
							"type": "uint256"
						},
						{
							"internalType": "string",
							"name": "_artistName",
							"type": "string"
						},
						{
							"internalType": "string",
							"name": "_creationDate",
							"type": "string"
						},
						{
							"internalType": "string",
							"name": "_medium",
							"type": "string"
						},
						{
							"internalType": "string",
							"name": "_dimensions",
							"type": "string"
						}
					],
					"name": "updateArtwork",
					"outputs": [],
					"stateMutability": "nonpayable",
					"type": "function"
				},
				{
					"inputs": [
						{
							"internalType": "uint256",
							"name": "_artworkId",
							"type": "uint256"
						},
						{
							"internalType": "uint256",
							"name": "_newEndTime",
							"type": "uint256"
						},
						{
							"internalType": "uint256",
							"name": "_newStartingPrice",
							"type": "uint256"
						}
					],
					"name": "updateAuction",
					"outputs": [],
					"stateMutability": "nonpayable",
					"type": "function"
				},
				{
					"stateMutability": "payable",
					"type": "receive"
				}
			],
			"devdoc": {
				"kind": "dev",
				"methods": {},
				"version": 1
			},
			"evm": {
				"assembly": "    /* \"contracts/Auction.sol\":292:8604  contract ArtworkAuction {... */\n  mstore(0x40, 0x80)\n  callvalue\n  dup1\n  iszero\n  tag_1\n  jumpi\n  0x00\n  dup1\n  revert\ntag_1:\n  pop\n  dataSize(sub_0)\n  dup1\n  dataOffset(sub_0)\n  0x00\n  codecopy\n  0x00\n  return\nstop\n\nsub_0: assembly {\n        /* \"contracts/Auction.sol\":292:8604  contract ArtworkAuction {... */\n      mstore(0x40, 0x80)\n      jumpi(tag_1, lt(calldatasize, 0x04))\n      shr(0xe0, calldataload(0x00))\n      dup1\n      0x5d1a2ef0\n      gt\n      tag_16\n      jumpi\n      dup1\n      0x9c0cc30c\n      gt\n      tag_17\n      jumpi\n      dup1\n      0x9c0cc30c\n      eq\n      tag_12\n      jumpi\n      dup1\n      0xb9a2de3a\n      eq\n      tag_13\n      jumpi\n      dup1\n      0xe5fc3350\n      eq\n      tag_14\n      jumpi\n      dup1\n      0xf94c8e98\n      eq\n      tag_15\n      jumpi\n      jump(tag_2)\n    tag_17:\n      dup1\n      0x5d1a2ef0\n      eq\n      tag_9\n      jumpi\n      dup1\n      0x6fa68ae6\n      eq\n      tag_10\n      jumpi\n      dup1\n      0x9805d485\n      eq\n      tag_11\n      jumpi\n      jump(tag_2)\n    tag_16:\n      dup1\n      0x07f52e01\n      eq\n      tag_3\n      jumpi\n      dup1\n      0x0d856664\n      eq\n      tag_4\n      jumpi\n      dup1\n      0x12065fe0\n      eq\n      tag_5\n      jumpi\n      dup1\n      0x167ddf6e\n      eq\n      tag_6\n      jumpi\n      dup1\n      0x454a2ab3\n      eq\n      tag_7\n      jumpi\n      dup1\n      0x4b602673\n      eq\n      tag_8\n      jumpi\n      jump(tag_2)\n    tag_1:\n      jumpi(tag_2, calldatasize)\n      stop\n    tag_2:\n      0x00\n      dup1\n      revert\n        /* \"contracts/Auction.sol\":2447:3629  function listArtwork(... */\n    tag_3:\n      callvalue\n      dup1\n      iszero\n      tag_20\n      jumpi\n      0x00\n      dup1\n      revert\n    tag_20:\n      pop\n      tag_21\n      0x04\n      dup1\n      calldatasize\n      sub\n      dup2\n      add\n      swap1\n      tag_22\n      swap2\n      swap1\n      tag_23\n      jump\t// in\n    tag_22:\n      tag_24\n      jump\t// in\n    tag_21:\n      stop\n        /* \"contracts/Auction.sol\":4522:5240  function updateAuction(... */\n    tag_4:\n      callvalue\n      dup1\n      iszero\n      tag_25\n      jumpi\n      0x00\n      dup1\n      revert\n    tag_25:\n      pop\n      tag_26\n      0x04\n      dup1\n      calldatasize\n      sub\n      dup2\n      add\n      swap1\n      tag_27\n      swap2\n      swap1\n      tag_28\n      jump\t// in\n    tag_27:\n      tag_29\n      jump\t// in\n    tag_26:\n      stop\n        /* \"contracts/Auction.sol\":1953:2050  function getBalance() public view returns (uint256) {... */\n    tag_5:\n      callvalue\n      dup1\n      iszero\n      tag_30\n      jumpi\n      0x00\n      dup1\n      revert\n    tag_30:\n      pop\n      tag_31\n      tag_32\n      jump\t// in\n    tag_31:\n      mload(0x40)\n      tag_33\n      swap2\n      swap1\n      tag_34\n      jump\t// in\n    tag_33:\n      mload(0x40)\n      dup1\n      swap2\n      sub\n      swap1\n      return\n        /* \"contracts/Auction.sol\":8495:8602  function getArtwork(uint256 _id) public view returns (Artwork memory) {... */\n    tag_6:\n      callvalue\n      dup1\n      iszero\n      tag_35\n      jumpi\n      0x00\n      dup1\n      revert\n    tag_35:\n      pop\n      tag_36\n      0x04\n      dup1\n      calldatasize\n      sub\n      dup2\n      add\n      swap1\n      tag_37\n      swap2\n      swap1\n      tag_38\n      jump\t// in\n    tag_37:\n      tag_39\n      jump\t// in\n    tag_36:\n      mload(0x40)\n      tag_40\n      swap2\n      swap1\n      tag_41\n      jump\t// in\n    tag_40:\n      mload(0x40)\n      dup1\n      swap2\n      sub\n      swap1\n      return\n        /* \"contracts/Auction.sol\":6176:6998  function bid(uint256 _artworkId) external payable {... */\n    tag_7:\n      tag_42\n      0x04\n      dup1\n      calldatasize\n      sub\n      dup2\n      add\n      swap1\n      tag_43\n      swap2\n      swap1\n      tag_38\n      jump\t// in\n    tag_43:\n      tag_44\n      jump\t// in\n    tag_42:\n      stop\n        /* \"contracts/Auction.sol\":1037:1080  mapping(uint256 => Artwork) public artworks */\n    tag_8:\n      callvalue\n      dup1\n      iszero\n      tag_45\n      jumpi\n      0x00\n      dup1\n      revert\n    tag_45:\n      pop\n      tag_46\n      0x04\n      dup1\n      calldatasize\n      sub\n      dup2\n      add\n      swap1\n      tag_47\n      swap2\n      swap1\n      tag_38\n      jump\t// in\n    tag_47:\n      tag_48\n      jump\t// in\n    tag_46:\n      mload(0x40)\n      tag_49\n      swap12\n      swap11\n      swap10\n      swap9\n      swap8\n      swap7\n      swap6\n      swap5\n      swap4\n      swap3\n      swap2\n      swap1\n      tag_50\n      jump\t// in\n    tag_49:\n      mload(0x40)\n      dup1\n      swap2\n      sub\n      swap1\n      return\n        /* \"contracts/Auction.sol\":5272:6170  function joinAuctionWithInitialBid(uint256 _artworkId) external payable {... */\n    tag_9:\n      tag_51\n      0x04\n      dup1\n      calldatasize\n      sub\n      dup2\n      add\n      swap1\n      tag_52\n      swap2\n      swap1\n      tag_38\n      jump\t// in\n    tag_52:\n      tag_53\n      jump\t// in\n    tag_51:\n      stop\n        /* \"contracts/Auction.sol\":3662:4489  function updateArtwork(... */\n    tag_10:\n      callvalue\n      dup1\n      iszero\n      tag_54\n      jumpi\n      0x00\n      dup1\n      revert\n    tag_54:\n      pop\n      tag_55\n      0x04\n      dup1\n      calldatasize\n      sub\n      dup2\n      add\n      swap1\n      tag_56\n      swap2\n      swap1\n      tag_57\n      jump\t// in\n    tag_56:\n      tag_58\n      jump\t// in\n    tag_55:\n      stop\n        /* \"contracts/Auction.sol\":1086:1113  uint256[] public artworkIds */\n    tag_11:\n      callvalue\n      dup1\n      iszero\n      tag_59\n      jumpi\n      0x00\n      dup1\n      revert\n    tag_59:\n      pop\n      tag_60\n      0x04\n      dup1\n      calldatasize\n      sub\n      dup2\n      add\n      swap1\n      tag_61\n      swap2\n      swap1\n      tag_38\n      jump\t// in\n    tag_61:\n      tag_62\n      jump\t// in\n    tag_60:\n      mload(0x40)\n      tag_63\n      swap2\n      swap1\n      tag_34\n      jump\t// in\n    tag_63:\n      mload(0x40)\n      dup1\n      swap2\n      sub\n      swap1\n      return\n        /* \"contracts/Auction.sol\":7950:8247  function getAllArtworks() external view returns (Artwork[] memory) {... */\n    tag_12:\n      callvalue\n      dup1\n      iszero\n      tag_64\n      jumpi\n      0x00\n      dup1\n      revert\n    tag_64:\n      pop\n      tag_65\n      tag_66\n      jump\t// in\n    tag_65:\n      mload(0x40)\n      tag_67\n      swap2\n      swap1\n      tag_68\n      jump\t// in\n    tag_67:\n      mload(0x40)\n      dup1\n      swap2\n      sub\n      swap1\n      return\n        /* \"contracts/Auction.sol\":7004:7944  function endAuction(uint256 _artworkId) external {... */\n    tag_13:\n      callvalue\n      dup1\n      iszero\n      tag_69\n      jumpi\n      0x00\n      dup1\n      revert\n    tag_69:\n      pop\n      tag_70\n      0x04\n      dup1\n      calldatasize\n      sub\n      dup2\n      add\n      swap1\n      tag_71\n      swap2\n      swap1\n      tag_38\n      jump\t// in\n    tag_71:\n      tag_72\n      jump\t// in\n    tag_70:\n      stop\n        /* \"contracts/Auction.sol\":8253:8367  function getNumberOfLiveAuctions() external view returns (uint256) {... */\n    tag_14:\n      callvalue\n      dup1\n      iszero\n      tag_73\n      jumpi\n      0x00\n      dup1\n      revert\n    tag_73:\n      pop\n      tag_74\n      tag_75\n      jump\t// in\n    tag_74:\n      mload(0x40)\n      tag_76\n      swap2\n      swap1\n      tag_34\n      jump\t// in\n    tag_76:\n      mload(0x40)\n      dup1\n      swap2\n      sub\n      swap1\n      return\n        /* \"contracts/Auction.sol\":8373:8489  function getNumberOfEndedAuctions() external view returns (uint256) {... */\n    tag_15:\n      callvalue\n      dup1\n      iszero\n      tag_77\n      jumpi\n      0x00\n      dup1\n      revert\n    tag_77:\n      pop\n      tag_78\n      tag_79\n      jump\t// in\n    tag_78:\n      mload(0x40)\n      tag_80\n      swap2\n      swap1\n      tag_34\n      jump\t// in\n    tag_80:\n      mload(0x40)\n      dup1\n      swap2\n      sub\n      swap1\n      return\n        /* \"contracts/Auction.sol\":2447:3629  function listArtwork(... */\n    tag_24:\n        /* \"contracts/Auction.sol\":2697:2724  _artworkCounter.increment() */\n      tag_82\n        /* \"contracts/Auction.sol\":2697:2712  _artworkCounter */\n      0x00\n        /* \"contracts/Auction.sol\":2697:2722  _artworkCounter.increment */\n      tag_83\n        /* \"contracts/Auction.sol\":2697:2724  _artworkCounter.increment() */\n      jump\t// in\n    tag_82:\n        /* \"contracts/Auction.sol\":2734:2751  uint256 artworkId */\n      0x00\n        /* \"contracts/Auction.sol\":2754:2779  _artworkCounter.current() */\n      tag_84\n        /* \"contracts/Auction.sol\":2754:2769  _artworkCounter */\n      0x00\n        /* \"contracts/Auction.sol\":2754:2777  _artworkCounter.current */\n      tag_85\n        /* \"contracts/Auction.sol\":2754:2779  _artworkCounter.current() */\n      jump\t// in\n    tag_84:\n        /* \"contracts/Auction.sol\":2734:2779  uint256 artworkId = _artworkCounter.current() */\n      swap1\n      pop\n        /* \"contracts/Auction.sol\":2812:3257  Artwork({... */\n      mload(0x40)\n      dup1\n      0x0160\n      add\n      0x40\n      mstore\n      dup1\n        /* \"contracts/Auction.sol\":2838:2847  artworkId */\n      dup3\n        /* \"contracts/Auction.sol\":2812:3257  Artwork({... */\n      dup2\n      mstore\n      0x20\n      add\n        /* \"contracts/Auction.sol\":2876:2886  msg.sender */\n      caller\n        /* \"contracts/Auction.sol\":2812:3257  Artwork({... */\n      0xffffffffffffffffffffffffffffffffffffffff\n      and\n      dup2\n      mstore\n      0x20\n      add\n        /* \"contracts/Auction.sol\":2913:2924  _artistName */\n      dup9\n        /* \"contracts/Auction.sol\":2812:3257  Artwork({... */\n      dup2\n      mstore\n      0x20\n      add\n        /* \"contracts/Auction.sol\":2952:2965  _creationDate */\n      dup8\n        /* \"contracts/Auction.sol\":2812:3257  Artwork({... */\n      dup2\n      mstore\n      0x20\n      add\n        /* \"contracts/Auction.sol\":2987:2994  _medium */\n      dup7\n        /* \"contracts/Auction.sol\":2812:3257  Artwork({... */\n      dup2\n      mstore\n      0x20\n      add\n        /* \"contracts/Auction.sol\":3020:3031  _dimensions */\n      dup6\n        /* \"contracts/Auction.sol\":2812:3257  Artwork({... */\n      dup2\n      mstore\n      0x20\n      add\n        /* \"contracts/Auction.sol\":3060:3074  _startingPrice */\n      dup5\n        /* \"contracts/Auction.sol\":2812:3257  Artwork({... */\n      dup2\n      mstore\n      0x20\n      add\n        /* \"contracts/Auction.sol\":3100:3101  0 */\n      0x00\n        /* \"contracts/Auction.sol\":2812:3257  Artwork({... */\n      dup2\n      mstore\n      0x20\n      add\n        /* \"contracts/Auction.sol\":3146:3147  0 */\n      0x00\n        /* \"contracts/Auction.sol\":2812:3257  Artwork({... */\n      0xffffffffffffffffffffffffffffffffffffffff\n      and\n      dup2\n      mstore\n      0x20\n      add\n        /* \"contracts/Auction.sol\":3197:3213  _auctionDuration */\n      dup4\n        /* \"contracts/Auction.sol\":3179:3194  block.timestamp */\n      timestamp\n        /* \"contracts/Auction.sol\":3179:3213  block.timestamp + _auctionDuration */\n      tag_86\n      swap2\n      swap1\n      tag_87\n      jump\t// in\n    tag_86:\n        /* \"contracts/Auction.sol\":2812:3257  Artwork({... */\n      dup2\n      mstore\n      0x20\n      add\n        /* \"contracts/Auction.sol\":3241:3246  false */\n      0x00\n        /* \"contracts/Auction.sol\":2812:3257  Artwork({... */\n      iszero\n      iszero\n      dup2\n      mstore\n      pop\n        /* \"contracts/Auction.sol\":2790:2798  artworks */\n      0x03\n        /* \"contracts/Auction.sol\":2790:2809  artworks[artworkId] */\n      0x00\n        /* \"contracts/Auction.sol\":2799:2808  artworkId */\n      dup4\n        /* \"contracts/Auction.sol\":2790:2809  artworks[artworkId] */\n      dup2\n      mstore\n      0x20\n      add\n      swap1\n      dup2\n      mstore\n      0x20\n      add\n      0x00\n      keccak256\n        /* \"contracts/Auction.sol\":2790:3257  artworks[artworkId] = Artwork({... */\n      0x00\n      dup3\n      add\n      mload\n      dup2\n      0x00\n      add\n      sstore\n      0x20\n      dup3\n      add\n      mload\n      dup2\n      0x01\n      add\n      exp(0x0100, 0x00)\n      dup2\n      sload\n      dup2\n      0xffffffffffffffffffffffffffffffffffffffff\n      mul\n      not\n      and\n      swap1\n      dup4\n      0xffffffffffffffffffffffffffffffffffffffff\n      and\n      mul\n      or\n      swap1\n      sstore\n      pop\n      0x40\n      dup3\n      add\n      mload\n      dup2\n      0x02\n      add\n      swap1\n      dup2\n      tag_88\n      swap2\n      swap1\n      tag_89\n      jump\t// in\n    tag_88:\n      pop\n      0x60\n      dup3\n      add\n      mload\n      dup2\n      0x03\n      add\n      swap1\n      dup2\n      tag_90\n      swap2\n      swap1\n      tag_89\n      jump\t// in\n    tag_90:\n      pop\n      0x80\n      dup3\n      add\n      mload\n      dup2\n      0x04\n      add\n      swap1\n      dup2\n      tag_91\n      swap2\n      swap1\n      tag_89\n      jump\t// in\n    tag_91:\n      pop\n      0xa0\n      dup3\n      add\n      mload\n      dup2\n      0x05\n      add\n      swap1\n      dup2\n      tag_92\n      swap2\n      swap1\n      tag_89\n      jump\t// in\n    tag_92:\n      pop\n      0xc0\n      dup3\n      add\n      mload\n      dup2\n      0x06\n      add\n      sstore\n      0xe0\n      dup3\n      add\n      mload\n      dup2\n      0x07\n      add\n      sstore\n      0x0100\n      dup3\n      add\n      mload\n      dup2\n      0x08\n      add\n      exp(0x0100, 0x00)\n      dup2\n      sload\n      dup2\n      0xffffffffffffffffffffffffffffffffffffffff\n      mul\n      not\n      and\n      swap1\n      dup4\n      0xffffffffffffffffffffffffffffffffffffffff\n      and\n      mul\n      or\n      swap1\n      sstore\n      pop\n      0x0120\n      dup3\n      add\n      mload\n      dup2\n      0x09\n      add\n      sstore\n      0x0140\n      dup3\n      add\n      mload\n      dup2\n      0x0a\n      add\n      exp(0x0100, 0x00)\n      dup2\n      sload\n      dup2\n      0xff\n      mul\n      not\n      and\n      swap1\n      dup4\n      iszero\n      iszero\n      mul\n      or\n      swap1\n      sstore\n      pop\n      swap1\n      pop\n      pop\n        /* \"contracts/Auction.sol\":3268:3278  artworkIds */\n      0x04\n        /* \"contracts/Auction.sol\":3284:3293  artworkId */\n      dup2\n        /* \"contracts/Auction.sol\":3268:3294  artworkIds.push(artworkId) */\n      swap1\n      dup1\n      0x01\n      dup2\n      sload\n      add\n      dup1\n      dup3\n      sstore\n      dup1\n      swap2\n      pop\n      pop\n      0x01\n      swap1\n      sub\n      swap1\n      0x00\n      mstore\n      keccak256(0x00, 0x20)\n      add\n      0x00\n      swap1\n      swap2\n      swap1\n      swap2\n      swap1\n      swap2\n      pop\n      sstore\n        /* \"contracts/Auction.sol\":3304:3329  _liveAuctions.increment() */\n      tag_94\n        /* \"contracts/Auction.sol\":3304:3317  _liveAuctions */\n      0x01\n        /* \"contracts/Auction.sol\":3304:3327  _liveAuctions.increment */\n      tag_83\n        /* \"contracts/Auction.sol\":3304:3329  _liveAuctions.increment() */\n      jump\t// in\n    tag_94:\n        /* \"contracts/Auction.sol\":3523:3532  artworkId */\n      dup1\n        /* \"contracts/Auction.sol\":3496:3622  ArtworkListed(... */\n      0x4844eef316b579e3de2c8c0ae4e0c2aa929948a4de0512b928e8b69e8e0eb828\n        /* \"contracts/Auction.sol\":3546:3557  _artistName */\n      dup9\n        /* \"contracts/Auction.sol\":3571:3584  _creationDate */\n      dup9\n        /* \"contracts/Auction.sol\":3598:3612  _startingPrice */\n      dup7\n        /* \"contracts/Auction.sol\":3496:3622  ArtworkListed(... */\n      mload(0x40)\n      tag_95\n      swap4\n      swap3\n      swap2\n      swap1\n      tag_96\n      jump\t// in\n    tag_95:\n      mload(0x40)\n      dup1\n      swap2\n      sub\n      swap1\n      log2\n        /* \"contracts/Auction.sol\":2687:3629  {... */\n      pop\n        /* \"contracts/Auction.sol\":2447:3629  function listArtwork(... */\n      pop\n      pop\n      pop\n      pop\n      pop\n      pop\n      jump\t// out\n        /* \"contracts/Auction.sol\":4522:5240  function updateAuction(... */\n    tag_29:\n        /* \"contracts/Auction.sol\":4734:4757  Artwork storage artwork */\n      0x00\n        /* \"contracts/Auction.sol\":4760:4768  artworks */\n      0x03\n        /* \"contracts/Auction.sol\":4760:4780  artworks[_artworkId] */\n      0x00\n        /* \"contracts/Auction.sol\":4769:4779  _artworkId */\n      dup6\n        /* \"contracts/Auction.sol\":4760:4780  artworks[_artworkId] */\n      dup2\n      mstore\n      0x20\n      add\n      swap1\n      dup2\n      mstore\n      0x20\n      add\n      0x00\n      keccak256\n        /* \"contracts/Auction.sol\":4734:4780  Artwork storage artwork = artworks[_artworkId] */\n      swap1\n      pop\n        /* \"contracts/Auction.sol\":4825:4832  artwork */\n      dup1\n        /* \"contracts/Auction.sol\":4825:4838  artwork.owner */\n      0x01\n      add\n      0x00\n      swap1\n      sload\n      swap1\n      0x0100\n      exp\n      swap1\n      div\n      0xffffffffffffffffffffffffffffffffffffffff\n      and\n        /* \"contracts/Auction.sol\":4811:4838  msg.sender == artwork.owner */\n      0xffffffffffffffffffffffffffffffffffffffff\n      and\n        /* \"contracts/Auction.sol\":4811:4821  msg.sender */\n      caller\n        /* \"contracts/Auction.sol\":4811:4838  msg.sender == artwork.owner */\n      0xffffffffffffffffffffffffffffffffffffffff\n      and\n      eq\n        /* \"contracts/Auction.sol\":4790:4910  require(... */\n      tag_98\n      jumpi\n      mload(0x40)\n      0x08c379a000000000000000000000000000000000000000000000000000000000\n      dup2\n      mstore\n      0x04\n      add\n      tag_99\n      swap1\n      tag_100\n      jump\t// in\n    tag_99:\n      mload(0x40)\n      dup1\n      swap2\n      sub\n      swap1\n      revert\n    tag_98:\n        /* \"contracts/Auction.sol\":4946:4957  _newEndTime */\n      dup3\n        /* \"contracts/Auction.sol\":4921:4928  artwork */\n      dup2\n        /* \"contracts/Auction.sol\":4921:4943  artwork.auctionEndTime */\n      0x09\n      add\n        /* \"contracts/Auction.sol\":4921:4957  artwork.auctionEndTime = _newEndTime */\n      dup2\n      swap1\n      sstore\n      pop\n        /* \"contracts/Auction.sol\":4991:5008  _newStartingPrice */\n      dup2\n        /* \"contracts/Auction.sol\":4967:4974  artwork */\n      dup2\n        /* \"contracts/Auction.sol\":4967:4988  artwork.startingPrice */\n      0x06\n      add\n        /* \"contracts/Auction.sol\":4967:5008  artwork.startingPrice = _newStartingPrice */\n      dup2\n      swap1\n      sstore\n      pop\n        /* \"contracts/Auction.sol\":5190:5200  _artworkId */\n      dup4\n        /* \"contracts/Auction.sol\":5175:5233  AuctionUpdated(_artworkId, _newEndTime, _newStartingPrice) */\n      0x364b79005dd15e524680d4a8482888120dcc595f290e7bcd79f1ef78b4ef6316\n        /* \"contracts/Auction.sol\":5202:5213  _newEndTime */\n      dup5\n        /* \"contracts/Auction.sol\":5215:5232  _newStartingPrice */\n      dup5\n        /* \"contracts/Auction.sol\":5175:5233  AuctionUpdated(_artworkId, _newEndTime, _newStartingPrice) */\n      mload(0x40)\n      tag_101\n      swap3\n      swap2\n      swap1\n      tag_102\n      jump\t// in\n    tag_101:\n      mload(0x40)\n      dup1\n      swap2\n      sub\n      swap1\n      log2\n        /* \"contracts/Auction.sol\":4652:5240  {... */\n      pop\n        /* \"contracts/Auction.sol\":4522:5240  function updateAuction(... */\n      pop\n      pop\n      pop\n      jump\t// out\n        /* \"contracts/Auction.sol\":1953:2050  function getBalance() public view returns (uint256) {... */\n    tag_32:\n        /* \"contracts/Auction.sol\":1996:2003  uint256 */\n      0x00\n        /* \"contracts/Auction.sol\":2022:2043  address(this).balance */\n      selfbalance\n        /* \"contracts/Auction.sol\":2015:2043  return address(this).balance */\n      swap1\n      pop\n        /* \"contracts/Auction.sol\":1953:2050  function getBalance() public view returns (uint256) {... */\n      swap1\n      jump\t// out\n        /* \"contracts/Auction.sol\":8495:8602  function getArtwork(uint256 _id) public view returns (Artwork memory) {... */\n    tag_39:\n        /* \"contracts/Auction.sol\":8549:8563  Artwork memory */\n      tag_104\n      tag_105\n      jump\t// in\n    tag_104:\n        /* \"contracts/Auction.sol\":8582:8590  artworks */\n      0x03\n        /* \"contracts/Auction.sol\":8582:8595  artworks[_id] */\n      0x00\n        /* \"contracts/Auction.sol\":8591:8594  _id */\n      dup4\n        /* \"contracts/Auction.sol\":8582:8595  artworks[_id] */\n      dup2\n      mstore\n      0x20\n      add\n      swap1\n      dup2\n      mstore\n      0x20\n      add\n      0x00\n      keccak256\n        /* \"contracts/Auction.sol\":8575:8595  return artworks[_id] */\n      mload(0x40)\n      dup1\n      0x0160\n      add\n      0x40\n      mstore\n      swap1\n      dup2\n      0x00\n      dup3\n      add\n      sload\n      dup2\n      mstore\n      0x20\n      add\n      0x01\n      dup3\n      add\n      0x00\n      swap1\n      sload\n      swap1\n      0x0100\n      exp\n      swap1\n      div\n      0xffffffffffffffffffffffffffffffffffffffff\n      and\n      0xffffffffffffffffffffffffffffffffffffffff\n      and\n      0xffffffffffffffffffffffffffffffffffffffff\n      and\n      dup2\n      mstore\n      0x20\n      add\n      0x02\n      dup3\n      add\n      dup1\n      sload\n      tag_107\n      swap1\n      tag_108\n      jump\t// in\n    tag_107:\n      dup1\n      0x1f\n      add\n      0x20\n      dup1\n      swap2\n      div\n      mul\n      0x20\n      add\n      mload(0x40)\n      swap1\n      dup2\n      add\n      0x40\n      mstore\n      dup1\n      swap3\n      swap2\n      swap1\n      dup2\n      dup2\n      mstore\n      0x20\n      add\n      dup3\n      dup1\n      sload\n      tag_109\n      swap1\n      tag_108\n      jump\t// in\n    tag_109:\n      dup1\n      iszero\n      tag_110\n      jumpi\n      dup1\n      0x1f\n      lt\n      tag_111\n      jumpi\n      0x0100\n      dup1\n      dup4\n      sload\n      div\n      mul\n      dup4\n      mstore\n      swap2\n      0x20\n      add\n      swap2\n      jump(tag_110)\n    tag_111:\n      dup3\n      add\n      swap2\n      swap1\n      0x00\n      mstore\n      keccak256(0x00, 0x20)\n      swap1\n    tag_112:\n      dup2\n      sload\n      dup2\n      mstore\n      swap1\n      0x01\n      add\n      swap1\n      0x20\n      add\n      dup1\n      dup4\n      gt\n      tag_112\n      jumpi\n      dup3\n      swap1\n      sub\n      0x1f\n      and\n      dup3\n      add\n      swap2\n    tag_110:\n      pop\n      pop\n      pop\n      pop\n      pop\n      dup2\n      mstore\n      0x20\n      add\n      0x03\n      dup3\n      add\n      dup1\n      sload\n      tag_113\n      swap1\n      tag_108\n      jump\t// in\n    tag_113:\n      dup1\n      0x1f\n      add\n      0x20\n      dup1\n      swap2\n      div\n      mul\n      0x20\n      add\n      mload(0x40)\n      swap1\n      dup2\n      add\n      0x40\n      mstore\n      dup1\n      swap3\n      swap2\n      swap1\n      dup2\n      dup2\n      mstore\n      0x20\n      add\n      dup3\n      dup1\n      sload\n      tag_114\n      swap1\n      tag_108\n      jump\t// in\n    tag_114:\n      dup1\n      iszero\n      tag_115\n      jumpi\n      dup1\n      0x1f\n      lt\n      tag_116\n      jumpi\n      0x0100\n      dup1\n      dup4\n      sload\n      div\n      mul\n      dup4\n      mstore\n      swap2\n      0x20\n      add\n      swap2\n      jump(tag_115)\n    tag_116:\n      dup3\n      add\n      swap2\n      swap1\n      0x00\n      mstore\n      keccak256(0x00, 0x20)\n      swap1\n    tag_117:\n      dup2\n      sload\n      dup2\n      mstore\n      swap1\n      0x01\n      add\n      swap1\n      0x20\n      add\n      dup1\n      dup4\n      gt\n      tag_117\n      jumpi\n      dup3\n      swap1\n      sub\n      0x1f\n      and\n      dup3\n      add\n      swap2\n    tag_115:\n      pop\n      pop\n      pop\n      pop\n      pop\n      dup2\n      mstore\n      0x20\n      add\n      0x04\n      dup3\n      add\n      dup1\n      sload\n      tag_118\n      swap1\n      tag_108\n      jump\t// in\n    tag_118:\n      dup1\n      0x1f\n      add\n      0x20\n      dup1\n      swap2\n      div\n      mul\n      0x20\n      add\n      mload(0x40)\n      swap1\n      dup2\n      add\n      0x40\n      mstore\n      dup1\n      swap3\n      swap2\n      swap1\n      dup2\n      dup2\n      mstore\n      0x20\n      add\n      dup3\n      dup1\n      sload\n      tag_119\n      swap1\n      tag_108\n      jump\t// in\n    tag_119:\n      dup1\n      iszero\n      tag_120\n      jumpi\n      dup1\n      0x1f\n      lt\n      tag_121\n      jumpi\n      0x0100\n      dup1\n      dup4\n      sload\n      div\n      mul\n      dup4\n      mstore\n      swap2\n      0x20\n      add\n      swap2\n      jump(tag_120)\n    tag_121:\n      dup3\n      add\n      swap2\n      swap1\n      0x00\n      mstore\n      keccak256(0x00, 0x20)\n      swap1\n    tag_122:\n      dup2\n      sload\n      dup2\n      mstore\n      swap1\n      0x01\n      add\n      swap1\n      0x20\n      add\n      dup1\n      dup4\n      gt\n      tag_122\n      jumpi\n      dup3\n      swap1\n      sub\n      0x1f\n      and\n      dup3\n      add\n      swap2\n    tag_120:\n      pop\n      pop\n      pop\n      pop\n      pop\n      dup2\n      mstore\n      0x20\n      add\n      0x05\n      dup3\n      add\n      dup1\n      sload\n      tag_123\n      swap1\n      tag_108\n      jump\t// in\n    tag_123:\n      dup1\n      0x1f\n      add\n      0x20\n      dup1\n      swap2\n      div\n      mul\n      0x20\n      add\n      mload(0x40)\n      swap1\n      dup2\n      add\n      0x40\n      mstore\n      dup1\n      swap3\n      swap2\n      swap1\n      dup2\n      dup2\n      mstore\n      0x20\n      add\n      dup3\n      dup1\n      sload\n      tag_124\n      swap1\n      tag_108\n      jump\t// in\n    tag_124:\n      dup1\n      iszero\n      tag_125\n      jumpi\n      dup1\n      0x1f\n      lt\n      tag_126\n      jumpi\n      0x0100\n      dup1\n      dup4\n      sload\n      div\n      mul\n      dup4\n      mstore\n      swap2\n      0x20\n      add\n      swap2\n      jump(tag_125)\n    tag_126:\n      dup3\n      add\n      swap2\n      swap1\n      0x00\n      mstore\n      keccak256(0x00, 0x20)\n      swap1\n    tag_127:\n      dup2\n      sload\n      dup2\n      mstore\n      swap1\n      0x01\n      add\n      swap1\n      0x20\n      add\n      dup1\n      dup4\n      gt\n      tag_127\n      jumpi\n      dup3\n      swap1\n      sub\n      0x1f\n      and\n      dup3\n      add\n      swap2\n    tag_125:\n      pop\n      pop\n      pop\n      pop\n      pop\n      dup2\n      mstore\n      0x20\n      add\n      0x06\n      dup3\n      add\n      sload\n      dup2\n      mstore\n      0x20\n      add\n      0x07\n      dup3\n      add\n      sload\n      dup2\n      mstore\n      0x20\n      add\n      0x08\n      dup3\n      add\n      0x00\n      swap1\n      sload\n      swap1\n      0x0100\n      exp\n      swap1\n      div\n      0xffffffffffffffffffffffffffffffffffffffff\n      and\n      0xffffffffffffffffffffffffffffffffffffffff\n      and\n      0xffffffffffffffffffffffffffffffffffffffff\n      and\n      dup2\n      mstore\n      0x20\n      add\n      0x09\n      dup3\n      add\n      sload\n      dup2\n      mstore\n      0x20\n      add\n      0x0a\n      dup3\n      add\n      0x00\n      swap1\n      sload\n      swap1\n      0x0100\n      exp\n      swap1\n      div\n      0xff\n      and\n      iszero\n      iszero\n      iszero\n      iszero\n      dup2\n      mstore\n      pop\n      pop\n      swap1\n      pop\n        /* \"contracts/Auction.sol\":8495:8602  function getArtwork(uint256 _id) public view returns (Artwork memory) {... */\n      swap2\n      swap1\n      pop\n      jump\t// out\n        /* \"contracts/Auction.sol\":6176:6998  function bid(uint256 _artworkId) external payable {... */\n    tag_44:\n        /* \"contracts/Auction.sol\":6309:6332  Artwork storage artwork */\n      0x00\n        /* \"contracts/Auction.sol\":6335:6343  artworks */\n      0x03\n        /* \"contracts/Auction.sol\":6335:6355  artworks[_artworkId] */\n      0x00\n        /* \"contracts/Auction.sol\":6344:6354  _artworkId */\n      dup4\n        /* \"contracts/Auction.sol\":6335:6355  artworks[_artworkId] */\n      dup2\n      mstore\n      0x20\n      add\n      swap1\n      dup2\n      mstore\n      0x20\n      add\n      0x00\n      keccak256\n        /* \"contracts/Auction.sol\":6309:6355  Artwork storage artwork = artworks[_artworkId] */\n      swap1\n      pop\n        /* \"contracts/Auction.sol\":6392:6399  artwork */\n      dup1\n        /* \"contracts/Auction.sol\":6392:6414  artwork.auctionEndTime */\n      0x09\n      add\n      sload\n        /* \"contracts/Auction.sol\":6374:6389  block.timestamp */\n      timestamp\n        /* \"contracts/Auction.sol\":6374:6414  block.timestamp < artwork.auctionEndTime */\n      lt\n        /* \"contracts/Auction.sol\":6366:6437  require(block.timestamp < artwork.auctionEndTime, \"Auction has ended.\") */\n      tag_129\n      jumpi\n      mload(0x40)\n      0x08c379a000000000000000000000000000000000000000000000000000000000\n      dup2\n      mstore\n      0x04\n      add\n      tag_130\n      swap1\n      tag_131\n      jump\t// in\n    tag_130:\n      mload(0x40)\n      dup1\n      swap2\n      sub\n      swap1\n      revert\n    tag_129:\n        /* \"contracts/Auction.sol\":6467:6474  artwork */\n      dup1\n        /* \"contracts/Auction.sol\":6467:6485  artwork.currentBid */\n      0x07\n      add\n      sload\n        /* \"contracts/Auction.sol\":6455:6464  msg.value */\n      callvalue\n        /* \"contracts/Auction.sol\":6455:6485  msg.value > artwork.currentBid */\n      gt\n        /* \"contracts/Auction.sol\":6447:6513  require(msg.value > artwork.currentBid, \"Bid is not high enough.\") */\n      tag_132\n      jumpi\n      mload(0x40)\n      0x08c379a000000000000000000000000000000000000000000000000000000000\n      dup2\n      mstore\n      0x04\n      add\n      tag_133\n      swap1\n      tag_134\n      jump\t// in\n    tag_133:\n      mload(0x40)\n      dup1\n      swap2\n      sub\n      swap1\n      revert\n    tag_132:\n        /* \"contracts/Auction.sol\":6561:6562  0 */\n      0x00\n        /* \"contracts/Auction.sol\":6528:6563  artwork.highestBidder != address(0) */\n      0xffffffffffffffffffffffffffffffffffffffff\n      and\n        /* \"contracts/Auction.sol\":6528:6535  artwork */\n      dup2\n        /* \"contracts/Auction.sol\":6528:6549  artwork.highestBidder */\n      0x08\n      add\n      0x00\n      swap1\n      sload\n      swap1\n      0x0100\n      exp\n      swap1\n      div\n      0xffffffffffffffffffffffffffffffffffffffff\n      and\n        /* \"contracts/Auction.sol\":6528:6563  artwork.highestBidder != address(0) */\n      0xffffffffffffffffffffffffffffffffffffffff\n      and\n      eq\n        /* \"contracts/Auction.sol\":6524:6690  if (artwork.highestBidder != address(0)) {... */\n      tag_135\n      jumpi\n        /* \"contracts/Auction.sol\":6629:6636  artwork */\n      dup1\n        /* \"contracts/Auction.sol\":6629:6650  artwork.highestBidder */\n      0x08\n      add\n      0x00\n      swap1\n      sload\n      swap1\n      0x0100\n      exp\n      swap1\n      div\n      0xffffffffffffffffffffffffffffffffffffffff\n      and\n        /* \"contracts/Auction.sol\":6629:6659  artwork.highestBidder.transfer */\n      0xffffffffffffffffffffffffffffffffffffffff\n      and\n        /* \"contracts/Auction.sol\":6629:6679  artwork.highestBidder.transfer(artwork.currentBid) */\n      0x08fc\n        /* \"contracts/Auction.sol\":6660:6667  artwork */\n      dup3\n        /* \"contracts/Auction.sol\":6660:6678  artwork.currentBid */\n      0x07\n      add\n      sload\n        /* \"contracts/Auction.sol\":6629:6679  artwork.highestBidder.transfer(artwork.currentBid) */\n      swap1\n      dup2\n      iszero\n      mul\n      swap1\n      mload(0x40)\n      0x00\n      mload(0x40)\n      dup1\n      dup4\n      sub\n      dup2\n      dup6\n      dup9\n      dup9\n      call\n      swap4\n      pop\n      pop\n      pop\n      pop\n      iszero\n      dup1\n      iszero\n      tag_137\n      jumpi\n      returndatasize\n      0x00\n      dup1\n      returndatacopy\n      revert(0x00, returndatasize)\n    tag_137:\n      pop\n        /* \"contracts/Auction.sol\":6524:6690  if (artwork.highestBidder != address(0)) {... */\n    tag_135:\n        /* \"contracts/Auction.sol\":6721:6730  msg.value */\n      callvalue\n        /* \"contracts/Auction.sol\":6700:6707  artwork */\n      dup2\n        /* \"contracts/Auction.sol\":6700:6718  artwork.currentBid */\n      0x07\n      add\n        /* \"contracts/Auction.sol\":6700:6730  artwork.currentBid = msg.value */\n      dup2\n      swap1\n      sstore\n      pop\n        /* \"contracts/Auction.sol\":6772:6782  msg.sender */\n      caller\n        /* \"contracts/Auction.sol\":6740:6747  artwork */\n      dup2\n        /* \"contracts/Auction.sol\":6740:6761  artwork.highestBidder */\n      0x08\n      add\n      0x00\n        /* \"contracts/Auction.sol\":6740:6783  artwork.highestBidder = payable(msg.sender) */\n      0x0100\n      exp\n      dup2\n      sload\n      dup2\n      0xffffffffffffffffffffffffffffffffffffffff\n      mul\n      not\n      and\n      swap1\n      dup4\n      0xffffffffffffffffffffffffffffffffffffffff\n      and\n      mul\n      or\n      swap1\n      sstore\n      pop\n        /* \"contracts/Auction.sol\":6969:6979  msg.sender */\n      caller\n        /* \"contracts/Auction.sol\":6950:6991  NewBid(_artworkId, msg.sender, msg.value) */\n      0xffffffffffffffffffffffffffffffffffffffff\n      and\n        /* \"contracts/Auction.sol\":6957:6967  _artworkId */\n      dup3\n        /* \"contracts/Auction.sol\":6950:6991  NewBid(_artworkId, msg.sender, msg.value) */\n      0x558a0d5d5468d74b0db24c74eb348b42271c2ebb4c9e953ced38aaed95fa4361\n        /* \"contracts/Auction.sol\":6981:6990  msg.value */\n      callvalue\n        /* \"contracts/Auction.sol\":6950:6991  NewBid(_artworkId, msg.sender, msg.value) */\n      mload(0x40)\n      tag_138\n      swap2\n      swap1\n      tag_34\n      jump\t// in\n    tag_138:\n      mload(0x40)\n      dup1\n      swap2\n      sub\n      swap1\n      log3\n        /* \"contracts/Auction.sol\":6226:6998  {... */\n      pop\n        /* \"contracts/Auction.sol\":6176:6998  function bid(uint256 _artworkId) external payable {... */\n      pop\n      jump\t// out\n        /* \"contracts/Auction.sol\":1037:1080  mapping(uint256 => Artwork) public artworks */\n    tag_48:\n      mstore(0x20, 0x03)\n      dup1\n      0x00\n      mstore\n      keccak256(0x00, 0x40)\n      0x00\n      swap2\n      pop\n      swap1\n      pop\n      dup1\n      0x00\n      add\n      sload\n      swap1\n      dup1\n      0x01\n      add\n      0x00\n      swap1\n      sload\n      swap1\n      0x0100\n      exp\n      swap1\n      div\n      0xffffffffffffffffffffffffffffffffffffffff\n      and\n      swap1\n      dup1\n      0x02\n      add\n      dup1\n      sload\n      tag_139\n      swap1\n      tag_108\n      jump\t// in\n    tag_139:\n      dup1\n      0x1f\n      add\n      0x20\n      dup1\n      swap2\n      div\n      mul\n      0x20\n      add\n      mload(0x40)\n      swap1\n      dup2\n      add\n      0x40\n      mstore\n      dup1\n      swap3\n      swap2\n      swap1\n      dup2\n      dup2\n      mstore\n      0x20\n      add\n      dup3\n      dup1\n      sload\n      tag_140\n      swap1\n      tag_108\n      jump\t// in\n    tag_140:\n      dup1\n      iszero\n      tag_141\n      jumpi\n      dup1\n      0x1f\n      lt\n      tag_142\n      jumpi\n      0x0100\n      dup1\n      dup4\n      sload\n      div\n      mul\n      dup4\n      mstore\n      swap2\n      0x20\n      add\n      swap2\n      jump(tag_141)\n    tag_142:\n      dup3\n      add\n      swap2\n      swap1\n      0x00\n      mstore\n      keccak256(0x00, 0x20)\n      swap1\n    tag_143:\n      dup2\n      sload\n      dup2\n      mstore\n      swap1\n      0x01\n      add\n      swap1\n      0x20\n      add\n      dup1\n      dup4\n      gt\n      tag_143\n      jumpi\n      dup3\n      swap1\n      sub\n      0x1f\n      and\n      dup3\n      add\n      swap2\n    tag_141:\n      pop\n      pop\n      pop\n      pop\n      pop\n      swap1\n      dup1\n      0x03\n      add\n      dup1\n      sload\n      tag_144\n      swap1\n      tag_108\n      jump\t// in\n    tag_144:\n      dup1\n      0x1f\n      add\n      0x20\n      dup1\n      swap2\n      div\n      mul\n      0x20\n      add\n      mload(0x40)\n      swap1\n      dup2\n      add\n      0x40\n      mstore\n      dup1\n      swap3\n      swap2\n      swap1\n      dup2\n      dup2\n      mstore\n      0x20\n      add\n      dup3\n      dup1\n      sload\n      tag_145\n      swap1\n      tag_108\n      jump\t// in\n    tag_145:\n      dup1\n      iszero\n      tag_146\n      jumpi\n      dup1\n      0x1f\n      lt\n      tag_147\n      jumpi\n      0x0100\n      dup1\n      dup4\n      sload\n      div\n      mul\n      dup4\n      mstore\n      swap2\n      0x20\n      add\n      swap2\n      jump(tag_146)\n    tag_147:\n      dup3\n      add\n      swap2\n      swap1\n      0x00\n      mstore\n      keccak256(0x00, 0x20)\n      swap1\n    tag_148:\n      dup2\n      sload\n      dup2\n      mstore\n      swap1\n      0x01\n      add\n      swap1\n      0x20\n      add\n      dup1\n      dup4\n      gt\n      tag_148\n      jumpi\n      dup3\n      swap1\n      sub\n      0x1f\n      and\n      dup3\n      add\n      swap2\n    tag_146:\n      pop\n      pop\n      pop\n      pop\n      pop\n      swap1\n      dup1\n      0x04\n      add\n      dup1\n      sload\n      tag_149\n      swap1\n      tag_108\n      jump\t// in\n    tag_149:\n      dup1\n      0x1f\n      add\n      0x20\n      dup1\n      swap2\n      div\n      mul\n      0x20\n      add\n      mload(0x40)\n      swap1\n      dup2\n      add\n      0x40\n      mstore\n      dup1\n      swap3\n      swap2\n      swap1\n      dup2\n      dup2\n      mstore\n      0x20\n      add\n      dup3\n      dup1\n      sload\n      tag_150\n      swap1\n      tag_108\n      jump\t// in\n    tag_150:\n      dup1\n      iszero\n      tag_151\n      jumpi\n      dup1\n      0x1f\n      lt\n      tag_152\n      jumpi\n      0x0100\n      dup1\n      dup4\n      sload\n      div\n      mul\n      dup4\n      mstore\n      swap2\n      0x20\n      add\n      swap2\n      jump(tag_151)\n    tag_152:\n      dup3\n      add\n      swap2\n      swap1\n      0x00\n      mstore\n      keccak256(0x00, 0x20)\n      swap1\n    tag_153:\n      dup2\n      sload\n      dup2\n      mstore\n      swap1\n      0x01\n      add\n      swap1\n      0x20\n      add\n      dup1\n      dup4\n      gt\n      tag_153\n      jumpi\n      dup3\n      swap1\n      sub\n      0x1f\n      and\n      dup3\n      add\n      swap2\n    tag_151:\n      pop\n      pop\n      pop\n      pop\n      pop\n      swap1\n      dup1\n      0x05\n      add\n      dup1\n      sload\n      tag_154\n      swap1\n      tag_108\n      jump\t// in\n    tag_154:\n      dup1\n      0x1f\n      add\n      0x20\n      dup1\n      swap2\n      div\n      mul\n      0x20\n      add\n      mload(0x40)\n      swap1\n      dup2\n      add\n      0x40\n      mstore\n      dup1\n      swap3\n      swap2\n      swap1\n      dup2\n      dup2\n      mstore\n      0x20\n      add\n      dup3\n      dup1\n      sload\n      tag_155\n      swap1\n      tag_108\n      jump\t// in\n    tag_155:\n      dup1\n      iszero\n      tag_156\n      jumpi\n      dup1\n      0x1f\n      lt\n      tag_157\n      jumpi\n      0x0100\n      dup1\n      dup4\n      sload\n      div\n      mul\n      dup4\n      mstore\n      swap2\n      0x20\n      add\n      swap2\n      jump(tag_156)\n    tag_157:\n      dup3\n      add\n      swap2\n      swap1\n      0x00\n      mstore\n      keccak256(0x00, 0x20)\n      swap1\n    tag_158:\n      dup2\n      sload\n      dup2\n      mstore\n      swap1\n      0x01\n      add\n      swap1\n      0x20\n      add\n      dup1\n      dup4\n      gt\n      tag_158\n      jumpi\n      dup3\n      swap1\n      sub\n      0x1f\n      and\n      dup3\n      add\n      swap2\n    tag_156:\n      pop\n      pop\n      pop\n      pop\n      pop\n      swap1\n      dup1\n      0x06\n      add\n      sload\n      swap1\n      dup1\n      0x07\n      add\n      sload\n      swap1\n      dup1\n      0x08\n      add\n      0x00\n      swap1\n      sload\n      swap1\n      0x0100\n      exp\n      swap1\n      div\n      0xffffffffffffffffffffffffffffffffffffffff\n      and\n      swap1\n      dup1\n      0x09\n      add\n      sload\n      swap1\n      dup1\n      0x0a\n      add\n      0x00\n      swap1\n      sload\n      swap1\n      0x0100\n      exp\n      swap1\n      div\n      0xff\n      and\n      swap1\n      pop\n      dup12\n      jump\t// out\n        /* \"contracts/Auction.sol\":5272:6170  function joinAuctionWithInitialBid(uint256 _artworkId) external payable {... */\n    tag_53:\n        /* \"contracts/Auction.sol\":5426:5449  Artwork storage artwork */\n      0x00\n        /* \"contracts/Auction.sol\":5452:5460  artworks */\n      0x03\n        /* \"contracts/Auction.sol\":5452:5472  artworks[_artworkId] */\n      0x00\n        /* \"contracts/Auction.sol\":5461:5471  _artworkId */\n      dup4\n        /* \"contracts/Auction.sol\":5452:5472  artworks[_artworkId] */\n      dup2\n      mstore\n      0x20\n      add\n      swap1\n      dup2\n      mstore\n      0x20\n      add\n      0x00\n      keccak256\n        /* \"contracts/Auction.sol\":5426:5472  Artwork storage artwork = artworks[_artworkId] */\n      swap1\n      pop\n        /* \"contracts/Auction.sol\":5509:5516  artwork */\n      dup1\n        /* \"contracts/Auction.sol\":5509:5531  artwork.auctionEndTime */\n      0x09\n      add\n      sload\n        /* \"contracts/Auction.sol\":5491:5506  block.timestamp */\n      timestamp\n        /* \"contracts/Auction.sol\":5491:5531  block.timestamp < artwork.auctionEndTime */\n      lt\n        /* \"contracts/Auction.sol\":5483:5554  require(block.timestamp < artwork.auctionEndTime, \"Auction has ended.\") */\n      tag_160\n      jumpi\n      mload(0x40)\n      0x08c379a000000000000000000000000000000000000000000000000000000000\n      dup2\n      mstore\n      0x04\n      add\n      tag_161\n      swap1\n      tag_131\n      jump\t// in\n    tag_161:\n      mload(0x40)\n      dup1\n      swap2\n      sub\n      swap1\n      revert\n    tag_160:\n        /* \"contracts/Auction.sol\":5598:5605  artwork */\n      dup1\n        /* \"contracts/Auction.sol\":5598:5619  artwork.startingPrice */\n      0x06\n      add\n      sload\n        /* \"contracts/Auction.sol\":5585:5594  msg.value */\n      callvalue\n        /* \"contracts/Auction.sol\":5585:5619  msg.value >= artwork.startingPrice */\n      lt\n      iszero\n        /* \"contracts/Auction.sol\":5564:5685  require(... */\n      tag_162\n      jumpi\n      mload(0x40)\n      0x08c379a000000000000000000000000000000000000000000000000000000000\n      dup2\n      mstore\n      0x04\n      add\n      tag_163\n      swap1\n      tag_164\n      jump\t// in\n    tag_163:\n      mload(0x40)\n      dup1\n      swap2\n      sub\n      swap1\n      revert\n    tag_162:\n        /* \"contracts/Auction.sol\":5733:5734  0 */\n      0x00\n        /* \"contracts/Auction.sol\":5700:5735  artwork.highestBidder != address(0) */\n      0xffffffffffffffffffffffffffffffffffffffff\n      and\n        /* \"contracts/Auction.sol\":5700:5707  artwork */\n      dup2\n        /* \"contracts/Auction.sol\":5700:5721  artwork.highestBidder */\n      0x08\n      add\n      0x00\n      swap1\n      sload\n      swap1\n      0x0100\n      exp\n      swap1\n      div\n      0xffffffffffffffffffffffffffffffffffffffff\n      and\n        /* \"contracts/Auction.sol\":5700:5735  artwork.highestBidder != address(0) */\n      0xffffffffffffffffffffffffffffffffffffffff\n      and\n      eq\n        /* \"contracts/Auction.sol\":5696:5862  if (artwork.highestBidder != address(0)) {... */\n      tag_165\n      jumpi\n        /* \"contracts/Auction.sol\":5801:5808  artwork */\n      dup1\n        /* \"contracts/Auction.sol\":5801:5822  artwork.highestBidder */\n      0x08\n      add\n      0x00\n      swap1\n      sload\n      swap1\n      0x0100\n      exp\n      swap1\n      div\n      0xffffffffffffffffffffffffffffffffffffffff\n      and\n        /* \"contracts/Auction.sol\":5801:5831  artwork.highestBidder.transfer */\n      0xffffffffffffffffffffffffffffffffffffffff\n      and\n        /* \"contracts/Auction.sol\":5801:5851  artwork.highestBidder.transfer(artwork.currentBid) */\n      0x08fc\n        /* \"contracts/Auction.sol\":5832:5839  artwork */\n      dup3\n        /* \"contracts/Auction.sol\":5832:5850  artwork.currentBid */\n      0x07\n      add\n      sload\n        /* \"contracts/Auction.sol\":5801:5851  artwork.highestBidder.transfer(artwork.currentBid) */\n      swap1\n      dup2\n      iszero\n      mul\n      swap1\n      mload(0x40)\n      0x00\n      mload(0x40)\n      dup1\n      dup4\n      sub\n      dup2\n      dup6\n      dup9\n      dup9\n      call\n      swap4\n      pop\n      pop\n      pop\n      pop\n      iszero\n      dup1\n      iszero\n      tag_167\n      jumpi\n      returndatasize\n      0x00\n      dup1\n      returndatacopy\n      revert(0x00, returndatasize)\n    tag_167:\n      pop\n        /* \"contracts/Auction.sol\":5696:5862  if (artwork.highestBidder != address(0)) {... */\n    tag_165:\n        /* \"contracts/Auction.sol\":5893:5902  msg.value */\n      callvalue\n        /* \"contracts/Auction.sol\":5872:5879  artwork */\n      dup2\n        /* \"contracts/Auction.sol\":5872:5890  artwork.currentBid */\n      0x07\n      add\n        /* \"contracts/Auction.sol\":5872:5902  artwork.currentBid = msg.value */\n      dup2\n      swap1\n      sstore\n      pop\n        /* \"contracts/Auction.sol\":5944:5954  msg.sender */\n      caller\n        /* \"contracts/Auction.sol\":5912:5919  artwork */\n      dup2\n        /* \"contracts/Auction.sol\":5912:5933  artwork.highestBidder */\n      0x08\n      add\n      0x00\n        /* \"contracts/Auction.sol\":5912:5955  artwork.highestBidder = payable(msg.sender) */\n      0x0100\n      exp\n      dup2\n      sload\n      dup2\n      0xffffffffffffffffffffffffffffffffffffffff\n      mul\n      not\n      and\n      swap1\n      dup4\n      0xffffffffffffffffffffffffffffffffffffffff\n      and\n      mul\n      or\n      swap1\n      sstore\n      pop\n        /* \"contracts/Auction.sol\":6141:6151  msg.sender */\n      caller\n        /* \"contracts/Auction.sol\":6122:6163  NewBid(_artworkId, msg.sender, msg.value) */\n      0xffffffffffffffffffffffffffffffffffffffff\n      and\n        /* \"contracts/Auction.sol\":6129:6139  _artworkId */\n      dup3\n        /* \"contracts/Auction.sol\":6122:6163  NewBid(_artworkId, msg.sender, msg.value) */\n      0x558a0d5d5468d74b0db24c74eb348b42271c2ebb4c9e953ced38aaed95fa4361\n        /* \"contracts/Auction.sol\":6153:6162  msg.value */\n      callvalue\n        /* \"contracts/Auction.sol\":6122:6163  NewBid(_artworkId, msg.sender, msg.value) */\n      mload(0x40)\n      tag_168\n      swap2\n      swap1\n      tag_34\n      jump\t// in\n    tag_168:\n      mload(0x40)\n      dup1\n      swap2\n      sub\n      swap1\n      log3\n        /* \"contracts/Auction.sol\":5344:6170  {... */\n      pop\n        /* \"contracts/Auction.sol\":5272:6170  function joinAuctionWithInitialBid(uint256 _artworkId) external payable {... */\n      pop\n      jump\t// out\n        /* \"contracts/Auction.sol\":3662:4489  function updateArtwork(... */\n    tag_58:\n        /* \"contracts/Auction.sol\":3948:3971  Artwork storage artwork */\n      0x00\n        /* \"contracts/Auction.sol\":3974:3982  artworks */\n      0x03\n        /* \"contracts/Auction.sol\":3974:3994  artworks[_artworkId] */\n      0x00\n        /* \"contracts/Auction.sol\":3983:3993  _artworkId */\n      dup8\n        /* \"contracts/Auction.sol\":3974:3994  artworks[_artworkId] */\n      dup2\n      mstore\n      0x20\n      add\n      swap1\n      dup2\n      mstore\n      0x20\n      add\n      0x00\n      keccak256\n        /* \"contracts/Auction.sol\":3948:3994  Artwork storage artwork = artworks[_artworkId] */\n      swap1\n      pop\n        /* \"contracts/Auction.sol\":4039:4046  artwork */\n      dup1\n        /* \"contracts/Auction.sol\":4039:4052  artwork.owner */\n      0x01\n      add\n      0x00\n      swap1\n      sload\n      swap1\n      0x0100\n      exp\n      swap1\n      div\n      0xffffffffffffffffffffffffffffffffffffffff\n      and\n        /* \"contracts/Auction.sol\":4025:4052  msg.sender == artwork.owner */\n      0xffffffffffffffffffffffffffffffffffffffff\n      and\n        /* \"contracts/Auction.sol\":4025:4035  msg.sender */\n      caller\n        /* \"contracts/Auction.sol\":4025:4052  msg.sender == artwork.owner */\n      0xffffffffffffffffffffffffffffffffffffffff\n      and\n      eq\n        /* \"contracts/Auction.sol\":4004:4124  require(... */\n      tag_170\n      jumpi\n      mload(0x40)\n      0x08c379a000000000000000000000000000000000000000000000000000000000\n      dup2\n      mstore\n      0x04\n      add\n      tag_171\n      swap1\n      tag_172\n      jump\t// in\n    tag_171:\n      mload(0x40)\n      dup1\n      swap2\n      sub\n      swap1\n      revert\n    tag_170:\n        /* \"contracts/Auction.sol\":4156:4167  _artistName */\n      dup5\n        /* \"contracts/Auction.sol\":4135:4142  artwork */\n      dup2\n        /* \"contracts/Auction.sol\":4135:4153  artwork.artistName */\n      0x02\n      add\n        /* \"contracts/Auction.sol\":4135:4167  artwork.artistName = _artistName */\n      swap1\n      dup2\n      tag_173\n      swap2\n      swap1\n      tag_89\n      jump\t// in\n    tag_173:\n      pop\n        /* \"contracts/Auction.sol\":4200:4213  _creationDate */\n      dup4\n        /* \"contracts/Auction.sol\":4177:4184  artwork */\n      dup2\n        /* \"contracts/Auction.sol\":4177:4197  artwork.creationDate */\n      0x03\n      add\n        /* \"contracts/Auction.sol\":4177:4213  artwork.creationDate = _creationDate */\n      swap1\n      dup2\n      tag_174\n      swap2\n      swap1\n      tag_89\n      jump\t// in\n    tag_174:\n      pop\n        /* \"contracts/Auction.sol\":4240:4247  _medium */\n      dup3\n        /* \"contracts/Auction.sol\":4223:4230  artwork */\n      dup2\n        /* \"contracts/Auction.sol\":4223:4237  artwork.medium */\n      0x04\n      add\n        /* \"contracts/Auction.sol\":4223:4247  artwork.medium = _medium */\n      swap1\n      dup2\n      tag_175\n      swap2\n      swap1\n      tag_89\n      jump\t// in\n    tag_175:\n      pop\n        /* \"contracts/Auction.sol\":4278:4289  _dimensions */\n      dup2\n        /* \"contracts/Auction.sol\":4257:4264  artwork */\n      dup2\n        /* \"contracts/Auction.sol\":4257:4275  artwork.dimensions */\n      0x05\n      add\n        /* \"contracts/Auction.sol\":4257:4289  artwork.dimensions = _dimensions */\n      swap1\n      dup2\n      tag_176\n      swap2\n      swap1\n      tag_89\n      jump\t// in\n    tag_176:\n      pop\n        /* \"contracts/Auction.sol\":4471:4481  _artworkId */\n      dup6\n        /* \"contracts/Auction.sol\":4456:4482  ArtworkUpdated(_artworkId) */\n      0xd1b00f33712bf6c5d2a3d7a2f14c309e2d6ae750407cf802872c40a8da54c5a9\n      mload(0x40)\n      mload(0x40)\n      dup1\n      swap2\n      sub\n      swap1\n      log2\n        /* \"contracts/Auction.sol\":3866:4489  {... */\n      pop\n        /* \"contracts/Auction.sol\":3662:4489  function updateArtwork(... */\n      pop\n      pop\n      pop\n      pop\n      pop\n      jump\t// out\n        /* \"contracts/Auction.sol\":1086:1113  uint256[] public artworkIds */\n    tag_62:\n      0x04\n      dup2\n      dup2\n      sload\n      dup2\n      lt\n      tag_177\n      jumpi\n      0x00\n      dup1\n      revert\n    tag_177:\n      swap1\n      0x00\n      mstore\n      keccak256(0x00, 0x20)\n      add\n      0x00\n      swap2\n      pop\n      swap1\n      pop\n      sload\n      dup2\n      jump\t// out\n        /* \"contracts/Auction.sol\":7950:8247  function getAllArtworks() external view returns (Artwork[] memory) {... */\n    tag_66:\n        /* \"contracts/Auction.sol\":7999:8015  Artwork[] memory */\n      0x60\n        /* \"contracts/Auction.sol\":8027:8055  Artwork[] memory allArtworks */\n      0x00\n        /* \"contracts/Auction.sol\":8072:8082  artworkIds */\n      0x04\n        /* \"contracts/Auction.sol\":8072:8089  artworkIds.length */\n      dup1\n      sload\n      swap1\n      pop\n        /* \"contracts/Auction.sol\":8058:8090  new Artwork[](artworkIds.length) */\n      0xffffffffffffffff\n      dup2\n      gt\n      iszero\n      tag_180\n      jumpi\n      tag_181\n      tag_182\n      jump\t// in\n    tag_181:\n    tag_180:\n      mload(0x40)\n      swap1\n      dup1\n      dup3\n      mstore\n      dup1\n      0x20\n      mul\n      0x20\n      add\n      dup3\n      add\n      0x40\n      mstore\n      dup1\n      iszero\n      tag_183\n      jumpi\n      dup2\n      0x20\n      add\n    tag_184:\n      tag_185\n      tag_105\n      jump\t// in\n    tag_185:\n      dup2\n      mstore\n      0x20\n      add\n      swap1\n      0x01\n      swap1\n      sub\n      swap1\n      dup2\n      tag_184\n      jumpi\n      swap1\n      pop\n    tag_183:\n      pop\n        /* \"contracts/Auction.sol\":8027:8090  Artwork[] memory allArtworks = new Artwork[](artworkIds.length) */\n      swap1\n      pop\n        /* \"contracts/Auction.sol\":8105:8114  uint256 i */\n      0x00\n        /* \"contracts/Auction.sol\":8100:8213  for (uint256 i = 0; i < artworkIds.length; i++) {... */\n    tag_186:\n        /* \"contracts/Auction.sol\":8124:8134  artworkIds */\n      0x04\n        /* \"contracts/Auction.sol\":8124:8141  artworkIds.length */\n      dup1\n      sload\n      swap1\n      pop\n        /* \"contracts/Auction.sol\":8120:8121  i */\n      dup2\n        /* \"contracts/Auction.sol\":8120:8141  i < artworkIds.length */\n      lt\n        /* \"contracts/Auction.sol\":8100:8213  for (uint256 i = 0; i < artworkIds.length; i++) {... */\n      iszero\n      tag_187\n      jumpi\n        /* \"contracts/Auction.sol\":8179:8187  artworks */\n      0x03\n        /* \"contracts/Auction.sol\":8179:8202  artworks[artworkIds[i]] */\n      0x00\n        /* \"contracts/Auction.sol\":8188:8198  artworkIds */\n      0x04\n        /* \"contracts/Auction.sol\":8199:8200  i */\n      dup4\n        /* \"contracts/Auction.sol\":8188:8201  artworkIds[i] */\n      dup2\n      sload\n      dup2\n      lt\n      tag_189\n      jumpi\n      tag_190\n      tag_191\n      jump\t// in\n    tag_190:\n    tag_189:\n      swap1\n      0x00\n      mstore\n      keccak256(0x00, 0x20)\n      add\n      sload\n        /* \"contracts/Auction.sol\":8179:8202  artworks[artworkIds[i]] */\n      dup2\n      mstore\n      0x20\n      add\n      swap1\n      dup2\n      mstore\n      0x20\n      add\n      0x00\n      keccak256\n        /* \"contracts/Auction.sol\":8162:8202  allArtworks[i] = artworks[artworkIds[i]] */\n      mload(0x40)\n      dup1\n      0x0160\n      add\n      0x40\n      mstore\n      swap1\n      dup2\n      0x00\n      dup3\n      add\n      sload\n      dup2\n      mstore\n      0x20\n      add\n      0x01\n      dup3\n      add\n      0x00\n      swap1\n      sload\n      swap1\n      0x0100\n      exp\n      swap1\n      div\n      0xffffffffffffffffffffffffffffffffffffffff\n      and\n      0xffffffffffffffffffffffffffffffffffffffff\n      and\n      0xffffffffffffffffffffffffffffffffffffffff\n      and\n      dup2\n      mstore\n      0x20\n      add\n      0x02\n      dup3\n      add\n      dup1\n      sload\n      tag_193\n      swap1\n      tag_108\n      jump\t// in\n    tag_193:\n      dup1\n      0x1f\n      add\n      0x20\n      dup1\n      swap2\n      div\n      mul\n      0x20\n      add\n      mload(0x40)\n      swap1\n      dup2\n      add\n      0x40\n      mstore\n      dup1\n      swap3\n      swap2\n      swap1\n      dup2\n      dup2\n      mstore\n      0x20\n      add\n      dup3\n      dup1\n      sload\n      tag_194\n      swap1\n      tag_108\n      jump\t// in\n    tag_194:\n      dup1\n      iszero\n      tag_195\n      jumpi\n      dup1\n      0x1f\n      lt\n      tag_196\n      jumpi\n      0x0100\n      dup1\n      dup4\n      sload\n      div\n      mul\n      dup4\n      mstore\n      swap2\n      0x20\n      add\n      swap2\n      jump(tag_195)\n    tag_196:\n      dup3\n      add\n      swap2\n      swap1\n      0x00\n      mstore\n      keccak256(0x00, 0x20)\n      swap1\n    tag_197:\n      dup2\n      sload\n      dup2\n      mstore\n      swap1\n      0x01\n      add\n      swap1\n      0x20\n      add\n      dup1\n      dup4\n      gt\n      tag_197\n      jumpi\n      dup3\n      swap1\n      sub\n      0x1f\n      and\n      dup3\n      add\n      swap2\n    tag_195:\n      pop\n      pop\n      pop\n      pop\n      pop\n      dup2\n      mstore\n      0x20\n      add\n      0x03\n      dup3\n      add\n      dup1\n      sload\n      tag_198\n      swap1\n      tag_108\n      jump\t// in\n    tag_198:\n      dup1\n      0x1f\n      add\n      0x20\n      dup1\n      swap2\n      div\n      mul\n      0x20\n      add\n      mload(0x40)\n      swap1\n      dup2\n      add\n      0x40\n      mstore\n      dup1\n      swap3\n      swap2\n      swap1\n      dup2\n      dup2\n      mstore\n      0x20\n      add\n      dup3\n      dup1\n      sload\n      tag_199\n      swap1\n      tag_108\n      jump\t// in\n    tag_199:\n      dup1\n      iszero\n      tag_200\n      jumpi\n      dup1\n      0x1f\n      lt\n      tag_201\n      jumpi\n      0x0100\n      dup1\n      dup4\n      sload\n      div\n      mul\n      dup4\n      mstore\n      swap2\n      0x20\n      add\n      swap2\n      jump(tag_200)\n    tag_201:\n      dup3\n      add\n      swap2\n      swap1\n      0x00\n      mstore\n      keccak256(0x00, 0x20)\n      swap1\n    tag_202:\n      dup2\n      sload\n      dup2\n      mstore\n      swap1\n      0x01\n      add\n      swap1\n      0x20\n      add\n      dup1\n      dup4\n      gt\n      tag_202\n      jumpi\n      dup3\n      swap1\n      sub\n      0x1f\n      and\n      dup3\n      add\n      swap2\n    tag_200:\n      pop\n      pop\n      pop\n      pop\n      pop\n      dup2\n      mstore\n      0x20\n      add\n      0x04\n      dup3\n      add\n      dup1\n      sload\n      tag_203\n      swap1\n      tag_108\n      jump\t// in\n    tag_203:\n      dup1\n      0x1f\n      add\n      0x20\n      dup1\n      swap2\n      div\n      mul\n      0x20\n      add\n      mload(0x40)\n      swap1\n      dup2\n      add\n      0x40\n      mstore\n      dup1\n      swap3\n      swap2\n      swap1\n      dup2\n      dup2\n      mstore\n      0x20\n      add\n      dup3\n      dup1\n      sload\n      tag_204\n      swap1\n      tag_108\n      jump\t// in\n    tag_204:\n      dup1\n      iszero\n      tag_205\n      jumpi\n      dup1\n      0x1f\n      lt\n      tag_206\n      jumpi\n      0x0100\n      dup1\n      dup4\n      sload\n      div\n      mul\n      dup4\n      mstore\n      swap2\n      0x20\n      add\n      swap2\n      jump(tag_205)\n    tag_206:\n      dup3\n      add\n      swap2\n      swap1\n      0x00\n      mstore\n      keccak256(0x00, 0x20)\n      swap1\n    tag_207:\n      dup2\n      sload\n      dup2\n      mstore\n      swap1\n      0x01\n      add\n      swap1\n      0x20\n      add\n      dup1\n      dup4\n      gt\n      tag_207\n      jumpi\n      dup3\n      swap1\n      sub\n      0x1f\n      and\n      dup3\n      add\n      swap2\n    tag_205:\n      pop\n      pop\n      pop\n      pop\n      pop\n      dup2\n      mstore\n      0x20\n      add\n      0x05\n      dup3\n      add\n      dup1\n      sload\n      tag_208\n      swap1\n      tag_108\n      jump\t// in\n    tag_208:\n      dup1\n      0x1f\n      add\n      0x20\n      dup1\n      swap2\n      div\n      mul\n      0x20\n      add\n      mload(0x40)\n      swap1\n      dup2\n      add\n      0x40\n      mstore\n      dup1\n      swap3\n      swap2\n      swap1\n      dup2\n      dup2\n      mstore\n      0x20\n      add\n      dup3\n      dup1\n      sload\n      tag_209\n      swap1\n      tag_108\n      jump\t// in\n    tag_209:\n      dup1\n      iszero\n      tag_210\n      jumpi\n      dup1\n      0x1f\n      lt\n      tag_211\n      jumpi\n      0x0100\n      dup1\n      dup4\n      sload\n      div\n      mul\n      dup4\n      mstore\n      swap2\n      0x20\n      add\n      swap2\n      jump(tag_210)\n    tag_211:\n      dup3\n      add\n      swap2\n      swap1\n      0x00\n      mstore\n      keccak256(0x00, 0x20)\n      swap1\n    tag_212:\n      dup2\n      sload\n      dup2\n      mstore\n      swap1\n      0x01\n      add\n      swap1\n      0x20\n      add\n      dup1\n      dup4\n      gt\n      tag_212\n      jumpi\n      dup3\n      swap1\n      sub\n      0x1f\n      and\n      dup3\n      add\n      swap2\n    tag_210:\n      pop\n      pop\n      pop\n      pop\n      pop\n      dup2\n      mstore\n      0x20\n      add\n      0x06\n      dup3\n      add\n      sload\n      dup2\n      mstore\n      0x20\n      add\n      0x07\n      dup3\n      add\n      sload\n      dup2\n      mstore\n      0x20\n      add\n      0x08\n      dup3\n      add\n      0x00\n      swap1\n      sload\n      swap1\n      0x0100\n      exp\n      swap1\n      div\n      0xffffffffffffffffffffffffffffffffffffffff\n      and\n      0xffffffffffffffffffffffffffffffffffffffff\n      and\n      0xffffffffffffffffffffffffffffffffffffffff\n      and\n      dup2\n      mstore\n      0x20\n      add\n      0x09\n      dup3\n      add\n      sload\n      dup2\n      mstore\n      0x20\n      add\n      0x0a\n      dup3\n      add\n      0x00\n      swap1\n      sload\n      swap1\n      0x0100\n      exp\n      swap1\n      div\n      0xff\n      and\n      iszero\n      iszero\n      iszero\n      iszero\n      dup2\n      mstore\n      pop\n      pop\n        /* \"contracts/Auction.sol\":8162:8173  allArtworks */\n      dup3\n        /* \"contracts/Auction.sol\":8174:8175  i */\n      dup3\n        /* \"contracts/Auction.sol\":8162:8176  allArtworks[i] */\n      dup2\n      mload\n      dup2\n      lt\n      tag_213\n      jumpi\n      tag_214\n      tag_191\n      jump\t// in\n    tag_214:\n    tag_213:\n      0x20\n      mul\n      0x20\n      add\n      add\n        /* \"contracts/Auction.sol\":8162:8202  allArtworks[i] = artworks[artworkIds[i]] */\n      dup2\n      swap1\n      mstore\n      pop\n        /* \"contracts/Auction.sol\":8143:8146  i++ */\n      dup1\n      dup1\n      tag_215\n      swap1\n      tag_216\n      jump\t// in\n    tag_215:\n      swap2\n      pop\n      pop\n        /* \"contracts/Auction.sol\":8100:8213  for (uint256 i = 0; i < artworkIds.length; i++) {... */\n      jump(tag_186)\n    tag_187:\n      pop\n        /* \"contracts/Auction.sol\":8229:8240  allArtworks */\n      dup1\n        /* \"contracts/Auction.sol\":8222:8240  return allArtworks */\n      swap2\n      pop\n      pop\n        /* \"contracts/Auction.sol\":7950:8247  function getAllArtworks() external view returns (Artwork[] memory) {... */\n      swap1\n      jump\t// out\n        /* \"contracts/Auction.sol\":7004:7944  function endAuction(uint256 _artworkId) external {... */\n    tag_72:\n        /* \"contracts/Auction.sol\":7135:7158  Artwork storage artwork */\n      0x00\n        /* \"contracts/Auction.sol\":7161:7169  artworks */\n      0x03\n        /* \"contracts/Auction.sol\":7161:7181  artworks[_artworkId] */\n      0x00\n        /* \"contracts/Auction.sol\":7170:7180  _artworkId */\n      dup4\n        /* \"contracts/Auction.sol\":7161:7181  artworks[_artworkId] */\n      dup2\n      mstore\n      0x20\n      add\n      swap1\n      dup2\n      mstore\n      0x20\n      add\n      0x00\n      keccak256\n        /* \"contracts/Auction.sol\":7135:7181  Artwork storage artwork = artworks[_artworkId] */\n      swap1\n      pop\n        /* \"contracts/Auction.sol\":7227:7234  artwork */\n      dup1\n        /* \"contracts/Auction.sol\":7227:7240  artwork.owner */\n      0x01\n      add\n      0x00\n      swap1\n      sload\n      swap1\n      0x0100\n      exp\n      swap1\n      div\n      0xffffffffffffffffffffffffffffffffffffffff\n      and\n        /* \"contracts/Auction.sol\":7213:7240  msg.sender == artwork.owner */\n      0xffffffffffffffffffffffffffffffffffffffff\n      and\n        /* \"contracts/Auction.sol\":7213:7223  msg.sender */\n      caller\n        /* \"contracts/Auction.sol\":7213:7240  msg.sender == artwork.owner */\n      0xffffffffffffffffffffffffffffffffffffffff\n      and\n      eq\n        /* \"contracts/Auction.sol\":7192:7301  require(... */\n      tag_218\n      jumpi\n      mload(0x40)\n      0x08c379a000000000000000000000000000000000000000000000000000000000\n      dup2\n      mstore\n      0x04\n      add\n      tag_219\n      swap1\n      tag_220\n      jump\t// in\n    tag_219:\n      mload(0x40)\n      dup1\n      swap2\n      sub\n      swap1\n      revert\n    tag_218:\n        /* \"contracts/Auction.sol\":7351:7358  artwork */\n      dup1\n        /* \"contracts/Auction.sol\":7351:7373  artwork.auctionEndTime */\n      0x09\n      add\n      sload\n        /* \"contracts/Auction.sol\":7332:7347  block.timestamp */\n      timestamp\n        /* \"contracts/Auction.sol\":7332:7373  block.timestamp >= artwork.auctionEndTime */\n      lt\n      iszero\n        /* \"contracts/Auction.sol\":7311:7424  require(... */\n      tag_221\n      jumpi\n      mload(0x40)\n      0x08c379a000000000000000000000000000000000000000000000000000000000\n      dup2\n      mstore\n      0x04\n      add\n      tag_222\n      swap1\n      tag_223\n      jump\t// in\n    tag_222:\n      mload(0x40)\n      dup1\n      swap2\n      sub\n      swap1\n      revert\n    tag_221:\n        /* \"contracts/Auction.sol\":7443:7450  artwork */\n      dup1\n        /* \"contracts/Auction.sol\":7443:7463  artwork.auctionEnded */\n      0x0a\n      add\n      0x00\n      swap1\n      sload\n      swap1\n      0x0100\n      exp\n      swap1\n      div\n      0xff\n      and\n        /* \"contracts/Auction.sol\":7442:7463  !artwork.auctionEnded */\n      iszero\n        /* \"contracts/Auction.sol\":7434:7494  require(!artwork.auctionEnded, \"Auction has already ended.\") */\n      tag_224\n      jumpi\n      mload(0x40)\n      0x08c379a000000000000000000000000000000000000000000000000000000000\n      dup2\n      mstore\n      0x04\n      add\n      tag_225\n      swap1\n      tag_226\n      jump\t// in\n    tag_225:\n      mload(0x40)\n      dup1\n      swap2\n      sub\n      swap1\n      revert\n    tag_224:\n        /* \"contracts/Auction.sol\":7528:7532  true */\n      0x01\n        /* \"contracts/Auction.sol\":7505:7512  artwork */\n      dup2\n        /* \"contracts/Auction.sol\":7505:7525  artwork.auctionEnded */\n      0x0a\n      add\n      0x00\n        /* \"contracts/Auction.sol\":7505:7532  artwork.auctionEnded = true */\n      0x0100\n      exp\n      dup2\n      sload\n      dup2\n      0xff\n      mul\n      not\n      and\n      swap1\n      dup4\n      iszero\n      iszero\n      mul\n      or\n      swap1\n      sstore\n      pop\n        /* \"contracts/Auction.sol\":7542:7549  artwork */\n      dup1\n        /* \"contracts/Auction.sol\":7542:7555  artwork.owner */\n      0x01\n      add\n      0x00\n      swap1\n      sload\n      swap1\n      0x0100\n      exp\n      swap1\n      div\n      0xffffffffffffffffffffffffffffffffffffffff\n      and\n        /* \"contracts/Auction.sol\":7542:7564  artwork.owner.transfer */\n      0xffffffffffffffffffffffffffffffffffffffff\n      and\n        /* \"contracts/Auction.sol\":7542:7584  artwork.owner.transfer(artwork.currentBid) */\n      0x08fc\n        /* \"contracts/Auction.sol\":7565:7572  artwork */\n      dup3\n        /* \"contracts/Auction.sol\":7565:7583  artwork.currentBid */\n      0x07\n      add\n      sload\n        /* \"contracts/Auction.sol\":7542:7584  artwork.owner.transfer(artwork.currentBid) */\n      swap1\n      dup2\n      iszero\n      mul\n      swap1\n      mload(0x40)\n      0x00\n      mload(0x40)\n      dup1\n      dup4\n      sub\n      dup2\n      dup6\n      dup9\n      dup9\n      call\n      swap4\n      pop\n      pop\n      pop\n      pop\n      iszero\n      dup1\n      iszero\n      tag_228\n      jumpi\n      returndatasize\n      0x00\n      dup1\n      returndatacopy\n      revert(0x00, returndatasize)\n    tag_228:\n      pop\n        /* \"contracts/Auction.sol\":7595:7620  _liveAuctions.decrement() */\n      tag_229\n        /* \"contracts/Auction.sol\":7595:7608  _liveAuctions */\n      0x01\n        /* \"contracts/Auction.sol\":7595:7618  _liveAuctions.decrement */\n      tag_230\n        /* \"contracts/Auction.sol\":7595:7620  _liveAuctions.decrement() */\n      jump\t// in\n    tag_229:\n        /* \"contracts/Auction.sol\":7630:7656  _endedAuctions.increment() */\n      tag_231\n        /* \"contracts/Auction.sol\":7630:7644  _endedAuctions */\n      0x02\n        /* \"contracts/Auction.sol\":7630:7654  _endedAuctions.increment */\n      tag_83\n        /* \"contracts/Auction.sol\":7630:7656  _endedAuctions.increment() */\n      jump\t// in\n    tag_231:\n        /* \"contracts/Auction.sol\":7850:7860  _artworkId */\n      dup2\n        /* \"contracts/Auction.sol\":7824:7937  AuctionEnded(... */\n      0xd2aa34a4fdbbc6dff6a3e56f46e0f3ae2a31d7785ff3487aa5c95c642acea501\n        /* \"contracts/Auction.sol\":7874:7881  artwork */\n      dup3\n        /* \"contracts/Auction.sol\":7874:7895  artwork.highestBidder */\n      0x08\n      add\n      0x00\n      swap1\n      sload\n      swap1\n      0x0100\n      exp\n      swap1\n      div\n      0xffffffffffffffffffffffffffffffffffffffff\n      and\n        /* \"contracts/Auction.sol\":7909:7916  artwork */\n      dup4\n        /* \"contracts/Auction.sol\":7909:7927  artwork.currentBid */\n      0x07\n      add\n      sload\n        /* \"contracts/Auction.sol\":7824:7937  AuctionEnded(... */\n      mload(0x40)\n      tag_232\n      swap3\n      swap2\n      swap1\n      tag_233\n      jump\t// in\n    tag_232:\n      mload(0x40)\n      dup1\n      swap2\n      sub\n      swap1\n      log2\n        /* \"contracts/Auction.sol\":7053:7944  {... */\n      pop\n        /* \"contracts/Auction.sol\":7004:7944  function endAuction(uint256 _artworkId) external {... */\n      pop\n      jump\t// out\n        /* \"contracts/Auction.sol\":8253:8367  function getNumberOfLiveAuctions() external view returns (uint256) {... */\n    tag_75:\n        /* \"contracts/Auction.sol\":8311:8318  uint256 */\n      0x00\n        /* \"contracts/Auction.sol\":8337:8360  _liveAuctions.current() */\n      tag_235\n        /* \"contracts/Auction.sol\":8337:8350  _liveAuctions */\n      0x01\n        /* \"contracts/Auction.sol\":8337:8358  _liveAuctions.current */\n      tag_85\n        /* \"contracts/Auction.sol\":8337:8360  _liveAuctions.current() */\n      jump\t// in\n    tag_235:\n        /* \"contracts/Auction.sol\":8330:8360  return _liveAuctions.current() */\n      swap1\n      pop\n        /* \"contracts/Auction.sol\":8253:8367  function getNumberOfLiveAuctions() external view returns (uint256) {... */\n      swap1\n      jump\t// out\n        /* \"contracts/Auction.sol\":8373:8489  function getNumberOfEndedAuctions() external view returns (uint256) {... */\n    tag_79:\n        /* \"contracts/Auction.sol\":8432:8439  uint256 */\n      0x00\n        /* \"contracts/Auction.sol\":8458:8482  _endedAuctions.current() */\n      tag_237\n        /* \"contracts/Auction.sol\":8458:8472  _endedAuctions */\n      0x02\n        /* \"contracts/Auction.sol\":8458:8480  _endedAuctions.current */\n      tag_85\n        /* \"contracts/Auction.sol\":8458:8482  _endedAuctions.current() */\n      jump\t// in\n    tag_237:\n        /* \"contracts/Auction.sol\":8451:8482  return _endedAuctions.current() */\n      swap1\n      pop\n        /* \"contracts/Auction.sol\":8373:8489  function getNumberOfEndedAuctions() external view returns (uint256) {... */\n      swap1\n      jump\t// out\n        /* \"@openzeppelin/contracts/utils/Counters.sol\":945:1068  function increment(Counter storage counter) internal {... */\n    tag_83:\n        /* \"@openzeppelin/contracts/utils/Counters.sol\":1050:1051  1 */\n      0x01\n        /* \"@openzeppelin/contracts/utils/Counters.sol\":1032:1039  counter */\n      dup2\n        /* \"@openzeppelin/contracts/utils/Counters.sol\":1032:1046  counter._value */\n      0x00\n      add\n      0x00\n        /* \"@openzeppelin/contracts/utils/Counters.sol\":1032:1051  counter._value += 1 */\n      dup3\n      dup3\n      sload\n      add\n      swap3\n      pop\n      pop\n      dup2\n      swap1\n      sstore\n      pop\n        /* \"@openzeppelin/contracts/utils/Counters.sol\":945:1068  function increment(Counter storage counter) internal {... */\n      pop\n      jump\t// out\n        /* \"@openzeppelin/contracts/utils/Counters.sol\":827:939  function current(Counter storage counter) internal view returns (uint256) {... */\n    tag_85:\n        /* \"@openzeppelin/contracts/utils/Counters.sol\":892:899  uint256 */\n      0x00\n        /* \"@openzeppelin/contracts/utils/Counters.sol\":918:925  counter */\n      dup2\n        /* \"@openzeppelin/contracts/utils/Counters.sol\":918:932  counter._value */\n      0x00\n      add\n      sload\n        /* \"@openzeppelin/contracts/utils/Counters.sol\":911:932  return counter._value */\n      swap1\n      pop\n        /* \"@openzeppelin/contracts/utils/Counters.sol\":827:939  function current(Counter storage counter) internal view returns (uint256) {... */\n      swap2\n      swap1\n      pop\n      jump\t// out\n        /* \"@openzeppelin/contracts/utils/Counters.sol\":1074:1303  function decrement(Counter storage counter) internal {... */\n    tag_230:\n        /* \"@openzeppelin/contracts/utils/Counters.sol\":1137:1150  uint256 value */\n      0x00\n        /* \"@openzeppelin/contracts/utils/Counters.sol\":1153:1160  counter */\n      dup2\n        /* \"@openzeppelin/contracts/utils/Counters.sol\":1153:1167  counter._value */\n      0x00\n      add\n      sload\n        /* \"@openzeppelin/contracts/utils/Counters.sol\":1137:1167  uint256 value = counter._value */\n      swap1\n      pop\n        /* \"@openzeppelin/contracts/utils/Counters.sol\":1193:1194  0 */\n      0x00\n        /* \"@openzeppelin/contracts/utils/Counters.sol\":1185:1190  value */\n      dup2\n        /* \"@openzeppelin/contracts/utils/Counters.sol\":1185:1194  value > 0 */\n      gt\n        /* \"@openzeppelin/contracts/utils/Counters.sol\":1177:1226  require(value > 0, \"Counter: decrement overflow\") */\n      tag_241\n      jumpi\n      mload(0x40)\n      0x08c379a000000000000000000000000000000000000000000000000000000000\n      dup2\n      mstore\n      0x04\n      add\n      tag_242\n      swap1\n      tag_243\n      jump\t// in\n    tag_242:\n      mload(0x40)\n      dup1\n      swap2\n      sub\n      swap1\n      revert\n    tag_241:\n        /* \"@openzeppelin/contracts/utils/Counters.sol\":1285:1286  1 */\n      0x01\n        /* \"@openzeppelin/contracts/utils/Counters.sol\":1277:1282  value */\n      dup2\n        /* \"@openzeppelin/contracts/utils/Counters.sol\":1277:1286  value - 1 */\n      sub\n        /* \"@openzeppelin/contracts/utils/Counters.sol\":1260:1267  counter */\n      dup3\n        /* \"@openzeppelin/contracts/utils/Counters.sol\":1260:1274  counter._value */\n      0x00\n      add\n        /* \"@openzeppelin/contracts/utils/Counters.sol\":1260:1286  counter._value = value - 1 */\n      dup2\n      swap1\n      sstore\n      pop\n        /* \"@openzeppelin/contracts/utils/Counters.sol\":1127:1303  {... */\n      pop\n        /* \"@openzeppelin/contracts/utils/Counters.sol\":1074:1303  function decrement(Counter storage counter) internal {... */\n      pop\n      jump\t// out\n    tag_105:\n      mload(0x40)\n      dup1\n      0x0160\n      add\n      0x40\n      mstore\n      dup1\n      0x00\n      dup2\n      mstore\n      0x20\n      add\n      and(0xffffffffffffffffffffffffffffffffffffffff, 0x00)\n      dup2\n      mstore\n      0x20\n      add\n      0x60\n      dup2\n      mstore\n      0x20\n      add\n      0x60\n      dup2\n      mstore\n      0x20\n      add\n      0x60\n      dup2\n      mstore\n      0x20\n      add\n      0x60\n      dup2\n      mstore\n      0x20\n      add\n      0x00\n      dup2\n      mstore\n      0x20\n      add\n      0x00\n      dup2\n      mstore\n      0x20\n      add\n      and(0xffffffffffffffffffffffffffffffffffffffff, 0x00)\n      dup2\n      mstore\n      0x20\n      add\n      0x00\n      dup2\n      mstore\n      0x20\n      add\n      iszero(iszero(0x00))\n      dup2\n      mstore\n      pop\n      swap1\n      jump\t// out\n        /* \"#utility.yul\":7:82   */\n    tag_244:\n        /* \"#utility.yul\":40:46   */\n      0x00\n        /* \"#utility.yul\":73:75   */\n      0x40\n        /* \"#utility.yul\":67:76   */\n      mload\n        /* \"#utility.yul\":57:76   */\n      swap1\n      pop\n        /* \"#utility.yul\":7:82   */\n      swap1\n      jump\t// out\n        /* \"#utility.yul\":88:205   */\n    tag_245:\n        /* \"#utility.yul\":197:198   */\n      0x00\n        /* \"#utility.yul\":194:195   */\n      dup1\n        /* \"#utility.yul\":187:199   */\n      revert\n        /* \"#utility.yul\":211:328   */\n    tag_246:\n        /* \"#utility.yul\":320:321   */\n      0x00\n        /* \"#utility.yul\":317:318   */\n      dup1\n        /* \"#utility.yul\":310:322   */\n      revert\n        /* \"#utility.yul\":334:451   */\n    tag_247:\n        /* \"#utility.yul\":443:444   */\n      0x00\n        /* \"#utility.yul\":440:441   */\n      dup1\n        /* \"#utility.yul\":433:445   */\n      revert\n        /* \"#utility.yul\":457:574   */\n    tag_248:\n        /* \"#utility.yul\":566:567   */\n      0x00\n        /* \"#utility.yul\":563:564   */\n      dup1\n        /* \"#utility.yul\":556:568   */\n      revert\n        /* \"#utility.yul\":580:682   */\n    tag_249:\n        /* \"#utility.yul\":621:627   */\n      0x00\n        /* \"#utility.yul\":672:674   */\n      0x1f\n        /* \"#utility.yul\":668:675   */\n      not\n        /* \"#utility.yul\":663:665   */\n      0x1f\n        /* \"#utility.yul\":656:661   */\n      dup4\n        /* \"#utility.yul\":652:666   */\n      add\n        /* \"#utility.yul\":648:676   */\n      and\n        /* \"#utility.yul\":638:676   */\n      swap1\n      pop\n        /* \"#utility.yul\":580:682   */\n      swap2\n      swap1\n      pop\n      jump\t// out\n        /* \"#utility.yul\":688:868   */\n    tag_182:\n        /* \"#utility.yul\":736:813   */\n      0x4e487b7100000000000000000000000000000000000000000000000000000000\n        /* \"#utility.yul\":733:734   */\n      0x00\n        /* \"#utility.yul\":726:814   */\n      mstore\n        /* \"#utility.yul\":833:837   */\n      0x41\n        /* \"#utility.yul\":830:831   */\n      0x04\n        /* \"#utility.yul\":823:838   */\n      mstore\n        /* \"#utility.yul\":857:861   */\n      0x24\n        /* \"#utility.yul\":854:855   */\n      0x00\n        /* \"#utility.yul\":847:862   */\n      revert\n        /* \"#utility.yul\":874:1155   */\n    tag_250:\n        /* \"#utility.yul\":957:984   */\n      tag_330\n        /* \"#utility.yul\":979:983   */\n      dup3\n        /* \"#utility.yul\":957:984   */\n      tag_249\n      jump\t// in\n    tag_330:\n        /* \"#utility.yul\":949:955   */\n      dup2\n        /* \"#utility.yul\":945:985   */\n      add\n        /* \"#utility.yul\":1087:1093   */\n      dup2\n        /* \"#utility.yul\":1075:1085   */\n      dup2\n        /* \"#utility.yul\":1072:1094   */\n      lt\n        /* \"#utility.yul\":1051:1069   */\n      0xffffffffffffffff\n        /* \"#utility.yul\":1039:1049   */\n      dup3\n        /* \"#utility.yul\":1036:1070   */\n      gt\n        /* \"#utility.yul\":1033:1095   */\n      or\n        /* \"#utility.yul\":1030:1118   */\n      iszero\n      tag_331\n      jumpi\n        /* \"#utility.yul\":1098:1116   */\n      tag_332\n      tag_182\n      jump\t// in\n    tag_332:\n        /* \"#utility.yul\":1030:1118   */\n    tag_331:\n        /* \"#utility.yul\":1138:1148   */\n      dup1\n        /* \"#utility.yul\":1134:1136   */\n      0x40\n        /* \"#utility.yul\":1127:1149   */\n      mstore\n        /* \"#utility.yul\":917:1155   */\n      pop\n        /* \"#utility.yul\":874:1155   */\n      pop\n      pop\n      jump\t// out\n        /* \"#utility.yul\":1161:1290   */\n    tag_251:\n        /* \"#utility.yul\":1195:1201   */\n      0x00\n        /* \"#utility.yul\":1222:1242   */\n      tag_334\n      tag_244\n      jump\t// in\n    tag_334:\n        /* \"#utility.yul\":1212:1242   */\n      swap1\n      pop\n        /* \"#utility.yul\":1251:1284   */\n      tag_335\n        /* \"#utility.yul\":1279:1283   */\n      dup3\n        /* \"#utility.yul\":1271:1277   */\n      dup3\n        /* \"#utility.yul\":1251:1284   */\n      tag_250\n      jump\t// in\n    tag_335:\n        /* \"#utility.yul\":1161:1290   */\n      swap2\n      swap1\n      pop\n      jump\t// out\n        /* \"#utility.yul\":1296:1604   */\n    tag_252:\n        /* \"#utility.yul\":1358:1362   */\n      0x00\n        /* \"#utility.yul\":1448:1466   */\n      0xffffffffffffffff\n        /* \"#utility.yul\":1440:1446   */\n      dup3\n        /* \"#utility.yul\":1437:1467   */\n      gt\n        /* \"#utility.yul\":1434:1490   */\n      iszero\n      tag_337\n      jumpi\n        /* \"#utility.yul\":1470:1488   */\n      tag_338\n      tag_182\n      jump\t// in\n    tag_338:\n        /* \"#utility.yul\":1434:1490   */\n    tag_337:\n        /* \"#utility.yul\":1508:1537   */\n      tag_339\n        /* \"#utility.yul\":1530:1536   */\n      dup3\n        /* \"#utility.yul\":1508:1537   */\n      tag_249\n      jump\t// in\n    tag_339:\n        /* \"#utility.yul\":1500:1537   */\n      swap1\n      pop\n        /* \"#utility.yul\":1592:1596   */\n      0x20\n        /* \"#utility.yul\":1586:1590   */\n      dup2\n        /* \"#utility.yul\":1582:1597   */\n      add\n        /* \"#utility.yul\":1574:1597   */\n      swap1\n      pop\n        /* \"#utility.yul\":1296:1604   */\n      swap2\n      swap1\n      pop\n      jump\t// out\n        /* \"#utility.yul\":1610:1756   */\n    tag_253:\n        /* \"#utility.yul\":1707:1713   */\n      dup3\n        /* \"#utility.yul\":1702:1705   */\n      dup2\n        /* \"#utility.yul\":1697:1700   */\n      dup4\n        /* \"#utility.yul\":1684:1714   */\n      calldatacopy\n        /* \"#utility.yul\":1748:1749   */\n      0x00\n        /* \"#utility.yul\":1739:1745   */\n      dup4\n        /* \"#utility.yul\":1734:1737   */\n      dup4\n        /* \"#utility.yul\":1730:1746   */\n      add\n        /* \"#utility.yul\":1723:1750   */\n      mstore\n        /* \"#utility.yul\":1610:1756   */\n      pop\n      pop\n      pop\n      jump\t// out\n        /* \"#utility.yul\":1762:2187   */\n    tag_254:\n        /* \"#utility.yul\":1840:1845   */\n      0x00\n        /* \"#utility.yul\":1865:1931   */\n      tag_342\n        /* \"#utility.yul\":1881:1930   */\n      tag_343\n        /* \"#utility.yul\":1923:1929   */\n      dup5\n        /* \"#utility.yul\":1881:1930   */\n      tag_252\n      jump\t// in\n    tag_343:\n        /* \"#utility.yul\":1865:1931   */\n      tag_251\n      jump\t// in\n    tag_342:\n        /* \"#utility.yul\":1856:1931   */\n      swap1\n      pop\n        /* \"#utility.yul\":1954:1960   */\n      dup3\n        /* \"#utility.yul\":1947:1952   */\n      dup2\n        /* \"#utility.yul\":1940:1961   */\n      mstore\n        /* \"#utility.yul\":1992:1996   */\n      0x20\n        /* \"#utility.yul\":1985:1990   */\n      dup2\n        /* \"#utility.yul\":1981:1997   */\n      add\n        /* \"#utility.yul\":2030:2033   */\n      dup5\n        /* \"#utility.yul\":2021:2027   */\n      dup5\n        /* \"#utility.yul\":2016:2019   */\n      dup5\n        /* \"#utility.yul\":2012:2028   */\n      add\n        /* \"#utility.yul\":2009:2034   */\n      gt\n        /* \"#utility.yul\":2006:2118   */\n      iszero\n      tag_344\n      jumpi\n        /* \"#utility.yul\":2037:2116   */\n      tag_345\n      tag_248\n      jump\t// in\n    tag_345:\n        /* \"#utility.yul\":2006:2118   */\n    tag_344:\n        /* \"#utility.yul\":2127:2181   */\n      tag_346\n        /* \"#utility.yul\":2174:2180   */\n      dup5\n        /* \"#utility.yul\":2169:2172   */\n      dup3\n        /* \"#utility.yul\":2164:2167   */\n      dup6\n        /* \"#utility.yul\":2127:2181   */\n      tag_253\n      jump\t// in\n    tag_346:\n        /* \"#utility.yul\":1846:2187   */\n      pop\n        /* \"#utility.yul\":1762:2187   */\n      swap4\n      swap3\n      pop\n      pop\n      pop\n      jump\t// out\n        /* \"#utility.yul\":2207:2547   */\n    tag_255:\n        /* \"#utility.yul\":2263:2268   */\n      0x00\n        /* \"#utility.yul\":2312:2315   */\n      dup3\n        /* \"#utility.yul\":2305:2309   */\n      0x1f\n        /* \"#utility.yul\":2297:2303   */\n      dup4\n        /* \"#utility.yul\":2293:2310   */\n      add\n        /* \"#utility.yul\":2289:2316   */\n      slt\n        /* \"#utility.yul\":2279:2401   */\n      tag_348\n      jumpi\n        /* \"#utility.yul\":2320:2399   */\n      tag_349\n      tag_247\n      jump\t// in\n    tag_349:\n        /* \"#utility.yul\":2279:2401   */\n    tag_348:\n        /* \"#utility.yul\":2437:2443   */\n      dup2\n        /* \"#utility.yul\":2424:2444   */\n      calldataload\n        /* \"#utility.yul\":2462:2541   */\n      tag_350\n        /* \"#utility.yul\":2537:2540   */\n      dup5\n        /* \"#utility.yul\":2529:2535   */\n      dup3\n        /* \"#utility.yul\":2522:2526   */\n      0x20\n        /* \"#utility.yul\":2514:2520   */\n      dup7\n        /* \"#utility.yul\":2510:2527   */\n      add\n        /* \"#utility.yul\":2462:2541   */\n      tag_254\n      jump\t// in\n    tag_350:\n        /* \"#utility.yul\":2453:2541   */\n      swap2\n      pop\n        /* \"#utility.yul\":2269:2547   */\n      pop\n        /* \"#utility.yul\":2207:2547   */\n      swap3\n      swap2\n      pop\n      pop\n      jump\t// out\n        /* \"#utility.yul\":2553:2630   */\n    tag_256:\n        /* \"#utility.yul\":2590:2597   */\n      0x00\n        /* \"#utility.yul\":2619:2624   */\n      dup2\n        /* \"#utility.yul\":2608:2624   */\n      swap1\n      pop\n        /* \"#utility.yul\":2553:2630   */\n      swap2\n      swap1\n      pop\n      jump\t// out\n        /* \"#utility.yul\":2636:2758   */\n    tag_257:\n        /* \"#utility.yul\":2709:2733   */\n      tag_353\n        /* \"#utility.yul\":2727:2732   */\n      dup2\n        /* \"#utility.yul\":2709:2733   */\n      tag_256\n      jump\t// in\n    tag_353:\n        /* \"#utility.yul\":2702:2707   */\n      dup2\n        /* \"#utility.yul\":2699:2734   */\n      eq\n        /* \"#utility.yul\":2689:2752   */\n      tag_354\n      jumpi\n        /* \"#utility.yul\":2748:2749   */\n      0x00\n        /* \"#utility.yul\":2745:2746   */\n      dup1\n        /* \"#utility.yul\":2738:2750   */\n      revert\n        /* \"#utility.yul\":2689:2752   */\n    tag_354:\n        /* \"#utility.yul\":2636:2758   */\n      pop\n      jump\t// out\n        /* \"#utility.yul\":2764:2903   */\n    tag_258:\n        /* \"#utility.yul\":2810:2815   */\n      0x00\n        /* \"#utility.yul\":2848:2854   */\n      dup2\n        /* \"#utility.yul\":2835:2855   */\n      calldataload\n        /* \"#utility.yul\":2826:2855   */\n      swap1\n      pop\n        /* \"#utility.yul\":2864:2897   */\n      tag_356\n        /* \"#utility.yul\":2891:2896   */\n      dup2\n        /* \"#utility.yul\":2864:2897   */\n      tag_257\n      jump\t// in\n    tag_356:\n        /* \"#utility.yul\":2764:2903   */\n      swap3\n      swap2\n      pop\n      pop\n      jump\t// out\n        /* \"#utility.yul\":2909:4686   */\n    tag_23:\n        /* \"#utility.yul\":3053:3059   */\n      0x00\n        /* \"#utility.yul\":3061:3067   */\n      dup1\n        /* \"#utility.yul\":3069:3075   */\n      0x00\n        /* \"#utility.yul\":3077:3083   */\n      dup1\n        /* \"#utility.yul\":3085:3091   */\n      0x00\n        /* \"#utility.yul\":3093:3099   */\n      dup1\n        /* \"#utility.yul\":3142:3145   */\n      0xc0\n        /* \"#utility.yul\":3130:3139   */\n      dup8\n        /* \"#utility.yul\":3121:3128   */\n      dup10\n        /* \"#utility.yul\":3117:3140   */\n      sub\n        /* \"#utility.yul\":3113:3146   */\n      slt\n        /* \"#utility.yul\":3110:3230   */\n      iszero\n      tag_358\n      jumpi\n        /* \"#utility.yul\":3149:3228   */\n      tag_359\n      tag_245\n      jump\t// in\n    tag_359:\n        /* \"#utility.yul\":3110:3230   */\n    tag_358:\n        /* \"#utility.yul\":3297:3298   */\n      0x00\n        /* \"#utility.yul\":3286:3295   */\n      dup8\n        /* \"#utility.yul\":3282:3299   */\n      add\n        /* \"#utility.yul\":3269:3300   */\n      calldataload\n        /* \"#utility.yul\":3327:3345   */\n      0xffffffffffffffff\n        /* \"#utility.yul\":3319:3325   */\n      dup2\n        /* \"#utility.yul\":3316:3346   */\n      gt\n        /* \"#utility.yul\":3313:3430   */\n      iszero\n      tag_360\n      jumpi\n        /* \"#utility.yul\":3349:3428   */\n      tag_361\n      tag_246\n      jump\t// in\n    tag_361:\n        /* \"#utility.yul\":3313:3430   */\n    tag_360:\n        /* \"#utility.yul\":3454:3517   */\n      tag_362\n        /* \"#utility.yul\":3509:3516   */\n      dup10\n        /* \"#utility.yul\":3500:3506   */\n      dup3\n        /* \"#utility.yul\":3489:3498   */\n      dup11\n        /* \"#utility.yul\":3485:3507   */\n      add\n        /* \"#utility.yul\":3454:3517   */\n      tag_255\n      jump\t// in\n    tag_362:\n        /* \"#utility.yul\":3444:3517   */\n      swap7\n      pop\n        /* \"#utility.yul\":3240:3527   */\n      pop\n        /* \"#utility.yul\":3594:3596   */\n      0x20\n        /* \"#utility.yul\":3583:3592   */\n      dup8\n        /* \"#utility.yul\":3579:3597   */\n      add\n        /* \"#utility.yul\":3566:3598   */\n      calldataload\n        /* \"#utility.yul\":3625:3643   */\n      0xffffffffffffffff\n        /* \"#utility.yul\":3617:3623   */\n      dup2\n        /* \"#utility.yul\":3614:3644   */\n      gt\n        /* \"#utility.yul\":3611:3728   */\n      iszero\n      tag_363\n      jumpi\n        /* \"#utility.yul\":3647:3726   */\n      tag_364\n      tag_246\n      jump\t// in\n    tag_364:\n        /* \"#utility.yul\":3611:3728   */\n    tag_363:\n        /* \"#utility.yul\":3752:3815   */\n      tag_365\n        /* \"#utility.yul\":3807:3814   */\n      dup10\n        /* \"#utility.yul\":3798:3804   */\n      dup3\n        /* \"#utility.yul\":3787:3796   */\n      dup11\n        /* \"#utility.yul\":3783:3805   */\n      add\n        /* \"#utility.yul\":3752:3815   */\n      tag_255\n      jump\t// in\n    tag_365:\n        /* \"#utility.yul\":3742:3815   */\n      swap6\n      pop\n        /* \"#utility.yul\":3537:3825   */\n      pop\n        /* \"#utility.yul\":3892:3894   */\n      0x40\n        /* \"#utility.yul\":3881:3890   */\n      dup8\n        /* \"#utility.yul\":3877:3895   */\n      add\n        /* \"#utility.yul\":3864:3896   */\n      calldataload\n        /* \"#utility.yul\":3923:3941   */\n      0xffffffffffffffff\n        /* \"#utility.yul\":3915:3921   */\n      dup2\n        /* \"#utility.yul\":3912:3942   */\n      gt\n        /* \"#utility.yul\":3909:4026   */\n      iszero\n      tag_366\n      jumpi\n        /* \"#utility.yul\":3945:4024   */\n      tag_367\n      tag_246\n      jump\t// in\n    tag_367:\n        /* \"#utility.yul\":3909:4026   */\n    tag_366:\n        /* \"#utility.yul\":4050:4113   */\n      tag_368\n        /* \"#utility.yul\":4105:4112   */\n      dup10\n        /* \"#utility.yul\":4096:4102   */\n      dup3\n        /* \"#utility.yul\":4085:4094   */\n      dup11\n        /* \"#utility.yul\":4081:4103   */\n      add\n        /* \"#utility.yul\":4050:4113   */\n      tag_255\n      jump\t// in\n    tag_368:\n        /* \"#utility.yul\":4040:4113   */\n      swap5\n      pop\n        /* \"#utility.yul\":3835:4123   */\n      pop\n        /* \"#utility.yul\":4190:4192   */\n      0x60\n        /* \"#utility.yul\":4179:4188   */\n      dup8\n        /* \"#utility.yul\":4175:4193   */\n      add\n        /* \"#utility.yul\":4162:4194   */\n      calldataload\n        /* \"#utility.yul\":4221:4239   */\n      0xffffffffffffffff\n        /* \"#utility.yul\":4213:4219   */\n      dup2\n        /* \"#utility.yul\":4210:4240   */\n      gt\n        /* \"#utility.yul\":4207:4324   */\n      iszero\n      tag_369\n      jumpi\n        /* \"#utility.yul\":4243:4322   */\n      tag_370\n      tag_246\n      jump\t// in\n    tag_370:\n        /* \"#utility.yul\":4207:4324   */\n    tag_369:\n        /* \"#utility.yul\":4348:4411   */\n      tag_371\n        /* \"#utility.yul\":4403:4410   */\n      dup10\n        /* \"#utility.yul\":4394:4400   */\n      dup3\n        /* \"#utility.yul\":4383:4392   */\n      dup11\n        /* \"#utility.yul\":4379:4401   */\n      add\n        /* \"#utility.yul\":4348:4411   */\n      tag_255\n      jump\t// in\n    tag_371:\n        /* \"#utility.yul\":4338:4411   */\n      swap4\n      pop\n        /* \"#utility.yul\":4133:4421   */\n      pop\n        /* \"#utility.yul\":4460:4463   */\n      0x80\n        /* \"#utility.yul\":4487:4540   */\n      tag_372\n        /* \"#utility.yul\":4532:4539   */\n      dup10\n        /* \"#utility.yul\":4523:4529   */\n      dup3\n        /* \"#utility.yul\":4512:4521   */\n      dup11\n        /* \"#utility.yul\":4508:4530   */\n      add\n        /* \"#utility.yul\":4487:4540   */\n      tag_258\n      jump\t// in\n    tag_372:\n        /* \"#utility.yul\":4477:4540   */\n      swap3\n      pop\n        /* \"#utility.yul\":4431:4550   */\n      pop\n        /* \"#utility.yul\":4589:4592   */\n      0xa0\n        /* \"#utility.yul\":4616:4669   */\n      tag_373\n        /* \"#utility.yul\":4661:4668   */\n      dup10\n        /* \"#utility.yul\":4652:4658   */\n      dup3\n        /* \"#utility.yul\":4641:4650   */\n      dup11\n        /* \"#utility.yul\":4637:4659   */\n      add\n        /* \"#utility.yul\":4616:4669   */\n      tag_258\n      jump\t// in\n    tag_373:\n        /* \"#utility.yul\":4606:4669   */\n      swap2\n      pop\n        /* \"#utility.yul\":4560:4679   */\n      pop\n        /* \"#utility.yul\":2909:4686   */\n      swap3\n      swap6\n      pop\n      swap3\n      swap6\n      pop\n      swap3\n      swap6\n      jump\t// out\n        /* \"#utility.yul\":4692:5311   */\n    tag_28:\n        /* \"#utility.yul\":4769:4775   */\n      0x00\n        /* \"#utility.yul\":4777:4783   */\n      dup1\n        /* \"#utility.yul\":4785:4791   */\n      0x00\n        /* \"#utility.yul\":4834:4836   */\n      0x60\n        /* \"#utility.yul\":4822:4831   */\n      dup5\n        /* \"#utility.yul\":4813:4820   */\n      dup7\n        /* \"#utility.yul\":4809:4832   */\n      sub\n        /* \"#utility.yul\":4805:4837   */\n      slt\n        /* \"#utility.yul\":4802:4921   */\n      iszero\n      tag_375\n      jumpi\n        /* \"#utility.yul\":4840:4919   */\n      tag_376\n      tag_245\n      jump\t// in\n    tag_376:\n        /* \"#utility.yul\":4802:4921   */\n    tag_375:\n        /* \"#utility.yul\":4960:4961   */\n      0x00\n        /* \"#utility.yul\":4985:5038   */\n      tag_377\n        /* \"#utility.yul\":5030:5037   */\n      dup7\n        /* \"#utility.yul\":5021:5027   */\n      dup3\n        /* \"#utility.yul\":5010:5019   */\n      dup8\n        /* \"#utility.yul\":5006:5028   */\n      add\n        /* \"#utility.yul\":4985:5038   */\n      tag_258\n      jump\t// in\n    tag_377:\n        /* \"#utility.yul\":4975:5038   */\n      swap4\n      pop\n        /* \"#utility.yul\":4931:5048   */\n      pop\n        /* \"#utility.yul\":5087:5089   */\n      0x20\n        /* \"#utility.yul\":5113:5166   */\n      tag_378\n        /* \"#utility.yul\":5158:5165   */\n      dup7\n        /* \"#utility.yul\":5149:5155   */\n      dup3\n        /* \"#utility.yul\":5138:5147   */\n      dup8\n        /* \"#utility.yul\":5134:5156   */\n      add\n        /* \"#utility.yul\":5113:5166   */\n      tag_258\n      jump\t// in\n    tag_378:\n        /* \"#utility.yul\":5103:5166   */\n      swap3\n      pop\n        /* \"#utility.yul\":5058:5176   */\n      pop\n        /* \"#utility.yul\":5215:5217   */\n      0x40\n        /* \"#utility.yul\":5241:5294   */\n      tag_379\n        /* \"#utility.yul\":5286:5293   */\n      dup7\n        /* \"#utility.yul\":5277:5283   */\n      dup3\n        /* \"#utility.yul\":5266:5275   */\n      dup8\n        /* \"#utility.yul\":5262:5284   */\n      add\n        /* \"#utility.yul\":5241:5294   */\n      tag_258\n      jump\t// in\n    tag_379:\n        /* \"#utility.yul\":5231:5294   */\n      swap2\n      pop\n        /* \"#utility.yul\":5186:5304   */\n      pop\n        /* \"#utility.yul\":4692:5311   */\n      swap3\n      pop\n      swap3\n      pop\n      swap3\n      jump\t// out\n        /* \"#utility.yul\":5317:5435   */\n    tag_259:\n        /* \"#utility.yul\":5404:5428   */\n      tag_381\n        /* \"#utility.yul\":5422:5427   */\n      dup2\n        /* \"#utility.yul\":5404:5428   */\n      tag_256\n      jump\t// in\n    tag_381:\n        /* \"#utility.yul\":5399:5402   */\n      dup3\n        /* \"#utility.yul\":5392:5429   */\n      mstore\n        /* \"#utility.yul\":5317:5435   */\n      pop\n      pop\n      jump\t// out\n        /* \"#utility.yul\":5441:5663   */\n    tag_34:\n        /* \"#utility.yul\":5534:5538   */\n      0x00\n        /* \"#utility.yul\":5572:5574   */\n      0x20\n        /* \"#utility.yul\":5561:5570   */\n      dup3\n        /* \"#utility.yul\":5557:5575   */\n      add\n        /* \"#utility.yul\":5549:5575   */\n      swap1\n      pop\n        /* \"#utility.yul\":5585:5656   */\n      tag_383\n        /* \"#utility.yul\":5653:5654   */\n      0x00\n        /* \"#utility.yul\":5642:5651   */\n      dup4\n        /* \"#utility.yul\":5638:5655   */\n      add\n        /* \"#utility.yul\":5629:5635   */\n      dup5\n        /* \"#utility.yul\":5585:5656   */\n      tag_259\n      jump\t// in\n    tag_383:\n        /* \"#utility.yul\":5441:5663   */\n      swap3\n      swap2\n      pop\n      pop\n      jump\t// out\n        /* \"#utility.yul\":5669:5998   */\n    tag_38:\n        /* \"#utility.yul\":5728:5734   */\n      0x00\n        /* \"#utility.yul\":5777:5779   */\n      0x20\n        /* \"#utility.yul\":5765:5774   */\n      dup3\n        /* \"#utility.yul\":5756:5763   */\n      dup5\n        /* \"#utility.yul\":5752:5775   */\n      sub\n        /* \"#utility.yul\":5748:5780   */\n      slt\n        /* \"#utility.yul\":5745:5864   */\n      iszero\n      tag_385\n      jumpi\n        /* \"#utility.yul\":5783:5862   */\n      tag_386\n      tag_245\n      jump\t// in\n    tag_386:\n        /* \"#utility.yul\":5745:5864   */\n    tag_385:\n        /* \"#utility.yul\":5903:5904   */\n      0x00\n        /* \"#utility.yul\":5928:5981   */\n      tag_387\n        /* \"#utility.yul\":5973:5980   */\n      dup5\n        /* \"#utility.yul\":5964:5970   */\n      dup3\n        /* \"#utility.yul\":5953:5962   */\n      dup6\n        /* \"#utility.yul\":5949:5971   */\n      add\n        /* \"#utility.yul\":5928:5981   */\n      tag_258\n      jump\t// in\n    tag_387:\n        /* \"#utility.yul\":5918:5981   */\n      swap2\n      pop\n        /* \"#utility.yul\":5874:5991   */\n      pop\n        /* \"#utility.yul\":5669:5998   */\n      swap3\n      swap2\n      pop\n      pop\n      jump\t// out\n        /* \"#utility.yul\":6004:6112   */\n    tag_260:\n        /* \"#utility.yul\":6081:6105   */\n      tag_389\n        /* \"#utility.yul\":6099:6104   */\n      dup2\n        /* \"#utility.yul\":6081:6105   */\n      tag_256\n      jump\t// in\n    tag_389:\n        /* \"#utility.yul\":6076:6079   */\n      dup3\n        /* \"#utility.yul\":6069:6106   */\n      mstore\n        /* \"#utility.yul\":6004:6112   */\n      pop\n      pop\n      jump\t// out\n        /* \"#utility.yul\":6118:6244   */\n    tag_261:\n        /* \"#utility.yul\":6155:6162   */\n      0x00\n        /* \"#utility.yul\":6195:6237   */\n      0xffffffffffffffffffffffffffffffffffffffff\n        /* \"#utility.yul\":6188:6193   */\n      dup3\n        /* \"#utility.yul\":6184:6238   */\n      and\n        /* \"#utility.yul\":6173:6238   */\n      swap1\n      pop\n        /* \"#utility.yul\":6118:6244   */\n      swap2\n      swap1\n      pop\n      jump\t// out\n        /* \"#utility.yul\":6250:6354   */\n    tag_262:\n        /* \"#utility.yul\":6295:6302   */\n      0x00\n        /* \"#utility.yul\":6324:6348   */\n      tag_392\n        /* \"#utility.yul\":6342:6347   */\n      dup3\n        /* \"#utility.yul\":6324:6348   */\n      tag_261\n      jump\t// in\n    tag_392:\n        /* \"#utility.yul\":6313:6348   */\n      swap1\n      pop\n        /* \"#utility.yul\":6250:6354   */\n      swap2\n      swap1\n      pop\n      jump\t// out\n        /* \"#utility.yul\":6360:6492   */\n    tag_263:\n        /* \"#utility.yul\":6453:6485   */\n      tag_394\n        /* \"#utility.yul\":6479:6484   */\n      dup2\n        /* \"#utility.yul\":6453:6485   */\n      tag_262\n      jump\t// in\n    tag_394:\n        /* \"#utility.yul\":6448:6451   */\n      dup3\n        /* \"#utility.yul\":6441:6486   */\n      mstore\n        /* \"#utility.yul\":6360:6492   */\n      pop\n      pop\n      jump\t// out\n        /* \"#utility.yul\":6498:6597   */\n    tag_264:\n        /* \"#utility.yul\":6550:6556   */\n      0x00\n        /* \"#utility.yul\":6584:6589   */\n      dup2\n        /* \"#utility.yul\":6578:6590   */\n      mload\n        /* \"#utility.yul\":6568:6590   */\n      swap1\n      pop\n        /* \"#utility.yul\":6498:6597   */\n      swap2\n      swap1\n      pop\n      jump\t// out\n        /* \"#utility.yul\":6603:6762   */\n    tag_265:\n        /* \"#utility.yul\":6677:6688   */\n      0x00\n        /* \"#utility.yul\":6711:6717   */\n      dup3\n        /* \"#utility.yul\":6706:6709   */\n      dup3\n        /* \"#utility.yul\":6699:6718   */\n      mstore\n        /* \"#utility.yul\":6751:6755   */\n      0x20\n        /* \"#utility.yul\":6746:6749   */\n      dup3\n        /* \"#utility.yul\":6742:6756   */\n      add\n        /* \"#utility.yul\":6727:6756   */\n      swap1\n      pop\n        /* \"#utility.yul\":6603:6762   */\n      swap3\n      swap2\n      pop\n      pop\n      jump\t// out\n        /* \"#utility.yul\":6768:7014   */\n    tag_266:\n        /* \"#utility.yul\":6849:6850   */\n      0x00\n        /* \"#utility.yul\":6859:6972   */\n    tag_398:\n        /* \"#utility.yul\":6873:6879   */\n      dup4\n        /* \"#utility.yul\":6870:6871   */\n      dup2\n        /* \"#utility.yul\":6867:6880   */\n      lt\n        /* \"#utility.yul\":6859:6972   */\n      iszero\n      tag_400\n      jumpi\n        /* \"#utility.yul\":6958:6959   */\n      dup1\n        /* \"#utility.yul\":6953:6956   */\n      dup3\n        /* \"#utility.yul\":6949:6960   */\n      add\n        /* \"#utility.yul\":6943:6961   */\n      mload\n        /* \"#utility.yul\":6939:6940   */\n      dup2\n        /* \"#utility.yul\":6934:6937   */\n      dup5\n        /* \"#utility.yul\":6930:6941   */\n      add\n        /* \"#utility.yul\":6923:6962   */\n      mstore\n        /* \"#utility.yul\":6895:6897   */\n      0x20\n        /* \"#utility.yul\":6892:6893   */\n      dup2\n        /* \"#utility.yul\":6888:6898   */\n      add\n        /* \"#utility.yul\":6883:6898   */\n      swap1\n      pop\n        /* \"#utility.yul\":6859:6972   */\n      jump(tag_398)\n    tag_400:\n        /* \"#utility.yul\":7006:7007   */\n      0x00\n        /* \"#utility.yul\":6997:7003   */\n      dup5\n        /* \"#utility.yul\":6992:6995   */\n      dup5\n        /* \"#utility.yul\":6988:7004   */\n      add\n        /* \"#utility.yul\":6981:7008   */\n      mstore\n        /* \"#utility.yul\":6830:7014   */\n      pop\n        /* \"#utility.yul\":6768:7014   */\n      pop\n      pop\n      pop\n      jump\t// out\n        /* \"#utility.yul\":7020:7377   */\n    tag_267:\n        /* \"#utility.yul\":7098:7101   */\n      0x00\n        /* \"#utility.yul\":7126:7165   */\n      tag_402\n        /* \"#utility.yul\":7159:7164   */\n      dup3\n        /* \"#utility.yul\":7126:7165   */\n      tag_264\n      jump\t// in\n    tag_402:\n        /* \"#utility.yul\":7181:7242   */\n      tag_403\n        /* \"#utility.yul\":7235:7241   */\n      dup2\n        /* \"#utility.yul\":7230:7233   */\n      dup6\n        /* \"#utility.yul\":7181:7242   */\n      tag_265\n      jump\t// in\n    tag_403:\n        /* \"#utility.yul\":7174:7242   */\n      swap4\n      pop\n        /* \"#utility.yul\":7251:7316   */\n      tag_404\n        /* \"#utility.yul\":7309:7315   */\n      dup2\n        /* \"#utility.yul\":7304:7307   */\n      dup6\n        /* \"#utility.yul\":7297:7301   */\n      0x20\n        /* \"#utility.yul\":7290:7295   */\n      dup7\n        /* \"#utility.yul\":7286:7302   */\n      add\n        /* \"#utility.yul\":7251:7316   */\n      tag_266\n      jump\t// in\n    tag_404:\n        /* \"#utility.yul\":7341:7370   */\n      tag_405\n        /* \"#utility.yul\":7363:7369   */\n      dup2\n        /* \"#utility.yul\":7341:7370   */\n      tag_249\n      jump\t// in\n    tag_405:\n        /* \"#utility.yul\":7336:7339   */\n      dup5\n        /* \"#utility.yul\":7332:7371   */\n      add\n        /* \"#utility.yul\":7325:7371   */\n      swap2\n      pop\n        /* \"#utility.yul\":7102:7377   */\n      pop\n        /* \"#utility.yul\":7020:7377   */\n      swap3\n      swap2\n      pop\n      pop\n      jump\t// out\n        /* \"#utility.yul\":7383:7473   */\n    tag_268:\n        /* \"#utility.yul\":7417:7424   */\n      0x00\n        /* \"#utility.yul\":7460:7465   */\n      dup2\n        /* \"#utility.yul\":7453:7466   */\n      iszero\n        /* \"#utility.yul\":7446:7467   */\n      iszero\n        /* \"#utility.yul\":7435:7467   */\n      swap1\n      pop\n        /* \"#utility.yul\":7383:7473   */\n      swap2\n      swap1\n      pop\n      jump\t// out\n        /* \"#utility.yul\":7479:7578   */\n    tag_269:\n        /* \"#utility.yul\":7550:7571   */\n      tag_408\n        /* \"#utility.yul\":7565:7570   */\n      dup2\n        /* \"#utility.yul\":7550:7571   */\n      tag_268\n      jump\t// in\n    tag_408:\n        /* \"#utility.yul\":7545:7548   */\n      dup3\n        /* \"#utility.yul\":7538:7572   */\n      mstore\n        /* \"#utility.yul\":7479:7578   */\n      pop\n      pop\n      jump\t// out\n        /* \"#utility.yul\":7654:10140   */\n    tag_270:\n        /* \"#utility.yul\":7771:7774   */\n      0x00\n        /* \"#utility.yul\":7807:7813   */\n      0x0160\n        /* \"#utility.yul\":7802:7805   */\n      dup4\n        /* \"#utility.yul\":7798:7814   */\n      add\n        /* \"#utility.yul\":7894:7898   */\n      0x00\n        /* \"#utility.yul\":7887:7892   */\n      dup4\n        /* \"#utility.yul\":7883:7899   */\n      add\n        /* \"#utility.yul\":7877:7900   */\n      mload\n        /* \"#utility.yul\":7913:7976   */\n      tag_410\n        /* \"#utility.yul\":7970:7974   */\n      0x00\n        /* \"#utility.yul\":7965:7968   */\n      dup7\n        /* \"#utility.yul\":7961:7975   */\n      add\n        /* \"#utility.yul\":7947:7959   */\n      dup3\n        /* \"#utility.yul\":7913:7976   */\n      tag_260\n      jump\t// in\n    tag_410:\n        /* \"#utility.yul\":7824:7986   */\n      pop\n        /* \"#utility.yul\":8069:8073   */\n      0x20\n        /* \"#utility.yul\":8062:8067   */\n      dup4\n        /* \"#utility.yul\":8058:8074   */\n      add\n        /* \"#utility.yul\":8052:8075   */\n      mload\n        /* \"#utility.yul\":8088:8167   */\n      tag_411\n        /* \"#utility.yul\":8161:8165   */\n      0x20\n        /* \"#utility.yul\":8156:8159   */\n      dup7\n        /* \"#utility.yul\":8152:8166   */\n      add\n        /* \"#utility.yul\":8138:8150   */\n      dup3\n        /* \"#utility.yul\":8088:8167   */\n      tag_263\n      jump\t// in\n    tag_411:\n        /* \"#utility.yul\":7996:8177   */\n      pop\n        /* \"#utility.yul\":8265:8269   */\n      0x40\n        /* \"#utility.yul\":8258:8263   */\n      dup4\n        /* \"#utility.yul\":8254:8270   */\n      add\n        /* \"#utility.yul\":8248:8271   */\n      mload\n        /* \"#utility.yul\":8318:8321   */\n      dup5\n        /* \"#utility.yul\":8312:8316   */\n      dup3\n        /* \"#utility.yul\":8308:8322   */\n      sub\n        /* \"#utility.yul\":8301:8305   */\n      0x40\n        /* \"#utility.yul\":8296:8299   */\n      dup7\n        /* \"#utility.yul\":8292:8306   */\n      add\n        /* \"#utility.yul\":8285:8323   */\n      mstore\n        /* \"#utility.yul\":8344:8417   */\n      tag_412\n        /* \"#utility.yul\":8412:8416   */\n      dup3\n        /* \"#utility.yul\":8398:8410   */\n      dup3\n        /* \"#utility.yul\":8344:8417   */\n      tag_267\n      jump\t// in\n    tag_412:\n        /* \"#utility.yul\":8336:8417   */\n      swap2\n      pop\n        /* \"#utility.yul\":8187:8428   */\n      pop\n        /* \"#utility.yul\":8518:8522   */\n      0x60\n        /* \"#utility.yul\":8511:8516   */\n      dup4\n        /* \"#utility.yul\":8507:8523   */\n      add\n        /* \"#utility.yul\":8501:8524   */\n      mload\n        /* \"#utility.yul\":8571:8574   */\n      dup5\n        /* \"#utility.yul\":8565:8569   */\n      dup3\n        /* \"#utility.yul\":8561:8575   */\n      sub\n        /* \"#utility.yul\":8554:8558   */\n      0x60\n        /* \"#utility.yul\":8549:8552   */\n      dup7\n        /* \"#utility.yul\":8545:8559   */\n      add\n        /* \"#utility.yul\":8538:8576   */\n      mstore\n        /* \"#utility.yul\":8597:8670   */\n      tag_413\n        /* \"#utility.yul\":8665:8669   */\n      dup3\n        /* \"#utility.yul\":8651:8663   */\n      dup3\n        /* \"#utility.yul\":8597:8670   */\n      tag_267\n      jump\t// in\n    tag_413:\n        /* \"#utility.yul\":8589:8670   */\n      swap2\n      pop\n        /* \"#utility.yul\":8438:8681   */\n      pop\n        /* \"#utility.yul\":8765:8769   */\n      0x80\n        /* \"#utility.yul\":8758:8763   */\n      dup4\n        /* \"#utility.yul\":8754:8770   */\n      add\n        /* \"#utility.yul\":8748:8771   */\n      mload\n        /* \"#utility.yul\":8818:8821   */\n      dup5\n        /* \"#utility.yul\":8812:8816   */\n      dup3\n        /* \"#utility.yul\":8808:8822   */\n      sub\n        /* \"#utility.yul\":8801:8805   */\n      0x80\n        /* \"#utility.yul\":8796:8799   */\n      dup7\n        /* \"#utility.yul\":8792:8806   */\n      add\n        /* \"#utility.yul\":8785:8823   */\n      mstore\n        /* \"#utility.yul\":8844:8917   */\n      tag_414\n        /* \"#utility.yul\":8912:8916   */\n      dup3\n        /* \"#utility.yul\":8898:8910   */\n      dup3\n        /* \"#utility.yul\":8844:8917   */\n      tag_267\n      jump\t// in\n    tag_414:\n        /* \"#utility.yul\":8836:8917   */\n      swap2\n      pop\n        /* \"#utility.yul\":8691:8928   */\n      pop\n        /* \"#utility.yul\":9016:9020   */\n      0xa0\n        /* \"#utility.yul\":9009:9014   */\n      dup4\n        /* \"#utility.yul\":9005:9021   */\n      add\n        /* \"#utility.yul\":8999:9022   */\n      mload\n        /* \"#utility.yul\":9069:9072   */\n      dup5\n        /* \"#utility.yul\":9063:9067   */\n      dup3\n        /* \"#utility.yul\":9059:9073   */\n      sub\n        /* \"#utility.yul\":9052:9056   */\n      0xa0\n        /* \"#utility.yul\":9047:9050   */\n      dup7\n        /* \"#utility.yul\":9043:9057   */\n      add\n        /* \"#utility.yul\":9036:9074   */\n      mstore\n        /* \"#utility.yul\":9095:9168   */\n      tag_415\n        /* \"#utility.yul\":9163:9167   */\n      dup3\n        /* \"#utility.yul\":9149:9161   */\n      dup3\n        /* \"#utility.yul\":9095:9168   */\n      tag_267\n      jump\t// in\n    tag_415:\n        /* \"#utility.yul\":9087:9168   */\n      swap2\n      pop\n        /* \"#utility.yul\":8938:9179   */\n      pop\n        /* \"#utility.yul\":9270:9274   */\n      0xc0\n        /* \"#utility.yul\":9263:9268   */\n      dup4\n        /* \"#utility.yul\":9259:9275   */\n      add\n        /* \"#utility.yul\":9253:9276   */\n      mload\n        /* \"#utility.yul\":9289:9352   */\n      tag_416\n        /* \"#utility.yul\":9346:9350   */\n      0xc0\n        /* \"#utility.yul\":9341:9344   */\n      dup7\n        /* \"#utility.yul\":9337:9351   */\n      add\n        /* \"#utility.yul\":9323:9335   */\n      dup3\n        /* \"#utility.yul\":9289:9352   */\n      tag_260\n      jump\t// in\n    tag_416:\n        /* \"#utility.yul\":9189:9362   */\n      pop\n        /* \"#utility.yul\":9450:9454   */\n      0xe0\n        /* \"#utility.yul\":9443:9448   */\n      dup4\n        /* \"#utility.yul\":9439:9455   */\n      add\n        /* \"#utility.yul\":9433:9456   */\n      mload\n        /* \"#utility.yul\":9469:9532   */\n      tag_417\n        /* \"#utility.yul\":9526:9530   */\n      0xe0\n        /* \"#utility.yul\":9521:9524   */\n      dup7\n        /* \"#utility.yul\":9517:9531   */\n      add\n        /* \"#utility.yul\":9503:9515   */\n      dup3\n        /* \"#utility.yul\":9469:9532   */\n      tag_260\n      jump\t// in\n    tag_417:\n        /* \"#utility.yul\":9372:9542   */\n      pop\n        /* \"#utility.yul\":9633:9639   */\n      0x0100\n        /* \"#utility.yul\":9626:9631   */\n      dup4\n        /* \"#utility.yul\":9622:9640   */\n      add\n        /* \"#utility.yul\":9616:9641   */\n      mload\n        /* \"#utility.yul\":9654:9735   */\n      tag_418\n        /* \"#utility.yul\":9727:9733   */\n      0x0100\n        /* \"#utility.yul\":9722:9725   */\n      dup7\n        /* \"#utility.yul\":9718:9734   */\n      add\n        /* \"#utility.yul\":9704:9716   */\n      dup3\n        /* \"#utility.yul\":9654:9735   */\n      tag_263\n      jump\t// in\n    tag_418:\n        /* \"#utility.yul\":9552:9745   */\n      pop\n        /* \"#utility.yul\":9837:9843   */\n      0x0120\n        /* \"#utility.yul\":9830:9835   */\n      dup4\n        /* \"#utility.yul\":9826:9844   */\n      add\n        /* \"#utility.yul\":9820:9845   */\n      mload\n        /* \"#utility.yul\":9858:9923   */\n      tag_419\n        /* \"#utility.yul\":9915:9921   */\n      0x0120\n        /* \"#utility.yul\":9910:9913   */\n      dup7\n        /* \"#utility.yul\":9906:9922   */\n      add\n        /* \"#utility.yul\":9892:9904   */\n      dup3\n        /* \"#utility.yul\":9858:9923   */\n      tag_260\n      jump\t// in\n    tag_419:\n        /* \"#utility.yul\":9755:9933   */\n      pop\n        /* \"#utility.yul\":10023:10029   */\n      0x0140\n        /* \"#utility.yul\":10016:10021   */\n      dup4\n        /* \"#utility.yul\":10012:10030   */\n      add\n        /* \"#utility.yul\":10006:10031   */\n      mload\n        /* \"#utility.yul\":10044:10103   */\n      tag_420\n        /* \"#utility.yul\":10095:10101   */\n      0x0140\n        /* \"#utility.yul\":10090:10093   */\n      dup7\n        /* \"#utility.yul\":10086:10102   */\n      add\n        /* \"#utility.yul\":10072:10084   */\n      dup3\n        /* \"#utility.yul\":10044:10103   */\n      tag_269\n      jump\t// in\n    tag_420:\n        /* \"#utility.yul\":9943:10113   */\n      pop\n        /* \"#utility.yul\":10130:10134   */\n      dup1\n        /* \"#utility.yul\":10123:10134   */\n      swap2\n      pop\n        /* \"#utility.yul\":7776:10140   */\n      pop\n        /* \"#utility.yul\":7654:10140   */\n      swap3\n      swap2\n      pop\n      pop\n      jump\t// out\n        /* \"#utility.yul\":10146:10515   */\n    tag_41:\n        /* \"#utility.yul\":10287:10291   */\n      0x00\n        /* \"#utility.yul\":10325:10327   */\n      0x20\n        /* \"#utility.yul\":10314:10323   */\n      dup3\n        /* \"#utility.yul\":10310:10328   */\n      add\n        /* \"#utility.yul\":10302:10328   */\n      swap1\n      pop\n        /* \"#utility.yul\":10374:10383   */\n      dup2\n        /* \"#utility.yul\":10368:10372   */\n      dup2\n        /* \"#utility.yul\":10364:10384   */\n      sub\n        /* \"#utility.yul\":10360:10361   */\n      0x00\n        /* \"#utility.yul\":10349:10358   */\n      dup4\n        /* \"#utility.yul\":10345:10362   */\n      add\n        /* \"#utility.yul\":10338:10385   */\n      mstore\n        /* \"#utility.yul\":10402:10508   */\n      tag_422\n        /* \"#utility.yul\":10503:10507   */\n      dup2\n        /* \"#utility.yul\":10494:10500   */\n      dup5\n        /* \"#utility.yul\":10402:10508   */\n      tag_270\n      jump\t// in\n    tag_422:\n        /* \"#utility.yul\":10394:10508   */\n      swap1\n      pop\n        /* \"#utility.yul\":10146:10515   */\n      swap3\n      swap2\n      pop\n      pop\n      jump\t// out\n        /* \"#utility.yul\":10521:10663   */\n    tag_271:\n        /* \"#utility.yul\":10624:10656   */\n      tag_424\n        /* \"#utility.yul\":10650:10655   */\n      dup2\n        /* \"#utility.yul\":10624:10656   */\n      tag_262\n      jump\t// in\n    tag_424:\n        /* \"#utility.yul\":10619:10622   */\n      dup3\n        /* \"#utility.yul\":10612:10657   */\n      mstore\n        /* \"#utility.yul\":10521:10663   */\n      pop\n      pop\n      jump\t// out\n        /* \"#utility.yul\":10669:10838   */\n    tag_272:\n        /* \"#utility.yul\":10753:10764   */\n      0x00\n        /* \"#utility.yul\":10787:10793   */\n      dup3\n        /* \"#utility.yul\":10782:10785   */\n      dup3\n        /* \"#utility.yul\":10775:10794   */\n      mstore\n        /* \"#utility.yul\":10827:10831   */\n      0x20\n        /* \"#utility.yul\":10822:10825   */\n      dup3\n        /* \"#utility.yul\":10818:10832   */\n      add\n        /* \"#utility.yul\":10803:10832   */\n      swap1\n      pop\n        /* \"#utility.yul\":10669:10838   */\n      swap3\n      swap2\n      pop\n      pop\n      jump\t// out\n        /* \"#utility.yul\":10844:11221   */\n    tag_273:\n        /* \"#utility.yul\":10932:10935   */\n      0x00\n        /* \"#utility.yul\":10960:10999   */\n      tag_427\n        /* \"#utility.yul\":10993:10998   */\n      dup3\n        /* \"#utility.yul\":10960:10999   */\n      tag_264\n      jump\t// in\n    tag_427:\n        /* \"#utility.yul\":11015:11086   */\n      tag_428\n        /* \"#utility.yul\":11079:11085   */\n      dup2\n        /* \"#utility.yul\":11074:11077   */\n      dup6\n        /* \"#utility.yul\":11015:11086   */\n      tag_272\n      jump\t// in\n    tag_428:\n        /* \"#utility.yul\":11008:11086   */\n      swap4\n      pop\n        /* \"#utility.yul\":11095:11160   */\n      tag_429\n        /* \"#utility.yul\":11153:11159   */\n      dup2\n        /* \"#utility.yul\":11148:11151   */\n      dup6\n        /* \"#utility.yul\":11141:11145   */\n      0x20\n        /* \"#utility.yul\":11134:11139   */\n      dup7\n        /* \"#utility.yul\":11130:11146   */\n      add\n        /* \"#utility.yul\":11095:11160   */\n      tag_266\n      jump\t// in\n    tag_429:\n        /* \"#utility.yul\":11185:11214   */\n      tag_430\n        /* \"#utility.yul\":11207:11213   */\n      dup2\n        /* \"#utility.yul\":11185:11214   */\n      tag_249\n      jump\t// in\n    tag_430:\n        /* \"#utility.yul\":11180:11183   */\n      dup5\n        /* \"#utility.yul\":11176:11215   */\n      add\n        /* \"#utility.yul\":11169:11215   */\n      swap2\n      pop\n        /* \"#utility.yul\":10936:11221   */\n      pop\n        /* \"#utility.yul\":10844:11221   */\n      swap3\n      swap2\n      pop\n      pop\n      jump\t// out\n        /* \"#utility.yul\":11227:11336   */\n    tag_274:\n        /* \"#utility.yul\":11308:11329   */\n      tag_432\n        /* \"#utility.yul\":11323:11328   */\n      dup2\n        /* \"#utility.yul\":11308:11329   */\n      tag_268\n      jump\t// in\n    tag_432:\n        /* \"#utility.yul\":11303:11306   */\n      dup3\n        /* \"#utility.yul\":11296:11330   */\n      mstore\n        /* \"#utility.yul\":11227:11336   */\n      pop\n      pop\n      jump\t// out\n        /* \"#utility.yul\":11342:13090   */\n    tag_50:\n        /* \"#utility.yul\":11822:11826   */\n      0x00\n        /* \"#utility.yul\":11860:11863   */\n      0x0160\n        /* \"#utility.yul\":11849:11858   */\n      dup3\n        /* \"#utility.yul\":11845:11864   */\n      add\n        /* \"#utility.yul\":11837:11864   */\n      swap1\n      pop\n        /* \"#utility.yul\":11874:11945   */\n      tag_434\n        /* \"#utility.yul\":11942:11943   */\n      0x00\n        /* \"#utility.yul\":11931:11940   */\n      dup4\n        /* \"#utility.yul\":11927:11944   */\n      add\n        /* \"#utility.yul\":11918:11924   */\n      dup15\n        /* \"#utility.yul\":11874:11945   */\n      tag_259\n      jump\t// in\n    tag_434:\n        /* \"#utility.yul\":11955:12043   */\n      tag_435\n        /* \"#utility.yul\":12039:12041   */\n      0x20\n        /* \"#utility.yul\":12028:12037   */\n      dup4\n        /* \"#utility.yul\":12024:12042   */\n      add\n        /* \"#utility.yul\":12015:12021   */\n      dup14\n        /* \"#utility.yul\":11955:12043   */\n      tag_271\n      jump\t// in\n    tag_435:\n        /* \"#utility.yul\":12090:12099   */\n      dup2\n        /* \"#utility.yul\":12084:12088   */\n      dup2\n        /* \"#utility.yul\":12080:12100   */\n      sub\n        /* \"#utility.yul\":12075:12077   */\n      0x40\n        /* \"#utility.yul\":12064:12073   */\n      dup4\n        /* \"#utility.yul\":12060:12078   */\n      add\n        /* \"#utility.yul\":12053:12101   */\n      mstore\n        /* \"#utility.yul\":12118:12196   */\n      tag_436\n        /* \"#utility.yul\":12191:12195   */\n      dup2\n        /* \"#utility.yul\":12182:12188   */\n      dup13\n        /* \"#utility.yul\":12118:12196   */\n      tag_273\n      jump\t// in\n    tag_436:\n        /* \"#utility.yul\":12110:12196   */\n      swap1\n      pop\n        /* \"#utility.yul\":12243:12252   */\n      dup2\n        /* \"#utility.yul\":12237:12241   */\n      dup2\n        /* \"#utility.yul\":12233:12253   */\n      sub\n        /* \"#utility.yul\":12228:12230   */\n      0x60\n        /* \"#utility.yul\":12217:12226   */\n      dup4\n        /* \"#utility.yul\":12213:12231   */\n      add\n        /* \"#utility.yul\":12206:12254   */\n      mstore\n        /* \"#utility.yul\":12271:12349   */\n      tag_437\n        /* \"#utility.yul\":12344:12348   */\n      dup2\n        /* \"#utility.yul\":12335:12341   */\n      dup12\n        /* \"#utility.yul\":12271:12349   */\n      tag_273\n      jump\t// in\n    tag_437:\n        /* \"#utility.yul\":12263:12349   */\n      swap1\n      pop\n        /* \"#utility.yul\":12397:12406   */\n      dup2\n        /* \"#utility.yul\":12391:12395   */\n      dup2\n        /* \"#utility.yul\":12387:12407   */\n      sub\n        /* \"#utility.yul\":12381:12384   */\n      0x80\n        /* \"#utility.yul\":12370:12379   */\n      dup4\n        /* \"#utility.yul\":12366:12385   */\n      add\n        /* \"#utility.yul\":12359:12408   */\n      mstore\n        /* \"#utility.yul\":12425:12503   */\n      tag_438\n        /* \"#utility.yul\":12498:12502   */\n      dup2\n        /* \"#utility.yul\":12489:12495   */\n      dup11\n        /* \"#utility.yul\":12425:12503   */\n      tag_273\n      jump\t// in\n    tag_438:\n        /* \"#utility.yul\":12417:12503   */\n      swap1\n      pop\n        /* \"#utility.yul\":12551:12560   */\n      dup2\n        /* \"#utility.yul\":12545:12549   */\n      dup2\n        /* \"#utility.yul\":12541:12561   */\n      sub\n        /* \"#utility.yul\":12535:12538   */\n      0xa0\n        /* \"#utility.yul\":12524:12533   */\n      dup4\n        /* \"#utility.yul\":12520:12539   */\n      add\n        /* \"#utility.yul\":12513:12562   */\n      mstore\n        /* \"#utility.yul\":12579:12657   */\n      tag_439\n        /* \"#utility.yul\":12652:12656   */\n      dup2\n        /* \"#utility.yul\":12643:12649   */\n      dup10\n        /* \"#utility.yul\":12579:12657   */\n      tag_273\n      jump\t// in\n    tag_439:\n        /* \"#utility.yul\":12571:12657   */\n      swap1\n      pop\n        /* \"#utility.yul\":12667:12740   */\n      tag_440\n        /* \"#utility.yul\":12735:12738   */\n      0xc0\n        /* \"#utility.yul\":12724:12733   */\n      dup4\n        /* \"#utility.yul\":12720:12739   */\n      add\n        /* \"#utility.yul\":12711:12717   */\n      dup9\n        /* \"#utility.yul\":12667:12740   */\n      tag_259\n      jump\t// in\n    tag_440:\n        /* \"#utility.yul\":12750:12823   */\n      tag_441\n        /* \"#utility.yul\":12818:12821   */\n      0xe0\n        /* \"#utility.yul\":12807:12816   */\n      dup4\n        /* \"#utility.yul\":12803:12822   */\n      add\n        /* \"#utility.yul\":12794:12800   */\n      dup8\n        /* \"#utility.yul\":12750:12823   */\n      tag_259\n      jump\t// in\n    tag_441:\n        /* \"#utility.yul\":12833:12922   */\n      tag_442\n        /* \"#utility.yul\":12917:12920   */\n      0x0100\n        /* \"#utility.yul\":12906:12915   */\n      dup4\n        /* \"#utility.yul\":12902:12921   */\n      add\n        /* \"#utility.yul\":12893:12899   */\n      dup7\n        /* \"#utility.yul\":12833:12922   */\n      tag_271\n      jump\t// in\n    tag_442:\n        /* \"#utility.yul\":12932:13005   */\n      tag_443\n        /* \"#utility.yul\":13000:13003   */\n      0x0120\n        /* \"#utility.yul\":12989:12998   */\n      dup4\n        /* \"#utility.yul\":12985:13004   */\n      add\n        /* \"#utility.yul\":12976:12982   */\n      dup6\n        /* \"#utility.yul\":12932:13005   */\n      tag_259\n      jump\t// in\n    tag_443:\n        /* \"#utility.yul\":13015:13083   */\n      tag_444\n        /* \"#utility.yul\":13078:13081   */\n      0x0140\n        /* \"#utility.yul\":13067:13076   */\n      dup4\n        /* \"#utility.yul\":13063:13082   */\n      add\n        /* \"#utility.yul\":13053:13060   */\n      dup5\n        /* \"#utility.yul\":13015:13083   */\n      tag_274\n      jump\t// in\n    tag_444:\n        /* \"#utility.yul\":11342:13090   */\n      swap13\n      swap12\n      pop\n      pop\n      pop\n      pop\n      pop\n      pop\n      pop\n      pop\n      pop\n      pop\n      pop\n      pop\n      jump\t// out\n        /* \"#utility.yul\":13096:14727   */\n    tag_57:\n        /* \"#utility.yul\":13231:13237   */\n      0x00\n        /* \"#utility.yul\":13239:13245   */\n      dup1\n        /* \"#utility.yul\":13247:13253   */\n      0x00\n        /* \"#utility.yul\":13255:13261   */\n      dup1\n        /* \"#utility.yul\":13263:13269   */\n      0x00\n        /* \"#utility.yul\":13312:13315   */\n      0xa0\n        /* \"#utility.yul\":13300:13309   */\n      dup7\n        /* \"#utility.yul\":13291:13298   */\n      dup9\n        /* \"#utility.yul\":13287:13310   */\n      sub\n        /* \"#utility.yul\":13283:13316   */\n      slt\n        /* \"#utility.yul\":13280:13400   */\n      iszero\n      tag_446\n      jumpi\n        /* \"#utility.yul\":13319:13398   */\n      tag_447\n      tag_245\n      jump\t// in\n    tag_447:\n        /* \"#utility.yul\":13280:13400   */\n    tag_446:\n        /* \"#utility.yul\":13439:13440   */\n      0x00\n        /* \"#utility.yul\":13464:13517   */\n      tag_448\n        /* \"#utility.yul\":13509:13516   */\n      dup9\n        /* \"#utility.yul\":13500:13506   */\n      dup3\n        /* \"#utility.yul\":13489:13498   */\n      dup10\n        /* \"#utility.yul\":13485:13507   */\n      add\n        /* \"#utility.yul\":13464:13517   */\n      tag_258\n      jump\t// in\n    tag_448:\n        /* \"#utility.yul\":13454:13517   */\n      swap6\n      pop\n        /* \"#utility.yul\":13410:13527   */\n      pop\n        /* \"#utility.yul\":13594:13596   */\n      0x20\n        /* \"#utility.yul\":13583:13592   */\n      dup7\n        /* \"#utility.yul\":13579:13597   */\n      add\n        /* \"#utility.yul\":13566:13598   */\n      calldataload\n        /* \"#utility.yul\":13625:13643   */\n      0xffffffffffffffff\n        /* \"#utility.yul\":13617:13623   */\n      dup2\n        /* \"#utility.yul\":13614:13644   */\n      gt\n        /* \"#utility.yul\":13611:13728   */\n      iszero\n      tag_449\n      jumpi\n        /* \"#utility.yul\":13647:13726   */\n      tag_450\n      tag_246\n      jump\t// in\n    tag_450:\n        /* \"#utility.yul\":13611:13728   */\n    tag_449:\n        /* \"#utility.yul\":13752:13815   */\n      tag_451\n        /* \"#utility.yul\":13807:13814   */\n      dup9\n        /* \"#utility.yul\":13798:13804   */\n      dup3\n        /* \"#utility.yul\":13787:13796   */\n      dup10\n        /* \"#utility.yul\":13783:13805   */\n      add\n        /* \"#utility.yul\":13752:13815   */\n      tag_255\n      jump\t// in\n    tag_451:\n        /* \"#utility.yul\":13742:13815   */\n      swap5\n      pop\n        /* \"#utility.yul\":13537:13825   */\n      pop\n        /* \"#utility.yul\":13892:13894   */\n      0x40\n        /* \"#utility.yul\":13881:13890   */\n      dup7\n        /* \"#utility.yul\":13877:13895   */\n      add\n        /* \"#utility.yul\":13864:13896   */\n      calldataload\n        /* \"#utility.yul\":13923:13941   */\n      0xffffffffffffffff\n        /* \"#utility.yul\":13915:13921   */\n      dup2\n        /* \"#utility.yul\":13912:13942   */\n      gt\n        /* \"#utility.yul\":13909:14026   */\n      iszero\n      tag_452\n      jumpi\n        /* \"#utility.yul\":13945:14024   */\n      tag_453\n      tag_246\n      jump\t// in\n    tag_453:\n        /* \"#utility.yul\":13909:14026   */\n    tag_452:\n        /* \"#utility.yul\":14050:14113   */\n      tag_454\n        /* \"#utility.yul\":14105:14112   */\n      dup9\n        /* \"#utility.yul\":14096:14102   */\n      dup3\n        /* \"#utility.yul\":14085:14094   */\n      dup10\n        /* \"#utility.yul\":14081:14103   */\n      add\n        /* \"#utility.yul\":14050:14113   */\n      tag_255\n      jump\t// in\n    tag_454:\n        /* \"#utility.yul\":14040:14113   */\n      swap4\n      pop\n        /* \"#utility.yul\":13835:14123   */\n      pop\n        /* \"#utility.yul\":14190:14192   */\n      0x60\n        /* \"#utility.yul\":14179:14188   */\n      dup7\n        /* \"#utility.yul\":14175:14193   */\n      add\n        /* \"#utility.yul\":14162:14194   */\n      calldataload\n        /* \"#utility.yul\":14221:14239   */\n      0xffffffffffffffff\n        /* \"#utility.yul\":14213:14219   */\n      dup2\n        /* \"#utility.yul\":14210:14240   */\n      gt\n        /* \"#utility.yul\":14207:14324   */\n      iszero\n      tag_455\n      jumpi\n        /* \"#utility.yul\":14243:14322   */\n      tag_456\n      tag_246\n      jump\t// in\n    tag_456:\n        /* \"#utility.yul\":14207:14324   */\n    tag_455:\n        /* \"#utility.yul\":14348:14411   */\n      tag_457\n        /* \"#utility.yul\":14403:14410   */\n      dup9\n        /* \"#utility.yul\":14394:14400   */\n      dup3\n        /* \"#utility.yul\":14383:14392   */\n      dup10\n        /* \"#utility.yul\":14379:14401   */\n      add\n        /* \"#utility.yul\":14348:14411   */\n      tag_255\n      jump\t// in\n    tag_457:\n        /* \"#utility.yul\":14338:14411   */\n      swap3\n      pop\n        /* \"#utility.yul\":14133:14421   */\n      pop\n        /* \"#utility.yul\":14488:14491   */\n      0x80\n        /* \"#utility.yul\":14477:14486   */\n      dup7\n        /* \"#utility.yul\":14473:14492   */\n      add\n        /* \"#utility.yul\":14460:14493   */\n      calldataload\n        /* \"#utility.yul\":14520:14538   */\n      0xffffffffffffffff\n        /* \"#utility.yul\":14512:14518   */\n      dup2\n        /* \"#utility.yul\":14509:14539   */\n      gt\n        /* \"#utility.yul\":14506:14623   */\n      iszero\n      tag_458\n      jumpi\n        /* \"#utility.yul\":14542:14621   */\n      tag_459\n      tag_246\n      jump\t// in\n    tag_459:\n        /* \"#utility.yul\":14506:14623   */\n    tag_458:\n        /* \"#utility.yul\":14647:14710   */\n      tag_460\n        /* \"#utility.yul\":14702:14709   */\n      dup9\n        /* \"#utility.yul\":14693:14699   */\n      dup3\n        /* \"#utility.yul\":14682:14691   */\n      dup10\n        /* \"#utility.yul\":14678:14700   */\n      add\n        /* \"#utility.yul\":14647:14710   */\n      tag_255\n      jump\t// in\n    tag_460:\n        /* \"#utility.yul\":14637:14710   */\n      swap2\n      pop\n        /* \"#utility.yul\":14431:14720   */\n      pop\n        /* \"#utility.yul\":13096:14727   */\n      swap3\n      swap6\n      pop\n      swap3\n      swap6\n      swap1\n      swap4\n      pop\n      jump\t// out\n        /* \"#utility.yul\":14733:14871   */\n    tag_275:\n        /* \"#utility.yul\":14824:14830   */\n      0x00\n        /* \"#utility.yul\":14858:14863   */\n      dup2\n        /* \"#utility.yul\":14852:14864   */\n      mload\n        /* \"#utility.yul\":14842:14864   */\n      swap1\n      pop\n        /* \"#utility.yul\":14733:14871   */\n      swap2\n      swap1\n      pop\n      jump\t// out\n        /* \"#utility.yul\":14877:15085   */\n    tag_276:\n        /* \"#utility.yul\":15000:15011   */\n      0x00\n        /* \"#utility.yul\":15034:15040   */\n      dup3\n        /* \"#utility.yul\":15029:15032   */\n      dup3\n        /* \"#utility.yul\":15022:15041   */\n      mstore\n        /* \"#utility.yul\":15074:15078   */\n      0x20\n        /* \"#utility.yul\":15069:15072   */\n      dup3\n        /* \"#utility.yul\":15065:15079   */\n      add\n        /* \"#utility.yul\":15050:15079   */\n      swap1\n      pop\n        /* \"#utility.yul\":14877:15085   */\n      swap3\n      swap2\n      pop\n      pop\n      jump\t// out\n        /* \"#utility.yul\":15091:15247   */\n    tag_277:\n        /* \"#utility.yul\":15182:15186   */\n      0x00\n        /* \"#utility.yul\":15205:15208   */\n      dup2\n        /* \"#utility.yul\":15197:15208   */\n      swap1\n      pop\n        /* \"#utility.yul\":15235:15239   */\n      0x20\n        /* \"#utility.yul\":15230:15233   */\n      dup3\n        /* \"#utility.yul\":15226:15240   */\n      add\n        /* \"#utility.yul\":15218:15240   */\n      swap1\n      pop\n        /* \"#utility.yul\":15091:15247   */\n      swap2\n      swap1\n      pop\n      jump\t// out\n        /* \"#utility.yul\":15323:17799   */\n    tag_278:\n        /* \"#utility.yul\":15430:15433   */\n      0x00\n        /* \"#utility.yul\":15466:15472   */\n      0x0160\n        /* \"#utility.yul\":15461:15464   */\n      dup4\n        /* \"#utility.yul\":15457:15473   */\n      add\n        /* \"#utility.yul\":15553:15557   */\n      0x00\n        /* \"#utility.yul\":15546:15551   */\n      dup4\n        /* \"#utility.yul\":15542:15558   */\n      add\n        /* \"#utility.yul\":15536:15559   */\n      mload\n        /* \"#utility.yul\":15572:15635   */\n      tag_465\n        /* \"#utility.yul\":15629:15633   */\n      0x00\n        /* \"#utility.yul\":15624:15627   */\n      dup7\n        /* \"#utility.yul\":15620:15634   */\n      add\n        /* \"#utility.yul\":15606:15618   */\n      dup3\n        /* \"#utility.yul\":15572:15635   */\n      tag_260\n      jump\t// in\n    tag_465:\n        /* \"#utility.yul\":15483:15645   */\n      pop\n        /* \"#utility.yul\":15728:15732   */\n      0x20\n        /* \"#utility.yul\":15721:15726   */\n      dup4\n        /* \"#utility.yul\":15717:15733   */\n      add\n        /* \"#utility.yul\":15711:15734   */\n      mload\n        /* \"#utility.yul\":15747:15826   */\n      tag_466\n        /* \"#utility.yul\":15820:15824   */\n      0x20\n        /* \"#utility.yul\":15815:15818   */\n      dup7\n        /* \"#utility.yul\":15811:15825   */\n      add\n        /* \"#utility.yul\":15797:15809   */\n      dup3\n        /* \"#utility.yul\":15747:15826   */\n      tag_263\n      jump\t// in\n    tag_466:\n        /* \"#utility.yul\":15655:15836   */\n      pop\n        /* \"#utility.yul\":15924:15928   */\n      0x40\n        /* \"#utility.yul\":15917:15922   */\n      dup4\n        /* \"#utility.yul\":15913:15929   */\n      add\n        /* \"#utility.yul\":15907:15930   */\n      mload\n        /* \"#utility.yul\":15977:15980   */\n      dup5\n        /* \"#utility.yul\":15971:15975   */\n      dup3\n        /* \"#utility.yul\":15967:15981   */\n      sub\n        /* \"#utility.yul\":15960:15964   */\n      0x40\n        /* \"#utility.yul\":15955:15958   */\n      dup7\n        /* \"#utility.yul\":15951:15965   */\n      add\n        /* \"#utility.yul\":15944:15982   */\n      mstore\n        /* \"#utility.yul\":16003:16076   */\n      tag_467\n        /* \"#utility.yul\":16071:16075   */\n      dup3\n        /* \"#utility.yul\":16057:16069   */\n      dup3\n        /* \"#utility.yul\":16003:16076   */\n      tag_267\n      jump\t// in\n    tag_467:\n        /* \"#utility.yul\":15995:16076   */\n      swap2\n      pop\n        /* \"#utility.yul\":15846:16087   */\n      pop\n        /* \"#utility.yul\":16177:16181   */\n      0x60\n        /* \"#utility.yul\":16170:16175   */\n      dup4\n        /* \"#utility.yul\":16166:16182   */\n      add\n        /* \"#utility.yul\":16160:16183   */\n      mload\n        /* \"#utility.yul\":16230:16233   */\n      dup5\n        /* \"#utility.yul\":16224:16228   */\n      dup3\n        /* \"#utility.yul\":16220:16234   */\n      sub\n        /* \"#utility.yul\":16213:16217   */\n      0x60\n        /* \"#utility.yul\":16208:16211   */\n      dup7\n        /* \"#utility.yul\":16204:16218   */\n      add\n        /* \"#utility.yul\":16197:16235   */\n      mstore\n        /* \"#utility.yul\":16256:16329   */\n      tag_468\n        /* \"#utility.yul\":16324:16328   */\n      dup3\n        /* \"#utility.yul\":16310:16322   */\n      dup3\n        /* \"#utility.yul\":16256:16329   */\n      tag_267\n      jump\t// in\n    tag_468:\n        /* \"#utility.yul\":16248:16329   */\n      swap2\n      pop\n        /* \"#utility.yul\":16097:16340   */\n      pop\n        /* \"#utility.yul\":16424:16428   */\n      0x80\n        /* \"#utility.yul\":16417:16422   */\n      dup4\n        /* \"#utility.yul\":16413:16429   */\n      add\n        /* \"#utility.yul\":16407:16430   */\n      mload\n        /* \"#utility.yul\":16477:16480   */\n      dup5\n        /* \"#utility.yul\":16471:16475   */\n      dup3\n        /* \"#utility.yul\":16467:16481   */\n      sub\n        /* \"#utility.yul\":16460:16464   */\n      0x80\n        /* \"#utility.yul\":16455:16458   */\n      dup7\n        /* \"#utility.yul\":16451:16465   */\n      add\n        /* \"#utility.yul\":16444:16482   */\n      mstore\n        /* \"#utility.yul\":16503:16576   */\n      tag_469\n        /* \"#utility.yul\":16571:16575   */\n      dup3\n        /* \"#utility.yul\":16557:16569   */\n      dup3\n        /* \"#utility.yul\":16503:16576   */\n      tag_267\n      jump\t// in\n    tag_469:\n        /* \"#utility.yul\":16495:16576   */\n      swap2\n      pop\n        /* \"#utility.yul\":16350:16587   */\n      pop\n        /* \"#utility.yul\":16675:16679   */\n      0xa0\n        /* \"#utility.yul\":16668:16673   */\n      dup4\n        /* \"#utility.yul\":16664:16680   */\n      add\n        /* \"#utility.yul\":16658:16681   */\n      mload\n        /* \"#utility.yul\":16728:16731   */\n      dup5\n        /* \"#utility.yul\":16722:16726   */\n      dup3\n        /* \"#utility.yul\":16718:16732   */\n      sub\n        /* \"#utility.yul\":16711:16715   */\n      0xa0\n        /* \"#utility.yul\":16706:16709   */\n      dup7\n        /* \"#utility.yul\":16702:16716   */\n      add\n        /* \"#utility.yul\":16695:16733   */\n      mstore\n        /* \"#utility.yul\":16754:16827   */\n      tag_470\n        /* \"#utility.yul\":16822:16826   */\n      dup3\n        /* \"#utility.yul\":16808:16820   */\n      dup3\n        /* \"#utility.yul\":16754:16827   */\n      tag_267\n      jump\t// in\n    tag_470:\n        /* \"#utility.yul\":16746:16827   */\n      swap2\n      pop\n        /* \"#utility.yul\":16597:16838   */\n      pop\n        /* \"#utility.yul\":16929:16933   */\n      0xc0\n        /* \"#utility.yul\":16922:16927   */\n      dup4\n        /* \"#utility.yul\":16918:16934   */\n      add\n        /* \"#utility.yul\":16912:16935   */\n      mload\n        /* \"#utility.yul\":16948:17011   */\n      tag_471\n        /* \"#utility.yul\":17005:17009   */\n      0xc0\n        /* \"#utility.yul\":17000:17003   */\n      dup7\n        /* \"#utility.yul\":16996:17010   */\n      add\n        /* \"#utility.yul\":16982:16994   */\n      dup3\n        /* \"#utility.yul\":16948:17011   */\n      tag_260\n      jump\t// in\n    tag_471:\n        /* \"#utility.yul\":16848:17021   */\n      pop\n        /* \"#utility.yul\":17109:17113   */\n      0xe0\n        /* \"#utility.yul\":17102:17107   */\n      dup4\n        /* \"#utility.yul\":17098:17114   */\n      add\n        /* \"#utility.yul\":17092:17115   */\n      mload\n        /* \"#utility.yul\":17128:17191   */\n      tag_472\n        /* \"#utility.yul\":17185:17189   */\n      0xe0\n        /* \"#utility.yul\":17180:17183   */\n      dup7\n        /* \"#utility.yul\":17176:17190   */\n      add\n        /* \"#utility.yul\":17162:17174   */\n      dup3\n        /* \"#utility.yul\":17128:17191   */\n      tag_260\n      jump\t// in\n    tag_472:\n        /* \"#utility.yul\":17031:17201   */\n      pop\n        /* \"#utility.yul\":17292:17298   */\n      0x0100\n        /* \"#utility.yul\":17285:17290   */\n      dup4\n        /* \"#utility.yul\":17281:17299   */\n      add\n        /* \"#utility.yul\":17275:17300   */\n      mload\n        /* \"#utility.yul\":17313:17394   */\n      tag_473\n        /* \"#utility.yul\":17386:17392   */\n      0x0100\n        /* \"#utility.yul\":17381:17384   */\n      dup7\n        /* \"#utility.yul\":17377:17393   */\n      add\n        /* \"#utility.yul\":17363:17375   */\n      dup3\n        /* \"#utility.yul\":17313:17394   */\n      tag_263\n      jump\t// in\n    tag_473:\n        /* \"#utility.yul\":17211:17404   */\n      pop\n        /* \"#utility.yul\":17496:17502   */\n      0x0120\n        /* \"#utility.yul\":17489:17494   */\n      dup4\n        /* \"#utility.yul\":17485:17503   */\n      add\n        /* \"#utility.yul\":17479:17504   */\n      mload\n        /* \"#utility.yul\":17517:17582   */\n      tag_474\n        /* \"#utility.yul\":17574:17580   */\n      0x0120\n        /* \"#utility.yul\":17569:17572   */\n      dup7\n        /* \"#utility.yul\":17565:17581   */\n      add\n        /* \"#utility.yul\":17551:17563   */\n      dup3\n        /* \"#utility.yul\":17517:17582   */\n      tag_260\n      jump\t// in\n    tag_474:\n        /* \"#utility.yul\":17414:17592   */\n      pop\n        /* \"#utility.yul\":17682:17688   */\n      0x0140\n        /* \"#utility.yul\":17675:17680   */\n      dup4\n        /* \"#utility.yul\":17671:17689   */\n      add\n        /* \"#utility.yul\":17665:17690   */\n      mload\n        /* \"#utility.yul\":17703:17762   */\n      tag_475\n        /* \"#utility.yul\":17754:17760   */\n      0x0140\n        /* \"#utility.yul\":17749:17752   */\n      dup7\n        /* \"#utility.yul\":17745:17761   */\n      add\n        /* \"#utility.yul\":17731:17743   */\n      dup3\n        /* \"#utility.yul\":17703:17762   */\n      tag_269\n      jump\t// in\n    tag_475:\n        /* \"#utility.yul\":17602:17772   */\n      pop\n        /* \"#utility.yul\":17789:17793   */\n      dup1\n        /* \"#utility.yul\":17782:17793   */\n      swap2\n      pop\n        /* \"#utility.yul\":15435:17799   */\n      pop\n        /* \"#utility.yul\":15323:17799   */\n      swap3\n      swap2\n      pop\n      pop\n      jump\t// out\n        /* \"#utility.yul\":17805:18057   */\n    tag_279:\n        /* \"#utility.yul\":17922:17932   */\n      0x00\n        /* \"#utility.yul\":17957:18051   */\n      tag_477\n        /* \"#utility.yul\":18047:18050   */\n      dup4\n        /* \"#utility.yul\":18039:18045   */\n      dup4\n        /* \"#utility.yul\":17957:18051   */\n      tag_278\n      jump\t// in\n    tag_477:\n        /* \"#utility.yul\":17943:18051   */\n      swap1\n      pop\n        /* \"#utility.yul\":17805:18057   */\n      swap3\n      swap2\n      pop\n      pop\n      jump\t// out\n        /* \"#utility.yul\":18063:18200   */\n    tag_280:\n        /* \"#utility.yul\":18157:18161   */\n      0x00\n        /* \"#utility.yul\":18189:18193   */\n      0x20\n        /* \"#utility.yul\":18184:18187   */\n      dup3\n        /* \"#utility.yul\":18180:18194   */\n      add\n        /* \"#utility.yul\":18172:18194   */\n      swap1\n      pop\n        /* \"#utility.yul\":18063:18200   */\n      swap2\n      swap1\n      pop\n      jump\t// out\n        /* \"#utility.yul\":18280:19383   */\n    tag_281:\n        /* \"#utility.yul\":18447:18450   */\n      0x00\n        /* \"#utility.yul\":18476:18554   */\n      tag_480\n        /* \"#utility.yul\":18548:18553   */\n      dup3\n        /* \"#utility.yul\":18476:18554   */\n      tag_275\n      jump\t// in\n    tag_480:\n        /* \"#utility.yul\":18570:18680   */\n      tag_481\n        /* \"#utility.yul\":18673:18679   */\n      dup2\n        /* \"#utility.yul\":18668:18671   */\n      dup6\n        /* \"#utility.yul\":18570:18680   */\n      tag_276\n      jump\t// in\n    tag_481:\n        /* \"#utility.yul\":18563:18680   */\n      swap4\n      pop\n        /* \"#utility.yul\":18706:18709   */\n      dup4\n        /* \"#utility.yul\":18751:18755   */\n      0x20\n        /* \"#utility.yul\":18743:18749   */\n      dup3\n        /* \"#utility.yul\":18739:18756   */\n      mul\n        /* \"#utility.yul\":18734:18737   */\n      dup6\n        /* \"#utility.yul\":18730:18757   */\n      add\n        /* \"#utility.yul\":18781:18861   */\n      tag_482\n        /* \"#utility.yul\":18855:18860   */\n      dup6\n        /* \"#utility.yul\":18781:18861   */\n      tag_277\n      jump\t// in\n    tag_482:\n        /* \"#utility.yul\":18884:18891   */\n      dup1\n        /* \"#utility.yul\":18915:18916   */\n      0x00\n        /* \"#utility.yul\":18900:19338   */\n    tag_483:\n        /* \"#utility.yul\":18925:18931   */\n      dup6\n        /* \"#utility.yul\":18922:18923   */\n      dup2\n        /* \"#utility.yul\":18919:18932   */\n      lt\n        /* \"#utility.yul\":18900:19338   */\n      iszero\n      tag_485\n      jumpi\n        /* \"#utility.yul\":18996:19005   */\n      dup5\n        /* \"#utility.yul\":18990:18994   */\n      dup5\n        /* \"#utility.yul\":18986:19006   */\n      sub\n        /* \"#utility.yul\":18981:18984   */\n      dup10\n        /* \"#utility.yul\":18974:19007   */\n      mstore\n        /* \"#utility.yul\":19047:19053   */\n      dup2\n        /* \"#utility.yul\":19041:19054   */\n      mload\n        /* \"#utility.yul\":19075:19187   */\n      tag_486\n        /* \"#utility.yul\":19182:19186   */\n      dup6\n        /* \"#utility.yul\":19167:19180   */\n      dup3\n        /* \"#utility.yul\":19075:19187   */\n      tag_279\n      jump\t// in\n    tag_486:\n        /* \"#utility.yul\":19067:19187   */\n      swap5\n      pop\n        /* \"#utility.yul\":19210:19294   */\n      tag_487\n        /* \"#utility.yul\":19287:19293   */\n      dup4\n        /* \"#utility.yul\":19210:19294   */\n      tag_280\n      jump\t// in\n    tag_487:\n        /* \"#utility.yul\":19200:19294   */\n      swap3\n      pop\n        /* \"#utility.yul\":19323:19327   */\n      0x20\n        /* \"#utility.yul\":19318:19321   */\n      dup11\n        /* \"#utility.yul\":19314:19328   */\n      add\n        /* \"#utility.yul\":19307:19328   */\n      swap10\n      pop\n        /* \"#utility.yul\":18960:19338   */\n      pop\n        /* \"#utility.yul\":18947:18948   */\n      0x01\n        /* \"#utility.yul\":18944:18945   */\n      dup2\n        /* \"#utility.yul\":18940:18949   */\n      add\n        /* \"#utility.yul\":18935:18949   */\n      swap1\n      pop\n        /* \"#utility.yul\":18900:19338   */\n      jump(tag_483)\n    tag_485:\n        /* \"#utility.yul\":18904:18918   */\n      pop\n        /* \"#utility.yul\":19354:19358   */\n      dup3\n        /* \"#utility.yul\":19347:19358   */\n      swap8\n      pop\n        /* \"#utility.yul\":19374:19377   */\n      dup8\n        /* \"#utility.yul\":19367:19377   */\n      swap6\n      pop\n        /* \"#utility.yul\":18452:19383   */\n      pop\n      pop\n      pop\n      pop\n      pop\n        /* \"#utility.yul\":18280:19383   */\n      swap3\n      swap2\n      pop\n      pop\n      jump\t// out\n        /* \"#utility.yul\":19389:19858   */\n    tag_68:\n        /* \"#utility.yul\":19580:19584   */\n      0x00\n        /* \"#utility.yul\":19618:19620   */\n      0x20\n        /* \"#utility.yul\":19607:19616   */\n      dup3\n        /* \"#utility.yul\":19603:19621   */\n      add\n        /* \"#utility.yul\":19595:19621   */\n      swap1\n      pop\n        /* \"#utility.yul\":19667:19676   */\n      dup2\n        /* \"#utility.yul\":19661:19665   */\n      dup2\n        /* \"#utility.yul\":19657:19677   */\n      sub\n        /* \"#utility.yul\":19653:19654   */\n      0x00\n        /* \"#utility.yul\":19642:19651   */\n      dup4\n        /* \"#utility.yul\":19638:19655   */\n      add\n        /* \"#utility.yul\":19631:19678   */\n      mstore\n        /* \"#utility.yul\":19695:19851   */\n      tag_489\n        /* \"#utility.yul\":19846:19850   */\n      dup2\n        /* \"#utility.yul\":19837:19843   */\n      dup5\n        /* \"#utility.yul\":19695:19851   */\n      tag_281\n      jump\t// in\n    tag_489:\n        /* \"#utility.yul\":19687:19851   */\n      swap1\n      pop\n        /* \"#utility.yul\":19389:19858   */\n      swap3\n      swap2\n      pop\n      pop\n      jump\t// out\n        /* \"#utility.yul\":19864:20044   */\n    tag_282:\n        /* \"#utility.yul\":19912:19989   */\n      0x4e487b7100000000000000000000000000000000000000000000000000000000\n        /* \"#utility.yul\":19909:19910   */\n      0x00\n        /* \"#utility.yul\":19902:19990   */\n      mstore\n        /* \"#utility.yul\":20009:20013   */\n      0x11\n        /* \"#utility.yul\":20006:20007   */\n      0x04\n        /* \"#utility.yul\":19999:20014   */\n      mstore\n        /* \"#utility.yul\":20033:20037   */\n      0x24\n        /* \"#utility.yul\":20030:20031   */\n      0x00\n        /* \"#utility.yul\":20023:20038   */\n      revert\n        /* \"#utility.yul\":20050:20241   */\n    tag_87:\n        /* \"#utility.yul\":20090:20093   */\n      0x00\n        /* \"#utility.yul\":20109:20129   */\n      tag_492\n        /* \"#utility.yul\":20127:20128   */\n      dup3\n        /* \"#utility.yul\":20109:20129   */\n      tag_256\n      jump\t// in\n    tag_492:\n        /* \"#utility.yul\":20104:20129   */\n      swap2\n      pop\n        /* \"#utility.yul\":20143:20163   */\n      tag_493\n        /* \"#utility.yul\":20161:20162   */\n      dup4\n        /* \"#utility.yul\":20143:20163   */\n      tag_256\n      jump\t// in\n    tag_493:\n        /* \"#utility.yul\":20138:20163   */\n      swap3\n      pop\n        /* \"#utility.yul\":20186:20187   */\n      dup3\n        /* \"#utility.yul\":20183:20184   */\n      dup3\n        /* \"#utility.yul\":20179:20188   */\n      add\n        /* \"#utility.yul\":20172:20188   */\n      swap1\n      pop\n        /* \"#utility.yul\":20207:20210   */\n      dup1\n        /* \"#utility.yul\":20204:20205   */\n      dup3\n        /* \"#utility.yul\":20201:20211   */\n      gt\n        /* \"#utility.yul\":20198:20234   */\n      iszero\n      tag_494\n      jumpi\n        /* \"#utility.yul\":20214:20232   */\n      tag_495\n      tag_282\n      jump\t// in\n    tag_495:\n        /* \"#utility.yul\":20198:20234   */\n    tag_494:\n        /* \"#utility.yul\":20050:20241   */\n      swap3\n      swap2\n      pop\n      pop\n      jump\t// out\n        /* \"#utility.yul\":20247:20427   */\n    tag_283:\n        /* \"#utility.yul\":20295:20372   */\n      0x4e487b7100000000000000000000000000000000000000000000000000000000\n        /* \"#utility.yul\":20292:20293   */\n      0x00\n        /* \"#utility.yul\":20285:20373   */\n      mstore\n        /* \"#utility.yul\":20392:20396   */\n      0x22\n        /* \"#utility.yul\":20389:20390   */\n      0x04\n        /* \"#utility.yul\":20382:20397   */\n      mstore\n        /* \"#utility.yul\":20416:20420   */\n      0x24\n        /* \"#utility.yul\":20413:20414   */\n      0x00\n        /* \"#utility.yul\":20406:20421   */\n      revert\n        /* \"#utility.yul\":20433:20753   */\n    tag_108:\n        /* \"#utility.yul\":20477:20483   */\n      0x00\n        /* \"#utility.yul\":20514:20515   */\n      0x02\n        /* \"#utility.yul\":20508:20512   */\n      dup3\n        /* \"#utility.yul\":20504:20516   */\n      div\n        /* \"#utility.yul\":20494:20516   */\n      swap1\n      pop\n        /* \"#utility.yul\":20561:20562   */\n      0x01\n        /* \"#utility.yul\":20555:20559   */\n      dup3\n        /* \"#utility.yul\":20551:20563   */\n      and\n        /* \"#utility.yul\":20582:20600   */\n      dup1\n        /* \"#utility.yul\":20572:20653   */\n      tag_498\n      jumpi\n        /* \"#utility.yul\":20638:20642   */\n      0x7f\n        /* \"#utility.yul\":20630:20636   */\n      dup3\n        /* \"#utility.yul\":20626:20643   */\n      and\n        /* \"#utility.yul\":20616:20643   */\n      swap2\n      pop\n        /* \"#utility.yul\":20572:20653   */\n    tag_498:\n        /* \"#utility.yul\":20700:20702   */\n      0x20\n        /* \"#utility.yul\":20692:20698   */\n      dup3\n        /* \"#utility.yul\":20689:20703   */\n      lt\n        /* \"#utility.yul\":20669:20687   */\n      dup2\n        /* \"#utility.yul\":20666:20704   */\n      sub\n        /* \"#utility.yul\":20663:20747   */\n      tag_499\n      jumpi\n        /* \"#utility.yul\":20719:20737   */\n      tag_500\n      tag_283\n      jump\t// in\n    tag_500:\n        /* \"#utility.yul\":20663:20747   */\n    tag_499:\n        /* \"#utility.yul\":20484:20753   */\n      pop\n        /* \"#utility.yul\":20433:20753   */\n      swap2\n      swap1\n      pop\n      jump\t// out\n        /* \"#utility.yul\":20759:20900   */\n    tag_284:\n        /* \"#utility.yul\":20808:20812   */\n      0x00\n        /* \"#utility.yul\":20831:20834   */\n      dup2\n        /* \"#utility.yul\":20823:20834   */\n      swap1\n      pop\n        /* \"#utility.yul\":20854:20857   */\n      dup2\n        /* \"#utility.yul\":20851:20852   */\n      0x00\n        /* \"#utility.yul\":20844:20858   */\n      mstore\n        /* \"#utility.yul\":20888:20892   */\n      0x20\n        /* \"#utility.yul\":20885:20886   */\n      0x00\n        /* \"#utility.yul\":20875:20893   */\n      keccak256\n        /* \"#utility.yul\":20867:20893   */\n      swap1\n      pop\n        /* \"#utility.yul\":20759:20900   */\n      swap2\n      swap1\n      pop\n      jump\t// out\n        /* \"#utility.yul\":20906:20999   */\n    tag_285:\n        /* \"#utility.yul\":20943:20949   */\n      0x00\n        /* \"#utility.yul\":20990:20992   */\n      0x20\n        /* \"#utility.yul\":20985:20987   */\n      0x1f\n        /* \"#utility.yul\":20978:20983   */\n      dup4\n        /* \"#utility.yul\":20974:20988   */\n      add\n        /* \"#utility.yul\":20970:20993   */\n      div\n        /* \"#utility.yul\":20960:20993   */\n      swap1\n      pop\n        /* \"#utility.yul\":20906:20999   */\n      swap2\n      swap1\n      pop\n      jump\t// out\n        /* \"#utility.yul\":21005:21112   */\n    tag_286:\n        /* \"#utility.yul\":21049:21057   */\n      0x00\n        /* \"#utility.yul\":21099:21104   */\n      dup3\n        /* \"#utility.yul\":21093:21097   */\n      dup3\n        /* \"#utility.yul\":21089:21105   */\n      shl\n        /* \"#utility.yul\":21068:21105   */\n      swap1\n      pop\n        /* \"#utility.yul\":21005:21112   */\n      swap3\n      swap2\n      pop\n      pop\n      jump\t// out\n        /* \"#utility.yul\":21118:21511   */\n    tag_287:\n        /* \"#utility.yul\":21187:21193   */\n      0x00\n        /* \"#utility.yul\":21237:21238   */\n      0x08\n        /* \"#utility.yul\":21225:21235   */\n      dup4\n        /* \"#utility.yul\":21221:21239   */\n      mul\n        /* \"#utility.yul\":21260:21357   */\n      tag_505\n        /* \"#utility.yul\":21290:21356   */\n      0xffffffffffffffffffffffffffffffffffffffffffffffffffffffffffffffff\n        /* \"#utility.yul\":21279:21288   */\n      dup3\n        /* \"#utility.yul\":21260:21357   */\n      tag_286\n      jump\t// in\n    tag_505:\n        /* \"#utility.yul\":21378:21417   */\n      tag_506\n        /* \"#utility.yul\":21408:21416   */\n      dup7\n        /* \"#utility.yul\":21397:21406   */\n      dup4\n        /* \"#utility.yul\":21378:21417   */\n      tag_286\n      jump\t// in\n    tag_506:\n        /* \"#utility.yul\":21366:21417   */\n      swap6\n      pop\n        /* \"#utility.yul\":21450:21454   */\n      dup1\n        /* \"#utility.yul\":21446:21455   */\n      not\n        /* \"#utility.yul\":21439:21444   */\n      dup5\n        /* \"#utility.yul\":21435:21456   */\n      and\n        /* \"#utility.yul\":21426:21456   */\n      swap4\n      pop\n        /* \"#utility.yul\":21499:21503   */\n      dup1\n        /* \"#utility.yul\":21489:21497   */\n      dup7\n        /* \"#utility.yul\":21485:21504   */\n      and\n        /* \"#utility.yul\":21478:21483   */\n      dup5\n        /* \"#utility.yul\":21475:21505   */\n      or\n        /* \"#utility.yul\":21465:21505   */\n      swap3\n      pop\n        /* \"#utility.yul\":21194:21511   */\n      pop\n      pop\n        /* \"#utility.yul\":21118:21511   */\n      swap4\n      swap3\n      pop\n      pop\n      pop\n      jump\t// out\n        /* \"#utility.yul\":21517:21577   */\n    tag_288:\n        /* \"#utility.yul\":21545:21548   */\n      0x00\n        /* \"#utility.yul\":21566:21571   */\n      dup2\n        /* \"#utility.yul\":21559:21571   */\n      swap1\n      pop\n        /* \"#utility.yul\":21517:21577   */\n      swap2\n      swap1\n      pop\n      jump\t// out\n        /* \"#utility.yul\":21583:21725   */\n    tag_289:\n        /* \"#utility.yul\":21633:21642   */\n      0x00\n        /* \"#utility.yul\":21666:21719   */\n      tag_509\n        /* \"#utility.yul\":21684:21718   */\n      tag_510\n        /* \"#utility.yul\":21693:21717   */\n      tag_511\n        /* \"#utility.yul\":21711:21716   */\n      dup5\n        /* \"#utility.yul\":21693:21717   */\n      tag_256\n      jump\t// in\n    tag_511:\n        /* \"#utility.yul\":21684:21718   */\n      tag_288\n      jump\t// in\n    tag_510:\n        /* \"#utility.yul\":21666:21719   */\n      tag_256\n      jump\t// in\n    tag_509:\n        /* \"#utility.yul\":21653:21719   */\n      swap1\n      pop\n        /* \"#utility.yul\":21583:21725   */\n      swap2\n      swap1\n      pop\n      jump\t// out\n        /* \"#utility.yul\":21731:21806   */\n    tag_290:\n        /* \"#utility.yul\":21774:21777   */\n      0x00\n        /* \"#utility.yul\":21795:21800   */\n      dup2\n        /* \"#utility.yul\":21788:21800   */\n      swap1\n      pop\n        /* \"#utility.yul\":21731:21806   */\n      swap2\n      swap1\n      pop\n      jump\t// out\n        /* \"#utility.yul\":21812:22081   */\n    tag_291:\n        /* \"#utility.yul\":21922:21961   */\n      tag_514\n        /* \"#utility.yul\":21953:21960   */\n      dup4\n        /* \"#utility.yul\":21922:21961   */\n      tag_289\n      jump\t// in\n    tag_514:\n        /* \"#utility.yul\":21983:22074   */\n      tag_515\n        /* \"#utility.yul\":22032:22073   */\n      tag_516\n        /* \"#utility.yul\":22056:22072   */\n      dup3\n        /* \"#utility.yul\":22032:22073   */\n      tag_290\n      jump\t// in\n    tag_516:\n        /* \"#utility.yul\":22024:22030   */\n      dup5\n        /* \"#utility.yul\":22017:22021   */\n      dup5\n        /* \"#utility.yul\":22011:22022   */\n      sload\n        /* \"#utility.yul\":21983:22074   */\n      tag_287\n      jump\t// in\n    tag_515:\n        /* \"#utility.yul\":21977:21981   */\n      dup3\n        /* \"#utility.yul\":21970:22075   */\n      sstore\n        /* \"#utility.yul\":21888:22081   */\n      pop\n        /* \"#utility.yul\":21812:22081   */\n      pop\n      pop\n      pop\n      jump\t// out\n        /* \"#utility.yul\":22087:22160   */\n    tag_292:\n        /* \"#utility.yul\":22132:22135   */\n      0x00\n        /* \"#utility.yul\":22087:22160   */\n      swap1\n      jump\t// out\n        /* \"#utility.yul\":22166:22355   */\n    tag_293:\n        /* \"#utility.yul\":22243:22275   */\n      tag_519\n      tag_292\n      jump\t// in\n    tag_519:\n        /* \"#utility.yul\":22284:22349   */\n      tag_520\n        /* \"#utility.yul\":22342:22348   */\n      dup2\n        /* \"#utility.yul\":22334:22340   */\n      dup5\n        /* \"#utility.yul\":22328:22332   */\n      dup5\n        /* \"#utility.yul\":22284:22349   */\n      tag_291\n      jump\t// in\n    tag_520:\n        /* \"#utility.yul\":22219:22355   */\n      pop\n        /* \"#utility.yul\":22166:22355   */\n      pop\n      pop\n      jump\t// out\n        /* \"#utility.yul\":22361:22547   */\n    tag_294:\n        /* \"#utility.yul\":22421:22541   */\n    tag_522:\n        /* \"#utility.yul\":22438:22441   */\n      dup2\n        /* \"#utility.yul\":22431:22436   */\n      dup2\n        /* \"#utility.yul\":22428:22442   */\n      lt\n        /* \"#utility.yul\":22421:22541   */\n      iszero\n      tag_524\n      jumpi\n        /* \"#utility.yul\":22492:22531   */\n      tag_525\n        /* \"#utility.yul\":22529:22530   */\n      0x00\n        /* \"#utility.yul\":22522:22527   */\n      dup3\n        /* \"#utility.yul\":22492:22531   */\n      tag_293\n      jump\t// in\n    tag_525:\n        /* \"#utility.yul\":22465:22466   */\n      0x01\n        /* \"#utility.yul\":22458:22463   */\n      dup2\n        /* \"#utility.yul\":22454:22467   */\n      add\n        /* \"#utility.yul\":22445:22467   */\n      swap1\n      pop\n        /* \"#utility.yul\":22421:22541   */\n      jump(tag_522)\n    tag_524:\n        /* \"#utility.yul\":22361:22547   */\n      pop\n      pop\n      jump\t// out\n        /* \"#utility.yul\":22553:23096   */\n    tag_295:\n        /* \"#utility.yul\":22654:22656   */\n      0x1f\n        /* \"#utility.yul\":22649:22652   */\n      dup3\n        /* \"#utility.yul\":22646:22657   */\n      gt\n        /* \"#utility.yul\":22643:23089   */\n      iszero\n      tag_527\n      jumpi\n        /* \"#utility.yul\":22688:22726   */\n      tag_528\n        /* \"#utility.yul\":22720:22725   */\n      dup2\n        /* \"#utility.yul\":22688:22726   */\n      tag_284\n      jump\t// in\n    tag_528:\n        /* \"#utility.yul\":22772:22801   */\n      tag_529\n        /* \"#utility.yul\":22790:22800   */\n      dup5\n        /* \"#utility.yul\":22772:22801   */\n      tag_285\n      jump\t// in\n    tag_529:\n        /* \"#utility.yul\":22762:22770   */\n      dup2\n        /* \"#utility.yul\":22758:22802   */\n      add\n        /* \"#utility.yul\":22955:22957   */\n      0x20\n        /* \"#utility.yul\":22943:22953   */\n      dup6\n        /* \"#utility.yul\":22940:22958   */\n      lt\n        /* \"#utility.yul\":22937:22986   */\n      iszero\n      tag_530\n      jumpi\n        /* \"#utility.yul\":22976:22984   */\n      dup2\n        /* \"#utility.yul\":22961:22984   */\n      swap1\n      pop\n        /* \"#utility.yul\":22937:22986   */\n    tag_530:\n        /* \"#utility.yul\":22999:23079   */\n      tag_531\n        /* \"#utility.yul\":23055:23077   */\n      tag_532\n        /* \"#utility.yul\":23073:23076   */\n      dup6\n        /* \"#utility.yul\":23055:23077   */\n      tag_285\n      jump\t// in\n    tag_532:\n        /* \"#utility.yul\":23045:23053   */\n      dup4\n        /* \"#utility.yul\":23041:23078   */\n      add\n        /* \"#utility.yul\":23028:23039   */\n      dup3\n        /* \"#utility.yul\":22999:23079   */\n      tag_294\n      jump\t// in\n    tag_531:\n        /* \"#utility.yul\":22658:23089   */\n      pop\n      pop\n        /* \"#utility.yul\":22643:23089   */\n    tag_527:\n        /* \"#utility.yul\":22553:23096   */\n      pop\n      pop\n      pop\n      jump\t// out\n        /* \"#utility.yul\":23102:23219   */\n    tag_296:\n        /* \"#utility.yul\":23156:23164   */\n      0x00\n        /* \"#utility.yul\":23206:23211   */\n      dup3\n        /* \"#utility.yul\":23200:23204   */\n      dup3\n        /* \"#utility.yul\":23196:23212   */\n      shr\n        /* \"#utility.yul\":23175:23212   */\n      swap1\n      pop\n        /* \"#utility.yul\":23102:23219   */\n      swap3\n      swap2\n      pop\n      pop\n      jump\t// out\n        /* \"#utility.yul\":23225:23394   */\n    tag_297:\n        /* \"#utility.yul\":23269:23275   */\n      0x00\n        /* \"#utility.yul\":23302:23353   */\n      tag_535\n        /* \"#utility.yul\":23350:23351   */\n      0x00\n        /* \"#utility.yul\":23346:23352   */\n      not\n        /* \"#utility.yul\":23338:23343   */\n      dup5\n        /* \"#utility.yul\":23335:23336   */\n      0x08\n        /* \"#utility.yul\":23331:23344   */\n      mul\n        /* \"#utility.yul\":23302:23353   */\n      tag_296\n      jump\t// in\n    tag_535:\n        /* \"#utility.yul\":23298:23354   */\n      not\n        /* \"#utility.yul\":23383:23387   */\n      dup1\n        /* \"#utility.yul\":23377:23381   */\n      dup4\n        /* \"#utility.yul\":23373:23388   */\n      and\n        /* \"#utility.yul\":23363:23388   */\n      swap2\n      pop\n        /* \"#utility.yul\":23276:23394   */\n      pop\n        /* \"#utility.yul\":23225:23394   */\n      swap3\n      swap2\n      pop\n      pop\n      jump\t// out\n        /* \"#utility.yul\":23399:23694   */\n    tag_298:\n        /* \"#utility.yul\":23475:23479   */\n      0x00\n        /* \"#utility.yul\":23621:23650   */\n      tag_537\n        /* \"#utility.yul\":23646:23649   */\n      dup4\n        /* \"#utility.yul\":23640:23644   */\n      dup4\n        /* \"#utility.yul\":23621:23650   */\n      tag_297\n      jump\t// in\n    tag_537:\n        /* \"#utility.yul\":23613:23650   */\n      swap2\n      pop\n        /* \"#utility.yul\":23683:23686   */\n      dup3\n        /* \"#utility.yul\":23680:23681   */\n      0x02\n        /* \"#utility.yul\":23676:23687   */\n      mul\n        /* \"#utility.yul\":23670:23674   */\n      dup3\n        /* \"#utility.yul\":23667:23688   */\n      or\n        /* \"#utility.yul\":23659:23688   */\n      swap1\n      pop\n        /* \"#utility.yul\":23399:23694   */\n      swap3\n      swap2\n      pop\n      pop\n      jump\t// out\n        /* \"#utility.yul\":23699:25094   */\n    tag_89:\n        /* \"#utility.yul\":23816:23853   */\n      tag_539\n        /* \"#utility.yul\":23849:23852   */\n      dup3\n        /* \"#utility.yul\":23816:23853   */\n      tag_264\n      jump\t// in\n    tag_539:\n        /* \"#utility.yul\":23918:23936   */\n      0xffffffffffffffff\n        /* \"#utility.yul\":23910:23916   */\n      dup2\n        /* \"#utility.yul\":23907:23937   */\n      gt\n        /* \"#utility.yul\":23904:23960   */\n      iszero\n      tag_540\n      jumpi\n        /* \"#utility.yul\":23940:23958   */\n      tag_541\n      tag_182\n      jump\t// in\n    tag_541:\n        /* \"#utility.yul\":23904:23960   */\n    tag_540:\n        /* \"#utility.yul\":23984:24022   */\n      tag_542\n        /* \"#utility.yul\":24016:24020   */\n      dup3\n        /* \"#utility.yul\":24010:24021   */\n      sload\n        /* \"#utility.yul\":23984:24022   */\n      tag_108\n      jump\t// in\n    tag_542:\n        /* \"#utility.yul\":24069:24136   */\n      tag_543\n        /* \"#utility.yul\":24129:24135   */\n      dup3\n        /* \"#utility.yul\":24121:24127   */\n      dup3\n        /* \"#utility.yul\":24115:24119   */\n      dup6\n        /* \"#utility.yul\":24069:24136   */\n      tag_295\n      jump\t// in\n    tag_543:\n        /* \"#utility.yul\":24163:24164   */\n      0x00\n        /* \"#utility.yul\":24187:24191   */\n      0x20\n        /* \"#utility.yul\":24174:24191   */\n      swap1\n      pop\n        /* \"#utility.yul\":24219:24221   */\n      0x1f\n        /* \"#utility.yul\":24211:24217   */\n      dup4\n        /* \"#utility.yul\":24208:24222   */\n      gt\n        /* \"#utility.yul\":24236:24237   */\n      0x01\n        /* \"#utility.yul\":24231:24849   */\n      dup2\n      eq\n      tag_545\n      jumpi\n        /* \"#utility.yul\":24893:24894   */\n      0x00\n        /* \"#utility.yul\":24910:24916   */\n      dup5\n        /* \"#utility.yul\":24907:24984   */\n      iszero\n      tag_546\n      jumpi\n        /* \"#utility.yul\":24959:24968   */\n      dup3\n        /* \"#utility.yul\":24954:24957   */\n      dup8\n        /* \"#utility.yul\":24950:24969   */\n      add\n        /* \"#utility.yul\":24944:24970   */\n      mload\n        /* \"#utility.yul\":24935:24970   */\n      swap1\n      pop\n        /* \"#utility.yul\":24907:24984   */\n    tag_546:\n        /* \"#utility.yul\":25010:25077   */\n      tag_547\n        /* \"#utility.yul\":25070:25076   */\n      dup6\n        /* \"#utility.yul\":25063:25068   */\n      dup3\n        /* \"#utility.yul\":25010:25077   */\n      tag_298\n      jump\t// in\n    tag_547:\n        /* \"#utility.yul\":25004:25008   */\n      dup7\n        /* \"#utility.yul\":24997:25078   */\n      sstore\n        /* \"#utility.yul\":24866:25088   */\n      pop\n        /* \"#utility.yul\":24201:25088   */\n      jump(tag_544)\n        /* \"#utility.yul\":24231:24849   */\n    tag_545:\n        /* \"#utility.yul\":24283:24287   */\n      0x1f\n        /* \"#utility.yul\":24279:24288   */\n      not\n        /* \"#utility.yul\":24271:24277   */\n      dup5\n        /* \"#utility.yul\":24267:24289   */\n      and\n        /* \"#utility.yul\":24317:24354   */\n      tag_548\n        /* \"#utility.yul\":24349:24353   */\n      dup7\n        /* \"#utility.yul\":24317:24354   */\n      tag_284\n      jump\t// in\n    tag_548:\n        /* \"#utility.yul\":24376:24377   */\n      0x00\n        /* \"#utility.yul\":24390:24598   */\n    tag_549:\n        /* \"#utility.yul\":24404:24411   */\n      dup3\n        /* \"#utility.yul\":24401:24402   */\n      dup2\n        /* \"#utility.yul\":24398:24412   */\n      lt\n        /* \"#utility.yul\":24390:24598   */\n      iszero\n      tag_551\n      jumpi\n        /* \"#utility.yul\":24483:24492   */\n      dup5\n        /* \"#utility.yul\":24478:24481   */\n      dup10\n        /* \"#utility.yul\":24474:24493   */\n      add\n        /* \"#utility.yul\":24468:24494   */\n      mload\n        /* \"#utility.yul\":24460:24466   */\n      dup3\n        /* \"#utility.yul\":24453:24495   */\n      sstore\n        /* \"#utility.yul\":24534:24535   */\n      0x01\n        /* \"#utility.yul\":24526:24532   */\n      dup3\n        /* \"#utility.yul\":24522:24536   */\n      add\n        /* \"#utility.yul\":24512:24536   */\n      swap2\n      pop\n        /* \"#utility.yul\":24581:24583   */\n      0x20\n        /* \"#utility.yul\":24570:24579   */\n      dup6\n        /* \"#utility.yul\":24566:24584   */\n      add\n        /* \"#utility.yul\":24553:24584   */\n      swap5\n      pop\n        /* \"#utility.yul\":24427:24431   */\n      0x20\n        /* \"#utility.yul\":24424:24425   */\n      dup2\n        /* \"#utility.yul\":24420:24432   */\n      add\n        /* \"#utility.yul\":24415:24432   */\n      swap1\n      pop\n        /* \"#utility.yul\":24390:24598   */\n      jump(tag_549)\n    tag_551:\n        /* \"#utility.yul\":24626:24632   */\n      dup7\n        /* \"#utility.yul\":24617:24624   */\n      dup4\n        /* \"#utility.yul\":24614:24633   */\n      lt\n        /* \"#utility.yul\":24611:24790   */\n      iszero\n      tag_552\n      jumpi\n        /* \"#utility.yul\":24684:24693   */\n      dup5\n        /* \"#utility.yul\":24679:24682   */\n      dup10\n        /* \"#utility.yul\":24675:24694   */\n      add\n        /* \"#utility.yul\":24669:24695   */\n      mload\n        /* \"#utility.yul\":24727:24775   */\n      tag_553\n        /* \"#utility.yul\":24769:24773   */\n      0x1f\n        /* \"#utility.yul\":24761:24767   */\n      dup10\n        /* \"#utility.yul\":24757:24774   */\n      and\n        /* \"#utility.yul\":24746:24755   */\n      dup3\n        /* \"#utility.yul\":24727:24775   */\n      tag_297\n      jump\t// in\n    tag_553:\n        /* \"#utility.yul\":24719:24725   */\n      dup4\n        /* \"#utility.yul\":24712:24776   */\n      sstore\n        /* \"#utility.yul\":24634:24790   */\n      pop\n        /* \"#utility.yul\":24611:24790   */\n    tag_552:\n        /* \"#utility.yul\":24836:24837   */\n      0x01\n        /* \"#utility.yul\":24832:24833   */\n      0x02\n        /* \"#utility.yul\":24824:24830   */\n      dup9\n        /* \"#utility.yul\":24820:24834   */\n      mul\n        /* \"#utility.yul\":24816:24838   */\n      add\n        /* \"#utility.yul\":24810:24814   */\n      dup9\n        /* \"#utility.yul\":24803:24839   */\n      sstore\n        /* \"#utility.yul\":24238:24849   */\n      pop\n      pop\n      pop\n        /* \"#utility.yul\":24201:25088   */\n    tag_544:\n      pop\n        /* \"#utility.yul\":23791:25094   */\n      pop\n      pop\n      pop\n        /* \"#utility.yul\":23699:25094   */\n      pop\n      pop\n      jump\t// out\n        /* \"#utility.yul\":25100:25724   */\n    tag_96:\n        /* \"#utility.yul\":25289:25293   */\n      0x00\n        /* \"#utility.yul\":25327:25329   */\n      0x60\n        /* \"#utility.yul\":25316:25325   */\n      dup3\n        /* \"#utility.yul\":25312:25330   */\n      add\n        /* \"#utility.yul\":25304:25330   */\n      swap1\n      pop\n        /* \"#utility.yul\":25376:25385   */\n      dup2\n        /* \"#utility.yul\":25370:25374   */\n      dup2\n        /* \"#utility.yul\":25366:25386   */\n      sub\n        /* \"#utility.yul\":25362:25363   */\n      0x00\n        /* \"#utility.yul\":25351:25360   */\n      dup4\n        /* \"#utility.yul\":25347:25364   */\n      add\n        /* \"#utility.yul\":25340:25387   */\n      mstore\n        /* \"#utility.yul\":25404:25482   */\n      tag_555\n        /* \"#utility.yul\":25477:25481   */\n      dup2\n        /* \"#utility.yul\":25468:25474   */\n      dup7\n        /* \"#utility.yul\":25404:25482   */\n      tag_273\n      jump\t// in\n    tag_555:\n        /* \"#utility.yul\":25396:25482   */\n      swap1\n      pop\n        /* \"#utility.yul\":25529:25538   */\n      dup2\n        /* \"#utility.yul\":25523:25527   */\n      dup2\n        /* \"#utility.yul\":25519:25539   */\n      sub\n        /* \"#utility.yul\":25514:25516   */\n      0x20\n        /* \"#utility.yul\":25503:25512   */\n      dup4\n        /* \"#utility.yul\":25499:25517   */\n      add\n        /* \"#utility.yul\":25492:25540   */\n      mstore\n        /* \"#utility.yul\":25557:25635   */\n      tag_556\n        /* \"#utility.yul\":25630:25634   */\n      dup2\n        /* \"#utility.yul\":25621:25627   */\n      dup6\n        /* \"#utility.yul\":25557:25635   */\n      tag_273\n      jump\t// in\n    tag_556:\n        /* \"#utility.yul\":25549:25635   */\n      swap1\n      pop\n        /* \"#utility.yul\":25645:25717   */\n      tag_557\n        /* \"#utility.yul\":25713:25715   */\n      0x40\n        /* \"#utility.yul\":25702:25711   */\n      dup4\n        /* \"#utility.yul\":25698:25716   */\n      add\n        /* \"#utility.yul\":25689:25695   */\n      dup5\n        /* \"#utility.yul\":25645:25717   */\n      tag_259\n      jump\t// in\n    tag_557:\n        /* \"#utility.yul\":25100:25724   */\n      swap5\n      swap4\n      pop\n      pop\n      pop\n      pop\n      jump\t// out\n        /* \"#utility.yul\":25730:25963   */\n    tag_299:\n        /* \"#utility.yul\":25870:25904   */\n      0x4f6e6c7920746865206f776e65722063616e2075706461746520746865206175\n        /* \"#utility.yul\":25866:25867   */\n      0x00\n        /* \"#utility.yul\":25858:25864   */\n      dup3\n        /* \"#utility.yul\":25854:25868   */\n      add\n        /* \"#utility.yul\":25847:25905   */\n      mstore\n        /* \"#utility.yul\":25939:25955   */\n      0x6374696f6e2064657461696c732e000000000000000000000000000000000000\n        /* \"#utility.yul\":25934:25936   */\n      0x20\n        /* \"#utility.yul\":25926:25932   */\n      dup3\n        /* \"#utility.yul\":25922:25937   */\n      add\n        /* \"#utility.yul\":25915:25956   */\n      mstore\n        /* \"#utility.yul\":25730:25963   */\n      pop\n      jump\t// out\n        /* \"#utility.yul\":25969:26335   */\n    tag_300:\n        /* \"#utility.yul\":26111:26114   */\n      0x00\n        /* \"#utility.yul\":26132:26199   */\n      tag_560\n        /* \"#utility.yul\":26196:26198   */\n      0x2e\n        /* \"#utility.yul\":26191:26194   */\n      dup4\n        /* \"#utility.yul\":26132:26199   */\n      tag_272\n      jump\t// in\n    tag_560:\n        /* \"#utility.yul\":26125:26199   */\n      swap2\n      pop\n        /* \"#utility.yul\":26208:26301   */\n      tag_561\n        /* \"#utility.yul\":26297:26300   */\n      dup3\n        /* \"#utility.yul\":26208:26301   */\n      tag_299\n      jump\t// in\n    tag_561:\n        /* \"#utility.yul\":26326:26328   */\n      0x40\n        /* \"#utility.yul\":26321:26324   */\n      dup3\n        /* \"#utility.yul\":26317:26329   */\n      add\n        /* \"#utility.yul\":26310:26329   */\n      swap1\n      pop\n        /* \"#utility.yul\":25969:26335   */\n      swap2\n      swap1\n      pop\n      jump\t// out\n        /* \"#utility.yul\":26341:26760   */\n    tag_100:\n        /* \"#utility.yul\":26507:26511   */\n      0x00\n        /* \"#utility.yul\":26545:26547   */\n      0x20\n        /* \"#utility.yul\":26534:26543   */\n      dup3\n        /* \"#utility.yul\":26530:26548   */\n      add\n        /* \"#utility.yul\":26522:26548   */\n      swap1\n      pop\n        /* \"#utility.yul\":26594:26603   */\n      dup2\n        /* \"#utility.yul\":26588:26592   */\n      dup2\n        /* \"#utility.yul\":26584:26604   */\n      sub\n        /* \"#utility.yul\":26580:26581   */\n      0x00\n        /* \"#utility.yul\":26569:26578   */\n      dup4\n        /* \"#utility.yul\":26565:26582   */\n      add\n        /* \"#utility.yul\":26558:26605   */\n      mstore\n        /* \"#utility.yul\":26622:26753   */\n      tag_563\n        /* \"#utility.yul\":26748:26752   */\n      dup2\n        /* \"#utility.yul\":26622:26753   */\n      tag_300\n      jump\t// in\n    tag_563:\n        /* \"#utility.yul\":26614:26753   */\n      swap1\n      pop\n        /* \"#utility.yul\":26341:26760   */\n      swap2\n      swap1\n      pop\n      jump\t// out\n        /* \"#utility.yul\":26766:27098   */\n    tag_102:\n        /* \"#utility.yul\":26887:26891   */\n      0x00\n        /* \"#utility.yul\":26925:26927   */\n      0x40\n        /* \"#utility.yul\":26914:26923   */\n      dup3\n        /* \"#utility.yul\":26910:26928   */\n      add\n        /* \"#utility.yul\":26902:26928   */\n      swap1\n      pop\n        /* \"#utility.yul\":26938:27009   */\n      tag_565\n        /* \"#utility.yul\":27006:27007   */\n      0x00\n        /* \"#utility.yul\":26995:27004   */\n      dup4\n        /* \"#utility.yul\":26991:27008   */\n      add\n        /* \"#utility.yul\":26982:26988   */\n      dup6\n        /* \"#utility.yul\":26938:27009   */\n      tag_259\n      jump\t// in\n    tag_565:\n        /* \"#utility.yul\":27019:27091   */\n      tag_566\n        /* \"#utility.yul\":27087:27089   */\n      0x20\n        /* \"#utility.yul\":27076:27085   */\n      dup4\n        /* \"#utility.yul\":27072:27090   */\n      add\n        /* \"#utility.yul\":27063:27069   */\n      dup5\n        /* \"#utility.yul\":27019:27091   */\n      tag_259\n      jump\t// in\n    tag_566:\n        /* \"#utility.yul\":26766:27098   */\n      swap4\n      swap3\n      pop\n      pop\n      pop\n      jump\t// out\n        /* \"#utility.yul\":27104:27272   */\n    tag_301:\n        /* \"#utility.yul\":27244:27264   */\n      0x41756374696f6e2068617320656e6465642e0000000000000000000000000000\n        /* \"#utility.yul\":27240:27241   */\n      0x00\n        /* \"#utility.yul\":27232:27238   */\n      dup3\n        /* \"#utility.yul\":27228:27242   */\n      add\n        /* \"#utility.yul\":27221:27265   */\n      mstore\n        /* \"#utility.yul\":27104:27272   */\n      pop\n      jump\t// out\n        /* \"#utility.yul\":27278:27644   */\n    tag_302:\n        /* \"#utility.yul\":27420:27423   */\n      0x00\n        /* \"#utility.yul\":27441:27508   */\n      tag_569\n        /* \"#utility.yul\":27505:27507   */\n      0x12\n        /* \"#utility.yul\":27500:27503   */\n      dup4\n        /* \"#utility.yul\":27441:27508   */\n      tag_272\n      jump\t// in\n    tag_569:\n        /* \"#utility.yul\":27434:27508   */\n      swap2\n      pop\n        /* \"#utility.yul\":27517:27610   */\n      tag_570\n        /* \"#utility.yul\":27606:27609   */\n      dup3\n        /* \"#utility.yul\":27517:27610   */\n      tag_301\n      jump\t// in\n    tag_570:\n        /* \"#utility.yul\":27635:27637   */\n      0x20\n        /* \"#utility.yul\":27630:27633   */\n      dup3\n        /* \"#utility.yul\":27626:27638   */\n      add\n        /* \"#utility.yul\":27619:27638   */\n      swap1\n      pop\n        /* \"#utility.yul\":27278:27644   */\n      swap2\n      swap1\n      pop\n      jump\t// out\n        /* \"#utility.yul\":27650:28069   */\n    tag_131:\n        /* \"#utility.yul\":27816:27820   */\n      0x00\n        /* \"#utility.yul\":27854:27856   */\n      0x20\n        /* \"#utility.yul\":27843:27852   */\n      dup3\n        /* \"#utility.yul\":27839:27857   */\n      add\n        /* \"#utility.yul\":27831:27857   */\n      swap1\n      pop\n        /* \"#utility.yul\":27903:27912   */\n      dup2\n        /* \"#utility.yul\":27897:27901   */\n      dup2\n        /* \"#utility.yul\":27893:27913   */\n      sub\n        /* \"#utility.yul\":27889:27890   */\n      0x00\n        /* \"#utility.yul\":27878:27887   */\n      dup4\n        /* \"#utility.yul\":27874:27891   */\n      add\n        /* \"#utility.yul\":27867:27914   */\n      mstore\n        /* \"#utility.yul\":27931:28062   */\n      tag_572\n        /* \"#utility.yul\":28057:28061   */\n      dup2\n        /* \"#utility.yul\":27931:28062   */\n      tag_302\n      jump\t// in\n    tag_572:\n        /* \"#utility.yul\":27923:28062   */\n      swap1\n      pop\n        /* \"#utility.yul\":27650:28069   */\n      swap2\n      swap1\n      pop\n      jump\t// out\n        /* \"#utility.yul\":28075:28248   */\n    tag_303:\n        /* \"#utility.yul\":28215:28240   */\n      0x426964206973206e6f74206869676820656e6f7567682e000000000000000000\n        /* \"#utility.yul\":28211:28212   */\n      0x00\n        /* \"#utility.yul\":28203:28209   */\n      dup3\n        /* \"#utility.yul\":28199:28213   */\n      add\n        /* \"#utility.yul\":28192:28241   */\n      mstore\n        /* \"#utility.yul\":28075:28248   */\n      pop\n      jump\t// out\n        /* \"#utility.yul\":28254:28620   */\n    tag_304:\n        /* \"#utility.yul\":28396:28399   */\n      0x00\n        /* \"#utility.yul\":28417:28484   */\n      tag_575\n        /* \"#utility.yul\":28481:28483   */\n      0x17\n        /* \"#utility.yul\":28476:28479   */\n      dup4\n        /* \"#utility.yul\":28417:28484   */\n      tag_272\n      jump\t// in\n    tag_575:\n        /* \"#utility.yul\":28410:28484   */\n      swap2\n      pop\n        /* \"#utility.yul\":28493:28586   */\n      tag_576\n        /* \"#utility.yul\":28582:28585   */\n      dup3\n        /* \"#utility.yul\":28493:28586   */\n      tag_303\n      jump\t// in\n    tag_576:\n        /* \"#utility.yul\":28611:28613   */\n      0x20\n        /* \"#utility.yul\":28606:28609   */\n      dup3\n        /* \"#utility.yul\":28602:28614   */\n      add\n        /* \"#utility.yul\":28595:28614   */\n      swap1\n      pop\n        /* \"#utility.yul\":28254:28620   */\n      swap2\n      swap1\n      pop\n      jump\t// out\n        /* \"#utility.yul\":28626:29045   */\n    tag_134:\n        /* \"#utility.yul\":28792:28796   */\n      0x00\n        /* \"#utility.yul\":28830:28832   */\n      0x20\n        /* \"#utility.yul\":28819:28828   */\n      dup3\n        /* \"#utility.yul\":28815:28833   */\n      add\n        /* \"#utility.yul\":28807:28833   */\n      swap1\n      pop\n        /* \"#utility.yul\":28879:28888   */\n      dup2\n        /* \"#utility.yul\":28873:28877   */\n      dup2\n        /* \"#utility.yul\":28869:28889   */\n      sub\n        /* \"#utility.yul\":28865:28866   */\n      0x00\n        /* \"#utility.yul\":28854:28863   */\n      dup4\n        /* \"#utility.yul\":28850:28867   */\n      add\n        /* \"#utility.yul\":28843:28890   */\n      mstore\n        /* \"#utility.yul\":28907:29038   */\n      tag_578\n        /* \"#utility.yul\":29033:29037   */\n      dup2\n        /* \"#utility.yul\":28907:29038   */\n      tag_304\n      jump\t// in\n    tag_578:\n        /* \"#utility.yul\":28899:29038   */\n      swap1\n      pop\n        /* \"#utility.yul\":28626:29045   */\n      swap2\n      swap1\n      pop\n      jump\t// out\n        /* \"#utility.yul\":29051:29278   */\n    tag_305:\n        /* \"#utility.yul\":29191:29225   */\n      0x496e697469616c206269642069732062656c6f7720746865207374617274696e\n        /* \"#utility.yul\":29187:29188   */\n      0x00\n        /* \"#utility.yul\":29179:29185   */\n      dup3\n        /* \"#utility.yul\":29175:29189   */\n      add\n        /* \"#utility.yul\":29168:29226   */\n      mstore\n        /* \"#utility.yul\":29260:29270   */\n      0x672070726963652e000000000000000000000000000000000000000000000000\n        /* \"#utility.yul\":29255:29257   */\n      0x20\n        /* \"#utility.yul\":29247:29253   */\n      dup3\n        /* \"#utility.yul\":29243:29258   */\n      add\n        /* \"#utility.yul\":29236:29271   */\n      mstore\n        /* \"#utility.yul\":29051:29278   */\n      pop\n      jump\t// out\n        /* \"#utility.yul\":29284:29650   */\n    tag_306:\n        /* \"#utility.yul\":29426:29429   */\n      0x00\n        /* \"#utility.yul\":29447:29514   */\n      tag_581\n        /* \"#utility.yul\":29511:29513   */\n      0x28\n        /* \"#utility.yul\":29506:29509   */\n      dup4\n        /* \"#utility.yul\":29447:29514   */\n      tag_272\n      jump\t// in\n    tag_581:\n        /* \"#utility.yul\":29440:29514   */\n      swap2\n      pop\n        /* \"#utility.yul\":29523:29616   */\n      tag_582\n        /* \"#utility.yul\":29612:29615   */\n      dup3\n        /* \"#utility.yul\":29523:29616   */\n      tag_305\n      jump\t// in\n    tag_582:\n        /* \"#utility.yul\":29641:29643   */\n      0x40\n        /* \"#utility.yul\":29636:29639   */\n      dup3\n        /* \"#utility.yul\":29632:29644   */\n      add\n        /* \"#utility.yul\":29625:29644   */\n      swap1\n      pop\n        /* \"#utility.yul\":29284:29650   */\n      swap2\n      swap1\n      pop\n      jump\t// out\n        /* \"#utility.yul\":29656:30075   */\n    tag_164:\n        /* \"#utility.yul\":29822:29826   */\n      0x00\n        /* \"#utility.yul\":29860:29862   */\n      0x20\n        /* \"#utility.yul\":29849:29858   */\n      dup3\n        /* \"#utility.yul\":29845:29863   */\n      add\n        /* \"#utility.yul\":29837:29863   */\n      swap1\n      pop\n        /* \"#utility.yul\":29909:29918   */\n      dup2\n        /* \"#utility.yul\":29903:29907   */\n      dup2\n        /* \"#utility.yul\":29899:29919   */\n      sub\n        /* \"#utility.yul\":29895:29896   */\n      0x00\n        /* \"#utility.yul\":29884:29893   */\n      dup4\n        /* \"#utility.yul\":29880:29897   */\n      add\n        /* \"#utility.yul\":29873:29920   */\n      mstore\n        /* \"#utility.yul\":29937:30068   */\n      tag_584\n        /* \"#utility.yul\":30063:30067   */\n      dup2\n        /* \"#utility.yul\":29937:30068   */\n      tag_306\n      jump\t// in\n    tag_584:\n        /* \"#utility.yul\":29929:30068   */\n      swap1\n      pop\n        /* \"#utility.yul\":29656:30075   */\n      swap2\n      swap1\n      pop\n      jump\t// out\n        /* \"#utility.yul\":30081:30314   */\n    tag_307:\n        /* \"#utility.yul\":30221:30255   */\n      0x4f6e6c7920746865206f776e65722063616e2075706461746520746865206172\n        /* \"#utility.yul\":30217:30218   */\n      0x00\n        /* \"#utility.yul\":30209:30215   */\n      dup3\n        /* \"#utility.yul\":30205:30219   */\n      add\n        /* \"#utility.yul\":30198:30256   */\n      mstore\n        /* \"#utility.yul\":30290:30306   */\n      0x74776f726b2064657461696c732e000000000000000000000000000000000000\n        /* \"#utility.yul\":30285:30287   */\n      0x20\n        /* \"#utility.yul\":30277:30283   */\n      dup3\n        /* \"#utility.yul\":30273:30288   */\n      add\n        /* \"#utility.yul\":30266:30307   */\n      mstore\n        /* \"#utility.yul\":30081:30314   */\n      pop\n      jump\t// out\n        /* \"#utility.yul\":30320:30686   */\n    tag_308:\n        /* \"#utility.yul\":30462:30465   */\n      0x00\n        /* \"#utility.yul\":30483:30550   */\n      tag_587\n        /* \"#utility.yul\":30547:30549   */\n      0x2e\n        /* \"#utility.yul\":30542:30545   */\n      dup4\n        /* \"#utility.yul\":30483:30550   */\n      tag_272\n      jump\t// in\n    tag_587:\n        /* \"#utility.yul\":30476:30550   */\n      swap2\n      pop\n        /* \"#utility.yul\":30559:30652   */\n      tag_588\n        /* \"#utility.yul\":30648:30651   */\n      dup3\n        /* \"#utility.yul\":30559:30652   */\n      tag_307\n      jump\t// in\n    tag_588:\n        /* \"#utility.yul\":30677:30679   */\n      0x40\n        /* \"#utility.yul\":30672:30675   */\n      dup3\n        /* \"#utility.yul\":30668:30680   */\n      add\n        /* \"#utility.yul\":30661:30680   */\n      swap1\n      pop\n        /* \"#utility.yul\":30320:30686   */\n      swap2\n      swap1\n      pop\n      jump\t// out\n        /* \"#utility.yul\":30692:31111   */\n    tag_172:\n        /* \"#utility.yul\":30858:30862   */\n      0x00\n        /* \"#utility.yul\":30896:30898   */\n      0x20\n        /* \"#utility.yul\":30885:30894   */\n      dup3\n        /* \"#utility.yul\":30881:30899   */\n      add\n        /* \"#utility.yul\":30873:30899   */\n      swap1\n      pop\n        /* \"#utility.yul\":30945:30954   */\n      dup2\n        /* \"#utility.yul\":30939:30943   */\n      dup2\n        /* \"#utility.yul\":30935:30955   */\n      sub\n        /* \"#utility.yul\":30931:30932   */\n      0x00\n        /* \"#utility.yul\":30920:30929   */\n      dup4\n        /* \"#utility.yul\":30916:30933   */\n      add\n        /* \"#utility.yul\":30909:30956   */\n      mstore\n        /* \"#utility.yul\":30973:31104   */\n      tag_590\n        /* \"#utility.yul\":31099:31103   */\n      dup2\n        /* \"#utility.yul\":30973:31104   */\n      tag_308\n      jump\t// in\n    tag_590:\n        /* \"#utility.yul\":30965:31104   */\n      swap1\n      pop\n        /* \"#utility.yul\":30692:31111   */\n      swap2\n      swap1\n      pop\n      jump\t// out\n        /* \"#utility.yul\":31117:31297   */\n    tag_191:\n        /* \"#utility.yul\":31165:31242   */\n      0x4e487b7100000000000000000000000000000000000000000000000000000000\n        /* \"#utility.yul\":31162:31163   */\n      0x00\n        /* \"#utility.yul\":31155:31243   */\n      mstore\n        /* \"#utility.yul\":31262:31266   */\n      0x32\n        /* \"#utility.yul\":31259:31260   */\n      0x04\n        /* \"#utility.yul\":31252:31267   */\n      mstore\n        /* \"#utility.yul\":31286:31290   */\n      0x24\n        /* \"#utility.yul\":31283:31284   */\n      0x00\n        /* \"#utility.yul\":31276:31291   */\n      revert\n        /* \"#utility.yul\":31303:31536   */\n    tag_216:\n        /* \"#utility.yul\":31342:31345   */\n      0x00\n        /* \"#utility.yul\":31365:31389   */\n      tag_593\n        /* \"#utility.yul\":31383:31388   */\n      dup3\n        /* \"#utility.yul\":31365:31389   */\n      tag_256\n      jump\t// in\n    tag_593:\n        /* \"#utility.yul\":31356:31389   */\n      swap2\n      pop\n        /* \"#utility.yul\":31411:31477   */\n      0xffffffffffffffffffffffffffffffffffffffffffffffffffffffffffffffff\n        /* \"#utility.yul\":31404:31409   */\n      dup3\n        /* \"#utility.yul\":31401:31478   */\n      sub\n        /* \"#utility.yul\":31398:31501   */\n      tag_594\n      jumpi\n        /* \"#utility.yul\":31481:31499   */\n      tag_595\n      tag_282\n      jump\t// in\n    tag_595:\n        /* \"#utility.yul\":31398:31501   */\n    tag_594:\n        /* \"#utility.yul\":31528:31529   */\n      0x01\n        /* \"#utility.yul\":31521:31526   */\n      dup3\n        /* \"#utility.yul\":31517:31530   */\n      add\n        /* \"#utility.yul\":31510:31530   */\n      swap1\n      pop\n        /* \"#utility.yul\":31303:31536   */\n      swap2\n      swap1\n      pop\n      jump\t// out\n        /* \"#utility.yul\":31542:31764   */\n    tag_309:\n        /* \"#utility.yul\":31682:31716   */\n      0x4f6e6c7920746865206f776e65722063616e20656e6420746865206175637469\n        /* \"#utility.yul\":31678:31679   */\n      0x00\n        /* \"#utility.yul\":31670:31676   */\n      dup3\n        /* \"#utility.yul\":31666:31680   */\n      add\n        /* \"#utility.yul\":31659:31717   */\n      mstore\n        /* \"#utility.yul\":31751:31756   */\n      0x6f6e2e0000000000000000000000000000000000000000000000000000000000\n        /* \"#utility.yul\":31746:31748   */\n      0x20\n        /* \"#utility.yul\":31738:31744   */\n      dup3\n        /* \"#utility.yul\":31734:31749   */\n      add\n        /* \"#utility.yul\":31727:31757   */\n      mstore\n        /* \"#utility.yul\":31542:31764   */\n      pop\n      jump\t// out\n        /* \"#utility.yul\":31770:32136   */\n    tag_310:\n        /* \"#utility.yul\":31912:31915   */\n      0x00\n        /* \"#utility.yul\":31933:32000   */\n      tag_598\n        /* \"#utility.yul\":31997:31999   */\n      0x23\n        /* \"#utility.yul\":31992:31995   */\n      dup4\n        /* \"#utility.yul\":31933:32000   */\n      tag_272\n      jump\t// in\n    tag_598:\n        /* \"#utility.yul\":31926:32000   */\n      swap2\n      pop\n        /* \"#utility.yul\":32009:32102   */\n      tag_599\n        /* \"#utility.yul\":32098:32101   */\n      dup3\n        /* \"#utility.yul\":32009:32102   */\n      tag_309\n      jump\t// in\n    tag_599:\n        /* \"#utility.yul\":32127:32129   */\n      0x40\n        /* \"#utility.yul\":32122:32125   */\n      dup3\n        /* \"#utility.yul\":32118:32130   */\n      add\n        /* \"#utility.yul\":32111:32130   */\n      swap1\n      pop\n        /* \"#utility.yul\":31770:32136   */\n      swap2\n      swap1\n      pop\n      jump\t// out\n        /* \"#utility.yul\":32142:32561   */\n    tag_220:\n        /* \"#utility.yul\":32308:32312   */\n      0x00\n        /* \"#utility.yul\":32346:32348   */\n      0x20\n        /* \"#utility.yul\":32335:32344   */\n      dup3\n        /* \"#utility.yul\":32331:32349   */\n      add\n        /* \"#utility.yul\":32323:32349   */\n      swap1\n      pop\n        /* \"#utility.yul\":32395:32404   */\n      dup2\n        /* \"#utility.yul\":32389:32393   */\n      dup2\n        /* \"#utility.yul\":32385:32405   */\n      sub\n        /* \"#utility.yul\":32381:32382   */\n      0x00\n        /* \"#utility.yul\":32370:32379   */\n      dup4\n        /* \"#utility.yul\":32366:32383   */\n      add\n        /* \"#utility.yul\":32359:32406   */\n      mstore\n        /* \"#utility.yul\":32423:32554   */\n      tag_601\n        /* \"#utility.yul\":32549:32553   */\n      dup2\n        /* \"#utility.yul\":32423:32554   */\n      tag_310\n      jump\t// in\n    tag_601:\n        /* \"#utility.yul\":32415:32554   */\n      swap1\n      pop\n        /* \"#utility.yul\":32142:32561   */\n      swap2\n      swap1\n      pop\n      jump\t// out\n        /* \"#utility.yul\":32567:32742   */\n    tag_311:\n        /* \"#utility.yul\":32707:32734   */\n      0x41756374696f6e206973207374696c6c206f6e676f696e672e00000000000000\n        /* \"#utility.yul\":32703:32704   */\n      0x00\n        /* \"#utility.yul\":32695:32701   */\n      dup3\n        /* \"#utility.yul\":32691:32705   */\n      add\n        /* \"#utility.yul\":32684:32735   */\n      mstore\n        /* \"#utility.yul\":32567:32742   */\n      pop\n      jump\t// out\n        /* \"#utility.yul\":32748:33114   */\n    tag_312:\n        /* \"#utility.yul\":32890:32893   */\n      0x00\n        /* \"#utility.yul\":32911:32978   */\n      tag_604\n        /* \"#utility.yul\":32975:32977   */\n      0x19\n        /* \"#utility.yul\":32970:32973   */\n      dup4\n        /* \"#utility.yul\":32911:32978   */\n      tag_272\n      jump\t// in\n    tag_604:\n        /* \"#utility.yul\":32904:32978   */\n      swap2\n      pop\n        /* \"#utility.yul\":32987:33080   */\n      tag_605\n        /* \"#utility.yul\":33076:33079   */\n      dup3\n        /* \"#utility.yul\":32987:33080   */\n      tag_311\n      jump\t// in\n    tag_605:\n        /* \"#utility.yul\":33105:33107   */\n      0x20\n        /* \"#utility.yul\":33100:33103   */\n      dup3\n        /* \"#utility.yul\":33096:33108   */\n      add\n        /* \"#utility.yul\":33089:33108   */\n      swap1\n      pop\n        /* \"#utility.yul\":32748:33114   */\n      swap2\n      swap1\n      pop\n      jump\t// out\n        /* \"#utility.yul\":33120:33539   */\n    tag_223:\n        /* \"#utility.yul\":33286:33290   */\n      0x00\n        /* \"#utility.yul\":33324:33326   */\n      0x20\n        /* \"#utility.yul\":33313:33322   */\n      dup3\n        /* \"#utility.yul\":33309:33327   */\n      add\n        /* \"#utility.yul\":33301:33327   */\n      swap1\n      pop\n        /* \"#utility.yul\":33373:33382   */\n      dup2\n        /* \"#utility.yul\":33367:33371   */\n      dup2\n        /* \"#utility.yul\":33363:33383   */\n      sub\n        /* \"#utility.yul\":33359:33360   */\n      0x00\n        /* \"#utility.yul\":33348:33357   */\n      dup4\n        /* \"#utility.yul\":33344:33361   */\n      add\n        /* \"#utility.yul\":33337:33384   */\n      mstore\n        /* \"#utility.yul\":33401:33532   */\n      tag_607\n        /* \"#utility.yul\":33527:33531   */\n      dup2\n        /* \"#utility.yul\":33401:33532   */\n      tag_312\n      jump\t// in\n    tag_607:\n        /* \"#utility.yul\":33393:33532   */\n      swap1\n      pop\n        /* \"#utility.yul\":33120:33539   */\n      swap2\n      swap1\n      pop\n      jump\t// out\n        /* \"#utility.yul\":33545:33721   */\n    tag_313:\n        /* \"#utility.yul\":33685:33713   */\n      0x41756374696f6e2068617320616c726561647920656e6465642e000000000000\n        /* \"#utility.yul\":33681:33682   */\n      0x00\n        /* \"#utility.yul\":33673:33679   */\n      dup3\n        /* \"#utility.yul\":33669:33683   */\n      add\n        /* \"#utility.yul\":33662:33714   */\n      mstore\n        /* \"#utility.yul\":33545:33721   */\n      pop\n      jump\t// out\n        /* \"#utility.yul\":33727:34093   */\n    tag_314:\n        /* \"#utility.yul\":33869:33872   */\n      0x00\n        /* \"#utility.yul\":33890:33957   */\n      tag_610\n        /* \"#utility.yul\":33954:33956   */\n      0x1a\n        /* \"#utility.yul\":33949:33952   */\n      dup4\n        /* \"#utility.yul\":33890:33957   */\n      tag_272\n      jump\t// in\n    tag_610:\n        /* \"#utility.yul\":33883:33957   */\n      swap2\n      pop\n        /* \"#utility.yul\":33966:34059   */\n      tag_611\n        /* \"#utility.yul\":34055:34058   */\n      dup3\n        /* \"#utility.yul\":33966:34059   */\n      tag_313\n      jump\t// in\n    tag_611:\n        /* \"#utility.yul\":34084:34086   */\n      0x20\n        /* \"#utility.yul\":34079:34082   */\n      dup3\n        /* \"#utility.yul\":34075:34087   */\n      add\n        /* \"#utility.yul\":34068:34087   */\n      swap1\n      pop\n        /* \"#utility.yul\":33727:34093   */\n      swap2\n      swap1\n      pop\n      jump\t// out\n        /* \"#utility.yul\":34099:34518   */\n    tag_226:\n        /* \"#utility.yul\":34265:34269   */\n      0x00\n        /* \"#utility.yul\":34303:34305   */\n      0x20\n        /* \"#utility.yul\":34292:34301   */\n      dup3\n        /* \"#utility.yul\":34288:34306   */\n      add\n        /* \"#utility.yul\":34280:34306   */\n      swap1\n      pop\n        /* \"#utility.yul\":34352:34361   */\n      dup2\n        /* \"#utility.yul\":34346:34350   */\n      dup2\n        /* \"#utility.yul\":34342:34362   */\n      sub\n        /* \"#utility.yul\":34338:34339   */\n      0x00\n        /* \"#utility.yul\":34327:34336   */\n      dup4\n        /* \"#utility.yul\":34323:34340   */\n      add\n        /* \"#utility.yul\":34316:34363   */\n      mstore\n        /* \"#utility.yul\":34380:34511   */\n      tag_613\n        /* \"#utility.yul\":34506:34510   */\n      dup2\n        /* \"#utility.yul\":34380:34511   */\n      tag_314\n      jump\t// in\n    tag_613:\n        /* \"#utility.yul\":34372:34511   */\n      swap1\n      pop\n        /* \"#utility.yul\":34099:34518   */\n      swap2\n      swap1\n      pop\n      jump\t// out\n        /* \"#utility.yul\":34524:34666   */\n    tag_315:\n        /* \"#utility.yul\":34574:34583   */\n      0x00\n        /* \"#utility.yul\":34607:34660   */\n      tag_615\n        /* \"#utility.yul\":34625:34659   */\n      tag_616\n        /* \"#utility.yul\":34634:34658   */\n      tag_617\n        /* \"#utility.yul\":34652:34657   */\n      dup5\n        /* \"#utility.yul\":34634:34658   */\n      tag_261\n      jump\t// in\n    tag_617:\n        /* \"#utility.yul\":34625:34659   */\n      tag_288\n      jump\t// in\n    tag_616:\n        /* \"#utility.yul\":34607:34660   */\n      tag_261\n      jump\t// in\n    tag_615:\n        /* \"#utility.yul\":34594:34660   */\n      swap1\n      pop\n        /* \"#utility.yul\":34524:34666   */\n      swap2\n      swap1\n      pop\n      jump\t// out\n        /* \"#utility.yul\":34672:34798   */\n    tag_316:\n        /* \"#utility.yul\":34722:34731   */\n      0x00\n        /* \"#utility.yul\":34755:34792   */\n      tag_619\n        /* \"#utility.yul\":34786:34791   */\n      dup3\n        /* \"#utility.yul\":34755:34792   */\n      tag_315\n      jump\t// in\n    tag_619:\n        /* \"#utility.yul\":34742:34792   */\n      swap1\n      pop\n        /* \"#utility.yul\":34672:34798   */\n      swap2\n      swap1\n      pop\n      jump\t// out\n        /* \"#utility.yul\":34804:34938   */\n    tag_317:\n        /* \"#utility.yul\":34862:34871   */\n      0x00\n        /* \"#utility.yul\":34895:34932   */\n      tag_621\n        /* \"#utility.yul\":34926:34931   */\n      dup3\n        /* \"#utility.yul\":34895:34932   */\n      tag_316\n      jump\t// in\n    tag_621:\n        /* \"#utility.yul\":34882:34932   */\n      swap1\n      pop\n        /* \"#utility.yul\":34804:34938   */\n      swap2\n      swap1\n      pop\n      jump\t// out\n        /* \"#utility.yul\":34944:35091   */\n    tag_318:\n        /* \"#utility.yul\":35039:35084   */\n      tag_623\n        /* \"#utility.yul\":35078:35083   */\n      dup2\n        /* \"#utility.yul\":35039:35084   */\n      tag_317\n      jump\t// in\n    tag_623:\n        /* \"#utility.yul\":35034:35037   */\n      dup3\n        /* \"#utility.yul\":35027:35085   */\n      mstore\n        /* \"#utility.yul\":34944:35091   */\n      pop\n      pop\n      jump\t// out\n        /* \"#utility.yul\":35097:35445   */\n    tag_233:\n        /* \"#utility.yul\":35226:35230   */\n      0x00\n        /* \"#utility.yul\":35264:35266   */\n      0x40\n        /* \"#utility.yul\":35253:35262   */\n      dup3\n        /* \"#utility.yul\":35249:35267   */\n      add\n        /* \"#utility.yul\":35241:35267   */\n      swap1\n      pop\n        /* \"#utility.yul\":35277:35356   */\n      tag_625\n        /* \"#utility.yul\":35353:35354   */\n      0x00\n        /* \"#utility.yul\":35342:35351   */\n      dup4\n        /* \"#utility.yul\":35338:35355   */\n      add\n        /* \"#utility.yul\":35329:35335   */\n      dup6\n        /* \"#utility.yul\":35277:35356   */\n      tag_318\n      jump\t// in\n    tag_625:\n        /* \"#utility.yul\":35366:35438   */\n      tag_626\n        /* \"#utility.yul\":35434:35436   */\n      0x20\n        /* \"#utility.yul\":35423:35432   */\n      dup4\n        /* \"#utility.yul\":35419:35437   */\n      add\n        /* \"#utility.yul\":35410:35416   */\n      dup5\n        /* \"#utility.yul\":35366:35438   */\n      tag_259\n      jump\t// in\n    tag_626:\n        /* \"#utility.yul\":35097:35445   */\n      swap4\n      swap3\n      pop\n      pop\n      pop\n      jump\t// out\n        /* \"#utility.yul\":35451:35628   */\n    tag_319:\n        /* \"#utility.yul\":35591:35620   */\n      0x436f756e7465723a2064656372656d656e74206f766572666c6f770000000000\n        /* \"#utility.yul\":35587:35588   */\n      0x00\n        /* \"#utility.yul\":35579:35585   */\n      dup3\n        /* \"#utility.yul\":35575:35589   */\n      add\n        /* \"#utility.yul\":35568:35621   */\n      mstore\n        /* \"#utility.yul\":35451:35628   */\n      pop\n      jump\t// out\n        /* \"#utility.yul\":35634:36000   */\n    tag_320:\n        /* \"#utility.yul\":35776:35779   */\n      0x00\n        /* \"#utility.yul\":35797:35864   */\n      tag_629\n        /* \"#utility.yul\":35861:35863   */\n      0x1b\n        /* \"#utility.yul\":35856:35859   */\n      dup4\n        /* \"#utility.yul\":35797:35864   */\n      tag_272\n      jump\t// in\n    tag_629:\n        /* \"#utility.yul\":35790:35864   */\n      swap2\n      pop\n        /* \"#utility.yul\":35873:35966   */\n      tag_630\n        /* \"#utility.yul\":35962:35965   */\n      dup3\n        /* \"#utility.yul\":35873:35966   */\n      tag_319\n      jump\t// in\n    tag_630:\n        /* \"#utility.yul\":35991:35993   */\n      0x20\n        /* \"#utility.yul\":35986:35989   */\n      dup3\n        /* \"#utility.yul\":35982:35994   */\n      add\n        /* \"#utility.yul\":35975:35994   */\n      swap1\n      pop\n        /* \"#utility.yul\":35634:36000   */\n      swap2\n      swap1\n      pop\n      jump\t// out\n        /* \"#utility.yul\":36006:36425   */\n    tag_243:\n        /* \"#utility.yul\":36172:36176   */\n      0x00\n        /* \"#utility.yul\":36210:36212   */\n      0x20\n        /* \"#utility.yul\":36199:36208   */\n      dup3\n        /* \"#utility.yul\":36195:36213   */\n      add\n        /* \"#utility.yul\":36187:36213   */\n      swap1\n      pop\n        /* \"#utility.yul\":36259:36268   */\n      dup2\n        /* \"#utility.yul\":36253:36257   */\n      dup2\n        /* \"#utility.yul\":36249:36269   */\n      sub\n        /* \"#utility.yul\":36245:36246   */\n      0x00\n        /* \"#utility.yul\":36234:36243   */\n      dup4\n        /* \"#utility.yul\":36230:36247   */\n      add\n        /* \"#utility.yul\":36223:36270   */\n      mstore\n        /* \"#utility.yul\":36287:36418   */\n      tag_632\n        /* \"#utility.yul\":36413:36417   */\n      dup2\n        /* \"#utility.yul\":36287:36418   */\n      tag_320\n      jump\t// in\n    tag_632:\n        /* \"#utility.yul\":36279:36418   */\n      swap1\n      pop\n        /* \"#utility.yul\":36006:36425   */\n      swap2\n      swap1\n      pop\n      jump\t// out\n\n    auxdata: 0xa2646970667358221220b957db1acdd5e6189909f4964a08bcbdbecc3d30ec0f8016b36b38bf9fa78ddb64736f6c63430008150033\n}\n",
				"bytecode": {
					"linkReferences": {},
					"object": "608060405234801561000f575f80fd5b50612b108061001d5f395ff3fe6080604052600436106100c5575f3560e01c80635d1a2ef01161007e5780639c0cc30c116100585780639c0cc30c14610268578063b9a2de3a14610292578063e5fc3350146102ba578063f94c8e98146102e4576100cc565b80635d1a2ef0146101e85780636fa68ae6146102045780639805d4851461022c576100cc565b806307f52e01146100d05780630d856664146100f857806312065fe014610120578063167ddf6e1461014a578063454a2ab3146101865780634b602673146101a2576100cc565b366100cc57005b5f80fd5b3480156100db575f80fd5b506100f660048036038101906100f19190611a8d565b61030e565b005b348015610103575f80fd5b5061011e60048036038101906101199190611b86565b61055d565b005b34801561012b575f80fd5b50610134610654565b6040516101419190611be5565b60405180910390f35b348015610155575f80fd5b50610170600480360381019061016b9190611bfe565b61065b565b60405161017d9190611e0c565b60405180910390f35b6101a0600480360381019061019b9190611bfe565b6109b2565b005b3480156101ad575f80fd5b506101c860048036038101906101c39190611bfe565b610bb2565b6040516101df9b9a99989796959493929190611e92565b60405180910390f35b61020260048036038101906101fd9190611bfe565b610e6a565b005b34801561020f575f80fd5b5061022a60048036038101906102259190611f57565b61106b565b005b348015610237575f80fd5b50610252600480360381019061024d9190611bfe565b61118d565b60405161025f9190611be5565b60405180910390f35b348015610273575f80fd5b5061027c6111ad565b60405161028991906121fa565b60405180910390f35b34801561029d575f80fd5b506102b860048036038101906102b39190611bfe565b6115b7565b005b3480156102c5575f80fd5b506102ce6117f4565b6040516102db9190611be5565b60405180910390f35b3480156102ef575f80fd5b506102f8611804565b6040516103059190611be5565b60405180910390f35b6103175f611814565b5f6103215f611828565b90506040518061016001604052808281526020013373ffffffffffffffffffffffffffffffffffffffff1681526020018881526020018781526020018681526020018581526020018481526020015f81526020015f73ffffffffffffffffffffffffffffffffffffffff168152602001834261039d9190612247565b81526020015f151581525060035f8381526020019081526020015f205f820151815f01556020820151816001015f6101000a81548173ffffffffffffffffffffffffffffffffffffffff021916908373ffffffffffffffffffffffffffffffffffffffff160217905550604082015181600201908161041c9190612474565b5060608201518160030190816104329190612474565b5060808201518160040190816104489190612474565b5060a082015181600501908161045e9190612474565b5060c0820151816006015560e08201518160070155610100820151816008015f6101000a81548173ffffffffffffffffffffffffffffffffffffffff021916908373ffffffffffffffffffffffffffffffffffffffff160217905550610120820151816009015561014082015181600a015f6101000a81548160ff021916908315150217905550905050600481908060018154018082558091505060019003905f5260205f20015f90919091909150556105186001611814565b807f4844eef316b579e3de2c8c0ae4e0c2aa929948a4de0512b928e8b69e8e0eb82888888660405161054c93929190612543565b60405180910390a250505050505050565b5f60035f8581526020019081526020015f209050806001015f9054906101000a900473ffffffffffffffffffffffffffffffffffffffff1673ffffffffffffffffffffffffffffffffffffffff163373ffffffffffffffffffffffffffffffffffffffff1614610602576040517f08c379a00000000000000000000000000000000000000000000000000000000081526004016105f9906125f6565b60405180910390fd5b828160090181905550818160060181905550837f364b79005dd15e524680d4a8482888120dcc595f290e7bcd79f1ef78b4ef63168484604051610646929190612614565b60405180910390a250505050565b5f47905090565b61066361188c565b60035f8381526020019081526020015f20604051806101600160405290815f8201548152602001600182015f9054906101000a900473ffffffffffffffffffffffffffffffffffffffff1673ffffffffffffffffffffffffffffffffffffffff1673ffffffffffffffffffffffffffffffffffffffff1681526020016002820180546106ee906122a7565b80601f016020809104026020016040519081016040528092919081815260200182805461071a906122a7565b80156107655780601f1061073c57610100808354040283529160200191610765565b820191905f5260205f20905b81548152906001019060200180831161074857829003601f168201915b5050505050815260200160038201805461077e906122a7565b80601f01602080910402602001604051908101604052809291908181526020018280546107aa906122a7565b80156107f55780601f106107cc576101008083540402835291602001916107f5565b820191905f5260205f20905b8154815290600101906020018083116107d857829003601f168201915b5050505050815260200160048201805461080e906122a7565b80601f016020809104026020016040519081016040528092919081815260200182805461083a906122a7565b80156108855780601f1061085c57610100808354040283529160200191610885565b820191905f5260205f20905b81548152906001019060200180831161086857829003601f168201915b5050505050815260200160058201805461089e906122a7565b80601f01602080910402602001604051908101604052809291908181526020018280546108ca906122a7565b80156109155780601f106108ec57610100808354040283529160200191610915565b820191905f5260205f20905b8154815290600101906020018083116108f857829003601f168201915b505050505081526020016006820154815260200160078201548152602001600882015f9054906101000a900473ffffffffffffffffffffffffffffffffffffffff1673ffffffffffffffffffffffffffffffffffffffff1673ffffffffffffffffffffffffffffffffffffffff16815260200160098201548152602001600a82015f9054906101000a900460ff1615151515815250509050919050565b5f60035f8381526020019081526020015f20905080600901544210610a0c576040517f08c379a0000000000000000000000000000000000000000000000000000000008152600401610a0390612685565b60405180910390fd5b80600701543411610a52576040517f08c379a0000000000000000000000000000000000000000000000000000000008152600401610a49906126ed565b60405180910390fd5b5f73ffffffffffffffffffffffffffffffffffffffff16816008015f9054906101000a900473ffffffffffffffffffffffffffffffffffffffff1673ffffffffffffffffffffffffffffffffffffffff1614610b1457806008015f9054906101000a900473ffffffffffffffffffffffffffffffffffffffff1673ffffffffffffffffffffffffffffffffffffffff166108fc826007015490811502906040515f60405180830381858888f19350505050158015610b12573d5f803e3d5ffd5b505b34816007018190555033816008015f6101000a81548173ffffffffffffffffffffffffffffffffffffffff021916908373ffffffffffffffffffffffffffffffffffffffff1602179055503373ffffffffffffffffffffffffffffffffffffffff16827f558a0d5d5468d74b0db24c74eb348b42271c2ebb4c9e953ced38aaed95fa436134604051610ba69190611be5565b60405180910390a35050565b6003602052805f5260405f205f91509050805f015490806001015f9054906101000a900473ffffffffffffffffffffffffffffffffffffffff1690806002018054610bfc906122a7565b80601f0160208091040260200160405190810160405280929190818152602001828054610c28906122a7565b8015610c735780601f10610c4a57610100808354040283529160200191610c73565b820191905f5260205f20905b815481529060010190602001808311610c5657829003601f168201915b505050505090806003018054610c88906122a7565b80601f0160208091040260200160405190810160405280929190818152602001828054610cb4906122a7565b8015610cff5780601f10610cd657610100808354040283529160200191610cff565b820191905f5260205f20905b815481529060010190602001808311610ce257829003601f168201915b505050505090806004018054610d14906122a7565b80601f0160208091040260200160405190810160405280929190818152602001828054610d40906122a7565b8015610d8b5780601f10610d6257610100808354040283529160200191610d8b565b820191905f5260205f20905b815481529060010190602001808311610d6e57829003601f168201915b505050505090806005018054610da0906122a7565b80601f0160208091040260200160405190810160405280929190818152602001828054610dcc906122a7565b8015610e175780601f10610dee57610100808354040283529160200191610e17565b820191905f5260205f20905b815481529060010190602001808311610dfa57829003601f168201915b505050505090806006015490806007015490806008015f9054906101000a900473ffffffffffffffffffffffffffffffffffffffff169080600901549080600a015f9054906101000a900460ff1690508b565b5f60035f8381526020019081526020015f20905080600901544210610ec4576040517f08c379a0000000000000000000000000000000000000000000000000000000008152600401610ebb90612685565b60405180910390fd5b8060060154341015610f0b576040517f08c379a0000000000000000000000000000000000000000000000000000000008152600401610f029061277b565b60405180910390fd5b5f73ffffffffffffffffffffffffffffffffffffffff16816008015f9054906101000a900473ffffffffffffffffffffffffffffffffffffffff1673ffffffffffffffffffffffffffffffffffffffff1614610fcd57806008015f9054906101000a900473ffffffffffffffffffffffffffffffffffffffff1673ffffffffffffffffffffffffffffffffffffffff166108fc826007015490811502906040515f60405180830381858888f19350505050158015610fcb573d5f803e3d5ffd5b505b34816007018190555033816008015f6101000a81548173ffffffffffffffffffffffffffffffffffffffff021916908373ffffffffffffffffffffffffffffffffffffffff1602179055503373ffffffffffffffffffffffffffffffffffffffff16827f558a0d5d5468d74b0db24c74eb348b42271c2ebb4c9e953ced38aaed95fa43613460405161105f9190611be5565b60405180910390a35050565b5f60035f8781526020019081526020015f209050806001015f9054906101000a900473ffffffffffffffffffffffffffffffffffffffff1673ffffffffffffffffffffffffffffffffffffffff163373ffffffffffffffffffffffffffffffffffffffff1614611110576040517f08c379a000000000000000000000000000000000000000000000000000000000815260040161110790612809565b60405180910390fd5b848160020190816111219190612474565b50838160030190816111339190612474565b50828160040190816111459190612474565b50818160050190816111579190612474565b50857fd1b00f33712bf6c5d2a3d7a2f14c309e2d6ae750407cf802872c40a8da54c5a960405160405180910390a2505050505050565b6004818154811061119c575f80fd5b905f5260205f20015f915090505481565b60605f60048054905067ffffffffffffffff8111156111cf576111ce611936565b5b60405190808252806020026020018201604052801561120857816020015b6111f561188c565b8152602001906001900390816111ed5790505b5090505f5b6004805490508110156115af5760035f6004838154811061123157611230612827565b5b905f5260205f20015481526020019081526020015f20604051806101600160405290815f8201548152602001600182015f9054906101000a900473ffffffffffffffffffffffffffffffffffffffff1673ffffffffffffffffffffffffffffffffffffffff1673ffffffffffffffffffffffffffffffffffffffff1681526020016002820180546112c1906122a7565b80601f01602080910402602001604051908101604052809291908181526020018280546112ed906122a7565b80156113385780601f1061130f57610100808354040283529160200191611338565b820191905f5260205f20905b81548152906001019060200180831161131b57829003601f168201915b50505050508152602001600382018054611351906122a7565b80601f016020809104026020016040519081016040528092919081815260200182805461137d906122a7565b80156113c85780601f1061139f576101008083540402835291602001916113c8565b820191905f5260205f20905b8154815290600101906020018083116113ab57829003601f168201915b505050505081526020016004820180546113e1906122a7565b80601f016020809104026020016040519081016040528092919081815260200182805461140d906122a7565b80156114585780601f1061142f57610100808354040283529160200191611458565b820191905f5260205f20905b81548152906001019060200180831161143b57829003601f168201915b50505050508152602001600582018054611471906122a7565b80601f016020809104026020016040519081016040528092919081815260200182805461149d906122a7565b80156114e85780601f106114bf576101008083540402835291602001916114e8565b820191905f5260205f20905b8154815290600101906020018083116114cb57829003601f168201915b505050505081526020016006820154815260200160078201548152602001600882015f9054906101000a900473ffffffffffffffffffffffffffffffffffffffff1673ffffffffffffffffffffffffffffffffffffffff1673ffffffffffffffffffffffffffffffffffffffff16815260200160098201548152602001600a82015f9054906101000a900460ff16151515158152505082828151811061159157611590612827565b5b602002602001018190525080806115a790612854565b91505061120d565b508091505090565b5f60035f8381526020019081526020015f209050806001015f9054906101000a900473ffffffffffffffffffffffffffffffffffffffff1673ffffffffffffffffffffffffffffffffffffffff163373ffffffffffffffffffffffffffffffffffffffff161461165c576040517f08c379a00000000000000000000000000000000000000000000000000000000081526004016116539061290b565b60405180910390fd5b80600901544210156116a3576040517f08c379a000000000000000000000000000000000000000000000000000000000815260040161169a90612973565b60405180910390fd5b80600a015f9054906101000a900460ff16156116f4576040517f08c379a00000000000000000000000000000000000000000000000000000000081526004016116eb906129db565b60405180910390fd5b600181600a015f6101000a81548160ff021916908315150217905550806001015f9054906101000a900473ffffffffffffffffffffffffffffffffffffffff1673ffffffffffffffffffffffffffffffffffffffff166108fc826007015490811502906040515f60405180830381858888f1935050505015801561177a573d5f803e3d5ffd5b506117856001611834565b61178f6002611814565b817fd2aa34a4fdbbc6dff6a3e56f46e0f3ae2a31d7785ff3487aa5c95c642acea501826008015f9054906101000a900473ffffffffffffffffffffffffffffffffffffffff1683600701546040516117e8929190612a4b565b60405180910390a25050565b5f6117ff6001611828565b905090565b5f61180f6002611828565b905090565b6001815f015f828254019250508190555050565b5f815f01549050919050565b5f815f015490505f811161187d576040517f08c379a000000000000000000000000000000000000000000000000000000000815260040161187490612abc565b60405180910390fd5b60018103825f01819055505050565b6040518061016001604052805f81526020015f73ffffffffffffffffffffffffffffffffffffffff168152602001606081526020016060815260200160608152602001606081526020015f81526020015f81526020015f73ffffffffffffffffffffffffffffffffffffffff1681526020015f81526020015f151581525090565b5f604051905090565b5f80fd5b5f80fd5b5f80fd5b5f80fd5b5f601f19601f8301169050919050565b7f4e487b71000000000000000000000000000000000000000000000000000000005f52604160045260245ffd5b61196c82611926565b810181811067ffffffffffffffff8211171561198b5761198a611936565b5b80604052505050565b5f61199d61190d565b90506119a98282611963565b919050565b5f67ffffffffffffffff8211156119c8576119c7611936565b5b6119d182611926565b9050602081019050919050565b828183375f83830152505050565b5f6119fe6119f9846119ae565b611994565b905082815260208101848484011115611a1a57611a19611922565b5b611a258482856119de565b509392505050565b5f82601f830112611a4157611a4061191e565b5b8135611a518482602086016119ec565b91505092915050565b5f819050919050565b611a6c81611a5a565b8114611a76575f80fd5b50565b5f81359050611a8781611a63565b92915050565b5f805f805f8060c08789031215611aa757611aa6611916565b5b5f87013567ffffffffffffffff811115611ac457611ac361191a565b5b611ad089828a01611a2d565b965050602087013567ffffffffffffffff811115611af157611af061191a565b5b611afd89828a01611a2d565b955050604087013567ffffffffffffffff811115611b1e57611b1d61191a565b5b611b2a89828a01611a2d565b945050606087013567ffffffffffffffff811115611b4b57611b4a61191a565b5b611b5789828a01611a2d565b9350506080611b6889828a01611a79565b92505060a0611b7989828a01611a79565b9150509295509295509295565b5f805f60608486031215611b9d57611b9c611916565b5b5f611baa86828701611a79565b9350506020611bbb86828701611a79565b9250506040611bcc86828701611a79565b9150509250925092565b611bdf81611a5a565b82525050565b5f602082019050611bf85f830184611bd6565b92915050565b5f60208284031215611c1357611c12611916565b5b5f611c2084828501611a79565b91505092915050565b611c3281611a5a565b82525050565b5f73ffffffffffffffffffffffffffffffffffffffff82169050919050565b5f611c6182611c38565b9050919050565b611c7181611c57565b82525050565b5f81519050919050565b5f82825260208201905092915050565b5f5b83811015611cae578082015181840152602081019050611c93565b5f8484015250505050565b5f611cc382611c77565b611ccd8185611c81565b9350611cdd818560208601611c91565b611ce681611926565b840191505092915050565b5f8115159050919050565b611d0581611cf1565b82525050565b5f61016083015f830151611d215f860182611c29565b506020830151611d346020860182611c68565b5060408301518482036040860152611d4c8282611cb9565b91505060608301518482036060860152611d668282611cb9565b91505060808301518482036080860152611d808282611cb9565b91505060a083015184820360a0860152611d9a8282611cb9565b91505060c0830151611daf60c0860182611c29565b5060e0830151611dc260e0860182611c29565b50610100830151611dd7610100860182611c68565b50610120830151611dec610120860182611c29565b50610140830151611e01610140860182611cfc565b508091505092915050565b5f6020820190508181035f830152611e248184611d0b565b905092915050565b611e3581611c57565b82525050565b5f82825260208201905092915050565b5f611e5582611c77565b611e5f8185611e3b565b9350611e6f818560208601611c91565b611e7881611926565b840191505092915050565b611e8c81611cf1565b82525050565b5f61016082019050611ea65f83018e611bd6565b611eb3602083018d611e2c565b8181036040830152611ec5818c611e4b565b90508181036060830152611ed9818b611e4b565b90508181036080830152611eed818a611e4b565b905081810360a0830152611f018189611e4b565b9050611f1060c0830188611bd6565b611f1d60e0830187611bd6565b611f2b610100830186611e2c565b611f39610120830185611bd6565b611f47610140830184611e83565b9c9b505050505050505050505050565b5f805f805f60a08688031215611f7057611f6f611916565b5b5f611f7d88828901611a79565b955050602086013567ffffffffffffffff811115611f9e57611f9d61191a565b5b611faa88828901611a2d565b945050604086013567ffffffffffffffff811115611fcb57611fca61191a565b5b611fd788828901611a2d565b935050606086013567ffffffffffffffff811115611ff857611ff761191a565b5b61200488828901611a2d565b925050608086013567ffffffffffffffff8111156120255761202461191a565b5b61203188828901611a2d565b9150509295509295909350565b5f81519050919050565b5f82825260208201905092915050565b5f819050602082019050919050565b5f61016083015f83015161207d5f860182611c29565b5060208301516120906020860182611c68565b50604083015184820360408601526120a88282611cb9565b915050606083015184820360608601526120c28282611cb9565b915050608083015184820360808601526120dc8282611cb9565b91505060a083015184820360a08601526120f68282611cb9565b91505060c083015161210b60c0860182611c29565b5060e083015161211e60e0860182611c29565b50610100830151612133610100860182611c68565b50610120830151612148610120860182611c29565b5061014083015161215d610140860182611cfc565b508091505092915050565b5f6121738383612067565b905092915050565b5f602082019050919050565b5f6121918261203e565b61219b8185612048565b9350836020820285016121ad85612058565b805f5b858110156121e857848403895281516121c98582612168565b94506121d48361217b565b925060208a019950506001810190506121b0565b50829750879550505050505092915050565b5f6020820190508181035f8301526122128184612187565b905092915050565b7f4e487b71000000000000000000000000000000000000000000000000000000005f52601160045260245ffd5b5f61225182611a5a565b915061225c83611a5a565b92508282019050808211156122745761227361221a565b5b92915050565b7f4e487b71000000000000000000000000000000000000000000000000000000005f52602260045260245ffd5b5f60028204905060018216806122be57607f821691505b6020821081036122d1576122d061227a565b5b50919050565b5f819050815f5260205f209050919050565b5f6020601f8301049050919050565b5f82821b905092915050565b5f600883026123337fffffffffffffffffffffffffffffffffffffffffffffffffffffffffffffffff826122f8565b61233d86836122f8565b95508019841693508086168417925050509392505050565b5f819050919050565b5f61237861237361236e84611a5a565b612355565b611a5a565b9050919050565b5f819050919050565b6123918361235e565b6123a561239d8261237f565b848454612304565b825550505050565b5f90565b6123b96123ad565b6123c4818484612388565b505050565b5b818110156123e7576123dc5f826123b1565b6001810190506123ca565b5050565b601f82111561242c576123fd816122d7565b612406846122e9565b81016020851015612415578190505b612429612421856122e9565b8301826123c9565b50505b505050565b5f82821c905092915050565b5f61244c5f1984600802612431565b1980831691505092915050565b5f612464838361243d565b9150826002028217905092915050565b61247d82611c77565b67ffffffffffffffff81111561249657612495611936565b5b6124a082546122a7565b6124ab8282856123eb565b5f60209050601f8311600181146124dc575f84156124ca578287015190505b6124d48582612459565b86555061253b565b601f1984166124ea866122d7565b5f5b82811015612511578489015182556001820191506020850194506020810190506124ec565b8683101561252e578489015161252a601f89168261243d565b8355505b6001600288020188555050505b505050505050565b5f6060820190508181035f83015261255b8186611e4b565b9050818103602083015261256f8185611e4b565b905061257e6040830184611bd6565b949350505050565b7f4f6e6c7920746865206f776e65722063616e20757064617465207468652061755f8201527f6374696f6e2064657461696c732e000000000000000000000000000000000000602082015250565b5f6125e0602e83611e3b565b91506125eb82612586565b604082019050919050565b5f6020820190508181035f83015261260d816125d4565b9050919050565b5f6040820190506126275f830185611bd6565b6126346020830184611bd6565b9392505050565b7f41756374696f6e2068617320656e6465642e00000000000000000000000000005f82015250565b5f61266f601283611e3b565b915061267a8261263b565b602082019050919050565b5f6020820190508181035f83015261269c81612663565b9050919050565b7f426964206973206e6f74206869676820656e6f7567682e0000000000000000005f82015250565b5f6126d7601783611e3b565b91506126e2826126a3565b602082019050919050565b5f6020820190508181035f830152612704816126cb565b9050919050565b7f496e697469616c206269642069732062656c6f7720746865207374617274696e5f8201527f672070726963652e000000000000000000000000000000000000000000000000602082015250565b5f612765602883611e3b565b91506127708261270b565b604082019050919050565b5f6020820190508181035f83015261279281612759565b9050919050565b7f4f6e6c7920746865206f776e65722063616e20757064617465207468652061725f8201527f74776f726b2064657461696c732e000000000000000000000000000000000000602082015250565b5f6127f3602e83611e3b565b91506127fe82612799565b604082019050919050565b5f6020820190508181035f830152612820816127e7565b9050919050565b7f4e487b71000000000000000000000000000000000000000000000000000000005f52603260045260245ffd5b5f61285e82611a5a565b91507fffffffffffffffffffffffffffffffffffffffffffffffffffffffffffffffff82036128905761288f61221a565b5b600182019050919050565b7f4f6e6c7920746865206f776e65722063616e20656e64207468652061756374695f8201527f6f6e2e0000000000000000000000000000000000000000000000000000000000602082015250565b5f6128f5602383611e3b565b91506129008261289b565b604082019050919050565b5f6020820190508181035f830152612922816128e9565b9050919050565b7f41756374696f6e206973207374696c6c206f6e676f696e672e000000000000005f82015250565b5f61295d601983611e3b565b915061296882612929565b602082019050919050565b5f6020820190508181035f83015261298a81612951565b9050919050565b7f41756374696f6e2068617320616c726561647920656e6465642e0000000000005f82015250565b5f6129c5601a83611e3b565b91506129d082612991565b602082019050919050565b5f6020820190508181035f8301526129f2816129b9565b9050919050565b5f612a13612a0e612a0984611c38565b612355565b611c38565b9050919050565b5f612a24826129f9565b9050919050565b5f612a3582612a1a565b9050919050565b612a4581612a2b565b82525050565b5f604082019050612a5e5f830185612a3c565b612a6b6020830184611bd6565b9392505050565b7f436f756e7465723a2064656372656d656e74206f766572666c6f7700000000005f82015250565b5f612aa6601b83611e3b565b9150612ab182612a72565b602082019050919050565b5f6020820190508181035f830152612ad381612a9a565b905091905056fea2646970667358221220b957db1acdd5e6189909f4964a08bcbdbecc3d30ec0f8016b36b38bf9fa78ddb64736f6c63430008150033",
					"opcodes": "PUSH1 0x80 PUSH1 0x40 MSTORE CALLVALUE DUP1 ISZERO PUSH2 0xF JUMPI PUSH0 DUP1 REVERT JUMPDEST POP PUSH2 0x2B10 DUP1 PUSH2 0x1D PUSH0 CODECOPY PUSH0 RETURN INVALID PUSH1 0x80 PUSH1 0x40 MSTORE PUSH1 0x4 CALLDATASIZE LT PUSH2 0xC5 JUMPI PUSH0 CALLDATALOAD PUSH1 0xE0 SHR DUP1 PUSH4 0x5D1A2EF0 GT PUSH2 0x7E JUMPI DUP1 PUSH4 0x9C0CC30C GT PUSH2 0x58 JUMPI DUP1 PUSH4 0x9C0CC30C EQ PUSH2 0x268 JUMPI DUP1 PUSH4 0xB9A2DE3A EQ PUSH2 0x292 JUMPI DUP1 PUSH4 0xE5FC3350 EQ PUSH2 0x2BA JUMPI DUP1 PUSH4 0xF94C8E98 EQ PUSH2 0x2E4 JUMPI PUSH2 0xCC JUMP JUMPDEST DUP1 PUSH4 0x5D1A2EF0 EQ PUSH2 0x1E8 JUMPI DUP1 PUSH4 0x6FA68AE6 EQ PUSH2 0x204 JUMPI DUP1 PUSH4 0x9805D485 EQ PUSH2 0x22C JUMPI PUSH2 0xCC JUMP JUMPDEST DUP1 PUSH4 0x7F52E01 EQ PUSH2 0xD0 JUMPI DUP1 PUSH4 0xD856664 EQ PUSH2 0xF8 JUMPI DUP1 PUSH4 0x12065FE0 EQ PUSH2 0x120 JUMPI DUP1 PUSH4 0x167DDF6E EQ PUSH2 0x14A JUMPI DUP1 PUSH4 0x454A2AB3 EQ PUSH2 0x186 JUMPI DUP1 PUSH4 0x4B602673 EQ PUSH2 0x1A2 JUMPI PUSH2 0xCC JUMP JUMPDEST CALLDATASIZE PUSH2 0xCC JUMPI STOP JUMPDEST PUSH0 DUP1 REVERT JUMPDEST CALLVALUE DUP1 ISZERO PUSH2 0xDB JUMPI PUSH0 DUP1 REVERT JUMPDEST POP PUSH2 0xF6 PUSH1 0x4 DUP1 CALLDATASIZE SUB DUP2 ADD SWAP1 PUSH2 0xF1 SWAP2 SWAP1 PUSH2 0x1A8D JUMP JUMPDEST PUSH2 0x30E JUMP JUMPDEST STOP JUMPDEST CALLVALUE DUP1 ISZERO PUSH2 0x103 JUMPI PUSH0 DUP1 REVERT JUMPDEST POP PUSH2 0x11E PUSH1 0x4 DUP1 CALLDATASIZE SUB DUP2 ADD SWAP1 PUSH2 0x119 SWAP2 SWAP1 PUSH2 0x1B86 JUMP JUMPDEST PUSH2 0x55D JUMP JUMPDEST STOP JUMPDEST CALLVALUE DUP1 ISZERO PUSH2 0x12B JUMPI PUSH0 DUP1 REVERT JUMPDEST POP PUSH2 0x134 PUSH2 0x654 JUMP JUMPDEST PUSH1 0x40 MLOAD PUSH2 0x141 SWAP2 SWAP1 PUSH2 0x1BE5 JUMP JUMPDEST PUSH1 0x40 MLOAD DUP1 SWAP2 SUB SWAP1 RETURN JUMPDEST CALLVALUE DUP1 ISZERO PUSH2 0x155 JUMPI PUSH0 DUP1 REVERT JUMPDEST POP PUSH2 0x170 PUSH1 0x4 DUP1 CALLDATASIZE SUB DUP2 ADD SWAP1 PUSH2 0x16B SWAP2 SWAP1 PUSH2 0x1BFE JUMP JUMPDEST PUSH2 0x65B JUMP JUMPDEST PUSH1 0x40 MLOAD PUSH2 0x17D SWAP2 SWAP1 PUSH2 0x1E0C JUMP JUMPDEST PUSH1 0x40 MLOAD DUP1 SWAP2 SUB SWAP1 RETURN JUMPDEST PUSH2 0x1A0 PUSH1 0x4 DUP1 CALLDATASIZE SUB DUP2 ADD SWAP1 PUSH2 0x19B SWAP2 SWAP1 PUSH2 0x1BFE JUMP JUMPDEST PUSH2 0x9B2 JUMP JUMPDEST STOP JUMPDEST CALLVALUE DUP1 ISZERO PUSH2 0x1AD JUMPI PUSH0 DUP1 REVERT JUMPDEST POP PUSH2 0x1C8 PUSH1 0x4 DUP1 CALLDATASIZE SUB DUP2 ADD SWAP1 PUSH2 0x1C3 SWAP2 SWAP1 PUSH2 0x1BFE JUMP JUMPDEST PUSH2 0xBB2 JUMP JUMPDEST PUSH1 0x40 MLOAD PUSH2 0x1DF SWAP12 SWAP11 SWAP10 SWAP9 SWAP8 SWAP7 SWAP6 SWAP5 SWAP4 SWAP3 SWAP2 SWAP1 PUSH2 0x1E92 JUMP JUMPDEST PUSH1 0x40 MLOAD DUP1 SWAP2 SUB SWAP1 RETURN JUMPDEST PUSH2 0x202 PUSH1 0x4 DUP1 CALLDATASIZE SUB DUP2 ADD SWAP1 PUSH2 0x1FD SWAP2 SWAP1 PUSH2 0x1BFE JUMP JUMPDEST PUSH2 0xE6A JUMP JUMPDEST STOP JUMPDEST CALLVALUE DUP1 ISZERO PUSH2 0x20F JUMPI PUSH0 DUP1 REVERT JUMPDEST POP PUSH2 0x22A PUSH1 0x4 DUP1 CALLDATASIZE SUB DUP2 ADD SWAP1 PUSH2 0x225 SWAP2 SWAP1 PUSH2 0x1F57 JUMP JUMPDEST PUSH2 0x106B JUMP JUMPDEST STOP JUMPDEST CALLVALUE DUP1 ISZERO PUSH2 0x237 JUMPI PUSH0 DUP1 REVERT JUMPDEST POP PUSH2 0x252 PUSH1 0x4 DUP1 CALLDATASIZE SUB DUP2 ADD SWAP1 PUSH2 0x24D SWAP2 SWAP1 PUSH2 0x1BFE JUMP JUMPDEST PUSH2 0x118D JUMP JUMPDEST PUSH1 0x40 MLOAD PUSH2 0x25F SWAP2 SWAP1 PUSH2 0x1BE5 JUMP JUMPDEST PUSH1 0x40 MLOAD DUP1 SWAP2 SUB SWAP1 RETURN JUMPDEST CALLVALUE DUP1 ISZERO PUSH2 0x273 JUMPI PUSH0 DUP1 REVERT JUMPDEST POP PUSH2 0x27C PUSH2 0x11AD JUMP JUMPDEST PUSH1 0x40 MLOAD PUSH2 0x289 SWAP2 SWAP1 PUSH2 0x21FA JUMP JUMPDEST PUSH1 0x40 MLOAD DUP1 SWAP2 SUB SWAP1 RETURN JUMPDEST CALLVALUE DUP1 ISZERO PUSH2 0x29D JUMPI PUSH0 DUP1 REVERT JUMPDEST POP PUSH2 0x2B8 PUSH1 0x4 DUP1 CALLDATASIZE SUB DUP2 ADD SWAP1 PUSH2 0x2B3 SWAP2 SWAP1 PUSH2 0x1BFE JUMP JUMPDEST PUSH2 0x15B7 JUMP JUMPDEST STOP JUMPDEST CALLVALUE DUP1 ISZERO PUSH2 0x2C5 JUMPI PUSH0 DUP1 REVERT JUMPDEST POP PUSH2 0x2CE PUSH2 0x17F4 JUMP JUMPDEST PUSH1 0x40 MLOAD PUSH2 0x2DB SWAP2 SWAP1 PUSH2 0x1BE5 JUMP JUMPDEST PUSH1 0x40 MLOAD DUP1 SWAP2 SUB SWAP1 RETURN JUMPDEST CALLVALUE DUP1 ISZERO PUSH2 0x2EF JUMPI PUSH0 DUP1 REVERT JUMPDEST POP PUSH2 0x2F8 PUSH2 0x1804 JUMP JUMPDEST PUSH1 0x40 MLOAD PUSH2 0x305 SWAP2 SWAP1 PUSH2 0x1BE5 JUMP JUMPDEST PUSH1 0x40 MLOAD DUP1 SWAP2 SUB SWAP1 RETURN JUMPDEST PUSH2 0x317 PUSH0 PUSH2 0x1814 JUMP JUMPDEST PUSH0 PUSH2 0x321 PUSH0 PUSH2 0x1828 JUMP JUMPDEST SWAP1 POP PUSH1 0x40 MLOAD DUP1 PUSH2 0x160 ADD PUSH1 0x40 MSTORE DUP1 DUP3 DUP2 MSTORE PUSH1 0x20 ADD CALLER PUSH20 0xFFFFFFFFFFFFFFFFFFFFFFFFFFFFFFFFFFFFFFFF AND DUP2 MSTORE PUSH1 0x20 ADD DUP9 DUP2 MSTORE PUSH1 0x20 ADD DUP8 DUP2 MSTORE PUSH1 0x20 ADD DUP7 DUP2 MSTORE PUSH1 0x20 ADD DUP6 DUP2 MSTORE PUSH1 0x20 ADD DUP5 DUP2 MSTORE PUSH1 0x20 ADD PUSH0 DUP2 MSTORE PUSH1 0x20 ADD PUSH0 PUSH20 0xFFFFFFFFFFFFFFFFFFFFFFFFFFFFFFFFFFFFFFFF AND DUP2 MSTORE PUSH1 0x20 ADD DUP4 TIMESTAMP PUSH2 0x39D SWAP2 SWAP1 PUSH2 0x2247 JUMP JUMPDEST DUP2 MSTORE PUSH1 0x20 ADD PUSH0 ISZERO ISZERO DUP2 MSTORE POP PUSH1 0x3 PUSH0 DUP4 DUP2 MSTORE PUSH1 0x20 ADD SWAP1 DUP2 MSTORE PUSH1 0x20 ADD PUSH0 KECCAK256 PUSH0 DUP3 ADD MLOAD DUP2 PUSH0 ADD SSTORE PUSH1 0x20 DUP3 ADD MLOAD DUP2 PUSH1 0x1 ADD PUSH0 PUSH2 0x100 EXP DUP2 SLOAD DUP2 PUSH20 0xFFFFFFFFFFFFFFFFFFFFFFFFFFFFFFFFFFFFFFFF MUL NOT AND SWAP1 DUP4 PUSH20 0xFFFFFFFFFFFFFFFFFFFFFFFFFFFFFFFFFFFFFFFF AND MUL OR SWAP1 SSTORE POP PUSH1 0x40 DUP3 ADD MLOAD DUP2 PUSH1 0x2 ADD SWAP1 DUP2 PUSH2 0x41C SWAP2 SWAP1 PUSH2 0x2474 JUMP JUMPDEST POP PUSH1 0x60 DUP3 ADD MLOAD DUP2 PUSH1 0x3 ADD SWAP1 DUP2 PUSH2 0x432 SWAP2 SWAP1 PUSH2 0x2474 JUMP JUMPDEST POP PUSH1 0x80 DUP3 ADD MLOAD DUP2 PUSH1 0x4 ADD SWAP1 DUP2 PUSH2 0x448 SWAP2 SWAP1 PUSH2 0x2474 JUMP JUMPDEST POP PUSH1 0xA0 DUP3 ADD MLOAD DUP2 PUSH1 0x5 ADD SWAP1 DUP2 PUSH2 0x45E SWAP2 SWAP1 PUSH2 0x2474 JUMP JUMPDEST POP PUSH1 0xC0 DUP3 ADD MLOAD DUP2 PUSH1 0x6 ADD SSTORE PUSH1 0xE0 DUP3 ADD MLOAD DUP2 PUSH1 0x7 ADD SSTORE PUSH2 0x100 DUP3 ADD MLOAD DUP2 PUSH1 0x8 ADD PUSH0 PUSH2 0x100 EXP DUP2 SLOAD DUP2 PUSH20 0xFFFFFFFFFFFFFFFFFFFFFFFFFFFFFFFFFFFFFFFF MUL NOT AND SWAP1 DUP4 PUSH20 0xFFFFFFFFFFFFFFFFFFFFFFFFFFFFFFFFFFFFFFFF AND MUL OR SWAP1 SSTORE POP PUSH2 0x120 DUP3 ADD MLOAD DUP2 PUSH1 0x9 ADD SSTORE PUSH2 0x140 DUP3 ADD MLOAD DUP2 PUSH1 0xA ADD PUSH0 PUSH2 0x100 EXP DUP2 SLOAD DUP2 PUSH1 0xFF MUL NOT AND SWAP1 DUP4 ISZERO ISZERO MUL OR SWAP1 SSTORE POP SWAP1 POP POP PUSH1 0x4 DUP2 SWAP1 DUP1 PUSH1 0x1 DUP2 SLOAD ADD DUP1 DUP3 SSTORE DUP1 SWAP2 POP POP PUSH1 0x1 SWAP1 SUB SWAP1 PUSH0 MSTORE PUSH1 0x20 PUSH0 KECCAK256 ADD PUSH0 SWAP1 SWAP2 SWAP1 SWAP2 SWAP1 SWAP2 POP SSTORE PUSH2 0x518 PUSH1 0x1 PUSH2 0x1814 JUMP JUMPDEST DUP1 PUSH32 0x4844EEF316B579E3DE2C8C0AE4E0C2AA929948A4DE0512B928E8B69E8E0EB828 DUP9 DUP9 DUP7 PUSH1 0x40 MLOAD PUSH2 0x54C SWAP4 SWAP3 SWAP2 SWAP1 PUSH2 0x2543 JUMP JUMPDEST PUSH1 0x40 MLOAD DUP1 SWAP2 SUB SWAP1 LOG2 POP POP POP POP POP POP POP JUMP JUMPDEST PUSH0 PUSH1 0x3 PUSH0 DUP6 DUP2 MSTORE PUSH1 0x20 ADD SWAP1 DUP2 MSTORE PUSH1 0x20 ADD PUSH0 KECCAK256 SWAP1 POP DUP1 PUSH1 0x1 ADD PUSH0 SWAP1 SLOAD SWAP1 PUSH2 0x100 EXP SWAP1 DIV PUSH20 0xFFFFFFFFFFFFFFFFFFFFFFFFFFFFFFFFFFFFFFFF AND PUSH20 0xFFFFFFFFFFFFFFFFFFFFFFFFFFFFFFFFFFFFFFFF AND CALLER PUSH20 0xFFFFFFFFFFFFFFFFFFFFFFFFFFFFFFFFFFFFFFFF AND EQ PUSH2 0x602 JUMPI PUSH1 0x40 MLOAD PUSH32 0x8C379A000000000000000000000000000000000000000000000000000000000 DUP2 MSTORE PUSH1 0x4 ADD PUSH2 0x5F9 SWAP1 PUSH2 0x25F6 JUMP JUMPDEST PUSH1 0x40 MLOAD DUP1 SWAP2 SUB SWAP1 REVERT JUMPDEST DUP3 DUP2 PUSH1 0x9 ADD DUP2 SWAP1 SSTORE POP DUP2 DUP2 PUSH1 0x6 ADD DUP2 SWAP1 SSTORE POP DUP4 PUSH32 0x364B79005DD15E524680D4A8482888120DCC595F290E7BCD79F1EF78B4EF6316 DUP5 DUP5 PUSH1 0x40 MLOAD PUSH2 0x646 SWAP3 SWAP2 SWAP1 PUSH2 0x2614 JUMP JUMPDEST PUSH1 0x40 MLOAD DUP1 SWAP2 SUB SWAP1 LOG2 POP POP POP POP JUMP JUMPDEST PUSH0 SELFBALANCE SWAP1 POP SWAP1 JUMP JUMPDEST PUSH2 0x663 PUSH2 0x188C JUMP JUMPDEST PUSH1 0x3 PUSH0 DUP4 DUP2 MSTORE PUSH1 0x20 ADD SWAP1 DUP2 MSTORE PUSH1 0x20 ADD PUSH0 KECCAK256 PUSH1 0x40 MLOAD DUP1 PUSH2 0x160 ADD PUSH1 0x40 MSTORE SWAP1 DUP2 PUSH0 DUP3 ADD SLOAD DUP2 MSTORE PUSH1 0x20 ADD PUSH1 0x1 DUP3 ADD PUSH0 SWAP1 SLOAD SWAP1 PUSH2 0x100 EXP SWAP1 DIV PUSH20 0xFFFFFFFFFFFFFFFFFFFFFFFFFFFFFFFFFFFFFFFF AND PUSH20 0xFFFFFFFFFFFFFFFFFFFFFFFFFFFFFFFFFFFFFFFF AND PUSH20 0xFFFFFFFFFFFFFFFFFFFFFFFFFFFFFFFFFFFFFFFF AND DUP2 MSTORE PUSH1 0x20 ADD PUSH1 0x2 DUP3 ADD DUP1 SLOAD PUSH2 0x6EE SWAP1 PUSH2 0x22A7 JUMP JUMPDEST DUP1 PUSH1 0x1F ADD PUSH1 0x20 DUP1 SWAP2 DIV MUL PUSH1 0x20 ADD PUSH1 0x40 MLOAD SWAP1 DUP2 ADD PUSH1 0x40 MSTORE DUP1 SWAP3 SWAP2 SWAP1 DUP2 DUP2 MSTORE PUSH1 0x20 ADD DUP3 DUP1 SLOAD PUSH2 0x71A SWAP1 PUSH2 0x22A7 JUMP JUMPDEST DUP1 ISZERO PUSH2 0x765 JUMPI DUP1 PUSH1 0x1F LT PUSH2 0x73C JUMPI PUSH2 0x100 DUP1 DUP4 SLOAD DIV MUL DUP4 MSTORE SWAP2 PUSH1 0x20 ADD SWAP2 PUSH2 0x765 JUMP JUMPDEST DUP3 ADD SWAP2 SWAP1 PUSH0 MSTORE PUSH1 0x20 PUSH0 KECCAK256 SWAP1 JUMPDEST DUP2 SLOAD DUP2 MSTORE SWAP1 PUSH1 0x1 ADD SWAP1 PUSH1 0x20 ADD DUP1 DUP4 GT PUSH2 0x748 JUMPI DUP3 SWAP1 SUB PUSH1 0x1F AND DUP3 ADD SWAP2 JUMPDEST POP POP POP POP POP DUP2 MSTORE PUSH1 0x20 ADD PUSH1 0x3 DUP3 ADD DUP1 SLOAD PUSH2 0x77E SWAP1 PUSH2 0x22A7 JUMP JUMPDEST DUP1 PUSH1 0x1F ADD PUSH1 0x20 DUP1 SWAP2 DIV MUL PUSH1 0x20 ADD PUSH1 0x40 MLOAD SWAP1 DUP2 ADD PUSH1 0x40 MSTORE DUP1 SWAP3 SWAP2 SWAP1 DUP2 DUP2 MSTORE PUSH1 0x20 ADD DUP3 DUP1 SLOAD PUSH2 0x7AA SWAP1 PUSH2 0x22A7 JUMP JUMPDEST DUP1 ISZERO PUSH2 0x7F5 JUMPI DUP1 PUSH1 0x1F LT PUSH2 0x7CC JUMPI PUSH2 0x100 DUP1 DUP4 SLOAD DIV MUL DUP4 MSTORE SWAP2 PUSH1 0x20 ADD SWAP2 PUSH2 0x7F5 JUMP JUMPDEST DUP3 ADD SWAP2 SWAP1 PUSH0 MSTORE PUSH1 0x20 PUSH0 KECCAK256 SWAP1 JUMPDEST DUP2 SLOAD DUP2 MSTORE SWAP1 PUSH1 0x1 ADD SWAP1 PUSH1 0x20 ADD DUP1 DUP4 GT PUSH2 0x7D8 JUMPI DUP3 SWAP1 SUB PUSH1 0x1F AND DUP3 ADD SWAP2 JUMPDEST POP POP POP POP POP DUP2 MSTORE PUSH1 0x20 ADD PUSH1 0x4 DUP3 ADD DUP1 SLOAD PUSH2 0x80E SWAP1 PUSH2 0x22A7 JUMP JUMPDEST DUP1 PUSH1 0x1F ADD PUSH1 0x20 DUP1 SWAP2 DIV MUL PUSH1 0x20 ADD PUSH1 0x40 MLOAD SWAP1 DUP2 ADD PUSH1 0x40 MSTORE DUP1 SWAP3 SWAP2 SWAP1 DUP2 DUP2 MSTORE PUSH1 0x20 ADD DUP3 DUP1 SLOAD PUSH2 0x83A SWAP1 PUSH2 0x22A7 JUMP JUMPDEST DUP1 ISZERO PUSH2 0x885 JUMPI DUP1 PUSH1 0x1F LT PUSH2 0x85C JUMPI PUSH2 0x100 DUP1 DUP4 SLOAD DIV MUL DUP4 MSTORE SWAP2 PUSH1 0x20 ADD SWAP2 PUSH2 0x885 JUMP JUMPDEST DUP3 ADD SWAP2 SWAP1 PUSH0 MSTORE PUSH1 0x20 PUSH0 KECCAK256 SWAP1 JUMPDEST DUP2 SLOAD DUP2 MSTORE SWAP1 PUSH1 0x1 ADD SWAP1 PUSH1 0x20 ADD DUP1 DUP4 GT PUSH2 0x868 JUMPI DUP3 SWAP1 SUB PUSH1 0x1F AND DUP3 ADD SWAP2 JUMPDEST POP POP POP POP POP DUP2 MSTORE PUSH1 0x20 ADD PUSH1 0x5 DUP3 ADD DUP1 SLOAD PUSH2 0x89E SWAP1 PUSH2 0x22A7 JUMP JUMPDEST DUP1 PUSH1 0x1F ADD PUSH1 0x20 DUP1 SWAP2 DIV MUL PUSH1 0x20 ADD PUSH1 0x40 MLOAD SWAP1 DUP2 ADD PUSH1 0x40 MSTORE DUP1 SWAP3 SWAP2 SWAP1 DUP2 DUP2 MSTORE PUSH1 0x20 ADD DUP3 DUP1 SLOAD PUSH2 0x8CA SWAP1 PUSH2 0x22A7 JUMP JUMPDEST DUP1 ISZERO PUSH2 0x915 JUMPI DUP1 PUSH1 0x1F LT PUSH2 0x8EC JUMPI PUSH2 0x100 DUP1 DUP4 SLOAD DIV MUL DUP4 MSTORE SWAP2 PUSH1 0x20 ADD SWAP2 PUSH2 0x915 JUMP JUMPDEST DUP3 ADD SWAP2 SWAP1 PUSH0 MSTORE PUSH1 0x20 PUSH0 KECCAK256 SWAP1 JUMPDEST DUP2 SLOAD DUP2 MSTORE SWAP1 PUSH1 0x1 ADD SWAP1 PUSH1 0x20 ADD DUP1 DUP4 GT PUSH2 0x8F8 JUMPI DUP3 SWAP1 SUB PUSH1 0x1F AND DUP3 ADD SWAP2 JUMPDEST POP POP POP POP POP DUP2 MSTORE PUSH1 0x20 ADD PUSH1 0x6 DUP3 ADD SLOAD DUP2 MSTORE PUSH1 0x20 ADD PUSH1 0x7 DUP3 ADD SLOAD DUP2 MSTORE PUSH1 0x20 ADD PUSH1 0x8 DUP3 ADD PUSH0 SWAP1 SLOAD SWAP1 PUSH2 0x100 EXP SWAP1 DIV PUSH20 0xFFFFFFFFFFFFFFFFFFFFFFFFFFFFFFFFFFFFFFFF AND PUSH20 0xFFFFFFFFFFFFFFFFFFFFFFFFFFFFFFFFFFFFFFFF AND PUSH20 0xFFFFFFFFFFFFFFFFFFFFFFFFFFFFFFFFFFFFFFFF AND DUP2 MSTORE PUSH1 0x20 ADD PUSH1 0x9 DUP3 ADD SLOAD DUP2 MSTORE PUSH1 0x20 ADD PUSH1 0xA DUP3 ADD PUSH0 SWAP1 SLOAD SWAP1 PUSH2 0x100 EXP SWAP1 DIV PUSH1 0xFF AND ISZERO ISZERO ISZERO ISZERO DUP2 MSTORE POP POP SWAP1 POP SWAP2 SWAP1 POP JUMP JUMPDEST PUSH0 PUSH1 0x3 PUSH0 DUP4 DUP2 MSTORE PUSH1 0x20 ADD SWAP1 DUP2 MSTORE PUSH1 0x20 ADD PUSH0 KECCAK256 SWAP1 POP DUP1 PUSH1 0x9 ADD SLOAD TIMESTAMP LT PUSH2 0xA0C JUMPI PUSH1 0x40 MLOAD PUSH32 0x8C379A000000000000000000000000000000000000000000000000000000000 DUP2 MSTORE PUSH1 0x4 ADD PUSH2 0xA03 SWAP1 PUSH2 0x2685 JUMP JUMPDEST PUSH1 0x40 MLOAD DUP1 SWAP2 SUB SWAP1 REVERT JUMPDEST DUP1 PUSH1 0x7 ADD SLOAD CALLVALUE GT PUSH2 0xA52 JUMPI PUSH1 0x40 MLOAD PUSH32 0x8C379A000000000000000000000000000000000000000000000000000000000 DUP2 MSTORE PUSH1 0x4 ADD PUSH2 0xA49 SWAP1 PUSH2 0x26ED JUMP JUMPDEST PUSH1 0x40 MLOAD DUP1 SWAP2 SUB SWAP1 REVERT JUMPDEST PUSH0 PUSH20 0xFFFFFFFFFFFFFFFFFFFFFFFFFFFFFFFFFFFFFFFF AND DUP2 PUSH1 0x8 ADD PUSH0 SWAP1 SLOAD SWAP1 PUSH2 0x100 EXP SWAP1 DIV PUSH20 0xFFFFFFFFFFFFFFFFFFFFFFFFFFFFFFFFFFFFFFFF AND PUSH20 0xFFFFFFFFFFFFFFFFFFFFFFFFFFFFFFFFFFFFFFFF AND EQ PUSH2 0xB14 JUMPI DUP1 PUSH1 0x8 ADD PUSH0 SWAP1 SLOAD SWAP1 PUSH2 0x100 EXP SWAP1 DIV PUSH20 0xFFFFFFFFFFFFFFFFFFFFFFFFFFFFFFFFFFFFFFFF AND PUSH20 0xFFFFFFFFFFFFFFFFFFFFFFFFFFFFFFFFFFFFFFFF AND PUSH2 0x8FC DUP3 PUSH1 0x7 ADD SLOAD SWAP1 DUP2 ISZERO MUL SWAP1 PUSH1 0x40 MLOAD PUSH0 PUSH1 0x40 MLOAD DUP1 DUP4 SUB DUP2 DUP6 DUP9 DUP9 CALL SWAP4 POP POP POP POP ISZERO DUP1 ISZERO PUSH2 0xB12 JUMPI RETURNDATASIZE PUSH0 DUP1 RETURNDATACOPY RETURNDATASIZE PUSH0 REVERT JUMPDEST POP JUMPDEST CALLVALUE DUP2 PUSH1 0x7 ADD DUP2 SWAP1 SSTORE POP CALLER DUP2 PUSH1 0x8 ADD PUSH0 PUSH2 0x100 EXP DUP2 SLOAD DUP2 PUSH20 0xFFFFFFFFFFFFFFFFFFFFFFFFFFFFFFFFFFFFFFFF MUL NOT AND SWAP1 DUP4 PUSH20 0xFFFFFFFFFFFFFFFFFFFFFFFFFFFFFFFFFFFFFFFF AND MUL OR SWAP1 SSTORE POP CALLER PUSH20 0xFFFFFFFFFFFFFFFFFFFFFFFFFFFFFFFFFFFFFFFF AND DUP3 PUSH32 0x558A0D5D5468D74B0DB24C74EB348B42271C2EBB4C9E953CED38AAED95FA4361 CALLVALUE PUSH1 0x40 MLOAD PUSH2 0xBA6 SWAP2 SWAP1 PUSH2 0x1BE5 JUMP JUMPDEST PUSH1 0x40 MLOAD DUP1 SWAP2 SUB SWAP1 LOG3 POP POP JUMP JUMPDEST PUSH1 0x3 PUSH1 0x20 MSTORE DUP1 PUSH0 MSTORE PUSH1 0x40 PUSH0 KECCAK256 PUSH0 SWAP2 POP SWAP1 POP DUP1 PUSH0 ADD SLOAD SWAP1 DUP1 PUSH1 0x1 ADD PUSH0 SWAP1 SLOAD SWAP1 PUSH2 0x100 EXP SWAP1 DIV PUSH20 0xFFFFFFFFFFFFFFFFFFFFFFFFFFFFFFFFFFFFFFFF AND SWAP1 DUP1 PUSH1 0x2 ADD DUP1 SLOAD PUSH2 0xBFC SWAP1 PUSH2 0x22A7 JUMP JUMPDEST DUP1 PUSH1 0x1F ADD PUSH1 0x20 DUP1 SWAP2 DIV MUL PUSH1 0x20 ADD PUSH1 0x40 MLOAD SWAP1 DUP2 ADD PUSH1 0x40 MSTORE DUP1 SWAP3 SWAP2 SWAP1 DUP2 DUP2 MSTORE PUSH1 0x20 ADD DUP3 DUP1 SLOAD PUSH2 0xC28 SWAP1 PUSH2 0x22A7 JUMP JUMPDEST DUP1 ISZERO PUSH2 0xC73 JUMPI DUP1 PUSH1 0x1F LT PUSH2 0xC4A JUMPI PUSH2 0x100 DUP1 DUP4 SLOAD DIV MUL DUP4 MSTORE SWAP2 PUSH1 0x20 ADD SWAP2 PUSH2 0xC73 JUMP JUMPDEST DUP3 ADD SWAP2 SWAP1 PUSH0 MSTORE PUSH1 0x20 PUSH0 KECCAK256 SWAP1 JUMPDEST DUP2 SLOAD DUP2 MSTORE SWAP1 PUSH1 0x1 ADD SWAP1 PUSH1 0x20 ADD DUP1 DUP4 GT PUSH2 0xC56 JUMPI DUP3 SWAP1 SUB PUSH1 0x1F AND DUP3 ADD SWAP2 JUMPDEST POP POP POP POP POP SWAP1 DUP1 PUSH1 0x3 ADD DUP1 SLOAD PUSH2 0xC88 SWAP1 PUSH2 0x22A7 JUMP JUMPDEST DUP1 PUSH1 0x1F ADD PUSH1 0x20 DUP1 SWAP2 DIV MUL PUSH1 0x20 ADD PUSH1 0x40 MLOAD SWAP1 DUP2 ADD PUSH1 0x40 MSTORE DUP1 SWAP3 SWAP2 SWAP1 DUP2 DUP2 MSTORE PUSH1 0x20 ADD DUP3 DUP1 SLOAD PUSH2 0xCB4 SWAP1 PUSH2 0x22A7 JUMP JUMPDEST DUP1 ISZERO PUSH2 0xCFF JUMPI DUP1 PUSH1 0x1F LT PUSH2 0xCD6 JUMPI PUSH2 0x100 DUP1 DUP4 SLOAD DIV MUL DUP4 MSTORE SWAP2 PUSH1 0x20 ADD SWAP2 PUSH2 0xCFF JUMP JUMPDEST DUP3 ADD SWAP2 SWAP1 PUSH0 MSTORE PUSH1 0x20 PUSH0 KECCAK256 SWAP1 JUMPDEST DUP2 SLOAD DUP2 MSTORE SWAP1 PUSH1 0x1 ADD SWAP1 PUSH1 0x20 ADD DUP1 DUP4 GT PUSH2 0xCE2 JUMPI DUP3 SWAP1 SUB PUSH1 0x1F AND DUP3 ADD SWAP2 JUMPDEST POP POP POP POP POP SWAP1 DUP1 PUSH1 0x4 ADD DUP1 SLOAD PUSH2 0xD14 SWAP1 PUSH2 0x22A7 JUMP JUMPDEST DUP1 PUSH1 0x1F ADD PUSH1 0x20 DUP1 SWAP2 DIV MUL PUSH1 0x20 ADD PUSH1 0x40 MLOAD SWAP1 DUP2 ADD PUSH1 0x40 MSTORE DUP1 SWAP3 SWAP2 SWAP1 DUP2 DUP2 MSTORE PUSH1 0x20 ADD DUP3 DUP1 SLOAD PUSH2 0xD40 SWAP1 PUSH2 0x22A7 JUMP JUMPDEST DUP1 ISZERO PUSH2 0xD8B JUMPI DUP1 PUSH1 0x1F LT PUSH2 0xD62 JUMPI PUSH2 0x100 DUP1 DUP4 SLOAD DIV MUL DUP4 MSTORE SWAP2 PUSH1 0x20 ADD SWAP2 PUSH2 0xD8B JUMP JUMPDEST DUP3 ADD SWAP2 SWAP1 PUSH0 MSTORE PUSH1 0x20 PUSH0 KECCAK256 SWAP1 JUMPDEST DUP2 SLOAD DUP2 MSTORE SWAP1 PUSH1 0x1 ADD SWAP1 PUSH1 0x20 ADD DUP1 DUP4 GT PUSH2 0xD6E JUMPI DUP3 SWAP1 SUB PUSH1 0x1F AND DUP3 ADD SWAP2 JUMPDEST POP POP POP POP POP SWAP1 DUP1 PUSH1 0x5 ADD DUP1 SLOAD PUSH2 0xDA0 SWAP1 PUSH2 0x22A7 JUMP JUMPDEST DUP1 PUSH1 0x1F ADD PUSH1 0x20 DUP1 SWAP2 DIV MUL PUSH1 0x20 ADD PUSH1 0x40 MLOAD SWAP1 DUP2 ADD PUSH1 0x40 MSTORE DUP1 SWAP3 SWAP2 SWAP1 DUP2 DUP2 MSTORE PUSH1 0x20 ADD DUP3 DUP1 SLOAD PUSH2 0xDCC SWAP1 PUSH2 0x22A7 JUMP JUMPDEST DUP1 ISZERO PUSH2 0xE17 JUMPI DUP1 PUSH1 0x1F LT PUSH2 0xDEE JUMPI PUSH2 0x100 DUP1 DUP4 SLOAD DIV MUL DUP4 MSTORE SWAP2 PUSH1 0x20 ADD SWAP2 PUSH2 0xE17 JUMP JUMPDEST DUP3 ADD SWAP2 SWAP1 PUSH0 MSTORE PUSH1 0x20 PUSH0 KECCAK256 SWAP1 JUMPDEST DUP2 SLOAD DUP2 MSTORE SWAP1 PUSH1 0x1 ADD SWAP1 PUSH1 0x20 ADD DUP1 DUP4 GT PUSH2 0xDFA JUMPI DUP3 SWAP1 SUB PUSH1 0x1F AND DUP3 ADD SWAP2 JUMPDEST POP POP POP POP POP SWAP1 DUP1 PUSH1 0x6 ADD SLOAD SWAP1 DUP1 PUSH1 0x7 ADD SLOAD SWAP1 DUP1 PUSH1 0x8 ADD PUSH0 SWAP1 SLOAD SWAP1 PUSH2 0x100 EXP SWAP1 DIV PUSH20 0xFFFFFFFFFFFFFFFFFFFFFFFFFFFFFFFFFFFFFFFF AND SWAP1 DUP1 PUSH1 0x9 ADD SLOAD SWAP1 DUP1 PUSH1 0xA ADD PUSH0 SWAP1 SLOAD SWAP1 PUSH2 0x100 EXP SWAP1 DIV PUSH1 0xFF AND SWAP1 POP DUP12 JUMP JUMPDEST PUSH0 PUSH1 0x3 PUSH0 DUP4 DUP2 MSTORE PUSH1 0x20 ADD SWAP1 DUP2 MSTORE PUSH1 0x20 ADD PUSH0 KECCAK256 SWAP1 POP DUP1 PUSH1 0x9 ADD SLOAD TIMESTAMP LT PUSH2 0xEC4 JUMPI PUSH1 0x40 MLOAD PUSH32 0x8C379A000000000000000000000000000000000000000000000000000000000 DUP2 MSTORE PUSH1 0x4 ADD PUSH2 0xEBB SWAP1 PUSH2 0x2685 JUMP JUMPDEST PUSH1 0x40 MLOAD DUP1 SWAP2 SUB SWAP1 REVERT JUMPDEST DUP1 PUSH1 0x6 ADD SLOAD CALLVALUE LT ISZERO PUSH2 0xF0B JUMPI PUSH1 0x40 MLOAD PUSH32 0x8C379A000000000000000000000000000000000000000000000000000000000 DUP2 MSTORE PUSH1 0x4 ADD PUSH2 0xF02 SWAP1 PUSH2 0x277B JUMP JUMPDEST PUSH1 0x40 MLOAD DUP1 SWAP2 SUB SWAP1 REVERT JUMPDEST PUSH0 PUSH20 0xFFFFFFFFFFFFFFFFFFFFFFFFFFFFFFFFFFFFFFFF AND DUP2 PUSH1 0x8 ADD PUSH0 SWAP1 SLOAD SWAP1 PUSH2 0x100 EXP SWAP1 DIV PUSH20 0xFFFFFFFFFFFFFFFFFFFFFFFFFFFFFFFFFFFFFFFF AND PUSH20 0xFFFFFFFFFFFFFFFFFFFFFFFFFFFFFFFFFFFFFFFF AND EQ PUSH2 0xFCD JUMPI DUP1 PUSH1 0x8 ADD PUSH0 SWAP1 SLOAD SWAP1 PUSH2 0x100 EXP SWAP1 DIV PUSH20 0xFFFFFFFFFFFFFFFFFFFFFFFFFFFFFFFFFFFFFFFF AND PUSH20 0xFFFFFFFFFFFFFFFFFFFFFFFFFFFFFFFFFFFFFFFF AND PUSH2 0x8FC DUP3 PUSH1 0x7 ADD SLOAD SWAP1 DUP2 ISZERO MUL SWAP1 PUSH1 0x40 MLOAD PUSH0 PUSH1 0x40 MLOAD DUP1 DUP4 SUB DUP2 DUP6 DUP9 DUP9 CALL SWAP4 POP POP POP POP ISZERO DUP1 ISZERO PUSH2 0xFCB JUMPI RETURNDATASIZE PUSH0 DUP1 RETURNDATACOPY RETURNDATASIZE PUSH0 REVERT JUMPDEST POP JUMPDEST CALLVALUE DUP2 PUSH1 0x7 ADD DUP2 SWAP1 SSTORE POP CALLER DUP2 PUSH1 0x8 ADD PUSH0 PUSH2 0x100 EXP DUP2 SLOAD DUP2 PUSH20 0xFFFFFFFFFFFFFFFFFFFFFFFFFFFFFFFFFFFFFFFF MUL NOT AND SWAP1 DUP4 PUSH20 0xFFFFFFFFFFFFFFFFFFFFFFFFFFFFFFFFFFFFFFFF AND MUL OR SWAP1 SSTORE POP CALLER PUSH20 0xFFFFFFFFFFFFFFFFFFFFFFFFFFFFFFFFFFFFFFFF AND DUP3 PUSH32 0x558A0D5D5468D74B0DB24C74EB348B42271C2EBB4C9E953CED38AAED95FA4361 CALLVALUE PUSH1 0x40 MLOAD PUSH2 0x105F SWAP2 SWAP1 PUSH2 0x1BE5 JUMP JUMPDEST PUSH1 0x40 MLOAD DUP1 SWAP2 SUB SWAP1 LOG3 POP POP JUMP JUMPDEST PUSH0 PUSH1 0x3 PUSH0 DUP8 DUP2 MSTORE PUSH1 0x20 ADD SWAP1 DUP2 MSTORE PUSH1 0x20 ADD PUSH0 KECCAK256 SWAP1 POP DUP1 PUSH1 0x1 ADD PUSH0 SWAP1 SLOAD SWAP1 PUSH2 0x100 EXP SWAP1 DIV PUSH20 0xFFFFFFFFFFFFFFFFFFFFFFFFFFFFFFFFFFFFFFFF AND PUSH20 0xFFFFFFFFFFFFFFFFFFFFFFFFFFFFFFFFFFFFFFFF AND CALLER PUSH20 0xFFFFFFFFFFFFFFFFFFFFFFFFFFFFFFFFFFFFFFFF AND EQ PUSH2 0x1110 JUMPI PUSH1 0x40 MLOAD PUSH32 0x8C379A000000000000000000000000000000000000000000000000000000000 DUP2 MSTORE PUSH1 0x4 ADD PUSH2 0x1107 SWAP1 PUSH2 0x2809 JUMP JUMPDEST PUSH1 0x40 MLOAD DUP1 SWAP2 SUB SWAP1 REVERT JUMPDEST DUP5 DUP2 PUSH1 0x2 ADD SWAP1 DUP2 PUSH2 0x1121 SWAP2 SWAP1 PUSH2 0x2474 JUMP JUMPDEST POP DUP4 DUP2 PUSH1 0x3 ADD SWAP1 DUP2 PUSH2 0x1133 SWAP2 SWAP1 PUSH2 0x2474 JUMP JUMPDEST POP DUP3 DUP2 PUSH1 0x4 ADD SWAP1 DUP2 PUSH2 0x1145 SWAP2 SWAP1 PUSH2 0x2474 JUMP JUMPDEST POP DUP2 DUP2 PUSH1 0x5 ADD SWAP1 DUP2 PUSH2 0x1157 SWAP2 SWAP1 PUSH2 0x2474 JUMP JUMPDEST POP DUP6 PUSH32 0xD1B00F33712BF6C5D2A3D7A2F14C309E2D6AE750407CF802872C40A8DA54C5A9 PUSH1 0x40 MLOAD PUSH1 0x40 MLOAD DUP1 SWAP2 SUB SWAP1 LOG2 POP POP POP POP POP POP JUMP JUMPDEST PUSH1 0x4 DUP2 DUP2 SLOAD DUP2 LT PUSH2 0x119C JUMPI PUSH0 DUP1 REVERT JUMPDEST SWAP1 PUSH0 MSTORE PUSH1 0x20 PUSH0 KECCAK256 ADD PUSH0 SWAP2 POP SWAP1 POP SLOAD DUP2 JUMP JUMPDEST PUSH1 0x60 PUSH0 PUSH1 0x4 DUP1 SLOAD SWAP1 POP PUSH8 0xFFFFFFFFFFFFFFFF DUP2 GT ISZERO PUSH2 0x11CF JUMPI PUSH2 0x11CE PUSH2 0x1936 JUMP JUMPDEST JUMPDEST PUSH1 0x40 MLOAD SWAP1 DUP1 DUP3 MSTORE DUP1 PUSH1 0x20 MUL PUSH1 0x20 ADD DUP3 ADD PUSH1 0x40 MSTORE DUP1 ISZERO PUSH2 0x1208 JUMPI DUP2 PUSH1 0x20 ADD JUMPDEST PUSH2 0x11F5 PUSH2 0x188C JUMP JUMPDEST DUP2 MSTORE PUSH1 0x20 ADD SWAP1 PUSH1 0x1 SWAP1 SUB SWAP1 DUP2 PUSH2 0x11ED JUMPI SWAP1 POP JUMPDEST POP SWAP1 POP PUSH0 JUMPDEST PUSH1 0x4 DUP1 SLOAD SWAP1 POP DUP2 LT ISZERO PUSH2 0x15AF JUMPI PUSH1 0x3 PUSH0 PUSH1 0x4 DUP4 DUP2 SLOAD DUP2 LT PUSH2 0x1231 JUMPI PUSH2 0x1230 PUSH2 0x2827 JUMP JUMPDEST JUMPDEST SWAP1 PUSH0 MSTORE PUSH1 0x20 PUSH0 KECCAK256 ADD SLOAD DUP2 MSTORE PUSH1 0x20 ADD SWAP1 DUP2 MSTORE PUSH1 0x20 ADD PUSH0 KECCAK256 PUSH1 0x40 MLOAD DUP1 PUSH2 0x160 ADD PUSH1 0x40 MSTORE SWAP1 DUP2 PUSH0 DUP3 ADD SLOAD DUP2 MSTORE PUSH1 0x20 ADD PUSH1 0x1 DUP3 ADD PUSH0 SWAP1 SLOAD SWAP1 PUSH2 0x100 EXP SWAP1 DIV PUSH20 0xFFFFFFFFFFFFFFFFFFFFFFFFFFFFFFFFFFFFFFFF AND PUSH20 0xFFFFFFFFFFFFFFFFFFFFFFFFFFFFFFFFFFFFFFFF AND PUSH20 0xFFFFFFFFFFFFFFFFFFFFFFFFFFFFFFFFFFFFFFFF AND DUP2 MSTORE PUSH1 0x20 ADD PUSH1 0x2 DUP3 ADD DUP1 SLOAD PUSH2 0x12C1 SWAP1 PUSH2 0x22A7 JUMP JUMPDEST DUP1 PUSH1 0x1F ADD PUSH1 0x20 DUP1 SWAP2 DIV MUL PUSH1 0x20 ADD PUSH1 0x40 MLOAD SWAP1 DUP2 ADD PUSH1 0x40 MSTORE DUP1 SWAP3 SWAP2 SWAP1 DUP2 DUP2 MSTORE PUSH1 0x20 ADD DUP3 DUP1 SLOAD PUSH2 0x12ED SWAP1 PUSH2 0x22A7 JUMP JUMPDEST DUP1 ISZERO PUSH2 0x1338 JUMPI DUP1 PUSH1 0x1F LT PUSH2 0x130F JUMPI PUSH2 0x100 DUP1 DUP4 SLOAD DIV MUL DUP4 MSTORE SWAP2 PUSH1 0x20 ADD SWAP2 PUSH2 0x1338 JUMP JUMPDEST DUP3 ADD SWAP2 SWAP1 PUSH0 MSTORE PUSH1 0x20 PUSH0 KECCAK256 SWAP1 JUMPDEST DUP2 SLOAD DUP2 MSTORE SWAP1 PUSH1 0x1 ADD SWAP1 PUSH1 0x20 ADD DUP1 DUP4 GT PUSH2 0x131B JUMPI DUP3 SWAP1 SUB PUSH1 0x1F AND DUP3 ADD SWAP2 JUMPDEST POP POP POP POP POP DUP2 MSTORE PUSH1 0x20 ADD PUSH1 0x3 DUP3 ADD DUP1 SLOAD PUSH2 0x1351 SWAP1 PUSH2 0x22A7 JUMP JUMPDEST DUP1 PUSH1 0x1F ADD PUSH1 0x20 DUP1 SWAP2 DIV MUL PUSH1 0x20 ADD PUSH1 0x40 MLOAD SWAP1 DUP2 ADD PUSH1 0x40 MSTORE DUP1 SWAP3 SWAP2 SWAP1 DUP2 DUP2 MSTORE PUSH1 0x20 ADD DUP3 DUP1 SLOAD PUSH2 0x137D SWAP1 PUSH2 0x22A7 JUMP JUMPDEST DUP1 ISZERO PUSH2 0x13C8 JUMPI DUP1 PUSH1 0x1F LT PUSH2 0x139F JUMPI PUSH2 0x100 DUP1 DUP4 SLOAD DIV MUL DUP4 MSTORE SWAP2 PUSH1 0x20 ADD SWAP2 PUSH2 0x13C8 JUMP JUMPDEST DUP3 ADD SWAP2 SWAP1 PUSH0 MSTORE PUSH1 0x20 PUSH0 KECCAK256 SWAP1 JUMPDEST DUP2 SLOAD DUP2 MSTORE SWAP1 PUSH1 0x1 ADD SWAP1 PUSH1 0x20 ADD DUP1 DUP4 GT PUSH2 0x13AB JUMPI DUP3 SWAP1 SUB PUSH1 0x1F AND DUP3 ADD SWAP2 JUMPDEST POP POP POP POP POP DUP2 MSTORE PUSH1 0x20 ADD PUSH1 0x4 DUP3 ADD DUP1 SLOAD PUSH2 0x13E1 SWAP1 PUSH2 0x22A7 JUMP JUMPDEST DUP1 PUSH1 0x1F ADD PUSH1 0x20 DUP1 SWAP2 DIV MUL PUSH1 0x20 ADD PUSH1 0x40 MLOAD SWAP1 DUP2 ADD PUSH1 0x40 MSTORE DUP1 SWAP3 SWAP2 SWAP1 DUP2 DUP2 MSTORE PUSH1 0x20 ADD DUP3 DUP1 SLOAD PUSH2 0x140D SWAP1 PUSH2 0x22A7 JUMP JUMPDEST DUP1 ISZERO PUSH2 0x1458 JUMPI DUP1 PUSH1 0x1F LT PUSH2 0x142F JUMPI PUSH2 0x100 DUP1 DUP4 SLOAD DIV MUL DUP4 MSTORE SWAP2 PUSH1 0x20 ADD SWAP2 PUSH2 0x1458 JUMP JUMPDEST DUP3 ADD SWAP2 SWAP1 PUSH0 MSTORE PUSH1 0x20 PUSH0 KECCAK256 SWAP1 JUMPDEST DUP2 SLOAD DUP2 MSTORE SWAP1 PUSH1 0x1 ADD SWAP1 PUSH1 0x20 ADD DUP1 DUP4 GT PUSH2 0x143B JUMPI DUP3 SWAP1 SUB PUSH1 0x1F AND DUP3 ADD SWAP2 JUMPDEST POP POP POP POP POP DUP2 MSTORE PUSH1 0x20 ADD PUSH1 0x5 DUP3 ADD DUP1 SLOAD PUSH2 0x1471 SWAP1 PUSH2 0x22A7 JUMP JUMPDEST DUP1 PUSH1 0x1F ADD PUSH1 0x20 DUP1 SWAP2 DIV MUL PUSH1 0x20 ADD PUSH1 0x40 MLOAD SWAP1 DUP2 ADD PUSH1 0x40 MSTORE DUP1 SWAP3 SWAP2 SWAP1 DUP2 DUP2 MSTORE PUSH1 0x20 ADD DUP3 DUP1 SLOAD PUSH2 0x149D SWAP1 PUSH2 0x22A7 JUMP JUMPDEST DUP1 ISZERO PUSH2 0x14E8 JUMPI DUP1 PUSH1 0x1F LT PUSH2 0x14BF JUMPI PUSH2 0x100 DUP1 DUP4 SLOAD DIV MUL DUP4 MSTORE SWAP2 PUSH1 0x20 ADD SWAP2 PUSH2 0x14E8 JUMP JUMPDEST DUP3 ADD SWAP2 SWAP1 PUSH0 MSTORE PUSH1 0x20 PUSH0 KECCAK256 SWAP1 JUMPDEST DUP2 SLOAD DUP2 MSTORE SWAP1 PUSH1 0x1 ADD SWAP1 PUSH1 0x20 ADD DUP1 DUP4 GT PUSH2 0x14CB JUMPI DUP3 SWAP1 SUB PUSH1 0x1F AND DUP3 ADD SWAP2 JUMPDEST POP POP POP POP POP DUP2 MSTORE PUSH1 0x20 ADD PUSH1 0x6 DUP3 ADD SLOAD DUP2 MSTORE PUSH1 0x20 ADD PUSH1 0x7 DUP3 ADD SLOAD DUP2 MSTORE PUSH1 0x20 ADD PUSH1 0x8 DUP3 ADD PUSH0 SWAP1 SLOAD SWAP1 PUSH2 0x100 EXP SWAP1 DIV PUSH20 0xFFFFFFFFFFFFFFFFFFFFFFFFFFFFFFFFFFFFFFFF AND PUSH20 0xFFFFFFFFFFFFFFFFFFFFFFFFFFFFFFFFFFFFFFFF AND PUSH20 0xFFFFFFFFFFFFFFFFFFFFFFFFFFFFFFFFFFFFFFFF AND DUP2 MSTORE PUSH1 0x20 ADD PUSH1 0x9 DUP3 ADD SLOAD DUP2 MSTORE PUSH1 0x20 ADD PUSH1 0xA DUP3 ADD PUSH0 SWAP1 SLOAD SWAP1 PUSH2 0x100 EXP SWAP1 DIV PUSH1 0xFF AND ISZERO ISZERO ISZERO ISZERO DUP2 MSTORE POP POP DUP3 DUP3 DUP2 MLOAD DUP2 LT PUSH2 0x1591 JUMPI PUSH2 0x1590 PUSH2 0x2827 JUMP JUMPDEST JUMPDEST PUSH1 0x20 MUL PUSH1 0x20 ADD ADD DUP2 SWAP1 MSTORE POP DUP1 DUP1 PUSH2 0x15A7 SWAP1 PUSH2 0x2854 JUMP JUMPDEST SWAP2 POP POP PUSH2 0x120D JUMP JUMPDEST POP DUP1 SWAP2 POP POP SWAP1 JUMP JUMPDEST PUSH0 PUSH1 0x3 PUSH0 DUP4 DUP2 MSTORE PUSH1 0x20 ADD SWAP1 DUP2 MSTORE PUSH1 0x20 ADD PUSH0 KECCAK256 SWAP1 POP DUP1 PUSH1 0x1 ADD PUSH0 SWAP1 SLOAD SWAP1 PUSH2 0x100 EXP SWAP1 DIV PUSH20 0xFFFFFFFFFFFFFFFFFFFFFFFFFFFFFFFFFFFFFFFF AND PUSH20 0xFFFFFFFFFFFFFFFFFFFFFFFFFFFFFFFFFFFFFFFF AND CALLER PUSH20 0xFFFFFFFFFFFFFFFFFFFFFFFFFFFFFFFFFFFFFFFF AND EQ PUSH2 0x165C JUMPI PUSH1 0x40 MLOAD PUSH32 0x8C379A000000000000000000000000000000000000000000000000000000000 DUP2 MSTORE PUSH1 0x4 ADD PUSH2 0x1653 SWAP1 PUSH2 0x290B JUMP JUMPDEST PUSH1 0x40 MLOAD DUP1 SWAP2 SUB SWAP1 REVERT JUMPDEST DUP1 PUSH1 0x9 ADD SLOAD TIMESTAMP LT ISZERO PUSH2 0x16A3 JUMPI PUSH1 0x40 MLOAD PUSH32 0x8C379A000000000000000000000000000000000000000000000000000000000 DUP2 MSTORE PUSH1 0x4 ADD PUSH2 0x169A SWAP1 PUSH2 0x2973 JUMP JUMPDEST PUSH1 0x40 MLOAD DUP1 SWAP2 SUB SWAP1 REVERT JUMPDEST DUP1 PUSH1 0xA ADD PUSH0 SWAP1 SLOAD SWAP1 PUSH2 0x100 EXP SWAP1 DIV PUSH1 0xFF AND ISZERO PUSH2 0x16F4 JUMPI PUSH1 0x40 MLOAD PUSH32 0x8C379A000000000000000000000000000000000000000000000000000000000 DUP2 MSTORE PUSH1 0x4 ADD PUSH2 0x16EB SWAP1 PUSH2 0x29DB JUMP JUMPDEST PUSH1 0x40 MLOAD DUP1 SWAP2 SUB SWAP1 REVERT JUMPDEST PUSH1 0x1 DUP2 PUSH1 0xA ADD PUSH0 PUSH2 0x100 EXP DUP2 SLOAD DUP2 PUSH1 0xFF MUL NOT AND SWAP1 DUP4 ISZERO ISZERO MUL OR SWAP1 SSTORE POP DUP1 PUSH1 0x1 ADD PUSH0 SWAP1 SLOAD SWAP1 PUSH2 0x100 EXP SWAP1 DIV PUSH20 0xFFFFFFFFFFFFFFFFFFFFFFFFFFFFFFFFFFFFFFFF AND PUSH20 0xFFFFFFFFFFFFFFFFFFFFFFFFFFFFFFFFFFFFFFFF AND PUSH2 0x8FC DUP3 PUSH1 0x7 ADD SLOAD SWAP1 DUP2 ISZERO MUL SWAP1 PUSH1 0x40 MLOAD PUSH0 PUSH1 0x40 MLOAD DUP1 DUP4 SUB DUP2 DUP6 DUP9 DUP9 CALL SWAP4 POP POP POP POP ISZERO DUP1 ISZERO PUSH2 0x177A JUMPI RETURNDATASIZE PUSH0 DUP1 RETURNDATACOPY RETURNDATASIZE PUSH0 REVERT JUMPDEST POP PUSH2 0x1785 PUSH1 0x1 PUSH2 0x1834 JUMP JUMPDEST PUSH2 0x178F PUSH1 0x2 PUSH2 0x1814 JUMP JUMPDEST DUP2 PUSH32 0xD2AA34A4FDBBC6DFF6A3E56F46E0F3AE2A31D7785FF3487AA5C95C642ACEA501 DUP3 PUSH1 0x8 ADD PUSH0 SWAP1 SLOAD SWAP1 PUSH2 0x100 EXP SWAP1 DIV PUSH20 0xFFFFFFFFFFFFFFFFFFFFFFFFFFFFFFFFFFFFFFFF AND DUP4 PUSH1 0x7 ADD SLOAD PUSH1 0x40 MLOAD PUSH2 0x17E8 SWAP3 SWAP2 SWAP1 PUSH2 0x2A4B JUMP JUMPDEST PUSH1 0x40 MLOAD DUP1 SWAP2 SUB SWAP1 LOG2 POP POP JUMP JUMPDEST PUSH0 PUSH2 0x17FF PUSH1 0x1 PUSH2 0x1828 JUMP JUMPDEST SWAP1 POP SWAP1 JUMP JUMPDEST PUSH0 PUSH2 0x180F PUSH1 0x2 PUSH2 0x1828 JUMP JUMPDEST SWAP1 POP SWAP1 JUMP JUMPDEST PUSH1 0x1 DUP2 PUSH0 ADD PUSH0 DUP3 DUP3 SLOAD ADD SWAP3 POP POP DUP2 SWAP1 SSTORE POP POP JUMP JUMPDEST PUSH0 DUP2 PUSH0 ADD SLOAD SWAP1 POP SWAP2 SWAP1 POP JUMP JUMPDEST PUSH0 DUP2 PUSH0 ADD SLOAD SWAP1 POP PUSH0 DUP2 GT PUSH2 0x187D JUMPI PUSH1 0x40 MLOAD PUSH32 0x8C379A000000000000000000000000000000000000000000000000000000000 DUP2 MSTORE PUSH1 0x4 ADD PUSH2 0x1874 SWAP1 PUSH2 0x2ABC JUMP JUMPDEST PUSH1 0x40 MLOAD DUP1 SWAP2 SUB SWAP1 REVERT JUMPDEST PUSH1 0x1 DUP2 SUB DUP3 PUSH0 ADD DUP2 SWAP1 SSTORE POP POP POP JUMP JUMPDEST PUSH1 0x40 MLOAD DUP1 PUSH2 0x160 ADD PUSH1 0x40 MSTORE DUP1 PUSH0 DUP2 MSTORE PUSH1 0x20 ADD PUSH0 PUSH20 0xFFFFFFFFFFFFFFFFFFFFFFFFFFFFFFFFFFFFFFFF AND DUP2 MSTORE PUSH1 0x20 ADD PUSH1 0x60 DUP2 MSTORE PUSH1 0x20 ADD PUSH1 0x60 DUP2 MSTORE PUSH1 0x20 ADD PUSH1 0x60 DUP2 MSTORE PUSH1 0x20 ADD PUSH1 0x60 DUP2 MSTORE PUSH1 0x20 ADD PUSH0 DUP2 MSTORE PUSH1 0x20 ADD PUSH0 DUP2 MSTORE PUSH1 0x20 ADD PUSH0 PUSH20 0xFFFFFFFFFFFFFFFFFFFFFFFFFFFFFFFFFFFFFFFF AND DUP2 MSTORE PUSH1 0x20 ADD PUSH0 DUP2 MSTORE PUSH1 0x20 ADD PUSH0 ISZERO ISZERO DUP2 MSTORE POP SWAP1 JUMP JUMPDEST PUSH0 PUSH1 0x40 MLOAD SWAP1 POP SWAP1 JUMP JUMPDEST PUSH0 DUP1 REVERT JUMPDEST PUSH0 DUP1 REVERT JUMPDEST PUSH0 DUP1 REVERT JUMPDEST PUSH0 DUP1 REVERT JUMPDEST PUSH0 PUSH1 0x1F NOT PUSH1 0x1F DUP4 ADD AND SWAP1 POP SWAP2 SWAP1 POP JUMP JUMPDEST PUSH32 0x4E487B7100000000000000000000000000000000000000000000000000000000 PUSH0 MSTORE PUSH1 0x41 PUSH1 0x4 MSTORE PUSH1 0x24 PUSH0 REVERT JUMPDEST PUSH2 0x196C DUP3 PUSH2 0x1926 JUMP JUMPDEST DUP2 ADD DUP2 DUP2 LT PUSH8 0xFFFFFFFFFFFFFFFF DUP3 GT OR ISZERO PUSH2 0x198B JUMPI PUSH2 0x198A PUSH2 0x1936 JUMP JUMPDEST JUMPDEST DUP1 PUSH1 0x40 MSTORE POP POP POP JUMP JUMPDEST PUSH0 PUSH2 0x199D PUSH2 0x190D JUMP JUMPDEST SWAP1 POP PUSH2 0x19A9 DUP3 DUP3 PUSH2 0x1963 JUMP JUMPDEST SWAP2 SWAP1 POP JUMP JUMPDEST PUSH0 PUSH8 0xFFFFFFFFFFFFFFFF DUP3 GT ISZERO PUSH2 0x19C8 JUMPI PUSH2 0x19C7 PUSH2 0x1936 JUMP JUMPDEST JUMPDEST PUSH2 0x19D1 DUP3 PUSH2 0x1926 JUMP JUMPDEST SWAP1 POP PUSH1 0x20 DUP2 ADD SWAP1 POP SWAP2 SWAP1 POP JUMP JUMPDEST DUP3 DUP2 DUP4 CALLDATACOPY PUSH0 DUP4 DUP4 ADD MSTORE POP POP POP JUMP JUMPDEST PUSH0 PUSH2 0x19FE PUSH2 0x19F9 DUP5 PUSH2 0x19AE JUMP JUMPDEST PUSH2 0x1994 JUMP JUMPDEST SWAP1 POP DUP3 DUP2 MSTORE PUSH1 0x20 DUP2 ADD DUP5 DUP5 DUP5 ADD GT ISZERO PUSH2 0x1A1A JUMPI PUSH2 0x1A19 PUSH2 0x1922 JUMP JUMPDEST JUMPDEST PUSH2 0x1A25 DUP5 DUP3 DUP6 PUSH2 0x19DE JUMP JUMPDEST POP SWAP4 SWAP3 POP POP POP JUMP JUMPDEST PUSH0 DUP3 PUSH1 0x1F DUP4 ADD SLT PUSH2 0x1A41 JUMPI PUSH2 0x1A40 PUSH2 0x191E JUMP JUMPDEST JUMPDEST DUP2 CALLDATALOAD PUSH2 0x1A51 DUP5 DUP3 PUSH1 0x20 DUP7 ADD PUSH2 0x19EC JUMP JUMPDEST SWAP2 POP POP SWAP3 SWAP2 POP POP JUMP JUMPDEST PUSH0 DUP2 SWAP1 POP SWAP2 SWAP1 POP JUMP JUMPDEST PUSH2 0x1A6C DUP2 PUSH2 0x1A5A JUMP JUMPDEST DUP2 EQ PUSH2 0x1A76 JUMPI PUSH0 DUP1 REVERT JUMPDEST POP JUMP JUMPDEST PUSH0 DUP2 CALLDATALOAD SWAP1 POP PUSH2 0x1A87 DUP2 PUSH2 0x1A63 JUMP JUMPDEST SWAP3 SWAP2 POP POP JUMP JUMPDEST PUSH0 DUP1 PUSH0 DUP1 PUSH0 DUP1 PUSH1 0xC0 DUP8 DUP10 SUB SLT ISZERO PUSH2 0x1AA7 JUMPI PUSH2 0x1AA6 PUSH2 0x1916 JUMP JUMPDEST JUMPDEST PUSH0 DUP8 ADD CALLDATALOAD PUSH8 0xFFFFFFFFFFFFFFFF DUP2 GT ISZERO PUSH2 0x1AC4 JUMPI PUSH2 0x1AC3 PUSH2 0x191A JUMP JUMPDEST JUMPDEST PUSH2 0x1AD0 DUP10 DUP3 DUP11 ADD PUSH2 0x1A2D JUMP JUMPDEST SWAP7 POP POP PUSH1 0x20 DUP8 ADD CALLDATALOAD PUSH8 0xFFFFFFFFFFFFFFFF DUP2 GT ISZERO PUSH2 0x1AF1 JUMPI PUSH2 0x1AF0 PUSH2 0x191A JUMP JUMPDEST JUMPDEST PUSH2 0x1AFD DUP10 DUP3 DUP11 ADD PUSH2 0x1A2D JUMP JUMPDEST SWAP6 POP POP PUSH1 0x40 DUP8 ADD CALLDATALOAD PUSH8 0xFFFFFFFFFFFFFFFF DUP2 GT ISZERO PUSH2 0x1B1E JUMPI PUSH2 0x1B1D PUSH2 0x191A JUMP JUMPDEST JUMPDEST PUSH2 0x1B2A DUP10 DUP3 DUP11 ADD PUSH2 0x1A2D JUMP JUMPDEST SWAP5 POP POP PUSH1 0x60 DUP8 ADD CALLDATALOAD PUSH8 0xFFFFFFFFFFFFFFFF DUP2 GT ISZERO PUSH2 0x1B4B JUMPI PUSH2 0x1B4A PUSH2 0x191A JUMP JUMPDEST JUMPDEST PUSH2 0x1B57 DUP10 DUP3 DUP11 ADD PUSH2 0x1A2D JUMP JUMPDEST SWAP4 POP POP PUSH1 0x80 PUSH2 0x1B68 DUP10 DUP3 DUP11 ADD PUSH2 0x1A79 JUMP JUMPDEST SWAP3 POP POP PUSH1 0xA0 PUSH2 0x1B79 DUP10 DUP3 DUP11 ADD PUSH2 0x1A79 JUMP JUMPDEST SWAP2 POP POP SWAP3 SWAP6 POP SWAP3 SWAP6 POP SWAP3 SWAP6 JUMP JUMPDEST PUSH0 DUP1 PUSH0 PUSH1 0x60 DUP5 DUP7 SUB SLT ISZERO PUSH2 0x1B9D JUMPI PUSH2 0x1B9C PUSH2 0x1916 JUMP JUMPDEST JUMPDEST PUSH0 PUSH2 0x1BAA DUP7 DUP3 DUP8 ADD PUSH2 0x1A79 JUMP JUMPDEST SWAP4 POP POP PUSH1 0x20 PUSH2 0x1BBB DUP7 DUP3 DUP8 ADD PUSH2 0x1A79 JUMP JUMPDEST SWAP3 POP POP PUSH1 0x40 PUSH2 0x1BCC DUP7 DUP3 DUP8 ADD PUSH2 0x1A79 JUMP JUMPDEST SWAP2 POP POP SWAP3 POP SWAP3 POP SWAP3 JUMP JUMPDEST PUSH2 0x1BDF DUP2 PUSH2 0x1A5A JUMP JUMPDEST DUP3 MSTORE POP POP JUMP JUMPDEST PUSH0 PUSH1 0x20 DUP3 ADD SWAP1 POP PUSH2 0x1BF8 PUSH0 DUP4 ADD DUP5 PUSH2 0x1BD6 JUMP JUMPDEST SWAP3 SWAP2 POP POP JUMP JUMPDEST PUSH0 PUSH1 0x20 DUP3 DUP5 SUB SLT ISZERO PUSH2 0x1C13 JUMPI PUSH2 0x1C12 PUSH2 0x1916 JUMP JUMPDEST JUMPDEST PUSH0 PUSH2 0x1C20 DUP5 DUP3 DUP6 ADD PUSH2 0x1A79 JUMP JUMPDEST SWAP2 POP POP SWAP3 SWAP2 POP POP JUMP JUMPDEST PUSH2 0x1C32 DUP2 PUSH2 0x1A5A JUMP JUMPDEST DUP3 MSTORE POP POP JUMP JUMPDEST PUSH0 PUSH20 0xFFFFFFFFFFFFFFFFFFFFFFFFFFFFFFFFFFFFFFFF DUP3 AND SWAP1 POP SWAP2 SWAP1 POP JUMP JUMPDEST PUSH0 PUSH2 0x1C61 DUP3 PUSH2 0x1C38 JUMP JUMPDEST SWAP1 POP SWAP2 SWAP1 POP JUMP JUMPDEST PUSH2 0x1C71 DUP2 PUSH2 0x1C57 JUMP JUMPDEST DUP3 MSTORE POP POP JUMP JUMPDEST PUSH0 DUP2 MLOAD SWAP1 POP SWAP2 SWAP1 POP JUMP JUMPDEST PUSH0 DUP3 DUP3 MSTORE PUSH1 0x20 DUP3 ADD SWAP1 POP SWAP3 SWAP2 POP POP JUMP JUMPDEST PUSH0 JUMPDEST DUP4 DUP2 LT ISZERO PUSH2 0x1CAE JUMPI DUP1 DUP3 ADD MLOAD DUP2 DUP5 ADD MSTORE PUSH1 0x20 DUP2 ADD SWAP1 POP PUSH2 0x1C93 JUMP JUMPDEST PUSH0 DUP5 DUP5 ADD MSTORE POP POP POP POP JUMP JUMPDEST PUSH0 PUSH2 0x1CC3 DUP3 PUSH2 0x1C77 JUMP JUMPDEST PUSH2 0x1CCD DUP2 DUP6 PUSH2 0x1C81 JUMP JUMPDEST SWAP4 POP PUSH2 0x1CDD DUP2 DUP6 PUSH1 0x20 DUP7 ADD PUSH2 0x1C91 JUMP JUMPDEST PUSH2 0x1CE6 DUP2 PUSH2 0x1926 JUMP JUMPDEST DUP5 ADD SWAP2 POP POP SWAP3 SWAP2 POP POP JUMP JUMPDEST PUSH0 DUP2 ISZERO ISZERO SWAP1 POP SWAP2 SWAP1 POP JUMP JUMPDEST PUSH2 0x1D05 DUP2 PUSH2 0x1CF1 JUMP JUMPDEST DUP3 MSTORE POP POP JUMP JUMPDEST PUSH0 PUSH2 0x160 DUP4 ADD PUSH0 DUP4 ADD MLOAD PUSH2 0x1D21 PUSH0 DUP7 ADD DUP3 PUSH2 0x1C29 JUMP JUMPDEST POP PUSH1 0x20 DUP4 ADD MLOAD PUSH2 0x1D34 PUSH1 0x20 DUP7 ADD DUP3 PUSH2 0x1C68 JUMP JUMPDEST POP PUSH1 0x40 DUP4 ADD MLOAD DUP5 DUP3 SUB PUSH1 0x40 DUP7 ADD MSTORE PUSH2 0x1D4C DUP3 DUP3 PUSH2 0x1CB9 JUMP JUMPDEST SWAP2 POP POP PUSH1 0x60 DUP4 ADD MLOAD DUP5 DUP3 SUB PUSH1 0x60 DUP7 ADD MSTORE PUSH2 0x1D66 DUP3 DUP3 PUSH2 0x1CB9 JUMP JUMPDEST SWAP2 POP POP PUSH1 0x80 DUP4 ADD MLOAD DUP5 DUP3 SUB PUSH1 0x80 DUP7 ADD MSTORE PUSH2 0x1D80 DUP3 DUP3 PUSH2 0x1CB9 JUMP JUMPDEST SWAP2 POP POP PUSH1 0xA0 DUP4 ADD MLOAD DUP5 DUP3 SUB PUSH1 0xA0 DUP7 ADD MSTORE PUSH2 0x1D9A DUP3 DUP3 PUSH2 0x1CB9 JUMP JUMPDEST SWAP2 POP POP PUSH1 0xC0 DUP4 ADD MLOAD PUSH2 0x1DAF PUSH1 0xC0 DUP7 ADD DUP3 PUSH2 0x1C29 JUMP JUMPDEST POP PUSH1 0xE0 DUP4 ADD MLOAD PUSH2 0x1DC2 PUSH1 0xE0 DUP7 ADD DUP3 PUSH2 0x1C29 JUMP JUMPDEST POP PUSH2 0x100 DUP4 ADD MLOAD PUSH2 0x1DD7 PUSH2 0x100 DUP7 ADD DUP3 PUSH2 0x1C68 JUMP JUMPDEST POP PUSH2 0x120 DUP4 ADD MLOAD PUSH2 0x1DEC PUSH2 0x120 DUP7 ADD DUP3 PUSH2 0x1C29 JUMP JUMPDEST POP PUSH2 0x140 DUP4 ADD MLOAD PUSH2 0x1E01 PUSH2 0x140 DUP7 ADD DUP3 PUSH2 0x1CFC JUMP JUMPDEST POP DUP1 SWAP2 POP POP SWAP3 SWAP2 POP POP JUMP JUMPDEST PUSH0 PUSH1 0x20 DUP3 ADD SWAP1 POP DUP2 DUP2 SUB PUSH0 DUP4 ADD MSTORE PUSH2 0x1E24 DUP2 DUP5 PUSH2 0x1D0B JUMP JUMPDEST SWAP1 POP SWAP3 SWAP2 POP POP JUMP JUMPDEST PUSH2 0x1E35 DUP2 PUSH2 0x1C57 JUMP JUMPDEST DUP3 MSTORE POP POP JUMP JUMPDEST PUSH0 DUP3 DUP3 MSTORE PUSH1 0x20 DUP3 ADD SWAP1 POP SWAP3 SWAP2 POP POP JUMP JUMPDEST PUSH0 PUSH2 0x1E55 DUP3 PUSH2 0x1C77 JUMP JUMPDEST PUSH2 0x1E5F DUP2 DUP6 PUSH2 0x1E3B JUMP JUMPDEST SWAP4 POP PUSH2 0x1E6F DUP2 DUP6 PUSH1 0x20 DUP7 ADD PUSH2 0x1C91 JUMP JUMPDEST PUSH2 0x1E78 DUP2 PUSH2 0x1926 JUMP JUMPDEST DUP5 ADD SWAP2 POP POP SWAP3 SWAP2 POP POP JUMP JUMPDEST PUSH2 0x1E8C DUP2 PUSH2 0x1CF1 JUMP JUMPDEST DUP3 MSTORE POP POP JUMP JUMPDEST PUSH0 PUSH2 0x160 DUP3 ADD SWAP1 POP PUSH2 0x1EA6 PUSH0 DUP4 ADD DUP15 PUSH2 0x1BD6 JUMP JUMPDEST PUSH2 0x1EB3 PUSH1 0x20 DUP4 ADD DUP14 PUSH2 0x1E2C JUMP JUMPDEST DUP2 DUP2 SUB PUSH1 0x40 DUP4 ADD MSTORE PUSH2 0x1EC5 DUP2 DUP13 PUSH2 0x1E4B JUMP JUMPDEST SWAP1 POP DUP2 DUP2 SUB PUSH1 0x60 DUP4 ADD MSTORE PUSH2 0x1ED9 DUP2 DUP12 PUSH2 0x1E4B JUMP JUMPDEST SWAP1 POP DUP2 DUP2 SUB PUSH1 0x80 DUP4 ADD MSTORE PUSH2 0x1EED DUP2 DUP11 PUSH2 0x1E4B JUMP JUMPDEST SWAP1 POP DUP2 DUP2 SUB PUSH1 0xA0 DUP4 ADD MSTORE PUSH2 0x1F01 DUP2 DUP10 PUSH2 0x1E4B JUMP JUMPDEST SWAP1 POP PUSH2 0x1F10 PUSH1 0xC0 DUP4 ADD DUP9 PUSH2 0x1BD6 JUMP JUMPDEST PUSH2 0x1F1D PUSH1 0xE0 DUP4 ADD DUP8 PUSH2 0x1BD6 JUMP JUMPDEST PUSH2 0x1F2B PUSH2 0x100 DUP4 ADD DUP7 PUSH2 0x1E2C JUMP JUMPDEST PUSH2 0x1F39 PUSH2 0x120 DUP4 ADD DUP6 PUSH2 0x1BD6 JUMP JUMPDEST PUSH2 0x1F47 PUSH2 0x140 DUP4 ADD DUP5 PUSH2 0x1E83 JUMP JUMPDEST SWAP13 SWAP12 POP POP POP POP POP POP POP POP POP POP POP POP JUMP JUMPDEST PUSH0 DUP1 PUSH0 DUP1 PUSH0 PUSH1 0xA0 DUP7 DUP9 SUB SLT ISZERO PUSH2 0x1F70 JUMPI PUSH2 0x1F6F PUSH2 0x1916 JUMP JUMPDEST JUMPDEST PUSH0 PUSH2 0x1F7D DUP9 DUP3 DUP10 ADD PUSH2 0x1A79 JUMP JUMPDEST SWAP6 POP POP PUSH1 0x20 DUP7 ADD CALLDATALOAD PUSH8 0xFFFFFFFFFFFFFFFF DUP2 GT ISZERO PUSH2 0x1F9E JUMPI PUSH2 0x1F9D PUSH2 0x191A JUMP JUMPDEST JUMPDEST PUSH2 0x1FAA DUP9 DUP3 DUP10 ADD PUSH2 0x1A2D JUMP JUMPDEST SWAP5 POP POP PUSH1 0x40 DUP7 ADD CALLDATALOAD PUSH8 0xFFFFFFFFFFFFFFFF DUP2 GT ISZERO PUSH2 0x1FCB JUMPI PUSH2 0x1FCA PUSH2 0x191A JUMP JUMPDEST JUMPDEST PUSH2 0x1FD7 DUP9 DUP3 DUP10 ADD PUSH2 0x1A2D JUMP JUMPDEST SWAP4 POP POP PUSH1 0x60 DUP7 ADD CALLDATALOAD PUSH8 0xFFFFFFFFFFFFFFFF DUP2 GT ISZERO PUSH2 0x1FF8 JUMPI PUSH2 0x1FF7 PUSH2 0x191A JUMP JUMPDEST JUMPDEST PUSH2 0x2004 DUP9 DUP3 DUP10 ADD PUSH2 0x1A2D JUMP JUMPDEST SWAP3 POP POP PUSH1 0x80 DUP7 ADD CALLDATALOAD PUSH8 0xFFFFFFFFFFFFFFFF DUP2 GT ISZERO PUSH2 0x2025 JUMPI PUSH2 0x2024 PUSH2 0x191A JUMP JUMPDEST JUMPDEST PUSH2 0x2031 DUP9 DUP3 DUP10 ADD PUSH2 0x1A2D JUMP JUMPDEST SWAP2 POP POP SWAP3 SWAP6 POP SWAP3 SWAP6 SWAP1 SWAP4 POP JUMP JUMPDEST PUSH0 DUP2 MLOAD SWAP1 POP SWAP2 SWAP1 POP JUMP JUMPDEST PUSH0 DUP3 DUP3 MSTORE PUSH1 0x20 DUP3 ADD SWAP1 POP SWAP3 SWAP2 POP POP JUMP JUMPDEST PUSH0 DUP2 SWAP1 POP PUSH1 0x20 DUP3 ADD SWAP1 POP SWAP2 SWAP1 POP JUMP JUMPDEST PUSH0 PUSH2 0x160 DUP4 ADD PUSH0 DUP4 ADD MLOAD PUSH2 0x207D PUSH0 DUP7 ADD DUP3 PUSH2 0x1C29 JUMP JUMPDEST POP PUSH1 0x20 DUP4 ADD MLOAD PUSH2 0x2090 PUSH1 0x20 DUP7 ADD DUP3 PUSH2 0x1C68 JUMP JUMPDEST POP PUSH1 0x40 DUP4 ADD MLOAD DUP5 DUP3 SUB PUSH1 0x40 DUP7 ADD MSTORE PUSH2 0x20A8 DUP3 DUP3 PUSH2 0x1CB9 JUMP JUMPDEST SWAP2 POP POP PUSH1 0x60 DUP4 ADD MLOAD DUP5 DUP3 SUB PUSH1 0x60 DUP7 ADD MSTORE PUSH2 0x20C2 DUP3 DUP3 PUSH2 0x1CB9 JUMP JUMPDEST SWAP2 POP POP PUSH1 0x80 DUP4 ADD MLOAD DUP5 DUP3 SUB PUSH1 0x80 DUP7 ADD MSTORE PUSH2 0x20DC DUP3 DUP3 PUSH2 0x1CB9 JUMP JUMPDEST SWAP2 POP POP PUSH1 0xA0 DUP4 ADD MLOAD DUP5 DUP3 SUB PUSH1 0xA0 DUP7 ADD MSTORE PUSH2 0x20F6 DUP3 DUP3 PUSH2 0x1CB9 JUMP JUMPDEST SWAP2 POP POP PUSH1 0xC0 DUP4 ADD MLOAD PUSH2 0x210B PUSH1 0xC0 DUP7 ADD DUP3 PUSH2 0x1C29 JUMP JUMPDEST POP PUSH1 0xE0 DUP4 ADD MLOAD PUSH2 0x211E PUSH1 0xE0 DUP7 ADD DUP3 PUSH2 0x1C29 JUMP JUMPDEST POP PUSH2 0x100 DUP4 ADD MLOAD PUSH2 0x2133 PUSH2 0x100 DUP7 ADD DUP3 PUSH2 0x1C68 JUMP JUMPDEST POP PUSH2 0x120 DUP4 ADD MLOAD PUSH2 0x2148 PUSH2 0x120 DUP7 ADD DUP3 PUSH2 0x1C29 JUMP JUMPDEST POP PUSH2 0x140 DUP4 ADD MLOAD PUSH2 0x215D PUSH2 0x140 DUP7 ADD DUP3 PUSH2 0x1CFC JUMP JUMPDEST POP DUP1 SWAP2 POP POP SWAP3 SWAP2 POP POP JUMP JUMPDEST PUSH0 PUSH2 0x2173 DUP4 DUP4 PUSH2 0x2067 JUMP JUMPDEST SWAP1 POP SWAP3 SWAP2 POP POP JUMP JUMPDEST PUSH0 PUSH1 0x20 DUP3 ADD SWAP1 POP SWAP2 SWAP1 POP JUMP JUMPDEST PUSH0 PUSH2 0x2191 DUP3 PUSH2 0x203E JUMP JUMPDEST PUSH2 0x219B DUP2 DUP6 PUSH2 0x2048 JUMP JUMPDEST SWAP4 POP DUP4 PUSH1 0x20 DUP3 MUL DUP6 ADD PUSH2 0x21AD DUP6 PUSH2 0x2058 JUMP JUMPDEST DUP1 PUSH0 JUMPDEST DUP6 DUP2 LT ISZERO PUSH2 0x21E8 JUMPI DUP5 DUP5 SUB DUP10 MSTORE DUP2 MLOAD PUSH2 0x21C9 DUP6 DUP3 PUSH2 0x2168 JUMP JUMPDEST SWAP5 POP PUSH2 0x21D4 DUP4 PUSH2 0x217B JUMP JUMPDEST SWAP3 POP PUSH1 0x20 DUP11 ADD SWAP10 POP POP PUSH1 0x1 DUP2 ADD SWAP1 POP PUSH2 0x21B0 JUMP JUMPDEST POP DUP3 SWAP8 POP DUP8 SWAP6 POP POP POP POP POP POP SWAP3 SWAP2 POP POP JUMP JUMPDEST PUSH0 PUSH1 0x20 DUP3 ADD SWAP1 POP DUP2 DUP2 SUB PUSH0 DUP4 ADD MSTORE PUSH2 0x2212 DUP2 DUP5 PUSH2 0x2187 JUMP JUMPDEST SWAP1 POP SWAP3 SWAP2 POP POP JUMP JUMPDEST PUSH32 0x4E487B7100000000000000000000000000000000000000000000000000000000 PUSH0 MSTORE PUSH1 0x11 PUSH1 0x4 MSTORE PUSH1 0x24 PUSH0 REVERT JUMPDEST PUSH0 PUSH2 0x2251 DUP3 PUSH2 0x1A5A JUMP JUMPDEST SWAP2 POP PUSH2 0x225C DUP4 PUSH2 0x1A5A JUMP JUMPDEST SWAP3 POP DUP3 DUP3 ADD SWAP1 POP DUP1 DUP3 GT ISZERO PUSH2 0x2274 JUMPI PUSH2 0x2273 PUSH2 0x221A JUMP JUMPDEST JUMPDEST SWAP3 SWAP2 POP POP JUMP JUMPDEST PUSH32 0x4E487B7100000000000000000000000000000000000000000000000000000000 PUSH0 MSTORE PUSH1 0x22 PUSH1 0x4 MSTORE PUSH1 0x24 PUSH0 REVERT JUMPDEST PUSH0 PUSH1 0x2 DUP3 DIV SWAP1 POP PUSH1 0x1 DUP3 AND DUP1 PUSH2 0x22BE JUMPI PUSH1 0x7F DUP3 AND SWAP2 POP JUMPDEST PUSH1 0x20 DUP3 LT DUP2 SUB PUSH2 0x22D1 JUMPI PUSH2 0x22D0 PUSH2 0x227A JUMP JUMPDEST JUMPDEST POP SWAP2 SWAP1 POP JUMP JUMPDEST PUSH0 DUP2 SWAP1 POP DUP2 PUSH0 MSTORE PUSH1 0x20 PUSH0 KECCAK256 SWAP1 POP SWAP2 SWAP1 POP JUMP JUMPDEST PUSH0 PUSH1 0x20 PUSH1 0x1F DUP4 ADD DIV SWAP1 POP SWAP2 SWAP1 POP JUMP JUMPDEST PUSH0 DUP3 DUP3 SHL SWAP1 POP SWAP3 SWAP2 POP POP JUMP JUMPDEST PUSH0 PUSH1 0x8 DUP4 MUL PUSH2 0x2333 PUSH32 0xFFFFFFFFFFFFFFFFFFFFFFFFFFFFFFFFFFFFFFFFFFFFFFFFFFFFFFFFFFFFFFFF DUP3 PUSH2 0x22F8 JUMP JUMPDEST PUSH2 0x233D DUP7 DUP4 PUSH2 0x22F8 JUMP JUMPDEST SWAP6 POP DUP1 NOT DUP5 AND SWAP4 POP DUP1 DUP7 AND DUP5 OR SWAP3 POP POP POP SWAP4 SWAP3 POP POP POP JUMP JUMPDEST PUSH0 DUP2 SWAP1 POP SWAP2 SWAP1 POP JUMP JUMPDEST PUSH0 PUSH2 0x2378 PUSH2 0x2373 PUSH2 0x236E DUP5 PUSH2 0x1A5A JUMP JUMPDEST PUSH2 0x2355 JUMP JUMPDEST PUSH2 0x1A5A JUMP JUMPDEST SWAP1 POP SWAP2 SWAP1 POP JUMP JUMPDEST PUSH0 DUP2 SWAP1 POP SWAP2 SWAP1 POP JUMP JUMPDEST PUSH2 0x2391 DUP4 PUSH2 0x235E JUMP JUMPDEST PUSH2 0x23A5 PUSH2 0x239D DUP3 PUSH2 0x237F JUMP JUMPDEST DUP5 DUP5 SLOAD PUSH2 0x2304 JUMP JUMPDEST DUP3 SSTORE POP POP POP POP JUMP JUMPDEST PUSH0 SWAP1 JUMP JUMPDEST PUSH2 0x23B9 PUSH2 0x23AD JUMP JUMPDEST PUSH2 0x23C4 DUP2 DUP5 DUP5 PUSH2 0x2388 JUMP JUMPDEST POP POP POP JUMP JUMPDEST JUMPDEST DUP2 DUP2 LT ISZERO PUSH2 0x23E7 JUMPI PUSH2 0x23DC PUSH0 DUP3 PUSH2 0x23B1 JUMP JUMPDEST PUSH1 0x1 DUP2 ADD SWAP1 POP PUSH2 0x23CA JUMP JUMPDEST POP POP JUMP JUMPDEST PUSH1 0x1F DUP3 GT ISZERO PUSH2 0x242C JUMPI PUSH2 0x23FD DUP2 PUSH2 0x22D7 JUMP JUMPDEST PUSH2 0x2406 DUP5 PUSH2 0x22E9 JUMP JUMPDEST DUP2 ADD PUSH1 0x20 DUP6 LT ISZERO PUSH2 0x2415 JUMPI DUP2 SWAP1 POP JUMPDEST PUSH2 0x2429 PUSH2 0x2421 DUP6 PUSH2 0x22E9 JUMP JUMPDEST DUP4 ADD DUP3 PUSH2 0x23C9 JUMP JUMPDEST POP POP JUMPDEST POP POP POP JUMP JUMPDEST PUSH0 DUP3 DUP3 SHR SWAP1 POP SWAP3 SWAP2 POP POP JUMP JUMPDEST PUSH0 PUSH2 0x244C PUSH0 NOT DUP5 PUSH1 0x8 MUL PUSH2 0x2431 JUMP JUMPDEST NOT DUP1 DUP4 AND SWAP2 POP POP SWAP3 SWAP2 POP POP JUMP JUMPDEST PUSH0 PUSH2 0x2464 DUP4 DUP4 PUSH2 0x243D JUMP JUMPDEST SWAP2 POP DUP3 PUSH1 0x2 MUL DUP3 OR SWAP1 POP SWAP3 SWAP2 POP POP JUMP JUMPDEST PUSH2 0x247D DUP3 PUSH2 0x1C77 JUMP JUMPDEST PUSH8 0xFFFFFFFFFFFFFFFF DUP2 GT ISZERO PUSH2 0x2496 JUMPI PUSH2 0x2495 PUSH2 0x1936 JUMP JUMPDEST JUMPDEST PUSH2 0x24A0 DUP3 SLOAD PUSH2 0x22A7 JUMP JUMPDEST PUSH2 0x24AB DUP3 DUP3 DUP6 PUSH2 0x23EB JUMP JUMPDEST PUSH0 PUSH1 0x20 SWAP1 POP PUSH1 0x1F DUP4 GT PUSH1 0x1 DUP2 EQ PUSH2 0x24DC JUMPI PUSH0 DUP5 ISZERO PUSH2 0x24CA JUMPI DUP3 DUP8 ADD MLOAD SWAP1 POP JUMPDEST PUSH2 0x24D4 DUP6 DUP3 PUSH2 0x2459 JUMP JUMPDEST DUP7 SSTORE POP PUSH2 0x253B JUMP JUMPDEST PUSH1 0x1F NOT DUP5 AND PUSH2 0x24EA DUP7 PUSH2 0x22D7 JUMP JUMPDEST PUSH0 JUMPDEST DUP3 DUP2 LT ISZERO PUSH2 0x2511 JUMPI DUP5 DUP10 ADD MLOAD DUP3 SSTORE PUSH1 0x1 DUP3 ADD SWAP2 POP PUSH1 0x20 DUP6 ADD SWAP5 POP PUSH1 0x20 DUP2 ADD SWAP1 POP PUSH2 0x24EC JUMP JUMPDEST DUP7 DUP4 LT ISZERO PUSH2 0x252E JUMPI DUP5 DUP10 ADD MLOAD PUSH2 0x252A PUSH1 0x1F DUP10 AND DUP3 PUSH2 0x243D JUMP JUMPDEST DUP4 SSTORE POP JUMPDEST PUSH1 0x1 PUSH1 0x2 DUP9 MUL ADD DUP9 SSTORE POP POP POP JUMPDEST POP POP POP POP POP POP JUMP JUMPDEST PUSH0 PUSH1 0x60 DUP3 ADD SWAP1 POP DUP2 DUP2 SUB PUSH0 DUP4 ADD MSTORE PUSH2 0x255B DUP2 DUP7 PUSH2 0x1E4B JUMP JUMPDEST SWAP1 POP DUP2 DUP2 SUB PUSH1 0x20 DUP4 ADD MSTORE PUSH2 0x256F DUP2 DUP6 PUSH2 0x1E4B JUMP JUMPDEST SWAP1 POP PUSH2 0x257E PUSH1 0x40 DUP4 ADD DUP5 PUSH2 0x1BD6 JUMP JUMPDEST SWAP5 SWAP4 POP POP POP POP JUMP JUMPDEST PUSH32 0x4F6E6C7920746865206F776E65722063616E2075706461746520746865206175 PUSH0 DUP3 ADD MSTORE PUSH32 0x6374696F6E2064657461696C732E000000000000000000000000000000000000 PUSH1 0x20 DUP3 ADD MSTORE POP JUMP JUMPDEST PUSH0 PUSH2 0x25E0 PUSH1 0x2E DUP4 PUSH2 0x1E3B JUMP JUMPDEST SWAP2 POP PUSH2 0x25EB DUP3 PUSH2 0x2586 JUMP JUMPDEST PUSH1 0x40 DUP3 ADD SWAP1 POP SWAP2 SWAP1 POP JUMP JUMPDEST PUSH0 PUSH1 0x20 DUP3 ADD SWAP1 POP DUP2 DUP2 SUB PUSH0 DUP4 ADD MSTORE PUSH2 0x260D DUP2 PUSH2 0x25D4 JUMP JUMPDEST SWAP1 POP SWAP2 SWAP1 POP JUMP JUMPDEST PUSH0 PUSH1 0x40 DUP3 ADD SWAP1 POP PUSH2 0x2627 PUSH0 DUP4 ADD DUP6 PUSH2 0x1BD6 JUMP JUMPDEST PUSH2 0x2634 PUSH1 0x20 DUP4 ADD DUP5 PUSH2 0x1BD6 JUMP JUMPDEST SWAP4 SWAP3 POP POP POP JUMP JUMPDEST PUSH32 0x41756374696F6E2068617320656E6465642E0000000000000000000000000000 PUSH0 DUP3 ADD MSTORE POP JUMP JUMPDEST PUSH0 PUSH2 0x266F PUSH1 0x12 DUP4 PUSH2 0x1E3B JUMP JUMPDEST SWAP2 POP PUSH2 0x267A DUP3 PUSH2 0x263B JUMP JUMPDEST PUSH1 0x20 DUP3 ADD SWAP1 POP SWAP2 SWAP1 POP JUMP JUMPDEST PUSH0 PUSH1 0x20 DUP3 ADD SWAP1 POP DUP2 DUP2 SUB PUSH0 DUP4 ADD MSTORE PUSH2 0x269C DUP2 PUSH2 0x2663 JUMP JUMPDEST SWAP1 POP SWAP2 SWAP1 POP JUMP JUMPDEST PUSH32 0x426964206973206E6F74206869676820656E6F7567682E000000000000000000 PUSH0 DUP3 ADD MSTORE POP JUMP JUMPDEST PUSH0 PUSH2 0x26D7 PUSH1 0x17 DUP4 PUSH2 0x1E3B JUMP JUMPDEST SWAP2 POP PUSH2 0x26E2 DUP3 PUSH2 0x26A3 JUMP JUMPDEST PUSH1 0x20 DUP3 ADD SWAP1 POP SWAP2 SWAP1 POP JUMP JUMPDEST PUSH0 PUSH1 0x20 DUP3 ADD SWAP1 POP DUP2 DUP2 SUB PUSH0 DUP4 ADD MSTORE PUSH2 0x2704 DUP2 PUSH2 0x26CB JUMP JUMPDEST SWAP1 POP SWAP2 SWAP1 POP JUMP JUMPDEST PUSH32 0x496E697469616C206269642069732062656C6F7720746865207374617274696E PUSH0 DUP3 ADD MSTORE PUSH32 0x672070726963652E000000000000000000000000000000000000000000000000 PUSH1 0x20 DUP3 ADD MSTORE POP JUMP JUMPDEST PUSH0 PUSH2 0x2765 PUSH1 0x28 DUP4 PUSH2 0x1E3B JUMP JUMPDEST SWAP2 POP PUSH2 0x2770 DUP3 PUSH2 0x270B JUMP JUMPDEST PUSH1 0x40 DUP3 ADD SWAP1 POP SWAP2 SWAP1 POP JUMP JUMPDEST PUSH0 PUSH1 0x20 DUP3 ADD SWAP1 POP DUP2 DUP2 SUB PUSH0 DUP4 ADD MSTORE PUSH2 0x2792 DUP2 PUSH2 0x2759 JUMP JUMPDEST SWAP1 POP SWAP2 SWAP1 POP JUMP JUMPDEST PUSH32 0x4F6E6C7920746865206F776E65722063616E2075706461746520746865206172 PUSH0 DUP3 ADD MSTORE PUSH32 0x74776F726B2064657461696C732E000000000000000000000000000000000000 PUSH1 0x20 DUP3 ADD MSTORE POP JUMP JUMPDEST PUSH0 PUSH2 0x27F3 PUSH1 0x2E DUP4 PUSH2 0x1E3B JUMP JUMPDEST SWAP2 POP PUSH2 0x27FE DUP3 PUSH2 0x2799 JUMP JUMPDEST PUSH1 0x40 DUP3 ADD SWAP1 POP SWAP2 SWAP1 POP JUMP JUMPDEST PUSH0 PUSH1 0x20 DUP3 ADD SWAP1 POP DUP2 DUP2 SUB PUSH0 DUP4 ADD MSTORE PUSH2 0x2820 DUP2 PUSH2 0x27E7 JUMP JUMPDEST SWAP1 POP SWAP2 SWAP1 POP JUMP JUMPDEST PUSH32 0x4E487B7100000000000000000000000000000000000000000000000000000000 PUSH0 MSTORE PUSH1 0x32 PUSH1 0x4 MSTORE PUSH1 0x24 PUSH0 REVERT JUMPDEST PUSH0 PUSH2 0x285E DUP3 PUSH2 0x1A5A JUMP JUMPDEST SWAP2 POP PUSH32 0xFFFFFFFFFFFFFFFFFFFFFFFFFFFFFFFFFFFFFFFFFFFFFFFFFFFFFFFFFFFFFFFF DUP3 SUB PUSH2 0x2890 JUMPI PUSH2 0x288F PUSH2 0x221A JUMP JUMPDEST JUMPDEST PUSH1 0x1 DUP3 ADD SWAP1 POP SWAP2 SWAP1 POP JUMP JUMPDEST PUSH32 0x4F6E6C7920746865206F776E65722063616E20656E6420746865206175637469 PUSH0 DUP3 ADD MSTORE PUSH32 0x6F6E2E0000000000000000000000000000000000000000000000000000000000 PUSH1 0x20 DUP3 ADD MSTORE POP JUMP JUMPDEST PUSH0 PUSH2 0x28F5 PUSH1 0x23 DUP4 PUSH2 0x1E3B JUMP JUMPDEST SWAP2 POP PUSH2 0x2900 DUP3 PUSH2 0x289B JUMP JUMPDEST PUSH1 0x40 DUP3 ADD SWAP1 POP SWAP2 SWAP1 POP JUMP JUMPDEST PUSH0 PUSH1 0x20 DUP3 ADD SWAP1 POP DUP2 DUP2 SUB PUSH0 DUP4 ADD MSTORE PUSH2 0x2922 DUP2 PUSH2 0x28E9 JUMP JUMPDEST SWAP1 POP SWAP2 SWAP1 POP JUMP JUMPDEST PUSH32 0x41756374696F6E206973207374696C6C206F6E676F696E672E00000000000000 PUSH0 DUP3 ADD MSTORE POP JUMP JUMPDEST PUSH0 PUSH2 0x295D PUSH1 0x19 DUP4 PUSH2 0x1E3B JUMP JUMPDEST SWAP2 POP PUSH2 0x2968 DUP3 PUSH2 0x2929 JUMP JUMPDEST PUSH1 0x20 DUP3 ADD SWAP1 POP SWAP2 SWAP1 POP JUMP JUMPDEST PUSH0 PUSH1 0x20 DUP3 ADD SWAP1 POP DUP2 DUP2 SUB PUSH0 DUP4 ADD MSTORE PUSH2 0x298A DUP2 PUSH2 0x2951 JUMP JUMPDEST SWAP1 POP SWAP2 SWAP1 POP JUMP JUMPDEST PUSH32 0x41756374696F6E2068617320616C726561647920656E6465642E000000000000 PUSH0 DUP3 ADD MSTORE POP JUMP JUMPDEST PUSH0 PUSH2 0x29C5 PUSH1 0x1A DUP4 PUSH2 0x1E3B JUMP JUMPDEST SWAP2 POP PUSH2 0x29D0 DUP3 PUSH2 0x2991 JUMP JUMPDEST PUSH1 0x20 DUP3 ADD SWAP1 POP SWAP2 SWAP1 POP JUMP JUMPDEST PUSH0 PUSH1 0x20 DUP3 ADD SWAP1 POP DUP2 DUP2 SUB PUSH0 DUP4 ADD MSTORE PUSH2 0x29F2 DUP2 PUSH2 0x29B9 JUMP JUMPDEST SWAP1 POP SWAP2 SWAP1 POP JUMP JUMPDEST PUSH0 PUSH2 0x2A13 PUSH2 0x2A0E PUSH2 0x2A09 DUP5 PUSH2 0x1C38 JUMP JUMPDEST PUSH2 0x2355 JUMP JUMPDEST PUSH2 0x1C38 JUMP JUMPDEST SWAP1 POP SWAP2 SWAP1 POP JUMP JUMPDEST PUSH0 PUSH2 0x2A24 DUP3 PUSH2 0x29F9 JUMP JUMPDEST SWAP1 POP SWAP2 SWAP1 POP JUMP JUMPDEST PUSH0 PUSH2 0x2A35 DUP3 PUSH2 0x2A1A JUMP JUMPDEST SWAP1 POP SWAP2 SWAP1 POP JUMP JUMPDEST PUSH2 0x2A45 DUP2 PUSH2 0x2A2B JUMP JUMPDEST DUP3 MSTORE POP POP JUMP JUMPDEST PUSH0 PUSH1 0x40 DUP3 ADD SWAP1 POP PUSH2 0x2A5E PUSH0 DUP4 ADD DUP6 PUSH2 0x2A3C JUMP JUMPDEST PUSH2 0x2A6B PUSH1 0x20 DUP4 ADD DUP5 PUSH2 0x1BD6 JUMP JUMPDEST SWAP4 SWAP3 POP POP POP JUMP JUMPDEST PUSH32 0x436F756E7465723A2064656372656D656E74206F766572666C6F770000000000 PUSH0 DUP3 ADD MSTORE POP JUMP JUMPDEST PUSH0 PUSH2 0x2AA6 PUSH1 0x1B DUP4 PUSH2 0x1E3B JUMP JUMPDEST SWAP2 POP PUSH2 0x2AB1 DUP3 PUSH2 0x2A72 JUMP JUMPDEST PUSH1 0x20 DUP3 ADD SWAP1 POP SWAP2 SWAP1 POP JUMP JUMPDEST PUSH0 PUSH1 0x20 DUP3 ADD SWAP1 POP DUP2 DUP2 SUB PUSH0 DUP4 ADD MSTORE PUSH2 0x2AD3 DUP2 PUSH2 0x2A9A JUMP JUMPDEST SWAP1 POP SWAP2 SWAP1 POP JUMP INVALID LOG2 PUSH5 0x6970667358 0x22 SLT KECCAK256 0xB9 JUMPI 0xDB BYTE 0xCD 0xD5 0xE6 XOR SWAP10 MULMOD DELEGATECALL SWAP7 0x4A ADDMOD 0xBC 0xBD 0xBE 0xCC RETURNDATASIZE ADDRESS 0xEC 0xF DUP1 AND 0xB3 PUSH12 0x38BF9FA78DDB64736F6C6343 STOP ADDMOD ISZERO STOP CALLER "
				},
				"gasEstimates": {
					"creation": {
						"codeDepositCost": "2204800",
						"executionCost": "2351",
						"totalCost": "2207151"
					},
					"external": {
						"artworkIds(uint256)": "infinite",
						"artworks(uint256)": "infinite",
						"bid(uint256)": "infinite",
						"endAuction(uint256)": "infinite",
						"getAllArtworks()": "infinite",
						"getArtwork(uint256)": "infinite",
						"getBalance()": "379",
						"getNumberOfEndedAuctions()": "2567",
						"getNumberOfLiveAuctions()": "2545",
						"joinAuctionWithInitialBid(uint256)": "infinite",
						"listArtwork(string,string,string,string,uint256,uint256)": "infinite",
						"updateArtwork(uint256,string,string,string,string)": "infinite",
						"updateAuction(uint256,uint256,uint256)": "infinite"
					}
				},
				"methodIdentifiers": {
					"artworkIds(uint256)": "9805d485",
					"artworks(uint256)": "4b602673",
					"bid(uint256)": "454a2ab3",
					"endAuction(uint256)": "b9a2de3a",
					"getAllArtworks()": "9c0cc30c",
					"getArtwork(uint256)": "167ddf6e",
					"getBalance()": "12065fe0",
					"getNumberOfEndedAuctions()": "f94c8e98",
					"getNumberOfLiveAuctions()": "e5fc3350",
					"joinAuctionWithInitialBid(uint256)": "5d1a2ef0",
					"listArtwork(string,string,string,string,uint256,uint256)": "07f52e01",
					"updateArtwork(uint256,string,string,string,string)": "6fa68ae6",
					"updateAuction(uint256,uint256,uint256)": "0d856664"
				}
			},
			"storageLayout": {
				"storage": [
					{
						"astId": 83,
						"contract": "contracts/Auction.sol:ArtworkAuction",
						"label": "_artworkCounter",
						"offset": 0,
						"slot": "0",
						"type": "t_struct(Counter)5_storage"
					},
					{
						"astId": 86,
						"contract": "contracts/Auction.sol:ArtworkAuction",
						"label": "_liveAuctions",
						"offset": 0,
						"slot": "1",
						"type": "t_struct(Counter)5_storage"
					},
					{
						"astId": 89,
						"contract": "contracts/Auction.sol:ArtworkAuction",
						"label": "_endedAuctions",
						"offset": 0,
						"slot": "2",
						"type": "t_struct(Counter)5_storage"
					},
					{
						"astId": 117,
						"contract": "contracts/Auction.sol:ArtworkAuction",
						"label": "artworks",
						"offset": 0,
						"slot": "3",
						"type": "t_mapping(t_uint256,t_struct(Artwork)112_storage)"
					},
					{
						"astId": 120,
						"contract": "contracts/Auction.sol:ArtworkAuction",
						"label": "artworkIds",
						"offset": 0,
						"slot": "4",
						"type": "t_array(t_uint256)dyn_storage"
					}
				],
				"types": {
					"t_address_payable": {
						"encoding": "inplace",
						"label": "address payable",
						"numberOfBytes": "20"
					},
					"t_array(t_uint256)dyn_storage": {
						"base": "t_uint256",
						"encoding": "dynamic_array",
						"label": "uint256[]",
						"numberOfBytes": "32"
					},
					"t_bool": {
						"encoding": "inplace",
						"label": "bool",
						"numberOfBytes": "1"
					},
					"t_mapping(t_uint256,t_struct(Artwork)112_storage)": {
						"encoding": "mapping",
						"key": "t_uint256",
						"label": "mapping(uint256 => struct ArtworkAuction.Artwork)",
						"numberOfBytes": "32",
						"value": "t_struct(Artwork)112_storage"
					},
					"t_string_storage": {
						"encoding": "bytes",
						"label": "string",
						"numberOfBytes": "32"
					},
					"t_struct(Artwork)112_storage": {
						"encoding": "inplace",
						"label": "struct ArtworkAuction.Artwork",
						"members": [
							{
								"astId": 91,
								"contract": "contracts/Auction.sol:ArtworkAuction",
								"label": "id",
								"offset": 0,
								"slot": "0",
								"type": "t_uint256"
							},
							{
								"astId": 93,
								"contract": "contracts/Auction.sol:ArtworkAuction",
								"label": "owner",
								"offset": 0,
								"slot": "1",
								"type": "t_address_payable"
							},
							{
								"astId": 95,
								"contract": "contracts/Auction.sol:ArtworkAuction",
								"label": "artistName",
								"offset": 0,
								"slot": "2",
								"type": "t_string_storage"
							},
							{
								"astId": 97,
								"contract": "contracts/Auction.sol:ArtworkAuction",
								"label": "creationDate",
								"offset": 0,
								"slot": "3",
								"type": "t_string_storage"
							},
							{
								"astId": 99,
								"contract": "contracts/Auction.sol:ArtworkAuction",
								"label": "medium",
								"offset": 0,
								"slot": "4",
								"type": "t_string_storage"
							},
							{
								"astId": 101,
								"contract": "contracts/Auction.sol:ArtworkAuction",
								"label": "dimensions",
								"offset": 0,
								"slot": "5",
								"type": "t_string_storage"
							},
							{
								"astId": 103,
								"contract": "contracts/Auction.sol:ArtworkAuction",
								"label": "startingPrice",
								"offset": 0,
								"slot": "6",
								"type": "t_uint256"
							},
							{
								"astId": 105,
								"contract": "contracts/Auction.sol:ArtworkAuction",
								"label": "currentBid",
								"offset": 0,
								"slot": "7",
								"type": "t_uint256"
							},
							{
								"astId": 107,
								"contract": "contracts/Auction.sol:ArtworkAuction",
								"label": "highestBidder",
								"offset": 0,
								"slot": "8",
								"type": "t_address_payable"
							},
							{
								"astId": 109,
								"contract": "contracts/Auction.sol:ArtworkAuction",
								"label": "auctionEndTime",
								"offset": 0,
								"slot": "9",
								"type": "t_uint256"
							},
							{
								"astId": 111,
								"contract": "contracts/Auction.sol:ArtworkAuction",
								"label": "auctionEnded",
								"offset": 0,
								"slot": "10",
								"type": "t_bool"
							}
						],
						"numberOfBytes": "352"
					},
					"t_struct(Counter)5_storage": {
						"encoding": "inplace",
						"label": "struct Counters.Counter",
						"members": [
							{
								"astId": 4,
								"contract": "contracts/Auction.sol:ArtworkAuction",
								"label": "_value",
								"offset": 0,
								"slot": "0",
								"type": "t_uint256"
							}
						],
						"numberOfBytes": "32"
					},
					"t_uint256": {
						"encoding": "inplace",
						"label": "uint256",
						"numberOfBytes": "32"
					}
				}
			},
			"userdoc": {
				"kind": "user",
				"methods": {},
				"version": 1
			}
		}
	}
}