{
	"data": {
		"bytecode": {
			"linkReferences": {},
			"object": "608060405234801561000f575f80fd5b50612b108061001d5f395ff3fe6080604052600436106100c5575f3560e01c80635d1a2ef01161007e5780639c0cc30c116100585780639c0cc30c14610268578063b9a2de3a14610292578063e5fc3350146102ba578063f94c8e98146102e4576100cc565b80635d1a2ef0146101e85780636fa68ae6146102045780639805d4851461022c576100cc565b806307f52e01146100d05780630d856664146100f857806312065fe014610120578063167ddf6e1461014a578063454a2ab3146101865780634b602673146101a2576100cc565b366100cc57005b5f80fd5b3480156100db575f80fd5b506100f660048036038101906100f19190611a8d565b61030e565b005b348015610103575f80fd5b5061011e60048036038101906101199190611b86565b61055d565b005b34801561012b575f80fd5b50610134610654565b6040516101419190611be5565b60405180910390f35b348015610155575f80fd5b50610170600480360381019061016b9190611bfe565b61065b565b60405161017d9190611e0c565b60405180910390f35b6101a0600480360381019061019b9190611bfe565b6109b2565b005b3480156101ad575f80fd5b506101c860048036038101906101c39190611bfe565b610bb2565b6040516101df9b9a99989796959493929190611e92565b60405180910390f35b61020260048036038101906101fd9190611bfe565b610e6a565b005b34801561020f575f80fd5b5061022a60048036038101906102259190611f57565b61106b565b005b348015610237575f80fd5b50610252600480360381019061024d9190611bfe565b61118d565b60405161025f9190611be5565b60405180910390f35b348015610273575f80fd5b5061027c6111ad565b60405161028991906121fa565b60405180910390f35b34801561029d575f80fd5b506102b860048036038101906102b39190611bfe565b6115b7565b005b3480156102c5575f80fd5b506102ce6117f4565b6040516102db9190611be5565b60405180910390f35b3480156102ef575f80fd5b506102f8611804565b6040516103059190611be5565b60405180910390f35b6103175f611814565b5f6103215f611828565b90506040518061016001604052808281526020013373ffffffffffffffffffffffffffffffffffffffff1681526020018881526020018781526020018681526020018581526020018481526020015f81526020015f73ffffffffffffffffffffffffffffffffffffffff168152602001834261039d9190612247565b81526020015f151581525060035f8381526020019081526020015f205f820151815f01556020820151816001015f6101000a81548173ffffffffffffffffffffffffffffffffffffffff021916908373ffffffffffffffffffffffffffffffffffffffff160217905550604082015181600201908161041c9190612474565b5060608201518160030190816104329190612474565b5060808201518160040190816104489190612474565b5060a082015181600501908161045e9190612474565b5060c0820151816006015560e08201518160070155610100820151816008015f6101000a81548173ffffffffffffffffffffffffffffffffffffffff021916908373ffffffffffffffffffffffffffffffffffffffff160217905550610120820151816009015561014082015181600a015f6101000a81548160ff021916908315150217905550905050600481908060018154018082558091505060019003905f5260205f20015f90919091909150556105186001611814565b807f4844eef316b579e3de2c8c0ae4e0c2aa929948a4de0512b928e8b69e8e0eb82888888660405161054c93929190612543565b60405180910390a250505050505050565b5f60035f8581526020019081526020015f209050806001015f9054906101000a900473ffffffffffffffffffffffffffffffffffffffff1673ffffffffffffffffffffffffffffffffffffffff163373ffffffffffffffffffffffffffffffffffffffff1614610602576040517f08c379a00000000000000000000000000000000000000000000000000000000081526004016105f9906125f6565b60405180910390fd5b828160090181905550818160060181905550837f364b79005dd15e524680d4a8482888120dcc595f290e7bcd79f1ef78b4ef63168484604051610646929190612614565b60405180910390a250505050565b5f47905090565b61066361188c565b60035f8381526020019081526020015f20604051806101600160405290815f8201548152602001600182015f9054906101000a900473ffffffffffffffffffffffffffffffffffffffff1673ffffffffffffffffffffffffffffffffffffffff1673ffffffffffffffffffffffffffffffffffffffff1681526020016002820180546106ee906122a7565b80601f016020809104026020016040519081016040528092919081815260200182805461071a906122a7565b80156107655780601f1061073c57610100808354040283529160200191610765565b820191905f5260205f20905b81548152906001019060200180831161074857829003601f168201915b5050505050815260200160038201805461077e906122a7565b80601f01602080910402602001604051908101604052809291908181526020018280546107aa906122a7565b80156107f55780601f106107cc576101008083540402835291602001916107f5565b820191905f5260205f20905b8154815290600101906020018083116107d857829003601f168201915b5050505050815260200160048201805461080e906122a7565b80601f016020809104026020016040519081016040528092919081815260200182805461083a906122a7565b80156108855780601f1061085c57610100808354040283529160200191610885565b820191905f5260205f20905b81548152906001019060200180831161086857829003601f168201915b5050505050815260200160058201805461089e906122a7565b80601f01602080910402602001604051908101604052809291908181526020018280546108ca906122a7565b80156109155780601f106108ec57610100808354040283529160200191610915565b820191905f5260205f20905b8154815290600101906020018083116108f857829003601f168201915b505050505081526020016006820154815260200160078201548152602001600882015f9054906101000a900473ffffffffffffffffffffffffffffffffffffffff1673ffffffffffffffffffffffffffffffffffffffff1673ffffffffffffffffffffffffffffffffffffffff16815260200160098201548152602001600a82015f9054906101000a900460ff1615151515815250509050919050565b5f60035f8381526020019081526020015f20905080600901544210610a0c576040517f08c379a0000000000000000000000000000000000000000000000000000000008152600401610a0390612685565b60405180910390fd5b80600701543411610a52576040517f08c379a0000000000000000000000000000000000000000000000000000000008152600401610a49906126ed565b60405180910390fd5b5f73ffffffffffffffffffffffffffffffffffffffff16816008015f9054906101000a900473ffffffffffffffffffffffffffffffffffffffff1673ffffffffffffffffffffffffffffffffffffffff1614610b1457806008015f9054906101000a900473ffffffffffffffffffffffffffffffffffffffff1673ffffffffffffffffffffffffffffffffffffffff166108fc826007015490811502906040515f60405180830381858888f19350505050158015610b12573d5f803e3d5ffd5b505b34816007018190555033816008015f6101000a81548173ffffffffffffffffffffffffffffffffffffffff021916908373ffffffffffffffffffffffffffffffffffffffff1602179055503373ffffffffffffffffffffffffffffffffffffffff16827f558a0d5d5468d74b0db24c74eb348b42271c2ebb4c9e953ced38aaed95fa436134604051610ba69190611be5565b60405180910390a35050565b6003602052805f5260405f205f91509050805f015490806001015f9054906101000a900473ffffffffffffffffffffffffffffffffffffffff1690806002018054610bfc906122a7565b80601f0160208091040260200160405190810160405280929190818152602001828054610c28906122a7565b8015610c735780601f10610c4a57610100808354040283529160200191610c73565b820191905f5260205f20905b815481529060010190602001808311610c5657829003601f168201915b505050505090806003018054610c88906122a7565b80601f0160208091040260200160405190810160405280929190818152602001828054610cb4906122a7565b8015610cff5780601f10610cd657610100808354040283529160200191610cff565b820191905f5260205f20905b815481529060010190602001808311610ce257829003601f168201915b505050505090806004018054610d14906122a7565b80601f0160208091040260200160405190810160405280929190818152602001828054610d40906122a7565b8015610d8b5780601f10610d6257610100808354040283529160200191610d8b565b820191905f5260205f20905b815481529060010190602001808311610d6e57829003601f168201915b505050505090806005018054610da0906122a7565b80601f0160208091040260200160405190810160405280929190818152602001828054610dcc906122a7565b8015610e175780601f10610dee57610100808354040283529160200191610e17565b820191905f5260205f20905b815481529060010190602001808311610dfa57829003601f168201915b505050505090806006015490806007015490806008015f9054906101000a900473ffffffffffffffffffffffffffffffffffffffff169080600901549080600a015f9054906101000a900460ff1690508b565b5f60035f8381526020019081526020015f20905080600901544210610ec4576040517f08c379a0000000000000000000000000000000000000000000000000000000008152600401610ebb90612685565b60405180910390fd5b8060060154341015610f0b576040517f08c379a0000000000000000000000000000000000000000000000000000000008152600401610f029061277b565b60405180910390fd5b5f73ffffffffffffffffffffffffffffffffffffffff16816008015f9054906101000a900473ffffffffffffffffffffffffffffffffffffffff1673ffffffffffffffffffffffffffffffffffffffff1614610fcd57806008015f9054906101000a900473ffffffffffffffffffffffffffffffffffffffff1673ffffffffffffffffffffffffffffffffffffffff166108fc826007015490811502906040515f60405180830381858888f19350505050158015610fcb573d5f803e3d5ffd5b505b34816007018190555033816008015f6101000a81548173ffffffffffffffffffffffffffffffffffffffff021916908373ffffffffffffffffffffffffffffffffffffffff1602179055503373ffffffffffffffffffffffffffffffffffffffff16827f558a0d5d5468d74b0db24c74eb348b42271c2ebb4c9e953ced38aaed95fa43613460405161105f9190611be5565b60405180910390a35050565b5f60035f8781526020019081526020015f209050806001015f9054906101000a900473ffffffffffffffffffffffffffffffffffffffff1673ffffffffffffffffffffffffffffffffffffffff163373ffffffffffffffffffffffffffffffffffffffff1614611110576040517f08c379a000000000000000000000000000000000000000000000000000000000815260040161110790612809565b60405180910390fd5b848160020190816111219190612474565b50838160030190816111339190612474565b50828160040190816111459190612474565b50818160050190816111579190612474565b50857fd1b00f33712bf6c5d2a3d7a2f14c309e2d6ae750407cf802872c40a8da54c5a960405160405180910390a2505050505050565b6004818154811061119c575f80fd5b905f5260205f20015f915090505481565b60605f60048054905067ffffffffffffffff8111156111cf576111ce611936565b5b60405190808252806020026020018201604052801561120857816020015b6111f561188c565b8152602001906001900390816111ed5790505b5090505f5b6004805490508110156115af5760035f6004838154811061123157611230612827565b5b905f5260205f20015481526020019081526020015f20604051806101600160405290815f8201548152602001600182015f9054906101000a900473ffffffffffffffffffffffffffffffffffffffff1673ffffffffffffffffffffffffffffffffffffffff1673ffffffffffffffffffffffffffffffffffffffff1681526020016002820180546112c1906122a7565b80601f01602080910402602001604051908101604052809291908181526020018280546112ed906122a7565b80156113385780601f1061130f57610100808354040283529160200191611338565b820191905f5260205f20905b81548152906001019060200180831161131b57829003601f168201915b50505050508152602001600382018054611351906122a7565b80601f016020809104026020016040519081016040528092919081815260200182805461137d906122a7565b80156113c85780601f1061139f576101008083540402835291602001916113c8565b820191905f5260205f20905b8154815290600101906020018083116113ab57829003601f168201915b505050505081526020016004820180546113e1906122a7565b80601f016020809104026020016040519081016040528092919081815260200182805461140d906122a7565b80156114585780601f1061142f57610100808354040283529160200191611458565b820191905f5260205f20905b81548152906001019060200180831161143b57829003601f168201915b50505050508152602001600582018054611471906122a7565b80601f016020809104026020016040519081016040528092919081815260200182805461149d906122a7565b80156114e85780601f106114bf576101008083540402835291602001916114e8565b820191905f5260205f20905b8154815290600101906020018083116114cb57829003601f168201915b505050505081526020016006820154815260200160078201548152602001600882015f9054906101000a900473ffffffffffffffffffffffffffffffffffffffff1673ffffffffffffffffffffffffffffffffffffffff1673ffffffffffffffffffffffffffffffffffffffff16815260200160098201548152602001600a82015f9054906101000a900460ff16151515158152505082828151811061159157611590612827565b5b602002602001018190525080806115a790612854565b91505061120d565b508091505090565b5f60035f8381526020019081526020015f209050806001015f9054906101000a900473ffffffffffffffffffffffffffffffffffffffff1673ffffffffffffffffffffffffffffffffffffffff163373ffffffffffffffffffffffffffffffffffffffff161461165c576040517f08c379a00000000000000000000000000000000000000000000000000000000081526004016116539061290b565b60405180910390fd5b80600901544210156116a3576040517f08c379a000000000000000000000000000000000000000000000000000000000815260040161169a90612973565b60405180910390fd5b80600a015f9054906101000a900460ff16156116f4576040517f08c379a00000000000000000000000000000000000000000000000000000000081526004016116eb906129db565b60405180910390fd5b600181600a015f6101000a81548160ff021916908315150217905550806001015f9054906101000a900473ffffffffffffffffffffffffffffffffffffffff1673ffffffffffffffffffffffffffffffffffffffff166108fc826007015490811502906040515f60405180830381858888f1935050505015801561177a573d5f803e3d5ffd5b506117856001611834565b61178f6002611814565b817fd2aa34a4fdbbc6dff6a3e56f46e0f3ae2a31d7785ff3487aa5c95c642acea501826008015f9054906101000a900473ffffffffffffffffffffffffffffffffffffffff1683600701546040516117e8929190612a4b565b60405180910390a25050565b5f6117ff6001611828565b905090565b5f61180f6002611828565b905090565b6001815f015f828254019250508190555050565b5f815f01549050919050565b5f815f015490505f811161187d576040517f08c379a000000000000000000000000000000000000000000000000000000000815260040161187490612abc565b60405180910390fd5b60018103825f01819055505050565b6040518061016001604052805f81526020015f73ffffffffffffffffffffffffffffffffffffffff168152602001606081526020016060815260200160608152602001606081526020015f81526020015f81526020015f73ffffffffffffffffffffffffffffffffffffffff1681526020015f81526020015f151581525090565b5f604051905090565b5f80fd5b5f80fd5b5f80fd5b5f80fd5b5f601f19601f8301169050919050565b7f4e487b71000000000000000000000000000000000000000000000000000000005f52604160045260245ffd5b61196c82611926565b810181811067ffffffffffffffff8211171561198b5761198a611936565b5b80604052505050565b5f61199d61190d565b90506119a98282611963565b919050565b5f67ffffffffffffffff8211156119c8576119c7611936565b5b6119d182611926565b9050602081019050919050565b828183375f83830152505050565b5f6119fe6119f9846119ae565b611994565b905082815260208101848484011115611a1a57611a19611922565b5b611a258482856119de565b509392505050565b5f82601f830112611a4157611a4061191e565b5b8135611a518482602086016119ec565b91505092915050565b5f819050919050565b611a6c81611a5a565b8114611a76575f80fd5b50565b5f81359050611a8781611a63565b92915050565b5f805f805f8060c08789031215611aa757611aa6611916565b5b5f87013567ffffffffffffffff811115611ac457611ac361191a565b5b611ad089828a01611a2d565b965050602087013567ffffffffffffffff811115611af157611af061191a565b5b611afd89828a01611a2d565b955050604087013567ffffffffffffffff811115611b1e57611b1d61191a565b5b611b2a89828a01611a2d565b945050606087013567ffffffffffffffff811115611b4b57611b4a61191a565b5b611b5789828a01611a2d565b9350506080611b6889828a01611a79565b92505060a0611b7989828a01611a79565b9150509295509295509295565b5f805f60608486031215611b9d57611b9c611916565b5b5f611baa86828701611a79565b9350506020611bbb86828701611a79565b9250506040611bcc86828701611a79565b9150509250925092565b611bdf81611a5a565b82525050565b5f602082019050611bf85f830184611bd6565b92915050565b5f60208284031215611c1357611c12611916565b5b5f611c2084828501611a79565b91505092915050565b611c3281611a5a565b82525050565b5f73ffffffffffffffffffffffffffffffffffffffff82169050919050565b5f611c6182611c38565b9050919050565b611c7181611c57565b82525050565b5f81519050919050565b5f82825260208201905092915050565b5f5b83811015611cae578082015181840152602081019050611c93565b5f8484015250505050565b5f611cc382611c77565b611ccd8185611c81565b9350611cdd818560208601611c91565b611ce681611926565b840191505092915050565b5f8115159050919050565b611d0581611cf1565b82525050565b5f61016083015f830151611d215f860182611c29565b506020830151611d346020860182611c68565b5060408301518482036040860152611d4c8282611cb9565b91505060608301518482036060860152611d668282611cb9565b91505060808301518482036080860152611d808282611cb9565b91505060a083015184820360a0860152611d9a8282611cb9565b91505060c0830151611daf60c0860182611c29565b5060e0830151611dc260e0860182611c29565b50610100830151611dd7610100860182611c68565b50610120830151611dec610120860182611c29565b50610140830151611e01610140860182611cfc565b508091505092915050565b5f6020820190508181035f830152611e248184611d0b565b905092915050565b611e3581611c57565b82525050565b5f82825260208201905092915050565b5f611e5582611c77565b611e5f8185611e3b565b9350611e6f818560208601611c91565b611e7881611926565b840191505092915050565b611e8c81611cf1565b82525050565b5f61016082019050611ea65f83018e611bd6565b611eb3602083018d611e2c565b8181036040830152611ec5818c611e4b565b90508181036060830152611ed9818b611e4b565b90508181036080830152611eed818a611e4b565b905081810360a0830152611f018189611e4b565b9050611f1060c0830188611bd6565b611f1d60e0830187611bd6565b611f2b610100830186611e2c565b611f39610120830185611bd6565b611f47610140830184611e83565b9c9b505050505050505050505050565b5f805f805f60a08688031215611f7057611f6f611916565b5b5f611f7d88828901611a79565b955050602086013567ffffffffffffffff811115611f9e57611f9d61191a565b5b611faa88828901611a2d565b945050604086013567ffffffffffffffff811115611fcb57611fca61191a565b5b611fd788828901611a2d565b935050606086013567ffffffffffffffff811115611ff857611ff761191a565b5b61200488828901611a2d565b925050608086013567ffffffffffffffff8111156120255761202461191a565b5b61203188828901611a2d565b9150509295509295909350565b5f81519050919050565b5f82825260208201905092915050565b5f819050602082019050919050565b5f61016083015f83015161207d5f860182611c29565b5060208301516120906020860182611c68565b50604083015184820360408601526120a88282611cb9565b915050606083015184820360608601526120c28282611cb9565b915050608083015184820360808601526120dc8282611cb9565b91505060a083015184820360a08601526120f68282611cb9565b91505060c083015161210b60c0860182611c29565b5060e083015161211e60e0860182611c29565b50610100830151612133610100860182611c68565b50610120830151612148610120860182611c29565b5061014083015161215d610140860182611cfc565b508091505092915050565b5f6121738383612067565b905092915050565b5f602082019050919050565b5f6121918261203e565b61219b8185612048565b9350836020820285016121ad85612058565b805f5b858110156121e857848403895281516121c98582612168565b94506121d48361217b565b925060208a019950506001810190506121b0565b50829750879550505050505092915050565b5f6020820190508181035f8301526122128184612187565b905092915050565b7f4e487b71000000000000000000000000000000000000000000000000000000005f52601160045260245ffd5b5f61225182611a5a565b915061225c83611a5a565b92508282019050808211156122745761227361221a565b5b92915050565b7f4e487b71000000000000000000000000000000000000000000000000000000005f52602260045260245ffd5b5f60028204905060018216806122be57607f821691505b6020821081036122d1576122d061227a565b5b50919050565b5f819050815f5260205f209050919050565b5f6020601f8301049050919050565b5f82821b905092915050565b5f600883026123337fffffffffffffffffffffffffffffffffffffffffffffffffffffffffffffffff826122f8565b61233d86836122f8565b95508019841693508086168417925050509392505050565b5f819050919050565b5f61237861237361236e84611a5a565b612355565b611a5a565b9050919050565b5f819050919050565b6123918361235e565b6123a561239d8261237f565b848454612304565b825550505050565b5f90565b6123b96123ad565b6123c4818484612388565b505050565b5b818110156123e7576123dc5f826123b1565b6001810190506123ca565b5050565b601f82111561242c576123fd816122d7565b612406846122e9565b81016020851015612415578190505b612429612421856122e9565b8301826123c9565b50505b505050565b5f82821c905092915050565b5f61244c5f1984600802612431565b1980831691505092915050565b5f612464838361243d565b9150826002028217905092915050565b61247d82611c77565b67ffffffffffffffff81111561249657612495611936565b5b6124a082546122a7565b6124ab8282856123eb565b5f60209050601f8311600181146124dc575f84156124ca578287015190505b6124d48582612459565b86555061253b565b601f1984166124ea866122d7565b5f5b82811015612511578489015182556001820191506020850194506020810190506124ec565b8683101561252e578489015161252a601f89168261243d565b8355505b6001600288020188555050505b505050505050565b5f6060820190508181035f83015261255b8186611e4b565b9050818103602083015261256f8185611e4b565b905061257e6040830184611bd6565b949350505050565b7f4f6e6c7920746865206f776e65722063616e20757064617465207468652061755f8201527f6374696f6e2064657461696c732e000000000000000000000000000000000000602082015250565b5f6125e0602e83611e3b565b91506125eb82612586565b604082019050919050565b5f6020820190508181035f83015261260d816125d4565b9050919050565b5f6040820190506126275f830185611bd6565b6126346020830184611bd6565b9392505050565b7f41756374696f6e2068617320656e6465642e00000000000000000000000000005f82015250565b5f61266f601283611e3b565b915061267a8261263b565b602082019050919050565b5f6020820190508181035f83015261269c81612663565b9050919050565b7f426964206973206e6f74206869676820656e6f7567682e0000000000000000005f82015250565b5f6126d7601783611e3b565b91506126e2826126a3565b602082019050919050565b5f6020820190508181035f830152612704816126cb565b9050919050565b7f496e697469616c206269642069732062656c6f7720746865207374617274696e5f8201527f672070726963652e000000000000000000000000000000000000000000000000602082015250565b5f612765602883611e3b565b91506127708261270b565b604082019050919050565b5f6020820190508181035f83015261279281612759565b9050919050565b7f4f6e6c7920746865206f776e65722063616e20757064617465207468652061725f8201527f74776f726b2064657461696c732e000000000000000000000000000000000000602082015250565b5f6127f3602e83611e3b565b91506127fe82612799565b604082019050919050565b5f6020820190508181035f830152612820816127e7565b9050919050565b7f4e487b71000000000000000000000000000000000000000000000000000000005f52603260045260245ffd5b5f61285e82611a5a565b91507fffffffffffffffffffffffffffffffffffffffffffffffffffffffffffffffff82036128905761288f61221a565b5b600182019050919050565b7f4f6e6c7920746865206f776e65722063616e20656e64207468652061756374695f8201527f6f6e2e0000000000000000000000000000000000000000000000000000000000602082015250565b5f6128f5602383611e3b565b91506129008261289b565b604082019050919050565b5f6020820190508181035f830152612922816128e9565b9050919050565b7f41756374696f6e206973207374696c6c206f6e676f696e672e000000000000005f82015250565b5f61295d601983611e3b565b915061296882612929565b602082019050919050565b5f6020820190508181035f83015261298a81612951565b9050919050565b7f41756374696f6e2068617320616c726561647920656e6465642e0000000000005f82015250565b5f6129c5601a83611e3b565b91506129d082612991565b602082019050919050565b5f6020820190508181035f8301526129f2816129b9565b9050919050565b5f612a13612a0e612a0984611c38565b612355565b611c38565b9050919050565b5f612a24826129f9565b9050919050565b5f612a3582612a1a565b9050919050565b612a4581612a2b565b82525050565b5f604082019050612a5e5f830185612a3c565b612a6b6020830184611bd6565b9392505050565b7f436f756e7465723a2064656372656d656e74206f766572666c6f7700000000005f82015250565b5f612aa6601b83611e3b565b9150612ab182612a72565b602082019050919050565b5f6020820190508181035f830152612ad381612a9a565b905091905056fea2646970667358221220b957db1acdd5e6189909f4964a08bcbdbecc3d30ec0f8016b36b38bf9fa78ddb64736f6c63430008150033",
			"opcodes": "PUSH1 0x80 PUSH1 0x40 MSTORE CALLVALUE DUP1 ISZERO PUSH2 0xF JUMPI PUSH0 DUP1 REVERT JUMPDEST POP PUSH2 0x2B10 DUP1 PUSH2 0x1D PUSH0 CODECOPY PUSH0 RETURN INVALID PUSH1 0x80 PUSH1 0x40 MSTORE PUSH1 0x4 CALLDATASIZE LT PUSH2 0xC5 JUMPI PUSH0 CALLDATALOAD PUSH1 0xE0 SHR DUP1 PUSH4 0x5D1A2EF0 GT PUSH2 0x7E JUMPI DUP1 PUSH4 0x9C0CC30C GT PUSH2 0x58 JUMPI DUP1 PUSH4 0x9C0CC30C EQ PUSH2 0x268 JUMPI DUP1 PUSH4 0xB9A2DE3A EQ PUSH2 0x292 JUMPI DUP1 PUSH4 0xE5FC3350 EQ PUSH2 0x2BA JUMPI DUP1 PUSH4 0xF94C8E98 EQ PUSH2 0x2E4 JUMPI PUSH2 0xCC JUMP JUMPDEST DUP1 PUSH4 0x5D1A2EF0 EQ PUSH2 0x1E8 JUMPI DUP1 PUSH4 0x6FA68AE6 EQ PUSH2 0x204 JUMPI DUP1 PUSH4 0x9805D485 EQ PUSH2 0x22C JUMPI PUSH2 0xCC JUMP JUMPDEST DUP1 PUSH4 0x7F52E01 EQ PUSH2 0xD0 JUMPI DUP1 PUSH4 0xD856664 EQ PUSH2 0xF8 JUMPI DUP1 PUSH4 0x12065FE0 EQ PUSH2 0x120 JUMPI DUP1 PUSH4 0x167DDF6E EQ PUSH2 0x14A JUMPI DUP1 PUSH4 0x454A2AB3 EQ PUSH2 0x186 JUMPI DUP1 PUSH4 0x4B602673 EQ PUSH2 0x1A2 JUMPI PUSH2 0xCC JUMP JUMPDEST CALLDATASIZE PUSH2 0xCC JUMPI STOP JUMPDEST PUSH0 DUP1 REVERT JUMPDEST CALLVALUE DUP1 ISZERO PUSH2 0xDB JUMPI PUSH0 DUP1 REVERT JUMPDEST POP PUSH2 0xF6 PUSH1 0x4 DUP1 CALLDATASIZE SUB DUP2 ADD SWAP1 PUSH2 0xF1 SWAP2 SWAP1 PUSH2 0x1A8D JUMP JUMPDEST PUSH2 0x30E JUMP JUMPDEST STOP JUMPDEST CALLVALUE DUP1 ISZERO PUSH2 0x103 JUMPI PUSH0 DUP1 REVERT JUMPDEST POP PUSH2 0x11E PUSH1 0x4 DUP1 CALLDATASIZE SUB DUP2 ADD SWAP1 PUSH2 0x119 SWAP2 SWAP1 PUSH2 0x1B86 JUMP JUMPDEST PUSH2 0x55D JUMP JUMPDEST STOP JUMPDEST CALLVALUE DUP1 ISZERO PUSH2 0x12B JUMPI PUSH0 DUP1 REVERT JUMPDEST POP PUSH2 0x134 PUSH2 0x654 JUMP JUMPDEST PUSH1 0x40 MLOAD PUSH2 0x141 SWAP2 SWAP1 PUSH2 0x1BE5 JUMP JUMPDEST PUSH1 0x40 MLOAD DUP1 SWAP2 SUB SWAP1 RETURN JUMPDEST CALLVALUE DUP1 ISZERO PUSH2 0x155 JUMPI PUSH0 DUP1 REVERT JUMPDEST POP PUSH2 0x170 PUSH1 0x4 DUP1 CALLDATASIZE SUB DUP2 ADD SWAP1 PUSH2 0x16B SWAP2 SWAP1 PUSH2 0x1BFE JUMP JUMPDEST PUSH2 0x65B JUMP JUMPDEST PUSH1 0x40 MLOAD PUSH2 0x17D SWAP2 SWAP1 PUSH2 0x1E0C JUMP JUMPDEST PUSH1 0x40 MLOAD DUP1 SWAP2 SUB SWAP1 RETURN JUMPDEST PUSH2 0x1A0 PUSH1 0x4 DUP1 CALLDATASIZE SUB DUP2 ADD SWAP1 PUSH2 0x19B SWAP2 SWAP1 PUSH2 0x1BFE JUMP JUMPDEST PUSH2 0x9B2 JUMP JUMPDEST STOP JUMPDEST CALLVALUE DUP1 ISZERO PUSH2 0x1AD JUMPI PUSH0 DUP1 REVERT JUMPDEST POP PUSH2 0x1C8 PUSH1 0x4 DUP1 CALLDATASIZE SUB DUP2 ADD SWAP1 PUSH2 0x1C3 SWAP2 SWAP1 PUSH2 0x1BFE JUMP JUMPDEST PUSH2 0xBB2 JUMP JUMPDEST PUSH1 0x40 MLOAD PUSH2 0x1DF SWAP12 SWAP11 SWAP10 SWAP9 SWAP8 SWAP7 SWAP6 SWAP5 SWAP4 SWAP3 SWAP2 SWAP1 PUSH2 0x1E92 JUMP JUMPDEST PUSH1 0x40 MLOAD DUP1 SWAP2 SUB SWAP1 RETURN JUMPDEST PUSH2 0x202 PUSH1 0x4 DUP1 CALLDATASIZE SUB DUP2 ADD SWAP1 PUSH2 0x1FD SWAP2 SWAP1 PUSH2 0x1BFE JUMP JUMPDEST PUSH2 0xE6A JUMP JUMPDEST STOP JUMPDEST CALLVALUE DUP1 ISZERO PUSH2 0x20F JUMPI PUSH0 DUP1 REVERT JUMPDEST POP PUSH2 0x22A PUSH1 0x4 DUP1 CALLDATASIZE SUB DUP2 ADD SWAP1 PUSH2 0x225 SWAP2 SWAP1 PUSH2 0x1F57 JUMP JUMPDEST PUSH2 0x106B JUMP JUMPDEST STOP JUMPDEST CALLVALUE DUP1 ISZERO PUSH2 0x237 JUMPI PUSH0 DUP1 REVERT JUMPDEST POP PUSH2 0x252 PUSH1 0x4 DUP1 CALLDATASIZE SUB DUP2 ADD SWAP1 PUSH2 0x24D SWAP2 SWAP1 PUSH2 0x1BFE JUMP JUMPDEST PUSH2 0x118D JUMP JUMPDEST PUSH1 0x40 MLOAD PUSH2 0x25F SWAP2 SWAP1 PUSH2 0x1BE5 JUMP JUMPDEST PUSH1 0x40 MLOAD DUP1 SWAP2 SUB SWAP1 RETURN JUMPDEST CALLVALUE DUP1 ISZERO PUSH2 0x273 JUMPI PUSH0 DUP1 REVERT JUMPDEST POP PUSH2 0x27C PUSH2 0x11AD JUMP JUMPDEST PUSH1 0x40 MLOAD PUSH2 0x289 SWAP2 SWAP1 PUSH2 0x21FA JUMP JUMPDEST PUSH1 0x40 MLOAD DUP1 SWAP2 SUB SWAP1 RETURN JUMPDEST CALLVALUE DUP1 ISZERO PUSH2 0x29D JUMPI PUSH0 DUP1 REVERT JUMPDEST POP PUSH2 0x2B8 PUSH1 0x4 DUP1 CALLDATASIZE SUB DUP2 ADD SWAP1 PUSH2 0x2B3 SWAP2 SWAP1 PUSH2 0x1BFE JUMP JUMPDEST PUSH2 0x15B7 JUMP JUMPDEST STOP JUMPDEST CALLVALUE DUP1 ISZERO PUSH2 0x2C5 JUMPI PUSH0 DUP1 REVERT JUMPDEST POP PUSH2 0x2CE PUSH2 0x17F4 JUMP JUMPDEST PUSH1 0x40 MLOAD PUSH2 0x2DB SWAP2 SWAP1 PUSH2 0x1BE5 JUMP JUMPDEST PUSH1 0x40 MLOAD DUP1 SWAP2 SUB SWAP1 RETURN JUMPDEST CALLVALUE DUP1 ISZERO PUSH2 0x2EF JUMPI PUSH0 DUP1 REVERT JUMPDEST POP PUSH2 0x2F8 PUSH2 0x1804 JUMP JUMPDEST PUSH1 0x40 MLOAD PUSH2 0x305 SWAP2 SWAP1 PUSH2 0x1BE5 JUMP JUMPDEST PUSH1 0x40 MLOAD DUP1 SWAP2 SUB SWAP1 RETURN JUMPDEST PUSH2 0x317 PUSH0 PUSH2 0x1814 JUMP JUMPDEST PUSH0 PUSH2 0x321 PUSH0 PUSH2 0x1828 JUMP JUMPDEST SWAP1 POP PUSH1 0x40 MLOAD DUP1 PUSH2 0x160 ADD PUSH1 0x40 MSTORE DUP1 DUP3 DUP2 MSTORE PUSH1 0x20 ADD CALLER PUSH20 0xFFFFFFFFFFFFFFFFFFFFFFFFFFFFFFFFFFFFFFFF AND DUP2 MSTORE PUSH1 0x20 ADD DUP9 DUP2 MSTORE PUSH1 0x20 ADD DUP8 DUP2 MSTORE PUSH1 0x20 ADD DUP7 DUP2 MSTORE PUSH1 0x20 ADD DUP6 DUP2 MSTORE PUSH1 0x20 ADD DUP5 DUP2 MSTORE PUSH1 0x20 ADD PUSH0 DUP2 MSTORE PUSH1 0x20 ADD PUSH0 PUSH20 0xFFFFFFFFFFFFFFFFFFFFFFFFFFFFFFFFFFFFFFFF AND DUP2 MSTORE PUSH1 0x20 ADD DUP4 TIMESTAMP PUSH2 0x39D SWAP2 SWAP1 PUSH2 0x2247 JUMP JUMPDEST DUP2 MSTORE PUSH1 0x20 ADD PUSH0 ISZERO ISZERO DUP2 MSTORE POP PUSH1 0x3 PUSH0 DUP4 DUP2 MSTORE PUSH1 0x20 ADD SWAP1 DUP2 MSTORE PUSH1 0x20 ADD PUSH0 KECCAK256 PUSH0 DUP3 ADD MLOAD DUP2 PUSH0 ADD SSTORE PUSH1 0x20 DUP3 ADD MLOAD DUP2 PUSH1 0x1 ADD PUSH0 PUSH2 0x100 EXP DUP2 SLOAD DUP2 PUSH20 0xFFFFFFFFFFFFFFFFFFFFFFFFFFFFFFFFFFFFFFFF MUL NOT AND SWAP1 DUP4 PUSH20 0xFFFFFFFFFFFFFFFFFFFFFFFFFFFFFFFFFFFFFFFF AND MUL OR SWAP1 SSTORE POP PUSH1 0x40 DUP3 ADD MLOAD DUP2 PUSH1 0x2 ADD SWAP1 DUP2 PUSH2 0x41C SWAP2 SWAP1 PUSH2 0x2474 JUMP JUMPDEST POP PUSH1 0x60 DUP3 ADD MLOAD DUP2 PUSH1 0x3 ADD SWAP1 DUP2 PUSH2 0x432 SWAP2 SWAP1 PUSH2 0x2474 JUMP JUMPDEST POP PUSH1 0x80 DUP3 ADD MLOAD DUP2 PUSH1 0x4 ADD SWAP1 DUP2 PUSH2 0x448 SWAP2 SWAP1 PUSH2 0x2474 JUMP JUMPDEST POP PUSH1 0xA0 DUP3 ADD MLOAD DUP2 PUSH1 0x5 ADD SWAP1 DUP2 PUSH2 0x45E SWAP2 SWAP1 PUSH2 0x2474 JUMP JUMPDEST POP PUSH1 0xC0 DUP3 ADD MLOAD DUP2 PUSH1 0x6 ADD SSTORE PUSH1 0xE0 DUP3 ADD MLOAD DUP2 PUSH1 0x7 ADD SSTORE PUSH2 0x100 DUP3 ADD MLOAD DUP2 PUSH1 0x8 ADD PUSH0 PUSH2 0x100 EXP DUP2 SLOAD DUP2 PUSH20 0xFFFFFFFFFFFFFFFFFFFFFFFFFFFFFFFFFFFFFFFF MUL NOT AND SWAP1 DUP4 PUSH20 0xFFFFFFFFFFFFFFFFFFFFFFFFFFFFFFFFFFFFFFFF AND MUL OR SWAP1 SSTORE POP PUSH2 0x120 DUP3 ADD MLOAD DUP2 PUSH1 0x9 ADD SSTORE PUSH2 0x140 DUP3 ADD MLOAD DUP2 PUSH1 0xA ADD PUSH0 PUSH2 0x100 EXP DUP2 SLOAD DUP2 PUSH1 0xFF MUL NOT AND SWAP1 DUP4 ISZERO ISZERO MUL OR SWAP1 SSTORE POP SWAP1 POP POP PUSH1 0x4 DUP2 SWAP1 DUP1 PUSH1 0x1 DUP2 SLOAD ADD DUP1 DUP3 SSTORE DUP1 SWAP2 POP POP PUSH1 0x1 SWAP1 SUB SWAP1 PUSH0 MSTORE PUSH1 0x20 PUSH0 KECCAK256 ADD PUSH0 SWAP1 SWAP2 SWAP1 SWAP2 SWAP1 SWAP2 POP SSTORE PUSH2 0x518 PUSH1 0x1 PUSH2 0x1814 JUMP JUMPDEST DUP1 PUSH32 0x4844EEF316B579E3DE2C8C0AE4E0C2AA929948A4DE0512B928E8B69E8E0EB828 DUP9 DUP9 DUP7 PUSH1 0x40 MLOAD PUSH2 0x54C SWAP4 SWAP3 SWAP2 SWAP1 PUSH2 0x2543 JUMP JUMPDEST PUSH1 0x40 MLOAD DUP1 SWAP2 SUB SWAP1 LOG2 POP POP POP POP POP POP POP JUMP JUMPDEST PUSH0 PUSH1 0x3 PUSH0 DUP6 DUP2 MSTORE PUSH1 0x20 ADD SWAP1 DUP2 MSTORE PUSH1 0x20 ADD PUSH0 KECCAK256 SWAP1 POP DUP1 PUSH1 0x1 ADD PUSH0 SWAP1 SLOAD SWAP1 PUSH2 0x100 EXP SWAP1 DIV PUSH20 0xFFFFFFFFFFFFFFFFFFFFFFFFFFFFFFFFFFFFFFFF AND PUSH20 0xFFFFFFFFFFFFFFFFFFFFFFFFFFFFFFFFFFFFFFFF AND CALLER PUSH20 0xFFFFFFFFFFFFFFFFFFFFFFFFFFFFFFFFFFFFFFFF AND EQ PUSH2 0x602 JUMPI PUSH1 0x40 MLOAD PUSH32 0x8C379A000000000000000000000000000000000000000000000000000000000 DUP2 MSTORE PUSH1 0x4 ADD PUSH2 0x5F9 SWAP1 PUSH2 0x25F6 JUMP JUMPDEST PUSH1 0x40 MLOAD DUP1 SWAP2 SUB SWAP1 REVERT JUMPDEST DUP3 DUP2 PUSH1 0x9 ADD DUP2 SWAP1 SSTORE POP DUP2 DUP2 PUSH1 0x6 ADD DUP2 SWAP1 SSTORE POP DUP4 PUSH32 0x364B79005DD15E524680D4A8482888120DCC595F290E7BCD79F1EF78B4EF6316 DUP5 DUP5 PUSH1 0x40 MLOAD PUSH2 0x646 SWAP3 SWAP2 SWAP1 PUSH2 0x2614 JUMP JUMPDEST PUSH1 0x40 MLOAD DUP1 SWAP2 SUB SWAP1 LOG2 POP POP POP POP JUMP JUMPDEST PUSH0 SELFBALANCE SWAP1 POP SWAP1 JUMP JUMPDEST PUSH2 0x663 PUSH2 0x188C JUMP JUMPDEST PUSH1 0x3 PUSH0 DUP4 DUP2 MSTORE PUSH1 0x20 ADD SWAP1 DUP2 MSTORE PUSH1 0x20 ADD PUSH0 KECCAK256 PUSH1 0x40 MLOAD DUP1 PUSH2 0x160 ADD PUSH1 0x40 MSTORE SWAP1 DUP2 PUSH0 DUP3 ADD SLOAD DUP2 MSTORE PUSH1 0x20 ADD PUSH1 0x1 DUP3 ADD PUSH0 SWAP1 SLOAD SWAP1 PUSH2 0x100 EXP SWAP1 DIV PUSH20 0xFFFFFFFFFFFFFFFFFFFFFFFFFFFFFFFFFFFFFFFF AND PUSH20 0xFFFFFFFFFFFFFFFFFFFFFFFFFFFFFFFFFFFFFFFF AND PUSH20 0xFFFFFFFFFFFFFFFFFFFFFFFFFFFFFFFFFFFFFFFF AND DUP2 MSTORE PUSH1 0x20 ADD PUSH1 0x2 DUP3 ADD DUP1 SLOAD PUSH2 0x6EE SWAP1 PUSH2 0x22A7 JUMP JUMPDEST DUP1 PUSH1 0x1F ADD PUSH1 0x20 DUP1 SWAP2 DIV MUL PUSH1 0x20 ADD PUSH1 0x40 MLOAD SWAP1 DUP2 ADD PUSH1 0x40 MSTORE DUP1 SWAP3 SWAP2 SWAP1 DUP2 DUP2 MSTORE PUSH1 0x20 ADD DUP3 DUP1 SLOAD PUSH2 0x71A SWAP1 PUSH2 0x22A7 JUMP JUMPDEST DUP1 ISZERO PUSH2 0x765 JUMPI DUP1 PUSH1 0x1F LT PUSH2 0x73C JUMPI PUSH2 0x100 DUP1 DUP4 SLOAD DIV MUL DUP4 MSTORE SWAP2 PUSH1 0x20 ADD SWAP2 PUSH2 0x765 JUMP JUMPDEST DUP3 ADD SWAP2 SWAP1 PUSH0 MSTORE PUSH1 0x20 PUSH0 KECCAK256 SWAP1 JUMPDEST DUP2 SLOAD DUP2 MSTORE SWAP1 PUSH1 0x1 ADD SWAP1 PUSH1 0x20 ADD DUP1 DUP4 GT PUSH2 0x748 JUMPI DUP3 SWAP1 SUB PUSH1 0x1F AND DUP3 ADD SWAP2 JUMPDEST POP POP POP POP POP DUP2 MSTORE PUSH1 0x20 ADD PUSH1 0x3 DUP3 ADD DUP1 SLOAD PUSH2 0x77E SWAP1 PUSH2 0x22A7 JUMP JUMPDEST DUP1 PUSH1 0x1F ADD PUSH1 0x20 DUP1 SWAP2 DIV MUL PUSH1 0x20 ADD PUSH1 0x40 MLOAD SWAP1 DUP2 ADD PUSH1 0x40 MSTORE DUP1 SWAP3 SWAP2 SWAP1 DUP2 DUP2 MSTORE PUSH1 0x20 ADD DUP3 DUP1 SLOAD PUSH2 0x7AA SWAP1 PUSH2 0x22A7 JUMP JUMPDEST DUP1 ISZERO PUSH2 0x7F5 JUMPI DUP1 PUSH1 0x1F LT PUSH2 0x7CC JUMPI PUSH2 0x100 DUP1 DUP4 SLOAD DIV MUL DUP4 MSTORE SWAP2 PUSH1 0x20 ADD SWAP2 PUSH2 0x7F5 JUMP JUMPDEST DUP3 ADD SWAP2 SWAP1 PUSH0 MSTORE PUSH1 0x20 PUSH0 KECCAK256 SWAP1 JUMPDEST DUP2 SLOAD DUP2 MSTORE SWAP1 PUSH1 0x1 ADD SWAP1 PUSH1 0x20 ADD DUP1 DUP4 GT PUSH2 0x7D8 JUMPI DUP3 SWAP1 SUB PUSH1 0x1F AND DUP3 ADD SWAP2 JUMPDEST POP POP POP POP POP DUP2 MSTORE PUSH1 0x20 ADD PUSH1 0x4 DUP3 ADD DUP1 SLOAD PUSH2 0x80E SWAP1 PUSH2 0x22A7 JUMP JUMPDEST DUP1 PUSH1 0x1F ADD PUSH1 0x20 DUP1 SWAP2 DIV MUL PUSH1 0x20 ADD PUSH1 0x40 MLOAD SWAP1 DUP2 ADD PUSH1 0x40 MSTORE DUP1 SWAP3 SWAP2 SWAP1 DUP2 DUP2 MSTORE PUSH1 0x20 ADD DUP3 DUP1 SLOAD PUSH2 0x83A SWAP1 PUSH2 0x22A7 JUMP JUMPDEST DUP1 ISZERO PUSH2 0x885 JUMPI DUP1 PUSH1 0x1F LT PUSH2 0x85C JUMPI PUSH2 0x100 DUP1 DUP4 SLOAD DIV MUL DUP4 MSTORE SWAP2 PUSH1 0x20 ADD SWAP2 PUSH2 0x885 JUMP JUMPDEST DUP3 ADD SWAP2 SWAP1 PUSH0 MSTORE PUSH1 0x20 PUSH0 KECCAK256 SWAP1 JUMPDEST DUP2 SLOAD DUP2 MSTORE SWAP1 PUSH1 0x1 ADD SWAP1 PUSH1 0x20 ADD DUP1 DUP4 GT PUSH2 0x868 JUMPI DUP3 SWAP1 SUB PUSH1 0x1F AND DUP3 ADD SWAP2 JUMPDEST POP POP POP POP POP DUP2 MSTORE PUSH1 0x20 ADD PUSH1 0x5 DUP3 ADD DUP1 SLOAD PUSH2 0x89E SWAP1 PUSH2 0x22A7 JUMP JUMPDEST DUP1 PUSH1 0x1F ADD PUSH1 0x20 DUP1 SWAP2 DIV MUL PUSH1 0x20 ADD PUSH1 0x40 MLOAD SWAP1 DUP2 ADD PUSH1 0x40 MSTORE DUP1 SWAP3 SWAP2 SWAP1 DUP2 DUP2 MSTORE PUSH1 0x20 ADD DUP3 DUP1 SLOAD PUSH2 0x8CA SWAP1 PUSH2 0x22A7 JUMP JUMPDEST DUP1 ISZERO PUSH2 0x915 JUMPI DUP1 PUSH1 0x1F LT PUSH2 0x8EC JUMPI PUSH2 0x100 DUP1 DUP4 SLOAD DIV MUL DUP4 MSTORE SWAP2 PUSH1 0x20 ADD SWAP2 PUSH2 0x915 JUMP JUMPDEST DUP3 ADD SWAP2 SWAP1 PUSH0 MSTORE PUSH1 0x20 PUSH0 KECCAK256 SWAP1 JUMPDEST DUP2 SLOAD DUP2 MSTORE SWAP1 PUSH1 0x1 ADD SWAP1 PUSH1 0x20 ADD DUP1 DUP4 GT PUSH2 0x8F8 JUMPI DUP3 SWAP1 SUB PUSH1 0x1F AND DUP3 ADD SWAP2 JUMPDEST POP POP POP POP POP DUP2 MSTORE PUSH1 0x20 ADD PUSH1 0x6 DUP3 ADD SLOAD DUP2 MSTORE PUSH1 0x20 ADD PUSH1 0x7 DUP3 ADD SLOAD DUP2 MSTORE PUSH1 0x20 ADD PUSH1 0x8 DUP3 ADD PUSH0 SWAP1 SLOAD SWAP1 PUSH2 0x100 EXP SWAP1 DIV PUSH20 0xFFFFFFFFFFFFFFFFFFFFFFFFFFFFFFFFFFFFFFFF AND PUSH20 0xFFFFFFFFFFFFFFFFFFFFFFFFFFFFFFFFFFFFFFFF AND PUSH20 0xFFFFFFFFFFFFFFFFFFFFFFFFFFFFFFFFFFFFFFFF AND DUP2 MSTORE PUSH1 0x20 ADD PUSH1 0x9 DUP3 ADD SLOAD DUP2 MSTORE PUSH1 0x20 ADD PUSH1 0xA DUP3 ADD PUSH0 SWAP1 SLOAD SWAP1 PUSH2 0x100 EXP SWAP1 DIV PUSH1 0xFF AND ISZERO ISZERO ISZERO ISZERO DUP2 MSTORE POP POP SWAP1 POP SWAP2 SWAP1 POP JUMP JUMPDEST PUSH0 PUSH1 0x3 PUSH0 DUP4 DUP2 MSTORE PUSH1 0x20 ADD SWAP1 DUP2 MSTORE PUSH1 0x20 ADD PUSH0 KECCAK256 SWAP1 POP DUP1 PUSH1 0x9 ADD SLOAD TIMESTAMP LT PUSH2 0xA0C JUMPI PUSH1 0x40 MLOAD PUSH32 0x8C379A000000000000000000000000000000000000000000000000000000000 DUP2 MSTORE PUSH1 0x4 ADD PUSH2 0xA03 SWAP1 PUSH2 0x2685 JUMP JUMPDEST PUSH1 0x40 MLOAD DUP1 SWAP2 SUB SWAP1 REVERT JUMPDEST DUP1 PUSH1 0x7 ADD SLOAD CALLVALUE GT PUSH2 0xA52 JUMPI PUSH1 0x40 MLOAD PUSH32 0x8C379A000000000000000000000000000000000000000000000000000000000 DUP2 MSTORE PUSH1 0x4 ADD PUSH2 0xA49 SWAP1 PUSH2 0x26ED JUMP JUMPDEST PUSH1 0x40 MLOAD DUP1 SWAP2 SUB SWAP1 REVERT JUMPDEST PUSH0 PUSH20 0xFFFFFFFFFFFFFFFFFFFFFFFFFFFFFFFFFFFFFFFF AND DUP2 PUSH1 0x8 ADD PUSH0 SWAP1 SLOAD SWAP1 PUSH2 0x100 EXP SWAP1 DIV PUSH20 0xFFFFFFFFFFFFFFFFFFFFFFFFFFFFFFFFFFFFFFFF AND PUSH20 0xFFFFFFFFFFFFFFFFFFFFFFFFFFFFFFFFFFFFFFFF AND EQ PUSH2 0xB14 JUMPI DUP1 PUSH1 0x8 ADD PUSH0 SWAP1 SLOAD SWAP1 PUSH2 0x100 EXP SWAP1 DIV PUSH20 0xFFFFFFFFFFFFFFFFFFFFFFFFFFFFFFFFFFFFFFFF AND PUSH20 0xFFFFFFFFFFFFFFFFFFFFFFFFFFFFFFFFFFFFFFFF AND PUSH2 0x8FC DUP3 PUSH1 0x7 ADD SLOAD SWAP1 DUP2 ISZERO MUL SWAP1 PUSH1 0x40 MLOAD PUSH0 PUSH1 0x40 MLOAD DUP1 DUP4 SUB DUP2 DUP6 DUP9 DUP9 CALL SWAP4 POP POP POP POP ISZERO DUP1 ISZERO PUSH2 0xB12 JUMPI RETURNDATASIZE PUSH0 DUP1 RETURNDATACOPY RETURNDATASIZE PUSH0 REVERT JUMPDEST POP JUMPDEST CALLVALUE DUP2 PUSH1 0x7 ADD DUP2 SWAP1 SSTORE POP CALLER DUP2 PUSH1 0x8 ADD PUSH0 PUSH2 0x100 EXP DUP2 SLOAD DUP2 PUSH20 0xFFFFFFFFFFFFFFFFFFFFFFFFFFFFFFFFFFFFFFFF MUL NOT AND SWAP1 DUP4 PUSH20 0xFFFFFFFFFFFFFFFFFFFFFFFFFFFFFFFFFFFFFFFF AND MUL OR SWAP1 SSTORE POP CALLER PUSH20 0xFFFFFFFFFFFFFFFFFFFFFFFFFFFFFFFFFFFFFFFF AND DUP3 PUSH32 0x558A0D5D5468D74B0DB24C74EB348B42271C2EBB4C9E953CED38AAED95FA4361 CALLVALUE PUSH1 0x40 MLOAD PUSH2 0xBA6 SWAP2 SWAP1 PUSH2 0x1BE5 JUMP JUMPDEST PUSH1 0x40 MLOAD DUP1 SWAP2 SUB SWAP1 LOG3 POP POP JUMP JUMPDEST PUSH1 0x3 PUSH1 0x20 MSTORE DUP1 PUSH0 MSTORE PUSH1 0x40 PUSH0 KECCAK256 PUSH0 SWAP2 POP SWAP1 POP DUP1 PUSH0 ADD SLOAD SWAP1 DUP1 PUSH1 0x1 ADD PUSH0 SWAP1 SLOAD SWAP1 PUSH2 0x100 EXP SWAP1 DIV PUSH20 0xFFFFFFFFFFFFFFFFFFFFFFFFFFFFFFFFFFFFFFFF AND SWAP1 DUP1 PUSH1 0x2 ADD DUP1 SLOAD PUSH2 0xBFC SWAP1 PUSH2 0x22A7 JUMP JUMPDEST DUP1 PUSH1 0x1F ADD PUSH1 0x20 DUP1 SWAP2 DIV MUL PUSH1 0x20 ADD PUSH1 0x40 MLOAD SWAP1 DUP2 ADD PUSH1 0x40 MSTORE DUP1 SWAP3 SWAP2 SWAP1 DUP2 DUP2 MSTORE PUSH1 0x20 ADD DUP3 DUP1 SLOAD PUSH2 0xC28 SWAP1 PUSH2 0x22A7 JUMP JUMPDEST DUP1 ISZERO PUSH2 0xC73 JUMPI DUP1 PUSH1 0x1F LT PUSH2 0xC4A JUMPI PUSH2 0x100 DUP1 DUP4 SLOAD DIV MUL DUP4 MSTORE SWAP2 PUSH1 0x20 ADD SWAP2 PUSH2 0xC73 JUMP JUMPDEST DUP3 ADD SWAP2 SWAP1 PUSH0 MSTORE PUSH1 0x20 PUSH0 KECCAK256 SWAP1 JUMPDEST DUP2 SLOAD DUP2 MSTORE SWAP1 PUSH1 0x1 ADD SWAP1 PUSH1 0x20 ADD DUP1 DUP4 GT PUSH2 0xC56 JUMPI DUP3 SWAP1 SUB PUSH1 0x1F AND DUP3 ADD SWAP2 JUMPDEST POP POP POP POP POP SWAP1 DUP1 PUSH1 0x3 ADD DUP1 SLOAD PUSH2 0xC88 SWAP1 PUSH2 0x22A7 JUMP JUMPDEST DUP1 PUSH1 0x1F ADD PUSH1 0x20 DUP1 SWAP2 DIV MUL PUSH1 0x20 ADD PUSH1 0x40 MLOAD SWAP1 DUP2 ADD PUSH1 0x40 MSTORE DUP1 SWAP3 SWAP2 SWAP1 DUP2 DUP2 MSTORE PUSH1 0x20 ADD DUP3 DUP1 SLOAD PUSH2 0xCB4 SWAP1 PUSH2 0x22A7 JUMP JUMPDEST DUP1 ISZERO PUSH2 0xCFF JUMPI DUP1 PUSH1 0x1F LT PUSH2 0xCD6 JUMPI PUSH2 0x100 DUP1 DUP4 SLOAD DIV MUL DUP4 MSTORE SWAP2 PUSH1 0x20 ADD SWAP2 PUSH2 0xCFF JUMP JUMPDEST DUP3 ADD SWAP2 SWAP1 PUSH0 MSTORE PUSH1 0x20 PUSH0 KECCAK256 SWAP1 JUMPDEST DUP2 SLOAD DUP2 MSTORE SWAP1 PUSH1 0x1 ADD SWAP1 PUSH1 0x20 ADD DUP1 DUP4 GT PUSH2 0xCE2 JUMPI DUP3 SWAP1 SUB PUSH1 0x1F AND DUP3 ADD SWAP2 JUMPDEST POP POP POP POP POP SWAP1 DUP1 PUSH1 0x4 ADD DUP1 SLOAD PUSH2 0xD14 SWAP1 PUSH2 0x22A7 JUMP JUMPDEST DUP1 PUSH1 0x1F ADD PUSH1 0x20 DUP1 SWAP2 DIV MUL PUSH1 0x20 ADD PUSH1 0x40 MLOAD SWAP1 DUP2 ADD PUSH1 0x40 MSTORE DUP1 SWAP3 SWAP2 SWAP1 DUP2 DUP2 MSTORE PUSH1 0x20 ADD DUP3 DUP1 SLOAD PUSH2 0xD40 SWAP1 PUSH2 0x22A7 JUMP JUMPDEST DUP1 ISZERO PUSH2 0xD8B JUMPI DUP1 PUSH1 0x1F LT PUSH2 0xD62 JUMPI PUSH2 0x100 DUP1 DUP4 SLOAD DIV MUL DUP4 MSTORE SWAP2 PUSH1 0x20 ADD SWAP2 PUSH2 0xD8B JUMP JUMPDEST DUP3 ADD SWAP2 SWAP1 PUSH0 MSTORE PUSH1 0x20 PUSH0 KECCAK256 SWAP1 JUMPDEST DUP2 SLOAD DUP2 MSTORE SWAP1 PUSH1 0x1 ADD SWAP1 PUSH1 0x20 ADD DUP1 DUP4 GT PUSH2 0xD6E JUMPI DUP3 SWAP1 SUB PUSH1 0x1F AND DUP3 ADD SWAP2 JUMPDEST POP POP POP POP POP SWAP1 DUP1 PUSH1 0x5 ADD DUP1 SLOAD PUSH2 0xDA0 SWAP1 PUSH2 0x22A7 JUMP JUMPDEST DUP1 PUSH1 0x1F ADD PUSH1 0x20 DUP1 SWAP2 DIV MUL PUSH1 0x20 ADD PUSH1 0x40 MLOAD SWAP1 DUP2 ADD PUSH1 0x40 MSTORE DUP1 SWAP3 SWAP2 SWAP1 DUP2 DUP2 MSTORE PUSH1 0x20 ADD DUP3 DUP1 SLOAD PUSH2 0xDCC SWAP1 PUSH2 0x22A7 JUMP JUMPDEST DUP1 ISZERO PUSH2 0xE17 JUMPI DUP1 PUSH1 0x1F LT PUSH2 0xDEE JUMPI PUSH2 0x100 DUP1 DUP4 SLOAD DIV MUL DUP4 MSTORE SWAP2 PUSH1 0x20 ADD SWAP2 PUSH2 0xE17 JUMP JUMPDEST DUP3 ADD SWAP2 SWAP1 PUSH0 MSTORE PUSH1 0x20 PUSH0 KECCAK256 SWAP1 JUMPDEST DUP2 SLOAD DUP2 MSTORE SWAP1 PUSH1 0x1 ADD SWAP1 PUSH1 0x20 ADD DUP1 DUP4 GT PUSH2 0xDFA JUMPI DUP3 SWAP1 SUB PUSH1 0x1F AND DUP3 ADD SWAP2 JUMPDEST POP POP POP POP POP SWAP1 DUP1 PUSH1 0x6 ADD SLOAD SWAP1 DUP1 PUSH1 0x7 ADD SLOAD SWAP1 DUP1 PUSH1 0x8 ADD PUSH0 SWAP1 SLOAD SWAP1 PUSH2 0x100 EXP SWAP1 DIV PUSH20 0xFFFFFFFFFFFFFFFFFFFFFFFFFFFFFFFFFFFFFFFF AND SWAP1 DUP1 PUSH1 0x9 ADD SLOAD SWAP1 DUP1 PUSH1 0xA ADD PUSH0 SWAP1 SLOAD SWAP1 PUSH2 0x100 EXP SWAP1 DIV PUSH1 0xFF AND SWAP1 POP DUP12 JUMP JUMPDEST PUSH0 PUSH1 0x3 PUSH0 DUP4 DUP2 MSTORE PUSH1 0x20 ADD SWAP1 DUP2 MSTORE PUSH1 0x20 ADD PUSH0 KECCAK256 SWAP1 POP DUP1 PUSH1 0x9 ADD SLOAD TIMESTAMP LT PUSH2 0xEC4 JUMPI PUSH1 0x40 MLOAD PUSH32 0x8C379A000000000000000000000000000000000000000000000000000000000 DUP2 MSTORE PUSH1 0x4 ADD PUSH2 0xEBB SWAP1 PUSH2 0x2685 JUMP JUMPDEST PUSH1 0x40 MLOAD DUP1 SWAP2 SUB SWAP1 REVERT JUMPDEST DUP1 PUSH1 0x6 ADD SLOAD CALLVALUE LT ISZERO PUSH2 0xF0B JUMPI PUSH1 0x40 MLOAD PUSH32 0x8C379A000000000000000000000000000000000000000000000000000000000 DUP2 MSTORE PUSH1 0x4 ADD PUSH2 0xF02 SWAP1 PUSH2 0x277B JUMP JUMPDEST PUSH1 0x40 MLOAD DUP1 SWAP2 SUB SWAP1 REVERT JUMPDEST PUSH0 PUSH20 0xFFFFFFFFFFFFFFFFFFFFFFFFFFFFFFFFFFFFFFFF AND DUP2 PUSH1 0x8 ADD PUSH0 SWAP1 SLOAD SWAP1 PUSH2 0x100 EXP SWAP1 DIV PUSH20 0xFFFFFFFFFFFFFFFFFFFFFFFFFFFFFFFFFFFFFFFF AND PUSH20 0xFFFFFFFFFFFFFFFFFFFFFFFFFFFFFFFFFFFFFFFF AND EQ PUSH2 0xFCD JUMPI DUP1 PUSH1 0x8 ADD PUSH0 SWAP1 SLOAD SWAP1 PUSH2 0x100 EXP SWAP1 DIV PUSH20 0xFFFFFFFFFFFFFFFFFFFFFFFFFFFFFFFFFFFFFFFF AND PUSH20 0xFFFFFFFFFFFFFFFFFFFFFFFFFFFFFFFFFFFFFFFF AND PUSH2 0x8FC DUP3 PUSH1 0x7 ADD SLOAD SWAP1 DUP2 ISZERO MUL SWAP1 PUSH1 0x40 MLOAD PUSH0 PUSH1 0x40 MLOAD DUP1 DUP4 SUB DUP2 DUP6 DUP9 DUP9 CALL SWAP4 POP POP POP POP ISZERO DUP1 ISZERO PUSH2 0xFCB JUMPI RETURNDATASIZE PUSH0 DUP1 RETURNDATACOPY RETURNDATASIZE PUSH0 REVERT JUMPDEST POP JUMPDEST CALLVALUE DUP2 PUSH1 0x7 ADD DUP2 SWAP1 SSTORE POP CALLER DUP2 PUSH1 0x8 ADD PUSH0 PUSH2 0x100 EXP DUP2 SLOAD DUP2 PUSH20 0xFFFFFFFFFFFFFFFFFFFFFFFFFFFFFFFFFFFFFFFF MUL NOT AND SWAP1 DUP4 PUSH20 0xFFFFFFFFFFFFFFFFFFFFFFFFFFFFFFFFFFFFFFFF AND MUL OR SWAP1 SSTORE POP CALLER PUSH20 0xFFFFFFFFFFFFFFFFFFFFFFFFFFFFFFFFFFFFFFFF AND DUP3 PUSH32 0x558A0D5D5468D74B0DB24C74EB348B42271C2EBB4C9E953CED38AAED95FA4361 CALLVALUE PUSH1 0x40 MLOAD PUSH2 0x105F SWAP2 SWAP1 PUSH2 0x1BE5 JUMP JUMPDEST PUSH1 0x40 MLOAD DUP1 SWAP2 SUB SWAP1 LOG3 POP POP JUMP JUMPDEST PUSH0 PUSH1 0x3 PUSH0 DUP8 DUP2 MSTORE PUSH1 0x20 ADD SWAP1 DUP2 MSTORE PUSH1 0x20 ADD PUSH0 KECCAK256 SWAP1 POP DUP1 PUSH1 0x1 ADD PUSH0 SWAP1 SLOAD SWAP1 PUSH2 0x100 EXP SWAP1 DIV PUSH20 0xFFFFFFFFFFFFFFFFFFFFFFFFFFFFFFFFFFFFFFFF AND PUSH20 0xFFFFFFFFFFFFFFFFFFFFFFFFFFFFFFFFFFFFFFFF AND CALLER PUSH20 0xFFFFFFFFFFFFFFFFFFFFFFFFFFFFFFFFFFFFFFFF AND EQ PUSH2 0x1110 JUMPI PUSH1 0x40 MLOAD PUSH32 0x8C379A000000000000000000000000000000000000000000000000000000000 DUP2 MSTORE PUSH1 0x4 ADD PUSH2 0x1107 SWAP1 PUSH2 0x2809 JUMP JUMPDEST PUSH1 0x40 MLOAD DUP1 SWAP2 SUB SWAP1 REVERT JUMPDEST DUP5 DUP2 PUSH1 0x2 ADD SWAP1 DUP2 PUSH2 0x1121 SWAP2 SWAP1 PUSH2 0x2474 JUMP JUMPDEST POP DUP4 DUP2 PUSH1 0x3 ADD SWAP1 DUP2 PUSH2 0x1133 SWAP2 SWAP1 PUSH2 0x2474 JUMP JUMPDEST POP DUP3 DUP2 PUSH1 0x4 ADD SWAP1 DUP2 PUSH2 0x1145 SWAP2 SWAP1 PUSH2 0x2474 JUMP JUMPDEST POP DUP2 DUP2 PUSH1 0x5 ADD SWAP1 DUP2 PUSH2 0x1157 SWAP2 SWAP1 PUSH2 0x2474 JUMP JUMPDEST POP DUP6 PUSH32 0xD1B00F33712BF6C5D2A3D7A2F14C309E2D6AE750407CF802872C40A8DA54C5A9 PUSH1 0x40 MLOAD PUSH1 0x40 MLOAD DUP1 SWAP2 SUB SWAP1 LOG2 POP POP POP POP POP POP JUMP JUMPDEST PUSH1 0x4 DUP2 DUP2 SLOAD DUP2 LT PUSH2 0x119C JUMPI PUSH0 DUP1 REVERT JUMPDEST SWAP1 PUSH0 MSTORE PUSH1 0x20 PUSH0 KECCAK256 ADD PUSH0 SWAP2 POP SWAP1 POP SLOAD DUP2 JUMP JUMPDEST PUSH1 0x60 PUSH0 PUSH1 0x4 DUP1 SLOAD SWAP1 POP PUSH8 0xFFFFFFFFFFFFFFFF DUP2 GT ISZERO PUSH2 0x11CF JUMPI PUSH2 0x11CE PUSH2 0x1936 JUMP JUMPDEST JUMPDEST PUSH1 0x40 MLOAD SWAP1 DUP1 DUP3 MSTORE DUP1 PUSH1 0x20 MUL PUSH1 0x20 ADD DUP3 ADD PUSH1 0x40 MSTORE DUP1 ISZERO PUSH2 0x1208 JUMPI DUP2 PUSH1 0x20 ADD JUMPDEST PUSH2 0x11F5 PUSH2 0x188C JUMP JUMPDEST DUP2 MSTORE PUSH1 0x20 ADD SWAP1 PUSH1 0x1 SWAP1 SUB SWAP1 DUP2 PUSH2 0x11ED JUMPI SWAP1 POP JUMPDEST POP SWAP1 POP PUSH0 JUMPDEST PUSH1 0x4 DUP1 SLOAD SWAP1 POP DUP2 LT ISZERO PUSH2 0x15AF JUMPI PUSH1 0x3 PUSH0 PUSH1 0x4 DUP4 DUP2 SLOAD DUP2 LT PUSH2 0x1231 JUMPI PUSH2 0x1230 PUSH2 0x2827 JUMP JUMPDEST JUMPDEST SWAP1 PUSH0 MSTORE PUSH1 0x20 PUSH0 KECCAK256 ADD SLOAD DUP2 MSTORE PUSH1 0x20 ADD SWAP1 DUP2 MSTORE PUSH1 0x20 ADD PUSH0 KECCAK256 PUSH1 0x40 MLOAD DUP1 PUSH2 0x160 ADD PUSH1 0x40 MSTORE SWAP1 DUP2 PUSH0 DUP3 ADD SLOAD DUP2 MSTORE PUSH1 0x20 ADD PUSH1 0x1 DUP3 ADD PUSH0 SWAP1 SLOAD SWAP1 PUSH2 0x100 EXP SWAP1 DIV PUSH20 0xFFFFFFFFFFFFFFFFFFFFFFFFFFFFFFFFFFFFFFFF AND PUSH20 0xFFFFFFFFFFFFFFFFFFFFFFFFFFFFFFFFFFFFFFFF AND PUSH20 0xFFFFFFFFFFFFFFFFFFFFFFFFFFFFFFFFFFFFFFFF AND DUP2 MSTORE PUSH1 0x20 ADD PUSH1 0x2 DUP3 ADD DUP1 SLOAD PUSH2 0x12C1 SWAP1 PUSH2 0x22A7 JUMP JUMPDEST DUP1 PUSH1 0x1F ADD PUSH1 0x20 DUP1 SWAP2 DIV MUL PUSH1 0x20 ADD PUSH1 0x40 MLOAD SWAP1 DUP2 ADD PUSH1 0x40 MSTORE DUP1 SWAP3 SWAP2 SWAP1 DUP2 DUP2 MSTORE PUSH1 0x20 ADD DUP3 DUP1 SLOAD PUSH2 0x12ED SWAP1 PUSH2 0x22A7 JUMP JUMPDEST DUP1 ISZERO PUSH2 0x1338 JUMPI DUP1 PUSH1 0x1F LT PUSH2 0x130F JUMPI PUSH2 0x100 DUP1 DUP4 SLOAD DIV MUL DUP4 MSTORE SWAP2 PUSH1 0x20 ADD SWAP2 PUSH2 0x1338 JUMP JUMPDEST DUP3 ADD SWAP2 SWAP1 PUSH0 MSTORE PUSH1 0x20 PUSH0 KECCAK256 SWAP1 JUMPDEST DUP2 SLOAD DUP2 MSTORE SWAP1 PUSH1 0x1 ADD SWAP1 PUSH1 0x20 ADD DUP1 DUP4 GT PUSH2 0x131B JUMPI DUP3 SWAP1 SUB PUSH1 0x1F AND DUP3 ADD SWAP2 JUMPDEST POP POP POP POP POP DUP2 MSTORE PUSH1 0x20 ADD PUSH1 0x3 DUP3 ADD DUP1 SLOAD PUSH2 0x1351 SWAP1 PUSH2 0x22A7 JUMP JUMPDEST DUP1 PUSH1 0x1F ADD PUSH1 0x20 DUP1 SWAP2 DIV MUL PUSH1 0x20 ADD PUSH1 0x40 MLOAD SWAP1 DUP2 ADD PUSH1 0x40 MSTORE DUP1 SWAP3 SWAP2 SWAP1 DUP2 DUP2 MSTORE PUSH1 0x20 ADD DUP3 DUP1 SLOAD PUSH2 0x137D SWAP1 PUSH2 0x22A7 JUMP JUMPDEST DUP1 ISZERO PUSH2 0x13C8 JUMPI DUP1 PUSH1 0x1F LT PUSH2 0x139F JUMPI PUSH2 0x100 DUP1 DUP4 SLOAD DIV MUL DUP4 MSTORE SWAP2 PUSH1 0x20 ADD SWAP2 PUSH2 0x13C8 JUMP JUMPDEST DUP3 ADD SWAP2 SWAP1 PUSH0 MSTORE PUSH1 0x20 PUSH0 KECCAK256 SWAP1 JUMPDEST DUP2 SLOAD DUP2 MSTORE SWAP1 PUSH1 0x1 ADD SWAP1 PUSH1 0x20 ADD DUP1 DUP4 GT PUSH2 0x13AB JUMPI DUP3 SWAP1 SUB PUSH1 0x1F AND DUP3 ADD SWAP2 JUMPDEST POP POP POP POP POP DUP2 MSTORE PUSH1 0x20 ADD PUSH1 0x4 DUP3 ADD DUP1 SLOAD PUSH2 0x13E1 SWAP1 PUSH2 0x22A7 JUMP JUMPDEST DUP1 PUSH1 0x1F ADD PUSH1 0x20 DUP1 SWAP2 DIV MUL PUSH1 0x20 ADD PUSH1 0x40 MLOAD SWAP1 DUP2 ADD PUSH1 0x40 MSTORE DUP1 SWAP3 SWAP2 SWAP1 DUP2 DUP2 MSTORE PUSH1 0x20 ADD DUP3 DUP1 SLOAD PUSH2 0x140D SWAP1 PUSH2 0x22A7 JUMP JUMPDEST DUP1 ISZERO PUSH2 0x1458 JUMPI DUP1 PUSH1 0x1F LT PUSH2 0x142F JUMPI PUSH2 0x100 DUP1 DUP4 SLOAD DIV MUL DUP4 MSTORE SWAP2 PUSH1 0x20 ADD SWAP2 PUSH2 0x1458 JUMP JUMPDEST DUP3 ADD SWAP2 SWAP1 PUSH0 MSTORE PUSH1 0x20 PUSH0 KECCAK256 SWAP1 JUMPDEST DUP2 SLOAD DUP2 MSTORE SWAP1 PUSH1 0x1 ADD SWAP1 PUSH1 0x20 ADD DUP1 DUP4 GT PUSH2 0x143B JUMPI DUP3 SWAP1 SUB PUSH1 0x1F AND DUP3 ADD SWAP2 JUMPDEST POP POP POP POP POP DUP2 MSTORE PUSH1 0x20 ADD PUSH1 0x5 DUP3 ADD DUP1 SLOAD PUSH2 0x1471 SWAP1 PUSH2 0x22A7 JUMP JUMPDEST DUP1 PUSH1 0x1F ADD PUSH1 0x20 DUP1 SWAP2 DIV MUL PUSH1 0x20 ADD PUSH1 0x40 MLOAD SWAP1 DUP2 ADD PUSH1 0x40 MSTORE DUP1 SWAP3 SWAP2 SWAP1 DUP2 DUP2 MSTORE PUSH1 0x20 ADD DUP3 DUP1 SLOAD PUSH2 0x149D SWAP1 PUSH2 0x22A7 JUMP JUMPDEST DUP1 ISZERO PUSH2 0x14E8 JUMPI DUP1 PUSH1 0x1F LT PUSH2 0x14BF JUMPI PUSH2 0x100 DUP1 DUP4 SLOAD DIV MUL DUP4 MSTORE SWAP2 PUSH1 0x20 ADD SWAP2 PUSH2 0x14E8 JUMP JUMPDEST DUP3 ADD SWAP2 SWAP1 PUSH0 MSTORE PUSH1 0x20 PUSH0 KECCAK256 SWAP1 JUMPDEST DUP2 SLOAD DUP2 MSTORE SWAP1 PUSH1 0x1 ADD SWAP1 PUSH1 0x20 ADD DUP1 DUP4 GT PUSH2 0x14CB JUMPI DUP3 SWAP1 SUB PUSH1 0x1F AND DUP3 ADD SWAP2 JUMPDEST POP POP POP POP POP DUP2 MSTORE PUSH1 0x20 ADD PUSH1 0x6 DUP3 ADD SLOAD DUP2 MSTORE PUSH1 0x20 ADD PUSH1 0x7 DUP3 ADD SLOAD DUP2 MSTORE PUSH1 0x20 ADD PUSH1 0x8 DUP3 ADD PUSH0 SWAP1 SLOAD SWAP1 PUSH2 0x100 EXP SWAP1 DIV PUSH20 0xFFFFFFFFFFFFFFFFFFFFFFFFFFFFFFFFFFFFFFFF AND PUSH20 0xFFFFFFFFFFFFFFFFFFFFFFFFFFFFFFFFFFFFFFFF AND PUSH20 0xFFFFFFFFFFFFFFFFFFFFFFFFFFFFFFFFFFFFFFFF AND DUP2 MSTORE PUSH1 0x20 ADD PUSH1 0x9 DUP3 ADD SLOAD DUP2 MSTORE PUSH1 0x20 ADD PUSH1 0xA DUP3 ADD PUSH0 SWAP1 SLOAD SWAP1 PUSH2 0x100 EXP SWAP1 DIV PUSH1 0xFF AND ISZERO ISZERO ISZERO ISZERO DUP2 MSTORE POP POP DUP3 DUP3 DUP2 MLOAD DUP2 LT PUSH2 0x1591 JUMPI PUSH2 0x1590 PUSH2 0x2827 JUMP JUMPDEST JUMPDEST PUSH1 0x20 MUL PUSH1 0x20 ADD ADD DUP2 SWAP1 MSTORE POP DUP1 DUP1 PUSH2 0x15A7 SWAP1 PUSH2 0x2854 JUMP JUMPDEST SWAP2 POP POP PUSH2 0x120D JUMP JUMPDEST POP DUP1 SWAP2 POP POP SWAP1 JUMP JUMPDEST PUSH0 PUSH1 0x3 PUSH0 DUP4 DUP2 MSTORE PUSH1 0x20 ADD SWAP1 DUP2 MSTORE PUSH1 0x20 ADD PUSH0 KECCAK256 SWAP1 POP DUP1 PUSH1 0x1 ADD PUSH0 SWAP1 SLOAD SWAP1 PUSH2 0x100 EXP SWAP1 DIV PUSH20 0xFFFFFFFFFFFFFFFFFFFFFFFFFFFFFFFFFFFFFFFF AND PUSH20 0xFFFFFFFFFFFFFFFFFFFFFFFFFFFFFFFFFFFFFFFF AND CALLER PUSH20 0xFFFFFFFFFFFFFFFFFFFFFFFFFFFFFFFFFFFFFFFF AND EQ PUSH2 0x165C JUMPI PUSH1 0x40 MLOAD PUSH32 0x8C379A000000000000000000000000000000000000000000000000000000000 DUP2 MSTORE PUSH1 0x4 ADD PUSH2 0x1653 SWAP1 PUSH2 0x290B JUMP JUMPDEST PUSH1 0x40 MLOAD DUP1 SWAP2 SUB SWAP1 REVERT JUMPDEST DUP1 PUSH1 0x9 ADD SLOAD TIMESTAMP LT ISZERO PUSH2 0x16A3 JUMPI PUSH1 0x40 MLOAD PUSH32 0x8C379A000000000000000000000000000000000000000000000000000000000 DUP2 MSTORE PUSH1 0x4 ADD PUSH2 0x169A SWAP1 PUSH2 0x2973 JUMP JUMPDEST PUSH1 0x40 MLOAD DUP1 SWAP2 SUB SWAP1 REVERT JUMPDEST DUP1 PUSH1 0xA ADD PUSH0 SWAP1 SLOAD SWAP1 PUSH2 0x100 EXP SWAP1 DIV PUSH1 0xFF AND ISZERO PUSH2 0x16F4 JUMPI PUSH1 0x40 MLOAD PUSH32 0x8C379A000000000000000000000000000000000000000000000000000000000 DUP2 MSTORE PUSH1 0x4 ADD PUSH2 0x16EB SWAP1 PUSH2 0x29DB JUMP JUMPDEST PUSH1 0x40 MLOAD DUP1 SWAP2 SUB SWAP1 REVERT JUMPDEST PUSH1 0x1 DUP2 PUSH1 0xA ADD PUSH0 PUSH2 0x100 EXP DUP2 SLOAD DUP2 PUSH1 0xFF MUL NOT AND SWAP1 DUP4 ISZERO ISZERO MUL OR SWAP1 SSTORE POP DUP1 PUSH1 0x1 ADD PUSH0 SWAP1 SLOAD SWAP1 PUSH2 0x100 EXP SWAP1 DIV PUSH20 0xFFFFFFFFFFFFFFFFFFFFFFFFFFFFFFFFFFFFFFFF AND PUSH20 0xFFFFFFFFFFFFFFFFFFFFFFFFFFFFFFFFFFFFFFFF AND PUSH2 0x8FC DUP3 PUSH1 0x7 ADD SLOAD SWAP1 DUP2 ISZERO MUL SWAP1 PUSH1 0x40 MLOAD PUSH0 PUSH1 0x40 MLOAD DUP1 DUP4 SUB DUP2 DUP6 DUP9 DUP9 CALL SWAP4 POP POP POP POP ISZERO DUP1 ISZERO PUSH2 0x177A JUMPI RETURNDATASIZE PUSH0 DUP1 RETURNDATACOPY RETURNDATASIZE PUSH0 REVERT JUMPDEST POP PUSH2 0x1785 PUSH1 0x1 PUSH2 0x1834 JUMP JUMPDEST PUSH2 0x178F PUSH1 0x2 PUSH2 0x1814 JUMP JUMPDEST DUP2 PUSH32 0xD2AA34A4FDBBC6DFF6A3E56F46E0F3AE2A31D7785FF3487AA5C95C642ACEA501 DUP3 PUSH1 0x8 ADD PUSH0 SWAP1 SLOAD SWAP1 PUSH2 0x100 EXP SWAP1 DIV PUSH20 0xFFFFFFFFFFFFFFFFFFFFFFFFFFFFFFFFFFFFFFFF AND DUP4 PUSH1 0x7 ADD SLOAD PUSH1 0x40 MLOAD PUSH2 0x17E8 SWAP3 SWAP2 SWAP1 PUSH2 0x2A4B JUMP JUMPDEST PUSH1 0x40 MLOAD DUP1 SWAP2 SUB SWAP1 LOG2 POP POP JUMP JUMPDEST PUSH0 PUSH2 0x17FF PUSH1 0x1 PUSH2 0x1828 JUMP JUMPDEST SWAP1 POP SWAP1 JUMP JUMPDEST PUSH0 PUSH2 0x180F PUSH1 0x2 PUSH2 0x1828 JUMP JUMPDEST SWAP1 POP SWAP1 JUMP JUMPDEST PUSH1 0x1 DUP2 PUSH0 ADD PUSH0 DUP3 DUP3 SLOAD ADD SWAP3 POP POP DUP2 SWAP1 SSTORE POP POP JUMP JUMPDEST PUSH0 DUP2 PUSH0 ADD SLOAD SWAP1 POP SWAP2 SWAP1 POP JUMP JUMPDEST PUSH0 DUP2 PUSH0 ADD SLOAD SWAP1 POP PUSH0 DUP2 GT PUSH2 0x187D JUMPI PUSH1 0x40 MLOAD PUSH32 0x8C379A000000000000000000000000000000000000000000000000000000000 DUP2 MSTORE PUSH1 0x4 ADD PUSH2 0x1874 SWAP1 PUSH2 0x2ABC JUMP JUMPDEST PUSH1 0x40 MLOAD DUP1 SWAP2 SUB SWAP1 REVERT JUMPDEST PUSH1 0x1 DUP2 SUB DUP3 PUSH0 ADD DUP2 SWAP1 SSTORE POP POP POP JUMP JUMPDEST PUSH1 0x40 MLOAD DUP1 PUSH2 0x160 ADD PUSH1 0x40 MSTORE DUP1 PUSH0 DUP2 MSTORE PUSH1 0x20 ADD PUSH0 PUSH20 0xFFFFFFFFFFFFFFFFFFFFFFFFFFFFFFFFFFFFFFFF AND DUP2 MSTORE PUSH1 0x20 ADD PUSH1 0x60 DUP2 MSTORE PUSH1 0x20 ADD PUSH1 0x60 DUP2 MSTORE PUSH1 0x20 ADD PUSH1 0x60 DUP2 MSTORE PUSH1 0x20 ADD PUSH1 0x60 DUP2 MSTORE PUSH1 0x20 ADD PUSH0 DUP2 MSTORE PUSH1 0x20 ADD PUSH0 DUP2 MSTORE PUSH1 0x20 ADD PUSH0 PUSH20 0xFFFFFFFFFFFFFFFFFFFFFFFFFFFFFFFFFFFFFFFF AND DUP2 MSTORE PUSH1 0x20 ADD PUSH0 DUP2 MSTORE PUSH1 0x20 ADD PUSH0 ISZERO ISZERO DUP2 MSTORE POP SWAP1 JUMP JUMPDEST PUSH0 PUSH1 0x40 MLOAD SWAP1 POP SWAP1 JUMP JUMPDEST PUSH0 DUP1 REVERT JUMPDEST PUSH0 DUP1 REVERT JUMPDEST PUSH0 DUP1 REVERT JUMPDEST PUSH0 DUP1 REVERT JUMPDEST PUSH0 PUSH1 0x1F NOT PUSH1 0x1F DUP4 ADD AND SWAP1 POP SWAP2 SWAP1 POP JUMP JUMPDEST PUSH32 0x4E487B7100000000000000000000000000000000000000000000000000000000 PUSH0 MSTORE PUSH1 0x41 PUSH1 0x4 MSTORE PUSH1 0x24 PUSH0 REVERT JUMPDEST PUSH2 0x196C DUP3 PUSH2 0x1926 JUMP JUMPDEST DUP2 ADD DUP2 DUP2 LT PUSH8 0xFFFFFFFFFFFFFFFF DUP3 GT OR ISZERO PUSH2 0x198B JUMPI PUSH2 0x198A PUSH2 0x1936 JUMP JUMPDEST JUMPDEST DUP1 PUSH1 0x40 MSTORE POP POP POP JUMP JUMPDEST PUSH0 PUSH2 0x199D PUSH2 0x190D JUMP JUMPDEST SWAP1 POP PUSH2 0x19A9 DUP3 DUP3 PUSH2 0x1963 JUMP JUMPDEST SWAP2 SWAP1 POP JUMP JUMPDEST PUSH0 PUSH8 0xFFFFFFFFFFFFFFFF DUP3 GT ISZERO PUSH2 0x19C8 JUMPI PUSH2 0x19C7 PUSH2 0x1936 JUMP JUMPDEST JUMPDEST PUSH2 0x19D1 DUP3 PUSH2 0x1926 JUMP JUMPDEST SWAP1 POP PUSH1 0x20 DUP2 ADD SWAP1 POP SWAP2 SWAP1 POP JUMP JUMPDEST DUP3 DUP2 DUP4 CALLDATACOPY PUSH0 DUP4 DUP4 ADD MSTORE POP POP POP JUMP JUMPDEST PUSH0 PUSH2 0x19FE PUSH2 0x19F9 DUP5 PUSH2 0x19AE JUMP JUMPDEST PUSH2 0x1994 JUMP JUMPDEST SWAP1 POP DUP3 DUP2 MSTORE PUSH1 0x20 DUP2 ADD DUP5 DUP5 DUP5 ADD GT ISZERO PUSH2 0x1A1A JUMPI PUSH2 0x1A19 PUSH2 0x1922 JUMP JUMPDEST JUMPDEST PUSH2 0x1A25 DUP5 DUP3 DUP6 PUSH2 0x19DE JUMP JUMPDEST POP SWAP4 SWAP3 POP POP POP JUMP JUMPDEST PUSH0 DUP3 PUSH1 0x1F DUP4 ADD SLT PUSH2 0x1A41 JUMPI PUSH2 0x1A40 PUSH2 0x191E JUMP JUMPDEST JUMPDEST DUP2 CALLDATALOAD PUSH2 0x1A51 DUP5 DUP3 PUSH1 0x20 DUP7 ADD PUSH2 0x19EC JUMP JUMPDEST SWAP2 POP POP SWAP3 SWAP2 POP POP JUMP JUMPDEST PUSH0 DUP2 SWAP1 POP SWAP2 SWAP1 POP JUMP JUMPDEST PUSH2 0x1A6C DUP2 PUSH2 0x1A5A JUMP JUMPDEST DUP2 EQ PUSH2 0x1A76 JUMPI PUSH0 DUP1 REVERT JUMPDEST POP JUMP JUMPDEST PUSH0 DUP2 CALLDATALOAD SWAP1 POP PUSH2 0x1A87 DUP2 PUSH2 0x1A63 JUMP JUMPDEST SWAP3 SWAP2 POP POP JUMP JUMPDEST PUSH0 DUP1 PUSH0 DUP1 PUSH0 DUP1 PUSH1 0xC0 DUP8 DUP10 SUB SLT ISZERO PUSH2 0x1AA7 JUMPI PUSH2 0x1AA6 PUSH2 0x1916 JUMP JUMPDEST JUMPDEST PUSH0 DUP8 ADD CALLDATALOAD PUSH8 0xFFFFFFFFFFFFFFFF DUP2 GT ISZERO PUSH2 0x1AC4 JUMPI PUSH2 0x1AC3 PUSH2 0x191A JUMP JUMPDEST JUMPDEST PUSH2 0x1AD0 DUP10 DUP3 DUP11 ADD PUSH2 0x1A2D JUMP JUMPDEST SWAP7 POP POP PUSH1 0x20 DUP8 ADD CALLDATALOAD PUSH8 0xFFFFFFFFFFFFFFFF DUP2 GT ISZERO PUSH2 0x1AF1 JUMPI PUSH2 0x1AF0 PUSH2 0x191A JUMP JUMPDEST JUMPDEST PUSH2 0x1AFD DUP10 DUP3 DUP11 ADD PUSH2 0x1A2D JUMP JUMPDEST SWAP6 POP POP PUSH1 0x40 DUP8 ADD CALLDATALOAD PUSH8 0xFFFFFFFFFFFFFFFF DUP2 GT ISZERO PUSH2 0x1B1E JUMPI PUSH2 0x1B1D PUSH2 0x191A JUMP JUMPDEST JUMPDEST PUSH2 0x1B2A DUP10 DUP3 DUP11 ADD PUSH2 0x1A2D JUMP JUMPDEST SWAP5 POP POP PUSH1 0x60 DUP8 ADD CALLDATALOAD PUSH8 0xFFFFFFFFFFFFFFFF DUP2 GT ISZERO PUSH2 0x1B4B JUMPI PUSH2 0x1B4A PUSH2 0x191A JUMP JUMPDEST JUMPDEST PUSH2 0x1B57 DUP10 DUP3 DUP11 ADD PUSH2 0x1A2D JUMP JUMPDEST SWAP4 POP POP PUSH1 0x80 PUSH2 0x1B68 DUP10 DUP3 DUP11 ADD PUSH2 0x1A79 JUMP JUMPDEST SWAP3 POP POP PUSH1 0xA0 PUSH2 0x1B79 DUP10 DUP3 DUP11 ADD PUSH2 0x1A79 JUMP JUMPDEST SWAP2 POP POP SWAP3 SWAP6 POP SWAP3 SWAP6 POP SWAP3 SWAP6 JUMP JUMPDEST PUSH0 DUP1 PUSH0 PUSH1 0x60 DUP5 DUP7 SUB SLT ISZERO PUSH2 0x1B9D JUMPI PUSH2 0x1B9C PUSH2 0x1916 JUMP JUMPDEST JUMPDEST PUSH0 PUSH2 0x1BAA DUP7 DUP3 DUP8 ADD PUSH2 0x1A79 JUMP JUMPDEST SWAP4 POP POP PUSH1 0x20 PUSH2 0x1BBB DUP7 DUP3 DUP8 ADD PUSH2 0x1A79 JUMP JUMPDEST SWAP3 POP POP PUSH1 0x40 PUSH2 0x1BCC DUP7 DUP3 DUP8 ADD PUSH2 0x1A79 JUMP JUMPDEST SWAP2 POP POP SWAP3 POP SWAP3 POP SWAP3 JUMP JUMPDEST PUSH2 0x1BDF DUP2 PUSH2 0x1A5A JUMP JUMPDEST DUP3 MSTORE POP POP JUMP JUMPDEST PUSH0 PUSH1 0x20 DUP3 ADD SWAP1 POP PUSH2 0x1BF8 PUSH0 DUP4 ADD DUP5 PUSH2 0x1BD6 JUMP JUMPDEST SWAP3 SWAP2 POP POP JUMP JUMPDEST PUSH0 PUSH1 0x20 DUP3 DUP5 SUB SLT ISZERO PUSH2 0x1C13 JUMPI PUSH2 0x1C12 PUSH2 0x1916 JUMP JUMPDEST JUMPDEST PUSH0 PUSH2 0x1C20 DUP5 DUP3 DUP6 ADD PUSH2 0x1A79 JUMP JUMPDEST SWAP2 POP POP SWAP3 SWAP2 POP POP JUMP JUMPDEST PUSH2 0x1C32 DUP2 PUSH2 0x1A5A JUMP JUMPDEST DUP3 MSTORE POP POP JUMP JUMPDEST PUSH0 PUSH20 0xFFFFFFFFFFFFFFFFFFFFFFFFFFFFFFFFFFFFFFFF DUP3 AND SWAP1 POP SWAP2 SWAP1 POP JUMP JUMPDEST PUSH0 PUSH2 0x1C61 DUP3 PUSH2 0x1C38 JUMP JUMPDEST SWAP1 POP SWAP2 SWAP1 POP JUMP JUMPDEST PUSH2 0x1C71 DUP2 PUSH2 0x1C57 JUMP JUMPDEST DUP3 MSTORE POP POP JUMP JUMPDEST PUSH0 DUP2 MLOAD SWAP1 POP SWAP2 SWAP1 POP JUMP JUMPDEST PUSH0 DUP3 DUP3 MSTORE PUSH1 0x20 DUP3 ADD SWAP1 POP SWAP3 SWAP2 POP POP JUMP JUMPDEST PUSH0 JUMPDEST DUP4 DUP2 LT ISZERO PUSH2 0x1CAE JUMPI DUP1 DUP3 ADD MLOAD DUP2 DUP5 ADD MSTORE PUSH1 0x20 DUP2 ADD SWAP1 POP PUSH2 0x1C93 JUMP JUMPDEST PUSH0 DUP5 DUP5 ADD MSTORE POP POP POP POP JUMP JUMPDEST PUSH0 PUSH2 0x1CC3 DUP3 PUSH2 0x1C77 JUMP JUMPDEST PUSH2 0x1CCD DUP2 DUP6 PUSH2 0x1C81 JUMP JUMPDEST SWAP4 POP PUSH2 0x1CDD DUP2 DUP6 PUSH1 0x20 DUP7 ADD PUSH2 0x1C91 JUMP JUMPDEST PUSH2 0x1CE6 DUP2 PUSH2 0x1926 JUMP JUMPDEST DUP5 ADD SWAP2 POP POP SWAP3 SWAP2 POP POP JUMP JUMPDEST PUSH0 DUP2 ISZERO ISZERO SWAP1 POP SWAP2 SWAP1 POP JUMP JUMPDEST PUSH2 0x1D05 DUP2 PUSH2 0x1CF1 JUMP JUMPDEST DUP3 MSTORE POP POP JUMP JUMPDEST PUSH0 PUSH2 0x160 DUP4 ADD PUSH0 DUP4 ADD MLOAD PUSH2 0x1D21 PUSH0 DUP7 ADD DUP3 PUSH2 0x1C29 JUMP JUMPDEST POP PUSH1 0x20 DUP4 ADD MLOAD PUSH2 0x1D34 PUSH1 0x20 DUP7 ADD DUP3 PUSH2 0x1C68 JUMP JUMPDEST POP PUSH1 0x40 DUP4 ADD MLOAD DUP5 DUP3 SUB PUSH1 0x40 DUP7 ADD MSTORE PUSH2 0x1D4C DUP3 DUP3 PUSH2 0x1CB9 JUMP JUMPDEST SWAP2 POP POP PUSH1 0x60 DUP4 ADD MLOAD DUP5 DUP3 SUB PUSH1 0x60 DUP7 ADD MSTORE PUSH2 0x1D66 DUP3 DUP3 PUSH2 0x1CB9 JUMP JUMPDEST SWAP2 POP POP PUSH1 0x80 DUP4 ADD MLOAD DUP5 DUP3 SUB PUSH1 0x80 DUP7 ADD MSTORE PUSH2 0x1D80 DUP3 DUP3 PUSH2 0x1CB9 JUMP JUMPDEST SWAP2 POP POP PUSH1 0xA0 DUP4 ADD MLOAD DUP5 DUP3 SUB PUSH1 0xA0 DUP7 ADD MSTORE PUSH2 0x1D9A DUP3 DUP3 PUSH2 0x1CB9 JUMP JUMPDEST SWAP2 POP POP PUSH1 0xC0 DUP4 ADD MLOAD PUSH2 0x1DAF PUSH1 0xC0 DUP7 ADD DUP3 PUSH2 0x1C29 JUMP JUMPDEST POP PUSH1 0xE0 DUP4 ADD MLOAD PUSH2 0x1DC2 PUSH1 0xE0 DUP7 ADD DUP3 PUSH2 0x1C29 JUMP JUMPDEST POP PUSH2 0x100 DUP4 ADD MLOAD PUSH2 0x1DD7 PUSH2 0x100 DUP7 ADD DUP3 PUSH2 0x1C68 JUMP JUMPDEST POP PUSH2 0x120 DUP4 ADD MLOAD PUSH2 0x1DEC PUSH2 0x120 DUP7 ADD DUP3 PUSH2 0x1C29 JUMP JUMPDEST POP PUSH2 0x140 DUP4 ADD MLOAD PUSH2 0x1E01 PUSH2 0x140 DUP7 ADD DUP3 PUSH2 0x1CFC JUMP JUMPDEST POP DUP1 SWAP2 POP POP SWAP3 SWAP2 POP POP JUMP JUMPDEST PUSH0 PUSH1 0x20 DUP3 ADD SWAP1 POP DUP2 DUP2 SUB PUSH0 DUP4 ADD MSTORE PUSH2 0x1E24 DUP2 DUP5 PUSH2 0x1D0B JUMP JUMPDEST SWAP1 POP SWAP3 SWAP2 POP POP JUMP JUMPDEST PUSH2 0x1E35 DUP2 PUSH2 0x1C57 JUMP JUMPDEST DUP3 MSTORE POP POP JUMP JUMPDEST PUSH0 DUP3 DUP3 MSTORE PUSH1 0x20 DUP3 ADD SWAP1 POP SWAP3 SWAP2 POP POP JUMP JUMPDEST PUSH0 PUSH2 0x1E55 DUP3 PUSH2 0x1C77 JUMP JUMPDEST PUSH2 0x1E5F DUP2 DUP6 PUSH2 0x1E3B JUMP JUMPDEST SWAP4 POP PUSH2 0x1E6F DUP2 DUP6 PUSH1 0x20 DUP7 ADD PUSH2 0x1C91 JUMP JUMPDEST PUSH2 0x1E78 DUP2 PUSH2 0x1926 JUMP JUMPDEST DUP5 ADD SWAP2 POP POP SWAP3 SWAP2 POP POP JUMP JUMPDEST PUSH2 0x1E8C DUP2 PUSH2 0x1CF1 JUMP JUMPDEST DUP3 MSTORE POP POP JUMP JUMPDEST PUSH0 PUSH2 0x160 DUP3 ADD SWAP1 POP PUSH2 0x1EA6 PUSH0 DUP4 ADD DUP15 PUSH2 0x1BD6 JUMP JUMPDEST PUSH2 0x1EB3 PUSH1 0x20 DUP4 ADD DUP14 PUSH2 0x1E2C JUMP JUMPDEST DUP2 DUP2 SUB PUSH1 0x40 DUP4 ADD MSTORE PUSH2 0x1EC5 DUP2 DUP13 PUSH2 0x1E4B JUMP JUMPDEST SWAP1 POP DUP2 DUP2 SUB PUSH1 0x60 DUP4 ADD MSTORE PUSH2 0x1ED9 DUP2 DUP12 PUSH2 0x1E4B JUMP JUMPDEST SWAP1 POP DUP2 DUP2 SUB PUSH1 0x80 DUP4 ADD MSTORE PUSH2 0x1EED DUP2 DUP11 PUSH2 0x1E4B JUMP JUMPDEST SWAP1 POP DUP2 DUP2 SUB PUSH1 0xA0 DUP4 ADD MSTORE PUSH2 0x1F01 DUP2 DUP10 PUSH2 0x1E4B JUMP JUMPDEST SWAP1 POP PUSH2 0x1F10 PUSH1 0xC0 DUP4 ADD DUP9 PUSH2 0x1BD6 JUMP JUMPDEST PUSH2 0x1F1D PUSH1 0xE0 DUP4 ADD DUP8 PUSH2 0x1BD6 JUMP JUMPDEST PUSH2 0x1F2B PUSH2 0x100 DUP4 ADD DUP7 PUSH2 0x1E2C JUMP JUMPDEST PUSH2 0x1F39 PUSH2 0x120 DUP4 ADD DUP6 PUSH2 0x1BD6 JUMP JUMPDEST PUSH2 0x1F47 PUSH2 0x140 DUP4 ADD DUP5 PUSH2 0x1E83 JUMP JUMPDEST SWAP13 SWAP12 POP POP POP POP POP POP POP POP POP POP POP POP JUMP JUMPDEST PUSH0 DUP1 PUSH0 DUP1 PUSH0 PUSH1 0xA0 DUP7 DUP9 SUB SLT ISZERO PUSH2 0x1F70 JUMPI PUSH2 0x1F6F PUSH2 0x1916 JUMP JUMPDEST JUMPDEST PUSH0 PUSH2 0x1F7D DUP9 DUP3 DUP10 ADD PUSH2 0x1A79 JUMP JUMPDEST SWAP6 POP POP PUSH1 0x20 DUP7 ADD CALLDATALOAD PUSH8 0xFFFFFFFFFFFFFFFF DUP2 GT ISZERO PUSH2 0x1F9E JUMPI PUSH2 0x1F9D PUSH2 0x191A JUMP JUMPDEST JUMPDEST PUSH2 0x1FAA DUP9 DUP3 DUP10 ADD PUSH2 0x1A2D JUMP JUMPDEST SWAP5 POP POP PUSH1 0x40 DUP7 ADD CALLDATALOAD PUSH8 0xFFFFFFFFFFFFFFFF DUP2 GT ISZERO PUSH2 0x1FCB JUMPI PUSH2 0x1FCA PUSH2 0x191A JUMP JUMPDEST JUMPDEST PUSH2 0x1FD7 DUP9 DUP3 DUP10 ADD PUSH2 0x1A2D JUMP JUMPDEST SWAP4 POP POP PUSH1 0x60 DUP7 ADD CALLDATALOAD PUSH8 0xFFFFFFFFFFFFFFFF DUP2 GT ISZERO PUSH2 0x1FF8 JUMPI PUSH2 0x1FF7 PUSH2 0x191A JUMP JUMPDEST JUMPDEST PUSH2 0x2004 DUP9 DUP3 DUP10 ADD PUSH2 0x1A2D JUMP JUMPDEST SWAP3 POP POP PUSH1 0x80 DUP7 ADD CALLDATALOAD PUSH8 0xFFFFFFFFFFFFFFFF DUP2 GT ISZERO PUSH2 0x2025 JUMPI PUSH2 0x2024 PUSH2 0x191A JUMP JUMPDEST JUMPDEST PUSH2 0x2031 DUP9 DUP3 DUP10 ADD PUSH2 0x1A2D JUMP JUMPDEST SWAP2 POP POP SWAP3 SWAP6 POP SWAP3 SWAP6 SWAP1 SWAP4 POP JUMP JUMPDEST PUSH0 DUP2 MLOAD SWAP1 POP SWAP2 SWAP1 POP JUMP JUMPDEST PUSH0 DUP3 DUP3 MSTORE PUSH1 0x20 DUP3 ADD SWAP1 POP SWAP3 SWAP2 POP POP JUMP JUMPDEST PUSH0 DUP2 SWAP1 POP PUSH1 0x20 DUP3 ADD SWAP1 POP SWAP2 SWAP1 POP JUMP JUMPDEST PUSH0 PUSH2 0x160 DUP4 ADD PUSH0 DUP4 ADD MLOAD PUSH2 0x207D PUSH0 DUP7 ADD DUP3 PUSH2 0x1C29 JUMP JUMPDEST POP PUSH1 0x20 DUP4 ADD MLOAD PUSH2 0x2090 PUSH1 0x20 DUP7 ADD DUP3 PUSH2 0x1C68 JUMP JUMPDEST POP PUSH1 0x40 DUP4 ADD MLOAD DUP5 DUP3 SUB PUSH1 0x40 DUP7 ADD MSTORE PUSH2 0x20A8 DUP3 DUP3 PUSH2 0x1CB9 JUMP JUMPDEST SWAP2 POP POP PUSH1 0x60 DUP4 ADD MLOAD DUP5 DUP3 SUB PUSH1 0x60 DUP7 ADD MSTORE PUSH2 0x20C2 DUP3 DUP3 PUSH2 0x1CB9 JUMP JUMPDEST SWAP2 POP POP PUSH1 0x80 DUP4 ADD MLOAD DUP5 DUP3 SUB PUSH1 0x80 DUP7 ADD MSTORE PUSH2 0x20DC DUP3 DUP3 PUSH2 0x1CB9 JUMP JUMPDEST SWAP2 POP POP PUSH1 0xA0 DUP4 ADD MLOAD DUP5 DUP3 SUB PUSH1 0xA0 DUP7 ADD MSTORE PUSH2 0x20F6 DUP3 DUP3 PUSH2 0x1CB9 JUMP JUMPDEST SWAP2 POP POP PUSH1 0xC0 DUP4 ADD MLOAD PUSH2 0x210B PUSH1 0xC0 DUP7 ADD DUP3 PUSH2 0x1C29 JUMP JUMPDEST POP PUSH1 0xE0 DUP4 ADD MLOAD PUSH2 0x211E PUSH1 0xE0 DUP7 ADD DUP3 PUSH2 0x1C29 JUMP JUMPDEST POP PUSH2 0x100 DUP4 ADD MLOAD PUSH2 0x2133 PUSH2 0x100 DUP7 ADD DUP3 PUSH2 0x1C68 JUMP JUMPDEST POP PUSH2 0x120 DUP4 ADD MLOAD PUSH2 0x2148 PUSH2 0x120 DUP7 ADD DUP3 PUSH2 0x1C29 JUMP JUMPDEST POP PUSH2 0x140 DUP4 ADD MLOAD PUSH2 0x215D PUSH2 0x140 DUP7 ADD DUP3 PUSH2 0x1CFC JUMP JUMPDEST POP DUP1 SWAP2 POP POP SWAP3 SWAP2 POP POP JUMP JUMPDEST PUSH0 PUSH2 0x2173 DUP4 DUP4 PUSH2 0x2067 JUMP JUMPDEST SWAP1 POP SWAP3 SWAP2 POP POP JUMP JUMPDEST PUSH0 PUSH1 0x20 DUP3 ADD SWAP1 POP SWAP2 SWAP1 POP JUMP JUMPDEST PUSH0 PUSH2 0x2191 DUP3 PUSH2 0x203E JUMP JUMPDEST PUSH2 0x219B DUP2 DUP6 PUSH2 0x2048 JUMP JUMPDEST SWAP4 POP DUP4 PUSH1 0x20 DUP3 MUL DUP6 ADD PUSH2 0x21AD DUP6 PUSH2 0x2058 JUMP JUMPDEST DUP1 PUSH0 JUMPDEST DUP6 DUP2 LT ISZERO PUSH2 0x21E8 JUMPI DUP5 DUP5 SUB DUP10 MSTORE DUP2 MLOAD PUSH2 0x21C9 DUP6 DUP3 PUSH2 0x2168 JUMP JUMPDEST SWAP5 POP PUSH2 0x21D4 DUP4 PUSH2 0x217B JUMP JUMPDEST SWAP3 POP PUSH1 0x20 DUP11 ADD SWAP10 POP POP PUSH1 0x1 DUP2 ADD SWAP1 POP PUSH2 0x21B0 JUMP JUMPDEST POP DUP3 SWAP8 POP DUP8 SWAP6 POP POP POP POP POP POP SWAP3 SWAP2 POP POP JUMP JUMPDEST PUSH0 PUSH1 0x20 DUP3 ADD SWAP1 POP DUP2 DUP2 SUB PUSH0 DUP4 ADD MSTORE PUSH2 0x2212 DUP2 DUP5 PUSH2 0x2187 JUMP JUMPDEST SWAP1 POP SWAP3 SWAP2 POP POP JUMP JUMPDEST PUSH32 0x4E487B7100000000000000000000000000000000000000000000000000000000 PUSH0 MSTORE PUSH1 0x11 PUSH1 0x4 MSTORE PUSH1 0x24 PUSH0 REVERT JUMPDEST PUSH0 PUSH2 0x2251 DUP3 PUSH2 0x1A5A JUMP JUMPDEST SWAP2 POP PUSH2 0x225C DUP4 PUSH2 0x1A5A JUMP JUMPDEST SWAP3 POP DUP3 DUP3 ADD SWAP1 POP DUP1 DUP3 GT ISZERO PUSH2 0x2274 JUMPI PUSH2 0x2273 PUSH2 0x221A JUMP JUMPDEST JUMPDEST SWAP3 SWAP2 POP POP JUMP JUMPDEST PUSH32 0x4E487B7100000000000000000000000000000000000000000000000000000000 PUSH0 MSTORE PUSH1 0x22 PUSH1 0x4 MSTORE PUSH1 0x24 PUSH0 REVERT JUMPDEST PUSH0 PUSH1 0x2 DUP3 DIV SWAP1 POP PUSH1 0x1 DUP3 AND DUP1 PUSH2 0x22BE JUMPI PUSH1 0x7F DUP3 AND SWAP2 POP JUMPDEST PUSH1 0x20 DUP3 LT DUP2 SUB PUSH2 0x22D1 JUMPI PUSH2 0x22D0 PUSH2 0x227A JUMP JUMPDEST JUMPDEST POP SWAP2 SWAP1 POP JUMP JUMPDEST PUSH0 DUP2 SWAP1 POP DUP2 PUSH0 MSTORE PUSH1 0x20 PUSH0 KECCAK256 SWAP1 POP SWAP2 SWAP1 POP JUMP JUMPDEST PUSH0 PUSH1 0x20 PUSH1 0x1F DUP4 ADD DIV SWAP1 POP SWAP2 SWAP1 POP JUMP JUMPDEST PUSH0 DUP3 DUP3 SHL SWAP1 POP SWAP3 SWAP2 POP POP JUMP JUMPDEST PUSH0 PUSH1 0x8 DUP4 MUL PUSH2 0x2333 PUSH32 0xFFFFFFFFFFFFFFFFFFFFFFFFFFFFFFFFFFFFFFFFFFFFFFFFFFFFFFFFFFFFFFFF DUP3 PUSH2 0x22F8 JUMP JUMPDEST PUSH2 0x233D DUP7 DUP4 PUSH2 0x22F8 JUMP JUMPDEST SWAP6 POP DUP1 NOT DUP5 AND SWAP4 POP DUP1 DUP7 AND DUP5 OR SWAP3 POP POP POP SWAP4 SWAP3 POP POP POP JUMP JUMPDEST PUSH0 DUP2 SWAP1 POP SWAP2 SWAP1 POP JUMP JUMPDEST PUSH0 PUSH2 0x2378 PUSH2 0x2373 PUSH2 0x236E DUP5 PUSH2 0x1A5A JUMP JUMPDEST PUSH2 0x2355 JUMP JUMPDEST PUSH2 0x1A5A JUMP JUMPDEST SWAP1 POP SWAP2 SWAP1 POP JUMP JUMPDEST PUSH0 DUP2 SWAP1 POP SWAP2 SWAP1 POP JUMP JUMPDEST PUSH2 0x2391 DUP4 PUSH2 0x235E JUMP JUMPDEST PUSH2 0x23A5 PUSH2 0x239D DUP3 PUSH2 0x237F JUMP JUMPDEST DUP5 DUP5 SLOAD PUSH2 0x2304 JUMP JUMPDEST DUP3 SSTORE POP POP POP POP JUMP JUMPDEST PUSH0 SWAP1 JUMP JUMPDEST PUSH2 0x23B9 PUSH2 0x23AD JUMP JUMPDEST PUSH2 0x23C4 DUP2 DUP5 DUP5 PUSH2 0x2388 JUMP JUMPDEST POP POP POP JUMP JUMPDEST JUMPDEST DUP2 DUP2 LT ISZERO PUSH2 0x23E7 JUMPI PUSH2 0x23DC PUSH0 DUP3 PUSH2 0x23B1 JUMP JUMPDEST PUSH1 0x1 DUP2 ADD SWAP1 POP PUSH2 0x23CA JUMP JUMPDEST POP POP JUMP JUMPDEST PUSH1 0x1F DUP3 GT ISZERO PUSH2 0x242C JUMPI PUSH2 0x23FD DUP2 PUSH2 0x22D7 JUMP JUMPDEST PUSH2 0x2406 DUP5 PUSH2 0x22E9 JUMP JUMPDEST DUP2 ADD PUSH1 0x20 DUP6 LT ISZERO PUSH2 0x2415 JUMPI DUP2 SWAP1 POP JUMPDEST PUSH2 0x2429 PUSH2 0x2421 DUP6 PUSH2 0x22E9 JUMP JUMPDEST DUP4 ADD DUP3 PUSH2 0x23C9 JUMP JUMPDEST POP POP JUMPDEST POP POP POP JUMP JUMPDEST PUSH0 DUP3 DUP3 SHR SWAP1 POP SWAP3 SWAP2 POP POP JUMP JUMPDEST PUSH0 PUSH2 0x244C PUSH0 NOT DUP5 PUSH1 0x8 MUL PUSH2 0x2431 JUMP JUMPDEST NOT DUP1 DUP4 AND SWAP2 POP POP SWAP3 SWAP2 POP POP JUMP JUMPDEST PUSH0 PUSH2 0x2464 DUP4 DUP4 PUSH2 0x243D JUMP JUMPDEST SWAP2 POP DUP3 PUSH1 0x2 MUL DUP3 OR SWAP1 POP SWAP3 SWAP2 POP POP JUMP JUMPDEST PUSH2 0x247D DUP3 PUSH2 0x1C77 JUMP JUMPDEST PUSH8 0xFFFFFFFFFFFFFFFF DUP2 GT ISZERO PUSH2 0x2496 JUMPI PUSH2 0x2495 PUSH2 0x1936 JUMP JUMPDEST JUMPDEST PUSH2 0x24A0 DUP3 SLOAD PUSH2 0x22A7 JUMP JUMPDEST PUSH2 0x24AB DUP3 DUP3 DUP6 PUSH2 0x23EB JUMP JUMPDEST PUSH0 PUSH1 0x20 SWAP1 POP PUSH1 0x1F DUP4 GT PUSH1 0x1 DUP2 EQ PUSH2 0x24DC JUMPI PUSH0 DUP5 ISZERO PUSH2 0x24CA JUMPI DUP3 DUP8 ADD MLOAD SWAP1 POP JUMPDEST PUSH2 0x24D4 DUP6 DUP3 PUSH2 0x2459 JUMP JUMPDEST DUP7 SSTORE POP PUSH2 0x253B JUMP JUMPDEST PUSH1 0x1F NOT DUP5 AND PUSH2 0x24EA DUP7 PUSH2 0x22D7 JUMP JUMPDEST PUSH0 JUMPDEST DUP3 DUP2 LT ISZERO PUSH2 0x2511 JUMPI DUP5 DUP10 ADD MLOAD DUP3 SSTORE PUSH1 0x1 DUP3 ADD SWAP2 POP PUSH1 0x20 DUP6 ADD SWAP5 POP PUSH1 0x20 DUP2 ADD SWAP1 POP PUSH2 0x24EC JUMP JUMPDEST DUP7 DUP4 LT ISZERO PUSH2 0x252E JUMPI DUP5 DUP10 ADD MLOAD PUSH2 0x252A PUSH1 0x1F DUP10 AND DUP3 PUSH2 0x243D JUMP JUMPDEST DUP4 SSTORE POP JUMPDEST PUSH1 0x1 PUSH1 0x2 DUP9 MUL ADD DUP9 SSTORE POP POP POP JUMPDEST POP POP POP POP POP POP JUMP JUMPDEST PUSH0 PUSH1 0x60 DUP3 ADD SWAP1 POP DUP2 DUP2 SUB PUSH0 DUP4 ADD MSTORE PUSH2 0x255B DUP2 DUP7 PUSH2 0x1E4B JUMP JUMPDEST SWAP1 POP DUP2 DUP2 SUB PUSH1 0x20 DUP4 ADD MSTORE PUSH2 0x256F DUP2 DUP6 PUSH2 0x1E4B JUMP JUMPDEST SWAP1 POP PUSH2 0x257E PUSH1 0x40 DUP4 ADD DUP5 PUSH2 0x1BD6 JUMP JUMPDEST SWAP5 SWAP4 POP POP POP POP JUMP JUMPDEST PUSH32 0x4F6E6C7920746865206F776E65722063616E2075706461746520746865206175 PUSH0 DUP3 ADD MSTORE PUSH32 0x6374696F6E2064657461696C732E000000000000000000000000000000000000 PUSH1 0x20 DUP3 ADD MSTORE POP JUMP JUMPDEST PUSH0 PUSH2 0x25E0 PUSH1 0x2E DUP4 PUSH2 0x1E3B JUMP JUMPDEST SWAP2 POP PUSH2 0x25EB DUP3 PUSH2 0x2586 JUMP JUMPDEST PUSH1 0x40 DUP3 ADD SWAP1 POP SWAP2 SWAP1 POP JUMP JUMPDEST PUSH0 PUSH1 0x20 DUP3 ADD SWAP1 POP DUP2 DUP2 SUB PUSH0 DUP4 ADD MSTORE PUSH2 0x260D DUP2 PUSH2 0x25D4 JUMP JUMPDEST SWAP1 POP SWAP2 SWAP1 POP JUMP JUMPDEST PUSH0 PUSH1 0x40 DUP3 ADD SWAP1 POP PUSH2 0x2627 PUSH0 DUP4 ADD DUP6 PUSH2 0x1BD6 JUMP JUMPDEST PUSH2 0x2634 PUSH1 0x20 DUP4 ADD DUP5 PUSH2 0x1BD6 JUMP JUMPDEST SWAP4 SWAP3 POP POP POP JUMP JUMPDEST PUSH32 0x41756374696F6E2068617320656E6465642E0000000000000000000000000000 PUSH0 DUP3 ADD MSTORE POP JUMP JUMPDEST PUSH0 PUSH2 0x266F PUSH1 0x12 DUP4 PUSH2 0x1E3B JUMP JUMPDEST SWAP2 POP PUSH2 0x267A DUP3 PUSH2 0x263B JUMP JUMPDEST PUSH1 0x20 DUP3 ADD SWAP1 POP SWAP2 SWAP1 POP JUMP JUMPDEST PUSH0 PUSH1 0x20 DUP3 ADD SWAP1 POP DUP2 DUP2 SUB PUSH0 DUP4 ADD MSTORE PUSH2 0x269C DUP2 PUSH2 0x2663 JUMP JUMPDEST SWAP1 POP SWAP2 SWAP1 POP JUMP JUMPDEST PUSH32 0x426964206973206E6F74206869676820656E6F7567682E000000000000000000 PUSH0 DUP3 ADD MSTORE POP JUMP JUMPDEST PUSH0 PUSH2 0x26D7 PUSH1 0x17 DUP4 PUSH2 0x1E3B JUMP JUMPDEST SWAP2 POP PUSH2 0x26E2 DUP3 PUSH2 0x26A3 JUMP JUMPDEST PUSH1 0x20 DUP3 ADD SWAP1 POP SWAP2 SWAP1 POP JUMP JUMPDEST PUSH0 PUSH1 0x20 DUP3 ADD SWAP1 POP DUP2 DUP2 SUB PUSH0 DUP4 ADD MSTORE PUSH2 0x2704 DUP2 PUSH2 0x26CB JUMP JUMPDEST SWAP1 POP SWAP2 SWAP1 POP JUMP JUMPDEST PUSH32 0x496E697469616C206269642069732062656C6F7720746865207374617274696E PUSH0 DUP3 ADD MSTORE PUSH32 0x672070726963652E000000000000000000000000000000000000000000000000 PUSH1 0x20 DUP3 ADD MSTORE POP JUMP JUMPDEST PUSH0 PUSH2 0x2765 PUSH1 0x28 DUP4 PUSH2 0x1E3B JUMP JUMPDEST SWAP2 POP PUSH2 0x2770 DUP3 PUSH2 0x270B JUMP JUMPDEST PUSH1 0x40 DUP3 ADD SWAP1 POP SWAP2 SWAP1 POP JUMP JUMPDEST PUSH0 PUSH1 0x20 DUP3 ADD SWAP1 POP DUP2 DUP2 SUB PUSH0 DUP4 ADD MSTORE PUSH2 0x2792 DUP2 PUSH2 0x2759 JUMP JUMPDEST SWAP1 POP SWAP2 SWAP1 POP JUMP JUMPDEST PUSH32 0x4F6E6C7920746865206F776E65722063616E2075706461746520746865206172 PUSH0 DUP3 ADD MSTORE PUSH32 0x74776F726B2064657461696C732E000000000000000000000000000000000000 PUSH1 0x20 DUP3 ADD MSTORE POP JUMP JUMPDEST PUSH0 PUSH2 0x27F3 PUSH1 0x2E DUP4 PUSH2 0x1E3B JUMP JUMPDEST SWAP2 POP PUSH2 0x27FE DUP3 PUSH2 0x2799 JUMP JUMPDEST PUSH1 0x40 DUP3 ADD SWAP1 POP SWAP2 SWAP1 POP JUMP JUMPDEST PUSH0 PUSH1 0x20 DUP3 ADD SWAP1 POP DUP2 DUP2 SUB PUSH0 DUP4 ADD MSTORE PUSH2 0x2820 DUP2 PUSH2 0x27E7 JUMP JUMPDEST SWAP1 POP SWAP2 SWAP1 POP JUMP JUMPDEST PUSH32 0x4E487B7100000000000000000000000000000000000000000000000000000000 PUSH0 MSTORE PUSH1 0x32 PUSH1 0x4 MSTORE PUSH1 0x24 PUSH0 REVERT JUMPDEST PUSH0 PUSH2 0x285E DUP3 PUSH2 0x1A5A JUMP JUMPDEST SWAP2 POP PUSH32 0xFFFFFFFFFFFFFFFFFFFFFFFFFFFFFFFFFFFFFFFFFFFFFFFFFFFFFFFFFFFFFFFF DUP3 SUB PUSH2 0x2890 JUMPI PUSH2 0x288F PUSH2 0x221A JUMP JUMPDEST JUMPDEST PUSH1 0x1 DUP3 ADD SWAP1 POP SWAP2 SWAP1 POP JUMP JUMPDEST PUSH32 0x4F6E6C7920746865206F776E65722063616E20656E6420746865206175637469 PUSH0 DUP3 ADD MSTORE PUSH32 0x6F6E2E0000000000000000000000000000000000000000000000000000000000 PUSH1 0x20 DUP3 ADD MSTORE POP JUMP JUMPDEST PUSH0 PUSH2 0x28F5 PUSH1 0x23 DUP4 PUSH2 0x1E3B JUMP JUMPDEST SWAP2 POP PUSH2 0x2900 DUP3 PUSH2 0x289B JUMP JUMPDEST PUSH1 0x40 DUP3 ADD SWAP1 POP SWAP2 SWAP1 POP JUMP JUMPDEST PUSH0 PUSH1 0x20 DUP3 ADD SWAP1 POP DUP2 DUP2 SUB PUSH0 DUP4 ADD MSTORE PUSH2 0x2922 DUP2 PUSH2 0x28E9 JUMP JUMPDEST SWAP1 POP SWAP2 SWAP1 POP JUMP JUMPDEST PUSH32 0x41756374696F6E206973207374696C6C206F6E676F696E672E00000000000000 PUSH0 DUP3 ADD MSTORE POP JUMP JUMPDEST PUSH0 PUSH2 0x295D PUSH1 0x19 DUP4 PUSH2 0x1E3B JUMP JUMPDEST SWAP2 POP PUSH2 0x2968 DUP3 PUSH2 0x2929 JUMP JUMPDEST PUSH1 0x20 DUP3 ADD SWAP1 POP SWAP2 SWAP1 POP JUMP JUMPDEST PUSH0 PUSH1 0x20 DUP3 ADD SWAP1 POP DUP2 DUP2 SUB PUSH0 DUP4 ADD MSTORE PUSH2 0x298A DUP2 PUSH2 0x2951 JUMP JUMPDEST SWAP1 POP SWAP2 SWAP1 POP JUMP JUMPDEST PUSH32 0x41756374696F6E2068617320616C726561647920656E6465642E000000000000 PUSH0 DUP3 ADD MSTORE POP JUMP JUMPDEST PUSH0 PUSH2 0x29C5 PUSH1 0x1A DUP4 PUSH2 0x1E3B JUMP JUMPDEST SWAP2 POP PUSH2 0x29D0 DUP3 PUSH2 0x2991 JUMP JUMPDEST PUSH1 0x20 DUP3 ADD SWAP1 POP SWAP2 SWAP1 POP JUMP JUMPDEST PUSH0 PUSH1 0x20 DUP3 ADD SWAP1 POP DUP2 DUP2 SUB PUSH0 DUP4 ADD MSTORE PUSH2 0x29F2 DUP2 PUSH2 0x29B9 JUMP JUMPDEST SWAP1 POP SWAP2 SWAP1 POP JUMP JUMPDEST PUSH0 PUSH2 0x2A13 PUSH2 0x2A0E PUSH2 0x2A09 DUP5 PUSH2 0x1C38 JUMP JUMPDEST PUSH2 0x2355 JUMP JUMPDEST PUSH2 0x1C38 JUMP JUMPDEST SWAP1 POP SWAP2 SWAP1 POP JUMP JUMPDEST PUSH0 PUSH2 0x2A24 DUP3 PUSH2 0x29F9 JUMP JUMPDEST SWAP1 POP SWAP2 SWAP1 POP JUMP JUMPDEST PUSH0 PUSH2 0x2A35 DUP3 PUSH2 0x2A1A JUMP JUMPDEST SWAP1 POP SWAP2 SWAP1 POP JUMP JUMPDEST PUSH2 0x2A45 DUP2 PUSH2 0x2A2B JUMP JUMPDEST DUP3 MSTORE POP POP JUMP JUMPDEST PUSH0 PUSH1 0x40 DUP3 ADD SWAP1 POP PUSH2 0x2A5E PUSH0 DUP4 ADD DUP6 PUSH2 0x2A3C JUMP JUMPDEST PUSH2 0x2A6B PUSH1 0x20 DUP4 ADD DUP5 PUSH2 0x1BD6 JUMP JUMPDEST SWAP4 SWAP3 POP POP POP JUMP JUMPDEST PUSH32 0x436F756E7465723A2064656372656D656E74206F766572666C6F770000000000 PUSH0 DUP3 ADD MSTORE POP JUMP JUMPDEST PUSH0 PUSH2 0x2AA6 PUSH1 0x1B DUP4 PUSH2 0x1E3B JUMP JUMPDEST SWAP2 POP PUSH2 0x2AB1 DUP3 PUSH2 0x2A72 JUMP JUMPDEST PUSH1 0x20 DUP3 ADD SWAP1 POP SWAP2 SWAP1 POP JUMP JUMPDEST PUSH0 PUSH1 0x20 DUP3 ADD SWAP1 POP DUP2 DUP2 SUB PUSH0 DUP4 ADD MSTORE PUSH2 0x2AD3 DUP2 PUSH2 0x2A9A JUMP JUMPDEST SWAP1 POP SWAP2 SWAP1 POP JUMP INVALID LOG2 PUSH5 0x6970667358 0x22 SLT KECCAK256 0xB9 JUMPI 0xDB BYTE 0xCD 0xD5 0xE6 XOR SWAP10 MULMOD DELEGATECALL SWAP7 0x4A ADDMOD 0xBC 0xBD 0xBE 0xCC RETURNDATASIZE ADDRESS 0xEC 0xF DUP1 AND 0xB3 PUSH12 0x38BF9FA78DDB64736F6C6343 STOP ADDMOD ISZERO STOP CALLER "
		},
		"gasEstimates": {
			"creation": {
				"codeDepositCost": "2204800",
				"executionCost": "2351",
				"totalCost": "2207151"
			},
			"external": {
				"artworkIds(uint256)": "infinite",
				"artworks(uint256)": "infinite",
				"bid(uint256)": "infinite",
				"endAuction(uint256)": "infinite",
				"getAllArtworks()": "infinite",
				"getArtwork(uint256)": "infinite",
				"getBalance()": "379",
				"getNumberOfEndedAuctions()": "2567",
				"getNumberOfLiveAuctions()": "2545",
				"joinAuctionWithInitialBid(uint256)": "infinite",
				"listArtwork(string,string,string,string,uint256,uint256)": "infinite",
				"updateArtwork(uint256,string,string,string,string)": "infinite",
				"updateAuction(uint256,uint256,uint256)": "infinite"
			}
		},
		"methodIdentifiers": {
			"artworkIds(uint256)": "9805d485",
			"artworks(uint256)": "4b602673",
			"bid(uint256)": "454a2ab3",
			"endAuction(uint256)": "b9a2de3a",
			"getAllArtworks()": "9c0cc30c",
			"getArtwork(uint256)": "167ddf6e",
			"getBalance()": "12065fe0",
			"getNumberOfEndedAuctions()": "f94c8e98",
			"getNumberOfLiveAuctions()": "e5fc3350",
			"joinAuctionWithInitialBid(uint256)": "5d1a2ef0",
			"listArtwork(string,string,string,string,uint256,uint256)": "07f52e01",
			"updateArtwork(uint256,string,string,string,string)": "6fa68ae6",
			"updateAuction(uint256,uint256,uint256)": "0d856664"
		}
	},
	"abi": [
		{
			"anonymous": false,
			"inputs": [
				{
					"indexed": true,
					"internalType": "uint256",
					"name": "artworkId",
					"type": "uint256"
				},
				{
					"indexed": false,
					"internalType": "string",
					"name": "artistName",
					"type": "string"
				},
				{
					"indexed": false,
					"internalType": "string",
					"name": "creationDate",
					"type": "string"
				},
				{
					"indexed": false,
					"internalType": "uint256",
					"name": "startingPrice",
					"type": "uint256"
				}
			],
			"name": "ArtworkListed",
			"type": "event"
		},
		{
			"anonymous": false,
			"inputs": [
				{
					"indexed": true,
					"internalType": "uint256",
					"name": "artworkId",
					"type": "uint256"
				}
			],
			"name": "ArtworkUpdated",
			"type": "event"
		},
		{
			"anonymous": false,
			"inputs": [
				{
					"indexed": true,
					"internalType": "uint256",
					"name": "artworkId",
					"type": "uint256"
				},
				{
					"indexed": false,
					"internalType": "address",
					"name": "winner",
					"type": "address"
				},
				{
					"indexed": false,
					"internalType": "uint256",
					"name": "winningBid",
					"type": "uint256"
				}
			],
			"name": "AuctionEnded",
			"type": "event"
		},
		{
			"anonymous": false,
			"inputs": [
				{
					"indexed": true,
					"internalType": "uint256",
					"name": "artworkId",
					"type": "uint256"
				},
				{
					"indexed": false,
					"internalType": "uint256",
					"name": "newEndTime",
					"type": "uint256"
				},
				{
					"indexed": false,
					"internalType": "uint256",
					"name": "newStartingPrice",
					"type": "uint256"
				}
			],
			"name": "AuctionUpdated",
			"type": "event"
		},
		{
			"anonymous": false,
			"inputs": [
				{
					"indexed": true,
					"internalType": "uint256",
					"name": "artworkId",
					"type": "uint256"
				},
				{
					"indexed": true,
					"internalType": "address",
					"name": "bidder",
					"type": "address"
				},
				{
					"indexed": false,
					"internalType": "uint256",
					"name": "amount",
					"type": "uint256"
				}
			],
			"name": "NewBid",
			"type": "event"
		},
		{
			"inputs": [
				{
					"internalType": "uint256",
					"name": "",
					"type": "uint256"
				}
			],
			"name": "artworkIds",
			"outputs": [
				{
					"internalType": "uint256",
					"name": "",
					"type": "uint256"
				}
			],
			"stateMutability": "view",
			"type": "function"
		},
		{
			"inputs": [
				{
					"internalType": "uint256",
					"name": "",
					"type": "uint256"
				}
			],
			"name": "artworks",
			"outputs": [
				{
					"internalType": "uint256",
					"name": "id",
					"type": "uint256"
				},
				{
					"internalType": "address payable",
					"name": "owner",
					"type": "address"
				},
				{
					"internalType": "string",
					"name": "artistName",
					"type": "string"
				},
				{
					"internalType": "string",
					"name": "creationDate",
					"type": "string"
				},
				{
					"internalType": "string",
					"name": "medium",
					"type": "string"
				},
				{
					"internalType": "string",
					"name": "dimensions",
					"type": "string"
				},
				{
					"internalType": "uint256",
					"name": "startingPrice",
					"type": "uint256"
				},
				{
					"internalType": "uint256",
					"name": "currentBid",
					"type": "uint256"
				},
				{
					"internalType": "address payable",
					"name": "highestBidder",
					"type": "address"
				},
				{
					"internalType": "uint256",
					"name": "auctionEndTime",
					"type": "uint256"
				},
				{
					"internalType": "bool",
					"name": "auctionEnded",
					"type": "bool"
				}
			],
			"stateMutability": "view",
			"type": "function"
		},
		{
			"inputs": [
				{
					"internalType": "uint256",
					"name": "_artworkId",
					"type": "uint256"
				}
			],
			"name": "bid",
			"outputs": [],
			"stateMutability": "payable",
			"type": "function"
		},
		{
			"inputs": [
				{
					"internalType": "uint256",
					"name": "_artworkId",
					"type": "uint256"
				}
			],
			"name": "endAuction",
			"outputs": [],
			"stateMutability": "nonpayable",
			"type": "function"
		},
		{
			"inputs": [],
			"name": "getAllArtworks",
			"outputs": [
				{
					"components": [
						{
							"internalType": "uint256",
							"name": "id",
							"type": "uint256"
						},
						{
							"internalType": "address payable",
							"name": "owner",
							"type": "address"
						},
						{
							"internalType": "string",
							"name": "artistName",
							"type": "string"
						},
						{
							"internalType": "string",
							"name": "creationDate",
							"type": "string"
						},
						{
							"internalType": "string",
							"name": "medium",
							"type": "string"
						},
						{
							"internalType": "string",
							"name": "dimensions",
							"type": "string"
						},
						{
							"internalType": "uint256",
							"name": "startingPrice",
							"type": "uint256"
						},
						{
							"internalType": "uint256",
							"name": "currentBid",
							"type": "uint256"
						},
						{
							"internalType": "address payable",
							"name": "highestBidder",
							"type": "address"
						},
						{
							"internalType": "uint256",
							"name": "auctionEndTime",
							"type": "uint256"
						},
						{
							"internalType": "bool",
							"name": "auctionEnded",
							"type": "bool"
						}
					],
					"internalType": "struct ArtworkAuction.Artwork[]",
					"name": "",
					"type": "tuple[]"
				}
			],
			"stateMutability": "view",
			"type": "function"
		},
		{
			"inputs": [
				{
					"internalType": "uint256",
					"name": "_id",
					"type": "uint256"
				}
			],
			"name": "getArtwork",
			"outputs": [
				{
					"components": [
						{
							"internalType": "uint256",
							"name": "id",
							"type": "uint256"
						},
						{
							"internalType": "address payable",
							"name": "owner",
							"type": "address"
						},
						{
							"internalType": "string",
							"name": "artistName",
							"type": "string"
						},
						{
							"internalType": "string",
							"name": "creationDate",
							"type": "string"
						},
						{
							"internalType": "string",
							"name": "medium",
							"type": "string"
						},
						{
							"internalType": "string",
							"name": "dimensions",
							"type": "string"
						},
						{
							"internalType": "uint256",
							"name": "startingPrice",
							"type": "uint256"
						},
						{
							"internalType": "uint256",
							"name": "currentBid",
							"type": "uint256"
						},
						{
							"internalType": "address payable",
							"name": "highestBidder",
							"type": "address"
						},
						{
							"internalType": "uint256",
							"name": "auctionEndTime",
							"type": "uint256"
						},
						{
							"internalType": "bool",
							"name": "auctionEnded",
							"type": "bool"
						}
					],
					"internalType": "struct ArtworkAuction.Artwork",
					"name": "",
					"type": "tuple"
				}
			],
			"stateMutability": "view",
			"type": "function"
		},
		{
			"inputs": [],
			"name": "getBalance",
			"outputs": [
				{
					"internalType": "uint256",
					"name": "",
					"type": "uint256"
				}
			],
			"stateMutability": "view",
			"type": "function"
		},
		{
			"inputs": [],
			"name": "getNumberOfEndedAuctions",
			"outputs": [
				{
					"internalType": "uint256",
					"name": "",
					"type": "uint256"
				}
			],
			"stateMutability": "view",
			"type": "function"
		},
		{
			"inputs": [],
			"name": "getNumberOfLiveAuctions",
			"outputs": [
				{
					"internalType": "uint256",
					"name": "",
					"type": "uint256"
				}
			],
			"stateMutability": "view",
			"type": "function"
		},
		{
			"inputs": [
				{
					"internalType": "uint256",
					"name": "_artworkId",
					"type": "uint256"
				}
			],
			"name": "joinAuctionWithInitialBid",
			"outputs": [],
			"stateMutability": "payable",
			"type": "function"
		},
		{
			"inputs": [
				{
					"internalType": "string",
					"name": "_artistName",
					"type": "string"
				},
				{
					"internalType": "string",
					"name": "_creationDate",
					"type": "string"
				},
				{
					"internalType": "string",
					"name": "_medium",
					"type": "string"
				},
				{
					"internalType": "string",
					"name": "_dimensions",
					"type": "string"
				},
				{
					"internalType": "uint256",
					"name": "_startingPrice",
					"type": "uint256"
				},
				{
					"internalType": "uint256",
					"name": "_auctionDuration",
					"type": "uint256"
				}
			],
			"name": "listArtwork",
			"outputs": [],
			"stateMutability": "nonpayable",
			"type": "function"
		},
		{
			"inputs": [
				{
					"internalType": "uint256",
					"name": "_artworkId",
					"type": "uint256"
				},
				{
					"internalType": "string",
					"name": "_artistName",
					"type": "string"
				},
				{
					"internalType": "string",
					"name": "_creationDate",
					"type": "string"
				},
				{
					"internalType": "string",
					"name": "_medium",
					"type": "string"
				},
				{
					"internalType": "string",
					"name": "_dimensions",
					"type": "string"
				}
			],
			"name": "updateArtwork",
			"outputs": [],
			"stateMutability": "nonpayable",
			"type": "function"
		},
		{
			"inputs": [
				{
					"internalType": "uint256",
					"name": "_artworkId",
					"type": "uint256"
				},
				{
					"internalType": "uint256",
					"name": "_newEndTime",
					"type": "uint256"
				},
				{
					"internalType": "uint256",
					"name": "_newStartingPrice",
					"type": "uint256"
				}
			],
			"name": "updateAuction",
			"outputs": [],
			"stateMutability": "nonpayable",
			"type": "function"
		},
		{
			"stateMutability": "payable",
			"type": "receive"
		}
	]
}